{
  "contractName": "UniqueAsset",
  "abi": [
    {
      "inputs": [],
      "stateMutability": "nonpayable",
      "type": "constructor"
    },
    {
      "anonymous": false,
      "inputs": [
        {
          "indexed": true,
          "internalType": "address",
          "name": "owner",
          "type": "address"
        },
        {
          "indexed": true,
          "internalType": "address",
          "name": "approved",
          "type": "address"
        },
        {
          "indexed": true,
          "internalType": "uint256",
          "name": "tokenId",
          "type": "uint256"
        }
      ],
      "name": "Approval",
      "type": "event"
    },
    {
      "anonymous": false,
      "inputs": [
        {
          "indexed": true,
          "internalType": "address",
          "name": "owner",
          "type": "address"
        },
        {
          "indexed": true,
          "internalType": "address",
          "name": "operator",
          "type": "address"
        },
        {
          "indexed": false,
          "internalType": "bool",
          "name": "approved",
          "type": "bool"
        }
      ],
      "name": "ApprovalForAll",
      "type": "event"
    },
    {
      "anonymous": false,
      "inputs": [
        {
          "indexed": true,
          "internalType": "address",
          "name": "from",
          "type": "address"
        },
        {
          "indexed": true,
          "internalType": "address",
          "name": "to",
          "type": "address"
        },
        {
          "indexed": true,
          "internalType": "uint256",
          "name": "tokenId",
          "type": "uint256"
        }
      ],
      "name": "Transfer",
      "type": "event"
    },
    {
      "inputs": [
        {
          "internalType": "address",
          "name": "to",
          "type": "address"
        },
        {
          "internalType": "uint256",
          "name": "tokenId",
          "type": "uint256"
        }
      ],
      "name": "approve",
      "outputs": [],
      "stateMutability": "nonpayable",
      "type": "function"
    },
    {
      "inputs": [
        {
          "internalType": "address",
          "name": "owner",
          "type": "address"
        }
      ],
      "name": "balanceOf",
      "outputs": [
        {
          "internalType": "uint256",
          "name": "",
          "type": "uint256"
        }
      ],
      "stateMutability": "view",
      "type": "function",
      "constant": true
    },
    {
      "inputs": [
        {
          "internalType": "uint256",
          "name": "tokenId",
          "type": "uint256"
        }
      ],
      "name": "getApproved",
      "outputs": [
        {
          "internalType": "address",
          "name": "",
          "type": "address"
        }
      ],
      "stateMutability": "view",
      "type": "function",
      "constant": true
    },
    {
      "inputs": [
        {
          "internalType": "address",
          "name": "owner",
          "type": "address"
        },
        {
          "internalType": "address",
          "name": "operator",
          "type": "address"
        }
      ],
      "name": "isApprovedForAll",
      "outputs": [
        {
          "internalType": "bool",
          "name": "",
          "type": "bool"
        }
      ],
      "stateMutability": "view",
      "type": "function",
      "constant": true
    },
    {
      "inputs": [],
      "name": "name",
      "outputs": [
        {
          "internalType": "string",
          "name": "",
          "type": "string"
        }
      ],
      "stateMutability": "view",
      "type": "function",
      "constant": true
    },
    {
      "inputs": [
        {
          "internalType": "uint256",
          "name": "tokenId",
          "type": "uint256"
        }
      ],
      "name": "ownerOf",
      "outputs": [
        {
          "internalType": "address",
          "name": "",
          "type": "address"
        }
      ],
      "stateMutability": "view",
      "type": "function",
      "constant": true
    },
    {
      "inputs": [
        {
          "internalType": "address",
          "name": "from",
          "type": "address"
        },
        {
          "internalType": "address",
          "name": "to",
          "type": "address"
        },
        {
          "internalType": "uint256",
          "name": "tokenId",
          "type": "uint256"
        }
      ],
      "name": "safeTransferFrom",
      "outputs": [],
      "stateMutability": "nonpayable",
      "type": "function"
    },
    {
      "inputs": [
        {
          "internalType": "address",
          "name": "from",
          "type": "address"
        },
        {
          "internalType": "address",
          "name": "to",
          "type": "address"
        },
        {
          "internalType": "uint256",
          "name": "tokenId",
          "type": "uint256"
        },
        {
          "internalType": "bytes",
          "name": "_data",
          "type": "bytes"
        }
      ],
      "name": "safeTransferFrom",
      "outputs": [],
      "stateMutability": "nonpayable",
      "type": "function"
    },
    {
      "inputs": [
        {
          "internalType": "address",
          "name": "operator",
          "type": "address"
        },
        {
          "internalType": "bool",
          "name": "approved",
          "type": "bool"
        }
      ],
      "name": "setApprovalForAll",
      "outputs": [],
      "stateMutability": "nonpayable",
      "type": "function"
    },
    {
      "inputs": [
        {
          "internalType": "bytes4",
          "name": "interfaceId",
          "type": "bytes4"
        }
      ],
      "name": "supportsInterface",
      "outputs": [
        {
          "internalType": "bool",
          "name": "",
          "type": "bool"
        }
      ],
      "stateMutability": "view",
      "type": "function",
      "constant": true
    },
    {
      "inputs": [],
      "name": "symbol",
      "outputs": [
        {
          "internalType": "string",
          "name": "",
          "type": "string"
        }
      ],
      "stateMutability": "view",
      "type": "function",
      "constant": true
    },
    {
      "inputs": [
        {
          "internalType": "uint256",
          "name": "tokenId",
          "type": "uint256"
        }
      ],
      "name": "tokenURI",
      "outputs": [
        {
          "internalType": "string",
          "name": "",
          "type": "string"
        }
      ],
      "stateMutability": "view",
      "type": "function",
      "constant": true
    },
    {
      "inputs": [
        {
          "internalType": "address",
          "name": "from",
          "type": "address"
        },
        {
          "internalType": "address",
          "name": "to",
          "type": "address"
        },
        {
          "internalType": "uint256",
          "name": "tokenId",
          "type": "uint256"
        }
      ],
      "name": "transferFrom",
      "outputs": [],
      "stateMutability": "nonpayable",
      "type": "function"
    },
    {
      "inputs": [
        {
          "internalType": "address",
          "name": "recipient",
          "type": "address"
        },
        {
          "internalType": "string",
          "name": "hash",
          "type": "string"
        },
        {
          "internalType": "string",
          "name": "metadata",
          "type": "string"
        }
      ],
      "name": "awardItem",
      "outputs": [
        {
          "internalType": "uint256",
          "name": "",
          "type": "uint256"
        }
      ],
      "stateMutability": "nonpayable",
      "type": "function"
    }
  ],
  "bytecode": "0x60806040523480156200001157600080fd5b506040518060400160405280600b81526020017f556e6971756541737365740000000000000000000000000000000000000000008152506040518060400160405280600381526020017f554e410000000000000000000000000000000000000000000000000000000000815250816000908051906020019062000096929190620000b8565b508060019080519060200190620000af929190620000b8565b505050620001cd565b828054620000c69062000197565b90600052602060002090601f016020900481019282620000ea576000855562000136565b82601f106200010557805160ff191683800117855562000136565b8280016001018555821562000136579182015b828111156200013557825182559160200191906001019062000118565b5b50905062000145919062000149565b5090565b5b80821115620001645760008160009055506001016200014a565b5090565b7f4e487b7100000000000000000000000000000000000000000000000000000000600052602260045260246000fd5b60006002820490506001821680620001b057607f821691505b60208210811415620001c757620001c662000168565b5b50919050565b612c7d80620001dd6000396000f3fe608060405234801561001057600080fd5b50600436106100ea5760003560e01c806370a082311161008c578063a22cb46511610066578063a22cb4651461026f578063b88d4fde1461028b578063c87b56dd146102a7578063e985e9c5146102d7576100ea565b806370a08231146101f15780638bfaf1011461022157806395d89b4114610251576100ea565b8063095ea7b3116100c8578063095ea7b31461016d57806323b872dd1461018957806342842e0e146101a55780636352211e146101c1576100ea565b806301ffc9a7146100ef57806306fdde031461011f578063081812fc1461013d575b600080fd5b61010960048036038101906101049190611999565b610307565b60405161011691906119e1565b60405180910390f35b6101276103e9565b6040516101349190611a95565b60405180910390f35b61015760048036038101906101529190611aed565b61047b565b6040516101649190611b5b565b60405180910390f35b61018760048036038101906101829190611ba2565b610500565b005b6101a3600480360381019061019e9190611be2565b610618565b005b6101bf60048036038101906101ba9190611be2565b610678565b005b6101db60048036038101906101d69190611aed565b610698565b6040516101e89190611b5b565b60405180910390f35b61020b60048036038101906102069190611c35565b61074a565b6040516102189190611c71565b60405180910390f35b61023b60048036038101906102369190611dc1565b610802565b6040516102489190611c71565b60405180910390f35b6102596108af565b6040516102669190611a95565b60405180910390f35b61028960048036038101906102849190611e78565b610941565b005b6102a560048036038101906102a09190611f59565b610957565b005b6102c160048036038101906102bc9190611aed565b6109b9565b6040516102ce9190611a95565b60405180910390f35b6102f160048036038101906102ec9190611fdc565b610b0b565b6040516102fe91906119e1565b60405180910390f35b60007f80ac58cd000000000000000000000000000000000000000000000000000000007bffffffffffffffffffffffffffffffffffffffffffffffffffffffff1916827bffffffffffffffffffffffffffffffffffffffffffffffffffffffff191614806103d257507f5b5e139f000000000000000000000000000000000000000000000000000000007bffffffffffffffffffffffffffffffffffffffffffffffffffffffff1916827bffffffffffffffffffffffffffffffffffffffffffffffffffffffff1916145b806103e257506103e182610b9f565b5b9050919050565b6060600080546103f89061204b565b80601f01602080910402602001604051908101604052809291908181526020018280546104249061204b565b80156104715780601f1061044657610100808354040283529160200191610471565b820191906000526020600020905b81548152906001019060200180831161045457829003601f168201915b5050505050905090565b600061048682610c09565b6104c5576040517f08c379a00000000000000000000000000000000000000000000000000000000081526004016104bc906120ef565b60405180910390fd5b6004600083815260200190815260200160002060009054906101000a900473ffffffffffffffffffffffffffffffffffffffff169050919050565b600061050b82610698565b90508073ffffffffffffffffffffffffffffffffffffffff168373ffffffffffffffffffffffffffffffffffffffff16141561057c576040517f08c379a000000000000000000000000000000000000000000000000000000000815260040161057390612181565b60405180910390fd5b8073ffffffffffffffffffffffffffffffffffffffff1661059b610c75565b73ffffffffffffffffffffffffffffffffffffffff1614806105ca57506105c9816105c4610c75565b610b0b565b5b610609576040517f08c379a000000000000000000000000000000000000000000000000000000000815260040161060090612213565b60405180910390fd5b6106138383610c7d565b505050565b610629610623610c75565b82610d36565b610668576040517f08c379a000000000000000000000000000000000000000000000000000000000815260040161065f906122a5565b60405180910390fd5b610673838383610e14565b505050565b61069383838360405180602001604052806000815250610957565b505050565b6000806002600084815260200190815260200160002060009054906101000a900473ffffffffffffffffffffffffffffffffffffffff169050600073ffffffffffffffffffffffffffffffffffffffff168173ffffffffffffffffffffffffffffffffffffffff161415610741576040517f08c379a000000000000000000000000000000000000000000000000000000000815260040161073890612337565b60405180910390fd5b80915050919050565b60008073ffffffffffffffffffffffffffffffffffffffff168273ffffffffffffffffffffffffffffffffffffffff1614156107bb576040517f08c379a00000000000000000000000000000000000000000000000000000000081526004016107b2906123c9565b60405180910390fd5b600360008373ffffffffffffffffffffffffffffffffffffffff1673ffffffffffffffffffffffffffffffffffffffff168152602001908152602001600020549050919050565b600060016008846040516108169190612425565b908152602001604051809103902060009054906101000a900460ff1660ff16141561084057600080fd5b60016008846040516108529190612425565b908152602001604051809103902060006101000a81548160ff021916908360ff160217905550610882600761107b565b600061088e6007611091565b905061089a858261109f565b6108a48184611279565b809150509392505050565b6060600180546108be9061204b565b80601f01602080910402602001604051908101604052809291908181526020018280546108ea9061204b565b80156109375780601f1061090c57610100808354040283529160200191610937565b820191906000526020600020905b81548152906001019060200180831161091a57829003601f168201915b5050505050905090565b61095361094c610c75565b83836112ed565b5050565b610968610962610c75565b83610d36565b6109a7576040517f08c379a000000000000000000000000000000000000000000000000000000000815260040161099e906122a5565b60405180910390fd5b6109b38484848461145a565b50505050565b60606109c482610c09565b610a03576040517f08c379a00000000000000000000000000000000000000000000000000000000081526004016109fa906124ae565b60405180910390fd5b6000600660008481526020019081526020016000208054610a239061204b565b80601f0160208091040260200160405190810160405280929190818152602001828054610a4f9061204b565b8015610a9c5780601f10610a7157610100808354040283529160200191610a9c565b820191906000526020600020905b815481529060010190602001808311610a7f57829003601f168201915b505050505090506000610aad6114b6565b9050600081511415610ac3578192505050610b06565b600082511115610af8578082604051602001610ae09291906124ce565b60405160208183030381529060405292505050610b06565b610b01846114cd565b925050505b919050565b6000600560008473ffffffffffffffffffffffffffffffffffffffff1673ffffffffffffffffffffffffffffffffffffffff16815260200190815260200160002060008373ffffffffffffffffffffffffffffffffffffffff1673ffffffffffffffffffffffffffffffffffffffff16815260200190815260200160002060009054906101000a900460ff16905092915050565b60007f01ffc9a7000000000000000000000000000000000000000000000000000000007bffffffffffffffffffffffffffffffffffffffffffffffffffffffff1916827bffffffffffffffffffffffffffffffffffffffffffffffffffffffff1916149050919050565b60008073ffffffffffffffffffffffffffffffffffffffff166002600084815260200190815260200160002060009054906101000a900473ffffffffffffffffffffffffffffffffffffffff1673ffffffffffffffffffffffffffffffffffffffff1614159050919050565b600033905090565b816004600083815260200190815260200160002060006101000a81548173ffffffffffffffffffffffffffffffffffffffff021916908373ffffffffffffffffffffffffffffffffffffffff160217905550808273ffffffffffffffffffffffffffffffffffffffff16610cf083610698565b73ffffffffffffffffffffffffffffffffffffffff167f8c5be1e5ebec7d5bd14f71427d1e84f3dd0314c0f7b2291e5b200ac8c7c3b92560405160405180910390a45050565b6000610d4182610c09565b610d80576040517f08c379a0000000000000000000000000000000000000000000000000000000008152600401610d7790612564565b60405180910390fd5b6000610d8b83610698565b90508073ffffffffffffffffffffffffffffffffffffffff168473ffffffffffffffffffffffffffffffffffffffff161480610dfa57508373ffffffffffffffffffffffffffffffffffffffff16610de28461047b565b73ffffffffffffffffffffffffffffffffffffffff16145b80610e0b5750610e0a8185610b0b565b5b91505092915050565b8273ffffffffffffffffffffffffffffffffffffffff16610e3482610698565b73ffffffffffffffffffffffffffffffffffffffff1614610e8a576040517f08c379a0000000000000000000000000000000000000000000000000000000008152600401610e81906125f6565b60405180910390fd5b600073ffffffffffffffffffffffffffffffffffffffff168273ffffffffffffffffffffffffffffffffffffffff161415610efa576040517f08c379a0000000000000000000000000000000000000000000000000000000008152600401610ef190612688565b60405180910390fd5b610f05838383611574565b610f10600082610c7d565b6001600360008573ffffffffffffffffffffffffffffffffffffffff1673ffffffffffffffffffffffffffffffffffffffff1681526020019081526020016000206000828254610f6091906126d7565b925050819055506001600360008473ffffffffffffffffffffffffffffffffffffffff1673ffffffffffffffffffffffffffffffffffffffff1681526020019081526020016000206000828254610fb7919061270b565b92505081905550816002600083815260200190815260200160002060006101000a81548173ffffffffffffffffffffffffffffffffffffffff021916908373ffffffffffffffffffffffffffffffffffffffff160217905550808273ffffffffffffffffffffffffffffffffffffffff168473ffffffffffffffffffffffffffffffffffffffff167fddf252ad1be2c89b69c2b068fc378daa952ba7f163c4a11628f55a4df523b3ef60405160405180910390a4611076838383611579565b505050565b6001816000016000828254019250508190555050565b600081600001549050919050565b600073ffffffffffffffffffffffffffffffffffffffff168273ffffffffffffffffffffffffffffffffffffffff16141561110f576040517f08c379a0000000000000000000000000000000000000000000000000000000008152600401611106906127ad565b60405180910390fd5b61111881610c09565b15611158576040517f08c379a000000000000000000000000000000000000000000000000000000000815260040161114f90612819565b60405180910390fd5b61116460008383611574565b6001600360008473ffffffffffffffffffffffffffffffffffffffff1673ffffffffffffffffffffffffffffffffffffffff16815260200190815260200160002060008282546111b4919061270b565b92505081905550816002600083815260200190815260200160002060006101000a81548173ffffffffffffffffffffffffffffffffffffffff021916908373ffffffffffffffffffffffffffffffffffffffff160217905550808273ffffffffffffffffffffffffffffffffffffffff16600073ffffffffffffffffffffffffffffffffffffffff167fddf252ad1be2c89b69c2b068fc378daa952ba7f163c4a11628f55a4df523b3ef60405160405180910390a461127560008383611579565b5050565b61128282610c09565b6112c1576040517f08c379a00000000000000000000000000000000000000000000000000000000081526004016112b8906128ab565b60405180910390fd5b806006600084815260200190815260200160002090805190602001906112e892919061188a565b505050565b8173ffffffffffffffffffffffffffffffffffffffff168373ffffffffffffffffffffffffffffffffffffffff16141561135c576040517f08c379a000000000000000000000000000000000000000000000000000000000815260040161135390612917565b60405180910390fd5b80600560008573ffffffffffffffffffffffffffffffffffffffff1673ffffffffffffffffffffffffffffffffffffffff16815260200190815260200160002060008473ffffffffffffffffffffffffffffffffffffffff1673ffffffffffffffffffffffffffffffffffffffff16815260200190815260200160002060006101000a81548160ff0219169083151502179055508173ffffffffffffffffffffffffffffffffffffffff168373ffffffffffffffffffffffffffffffffffffffff167f17307eab39ab6107e8899845ad3d59bd9653f200f220920489ca2b5937696c318360405161144d91906119e1565b60405180910390a3505050565b611465848484610e14565b6114718484848461157e565b6114b0576040517f08c379a00000000000000000000000000000000000000000000000000000000081526004016114a7906129a9565b60405180910390fd5b50505050565b606060405180602001604052806000815250905090565b60606114d882610c09565b611517576040517f08c379a000000000000000000000000000000000000000000000000000000000815260040161150e90612a3b565b60405180910390fd5b60006115216114b6565b90506000815111611541576040518060200160405280600081525061156c565b8061154b84611706565b60405160200161155c9291906124ce565b6040516020818303038152906040525b915050919050565b505050565b505050565b600061159f8473ffffffffffffffffffffffffffffffffffffffff16611867565b156116f9578373ffffffffffffffffffffffffffffffffffffffff1663150b7a026115c8610c75565b8786866040518563ffffffff1660e01b81526004016115ea9493929190612ab0565b6020604051808303816000875af192505050801561162657506040513d601f19601f820116820180604052508101906116239190612b11565b60015b6116a9573d8060008114611656576040519150601f19603f3d011682016040523d82523d6000602084013e61165b565b606091505b506000815114156116a1576040517f08c379a0000000000000000000000000000000000000000000000000000000008152600401611698906129a9565b60405180910390fd5b805181602001fd5b63150b7a0260e01b7bffffffffffffffffffffffffffffffffffffffffffffffffffffffff1916817bffffffffffffffffffffffffffffffffffffffffffffffffffffffff1916149150506116fe565b600190505b949350505050565b6060600082141561174e576040518060400160405280600181526020017f30000000000000000000000000000000000000000000000000000000000000008152509050611862565b600082905060005b6000821461178057808061176990612b3e565b915050600a826117799190612bb6565b9150611756565b60008167ffffffffffffffff81111561179c5761179b611c96565b5b6040519080825280601f01601f1916602001820160405280156117ce5781602001600182028036833780820191505090505b5090505b6000851461185b576001826117e791906126d7565b9150600a856117f69190612be7565b6030611802919061270b565b60f81b81838151811061181857611817612c18565b5b60200101907effffffffffffffffffffffffffffffffffffffffffffffffffffffffffffff1916908160001a905350600a856118549190612bb6565b94506117d2565b8093505050505b919050565b6000808273ffffffffffffffffffffffffffffffffffffffff163b119050919050565b8280546118969061204b565b90600052602060002090601f0160209004810192826118b857600085556118ff565b82601f106118d157805160ff19168380011785556118ff565b828001600101855582156118ff579182015b828111156118fe5782518255916020019190600101906118e3565b5b50905061190c9190611910565b5090565b5b80821115611929576000816000905550600101611911565b5090565b6000604051905090565b600080fd5b600080fd5b60007fffffffff0000000000000000000000000000000000000000000000000000000082169050919050565b61197681611941565b811461198157600080fd5b50565b6000813590506119938161196d565b92915050565b6000602082840312156119af576119ae611937565b5b60006119bd84828501611984565b91505092915050565b60008115159050919050565b6119db816119c6565b82525050565b60006020820190506119f660008301846119d2565b92915050565b600081519050919050565b600082825260208201905092915050565b60005b83811015611a36578082015181840152602081019050611a1b565b83811115611a45576000848401525b50505050565b6000601f19601f8301169050919050565b6000611a67826119fc565b611a718185611a07565b9350611a81818560208601611a18565b611a8a81611a4b565b840191505092915050565b60006020820190508181036000830152611aaf8184611a5c565b905092915050565b6000819050919050565b611aca81611ab7565b8114611ad557600080fd5b50565b600081359050611ae781611ac1565b92915050565b600060208284031215611b0357611b02611937565b5b6000611b1184828501611ad8565b91505092915050565b600073ffffffffffffffffffffffffffffffffffffffff82169050919050565b6000611b4582611b1a565b9050919050565b611b5581611b3a565b82525050565b6000602082019050611b706000830184611b4c565b92915050565b611b7f81611b3a565b8114611b8a57600080fd5b50565b600081359050611b9c81611b76565b92915050565b60008060408385031215611bb957611bb8611937565b5b6000611bc785828601611b8d565b9250506020611bd885828601611ad8565b9150509250929050565b600080600060608486031215611bfb57611bfa611937565b5b6000611c0986828701611b8d565b9350506020611c1a86828701611b8d565b9250506040611c2b86828701611ad8565b9150509250925092565b600060208284031215611c4b57611c4a611937565b5b6000611c5984828501611b8d565b91505092915050565b611c6b81611ab7565b82525050565b6000602082019050611c866000830184611c62565b92915050565b600080fd5b600080fd5b7f4e487b7100000000000000000000000000000000000000000000000000000000600052604160045260246000fd5b611cce82611a4b565b810181811067ffffffffffffffff82111715611ced57611cec611c96565b5b80604052505050565b6000611d0061192d565b9050611d0c8282611cc5565b919050565b600067ffffffffffffffff821115611d2c57611d2b611c96565b5b611d3582611a4b565b9050602081019050919050565b82818337600083830152505050565b6000611d64611d5f84611d11565b611cf6565b905082815260208101848484011115611d8057611d7f611c91565b5b611d8b848285611d42565b509392505050565b600082601f830112611da857611da7611c8c565b5b8135611db8848260208601611d51565b91505092915050565b600080600060608486031215611dda57611dd9611937565b5b6000611de886828701611b8d565b935050602084013567ffffffffffffffff811115611e0957611e0861193c565b5b611e1586828701611d93565b925050604084013567ffffffffffffffff811115611e3657611e3561193c565b5b611e4286828701611d93565b9150509250925092565b611e55816119c6565b8114611e6057600080fd5b50565b600081359050611e7281611e4c565b92915050565b60008060408385031215611e8f57611e8e611937565b5b6000611e9d85828601611b8d565b9250506020611eae85828601611e63565b9150509250929050565b600067ffffffffffffffff821115611ed357611ed2611c96565b5b611edc82611a4b565b9050602081019050919050565b6000611efc611ef784611eb8565b611cf6565b905082815260208101848484011115611f1857611f17611c91565b5b611f23848285611d42565b509392505050565b600082601f830112611f4057611f3f611c8c565b5b8135611f50848260208601611ee9565b91505092915050565b60008060008060808587031215611f7357611f72611937565b5b6000611f8187828801611b8d565b9450506020611f9287828801611b8d565b9350506040611fa387828801611ad8565b925050606085013567ffffffffffffffff811115611fc457611fc361193c565b5b611fd087828801611f2b565b91505092959194509250565b60008060408385031215611ff357611ff2611937565b5b600061200185828601611b8d565b925050602061201285828601611b8d565b9150509250929050565b7f4e487b7100000000000000000000000000000000000000000000000000000000600052602260045260246000fd5b6000600282049050600182168061206357607f821691505b602082108114156120775761207661201c565b5b50919050565b7f4552433732313a20617070726f76656420717565727920666f72206e6f6e657860008201527f697374656e7420746f6b656e0000000000000000000000000000000000000000602082015250565b60006120d9602c83611a07565b91506120e48261207d565b604082019050919050565b60006020820190508181036000830152612108816120cc565b9050919050565b7f4552433732313a20617070726f76616c20746f2063757272656e74206f776e6560008201527f7200000000000000000000000000000000000000000000000000000000000000602082015250565b600061216b602183611a07565b91506121768261210f565b604082019050919050565b6000602082019050818103600083015261219a8161215e565b9050919050565b7f4552433732313a20617070726f76652063616c6c6572206973206e6f74206f7760008201527f6e6572206e6f7220617070726f76656420666f7220616c6c0000000000000000602082015250565b60006121fd603883611a07565b9150612208826121a1565b604082019050919050565b6000602082019050818103600083015261222c816121f0565b9050919050565b7f4552433732313a207472616e736665722063616c6c6572206973206e6f74206f60008201527f776e6572206e6f7220617070726f766564000000000000000000000000000000602082015250565b600061228f603183611a07565b915061229a82612233565b604082019050919050565b600060208201905081810360008301526122be81612282565b9050919050565b7f4552433732313a206f776e657220717565727920666f72206e6f6e657869737460008201527f656e7420746f6b656e0000000000000000000000000000000000000000000000602082015250565b6000612321602983611a07565b915061232c826122c5565b604082019050919050565b6000602082019050818103600083015261235081612314565b9050919050565b7f4552433732313a2062616c616e636520717565727920666f7220746865207a6560008201527f726f206164647265737300000000000000000000000000000000000000000000602082015250565b60006123b3602a83611a07565b91506123be82612357565b604082019050919050565b600060208201905081810360008301526123e2816123a6565b9050919050565b600081905092915050565b60006123ff826119fc565b61240981856123e9565b9350612419818560208601611a18565b80840191505092915050565b600061243182846123f4565b915081905092915050565b7f45524337323155524953746f726167653a2055524920717565727920666f722060008201527f6e6f6e6578697374656e7420746f6b656e000000000000000000000000000000602082015250565b6000612498603183611a07565b91506124a38261243c565b604082019050919050565b600060208201905081810360008301526124c78161248b565b9050919050565b60006124da82856123f4565b91506124e682846123f4565b91508190509392505050565b7f4552433732313a206f70657261746f7220717565727920666f72206e6f6e657860008201527f697374656e7420746f6b656e0000000000000000000000000000000000000000602082015250565b600061254e602c83611a07565b9150612559826124f2565b604082019050919050565b6000602082019050818103600083015261257d81612541565b9050919050565b7f4552433732313a207472616e736665722066726f6d20696e636f72726563742060008201527f6f776e6572000000000000000000000000000000000000000000000000000000602082015250565b60006125e0602583611a07565b91506125eb82612584565b604082019050919050565b6000602082019050818103600083015261260f816125d3565b9050919050565b7f4552433732313a207472616e7366657220746f20746865207a65726f2061646460008201527f7265737300000000000000000000000000000000000000000000000000000000602082015250565b6000612672602483611a07565b915061267d82612616565b604082019050919050565b600060208201905081810360008301526126a181612665565b9050919050565b7f4e487b7100000000000000000000000000000000000000000000000000000000600052601160045260246000fd5b60006126e282611ab7565b91506126ed83611ab7565b925082821015612700576126ff6126a8565b5b828203905092915050565b600061271682611ab7565b915061272183611ab7565b9250827fffffffffffffffffffffffffffffffffffffffffffffffffffffffffffffffff03821115612756576127556126a8565b5b828201905092915050565b7f4552433732313a206d696e7420746f20746865207a65726f2061646472657373600082015250565b6000612797602083611a07565b91506127a282612761565b602082019050919050565b600060208201905081810360008301526127c68161278a565b9050919050565b7f4552433732313a20746f6b656e20616c7265616479206d696e74656400000000600082015250565b6000612803601c83611a07565b915061280e826127cd565b602082019050919050565b60006020820190508181036000830152612832816127f6565b9050919050565b7f45524337323155524953746f726167653a2055524920736574206f66206e6f6e60008201527f6578697374656e7420746f6b656e000000000000000000000000000000000000602082015250565b6000612895602e83611a07565b91506128a082612839565b604082019050919050565b600060208201905081810360008301526128c481612888565b9050919050565b7f4552433732313a20617070726f766520746f2063616c6c657200000000000000600082015250565b6000612901601983611a07565b915061290c826128cb565b602082019050919050565b60006020820190508181036000830152612930816128f4565b9050919050565b7f4552433732313a207472616e7366657220746f206e6f6e20455243373231526560008201527f63656976657220696d706c656d656e7465720000000000000000000000000000602082015250565b6000612993603283611a07565b915061299e82612937565b604082019050919050565b600060208201905081810360008301526129c281612986565b9050919050565b7f4552433732314d657461646174613a2055524920717565727920666f72206e6f60008201527f6e6578697374656e7420746f6b656e0000000000000000000000000000000000602082015250565b6000612a25602f83611a07565b9150612a30826129c9565b604082019050919050565b60006020820190508181036000830152612a5481612a18565b9050919050565b600081519050919050565b600082825260208201905092915050565b6000612a8282612a5b565b612a8c8185612a66565b9350612a9c818560208601611a18565b612aa581611a4b565b840191505092915050565b6000608082019050612ac56000830187611b4c565b612ad26020830186611b4c565b612adf6040830185611c62565b8181036060830152612af18184612a77565b905095945050505050565b600081519050612b0b8161196d565b92915050565b600060208284031215612b2757612b26611937565b5b6000612b3584828501612afc565b91505092915050565b6000612b4982611ab7565b91507fffffffffffffffffffffffffffffffffffffffffffffffffffffffffffffffff821415612b7c57612b7b6126a8565b5b600182019050919050565b7f4e487b7100000000000000000000000000000000000000000000000000000000600052601260045260246000fd5b6000612bc182611ab7565b9150612bcc83611ab7565b925082612bdc57612bdb612b87565b5b828204905092915050565b6000612bf282611ab7565b9150612bfd83611ab7565b925082612c0d57612c0c612b87565b5b828206905092915050565b7f4e487b7100000000000000000000000000000000000000000000000000000000600052603260045260246000fdfea2646970667358221220918a7cd297e07db695f14b348b3de6bf7954a59a28826148a559ac8714fd776664736f6c634300080b0033",
  "immutableReferences": {},
  "source": "// SPDX-License-Identifier: MIT\r\npragma solidity >=0.4.22 <0.9.0;\r\n\r\nimport \"../node_modules/@openzeppelin/contracts/token/ERC721/extensions/ERC721URIStorage.sol\";\r\nimport \"../node_modules/@openzeppelin/contracts/utils/Counters.sol\";\r\n\r\ncontract UniqueAsset is ERC721URIStorage{\r\n    //Counters to help us increment the identifiers for the tokens we mint.\r\n    //  () .  \r\n  using Counters for Counters.Counter;\r\n    //to keep track of all of the tokens weve issued.\r\n  Counters.Counter private _tokenIds;\r\n    //mapping for the IPFS hashes associated with tokens. \r\n  mapping(string => uint8) hashes;\r\n\r\n   constructor() ERC721(\"UniqueAsset\", \"UNA\") {}\r\n\r\n\r\n// IPFS  mint mint \r\n// a method to our contract that will allow us to mint an NFT for a specific IPFS hash if not token has been minted yet for that hash\r\n                           //nft//NFT    IPFS  //  JSON     \r\nfunction awardItem(address recipient, string memory hash, string memory metadata) public returns (uint256)\r\n{\r\n\r\n  require(hashes[hash] != 1);\r\n  hashes[hash] = 1;\r\n  _tokenIds.increment();\r\n  uint256 newItemId = _tokenIds.current();\r\n  _mint(recipient, newItemId);\r\n  _setTokenURI(newItemId, metadata);\r\n  return newItemId;\r\n}\r\n}",
  "sourcePath": "C:\\Users\\syusm\\OneDrive\\\\GitHub\\solidity\\PracTeamYun\\mySpecialAsset\\contracts\\UniqueAsset.sol",
  "compiler": {
    "name": "solc",
    "version": "0.8.11+commit.d7f03943.Emscripten.clang"
  },
  "schemaVersion": "3.4.5",
  "updatedAt": "2022-03-01T15:00:48.944Z",
  "networkType": "ethereum",
  "devdoc": {
    "kind": "dev",
    "methods": {
      "approve(address,uint256)": {
        "details": "See {IERC721-approve}."
      },
      "balanceOf(address)": {
        "details": "See {IERC721-balanceOf}."
      },
      "getApproved(uint256)": {
        "details": "See {IERC721-getApproved}."
      },
      "isApprovedForAll(address,address)": {
        "details": "See {IERC721-isApprovedForAll}."
      },
      "name()": {
        "details": "See {IERC721Metadata-name}."
      },
      "ownerOf(uint256)": {
        "details": "See {IERC721-ownerOf}."
      },
      "safeTransferFrom(address,address,uint256)": {
        "details": "See {IERC721-safeTransferFrom}."
      },
      "safeTransferFrom(address,address,uint256,bytes)": {
        "details": "See {IERC721-safeTransferFrom}."
      },
      "setApprovalForAll(address,bool)": {
        "details": "See {IERC721-setApprovalForAll}."
      },
      "supportsInterface(bytes4)": {
        "details": "See {IERC165-supportsInterface}."
      },
      "symbol()": {
        "details": "See {IERC721Metadata-symbol}."
      },
      "tokenURI(uint256)": {
        "details": "See {IERC721Metadata-tokenURI}."
      },
      "transferFrom(address,address,uint256)": {
        "details": "See {IERC721-transferFrom}."
      }
    },
    "version": 1
  },
  "userdoc": {
    "kind": "user",
    "methods": {},
    "version": 1
  }
}