{
  "contractName": "ConstContract",
  "abi": [
    {
      "anonymous": false,
      "inputs": [
        {
          "indexed": true,
          "internalType": "address",
          "name": "owner",
          "type": "address"
        },
        {
          "indexed": true,
          "internalType": "address",
          "name": "approved",
          "type": "address"
        },
        {
          "indexed": true,
          "internalType": "uint256",
          "name": "tokenId",
          "type": "uint256"
        }
      ],
      "name": "Approval",
      "type": "event"
    },
    {
      "anonymous": false,
      "inputs": [
        {
          "indexed": true,
          "internalType": "address",
          "name": "owner",
          "type": "address"
        },
        {
          "indexed": true,
          "internalType": "address",
          "name": "operator",
          "type": "address"
        },
        {
          "indexed": false,
          "internalType": "bool",
          "name": "approved",
          "type": "bool"
        }
      ],
      "name": "ApprovalForAll",
      "type": "event"
    },
    {
      "anonymous": false,
      "inputs": [
        {
          "indexed": false,
          "internalType": "address",
          "name": "user",
          "type": "address"
        },
        {
          "indexed": false,
          "internalType": "uint256",
          "name": "amount",
          "type": "uint256"
        }
      ],
      "name": "ClaimFunds",
      "type": "event"
    },
    {
      "anonymous": false,
      "inputs": [
        {
          "indexed": false,
          "internalType": "uint256",
          "name": "offerId",
          "type": "uint256"
        },
        {
          "indexed": false,
          "internalType": "uint256",
          "name": "id",
          "type": "uint256"
        },
        {
          "indexed": false,
          "internalType": "address",
          "name": "user",
          "type": "address"
        },
        {
          "indexed": false,
          "internalType": "uint256",
          "name": "price",
          "type": "uint256"
        },
        {
          "indexed": false,
          "internalType": "bool",
          "name": "fulfilled",
          "type": "bool"
        },
        {
          "indexed": false,
          "internalType": "bool",
          "name": "cancelled",
          "type": "bool"
        }
      ],
      "name": "Offer",
      "type": "event"
    },
    {
      "anonymous": false,
      "inputs": [
        {
          "indexed": false,
          "internalType": "uint256",
          "name": "offerId",
          "type": "uint256"
        },
        {
          "indexed": false,
          "internalType": "uint256",
          "name": "id",
          "type": "uint256"
        },
        {
          "indexed": false,
          "internalType": "address",
          "name": "owner",
          "type": "address"
        }
      ],
      "name": "OfferCancelled",
      "type": "event"
    },
    {
      "anonymous": false,
      "inputs": [
        {
          "indexed": false,
          "internalType": "uint256",
          "name": "offerId",
          "type": "uint256"
        },
        {
          "indexed": false,
          "internalType": "uint256",
          "name": "id",
          "type": "uint256"
        },
        {
          "indexed": false,
          "internalType": "address",
          "name": "newOwner",
          "type": "address"
        }
      ],
      "name": "OfferFilled",
      "type": "event"
    },
    {
      "anonymous": false,
      "inputs": [
        {
          "indexed": true,
          "internalType": "address",
          "name": "from",
          "type": "address"
        },
        {
          "indexed": true,
          "internalType": "address",
          "name": "to",
          "type": "address"
        },
        {
          "indexed": true,
          "internalType": "uint256",
          "name": "tokenId",
          "type": "uint256"
        }
      ],
      "name": "Transfer",
      "type": "event"
    },
    {
      "stateMutability": "nonpayable",
      "type": "fallback"
    },
    {
      "inputs": [
        {
          "internalType": "address",
          "name": "to",
          "type": "address"
        },
        {
          "internalType": "uint256",
          "name": "tokenId",
          "type": "uint256"
        }
      ],
      "name": "approve",
      "outputs": [],
      "stateMutability": "nonpayable",
      "type": "function"
    },
    {
      "inputs": [
        {
          "internalType": "uint256",
          "name": "",
          "type": "uint256"
        }
      ],
      "name": "auctions",
      "outputs": [
        {
          "internalType": "uint256",
          "name": "imageID",
          "type": "uint256"
        },
        {
          "internalType": "uint256",
          "name": "startBid",
          "type": "uint256"
        },
        {
          "internalType": "uint256",
          "name": "highestBid",
          "type": "uint256"
        },
        {
          "internalType": "address payable",
          "name": "winner",
          "type": "address"
        },
        {
          "internalType": "uint256",
          "name": "endTime",
          "type": "uint256"
        },
        {
          "internalType": "bool",
          "name": "ended",
          "type": "bool"
        },
        {
          "internalType": "bool",
          "name": "claimed",
          "type": "bool"
        }
      ],
      "stateMutability": "view",
      "type": "function",
      "constant": true
    },
    {
      "inputs": [
        {
          "internalType": "address",
          "name": "owner",
          "type": "address"
        }
      ],
      "name": "balanceOf",
      "outputs": [
        {
          "internalType": "uint256",
          "name": "",
          "type": "uint256"
        }
      ],
      "stateMutability": "view",
      "type": "function",
      "constant": true
    },
    {
      "inputs": [
        {
          "internalType": "uint256",
          "name": "_tokenID",
          "type": "uint256"
        },
        {
          "internalType": "uint256",
          "name": "_minBid",
          "type": "uint256"
        },
        {
          "internalType": "uint256",
          "name": "_duration",
          "type": "uint256"
        }
      ],
      "name": "beginAuction",
      "outputs": [
        {
          "internalType": "bool",
          "name": "success",
          "type": "bool"
        }
      ],
      "stateMutability": "nonpayable",
      "type": "function"
    },
    {
      "inputs": [
        {
          "internalType": "uint256",
          "name": "auctionID",
          "type": "uint256"
        },
        {
          "internalType": "uint256",
          "name": "newBid",
          "type": "uint256"
        }
      ],
      "name": "bid",
      "outputs": [
        {
          "internalType": "bool",
          "name": "success",
          "type": "bool"
        }
      ],
      "stateMutability": "nonpayable",
      "type": "function"
    },
    {
      "inputs": [
        {
          "internalType": "uint256",
          "name": "auctionID",
          "type": "uint256"
        }
      ],
      "name": "claim",
      "outputs": [],
      "stateMutability": "payable",
      "type": "function",
      "payable": true
    },
    {
      "inputs": [],
      "name": "currentImageCount",
      "outputs": [
        {
          "internalType": "uint256",
          "name": "",
          "type": "uint256"
        }
      ],
      "stateMutability": "view",
      "type": "function",
      "constant": true
    },
    {
      "inputs": [
        {
          "internalType": "uint256",
          "name": "auctionID",
          "type": "uint256"
        }
      ],
      "name": "endAuction",
      "outputs": [
        {
          "internalType": "bool",
          "name": "success",
          "type": "bool"
        }
      ],
      "stateMutability": "nonpayable",
      "type": "function"
    },
    {
      "inputs": [
        {
          "internalType": "uint256",
          "name": "tokenId",
          "type": "uint256"
        }
      ],
      "name": "getApproved",
      "outputs": [
        {
          "internalType": "address",
          "name": "",
          "type": "address"
        }
      ],
      "stateMutability": "view",
      "type": "function",
      "constant": true
    },
    {
      "inputs": [
        {
          "internalType": "address",
          "name": "owner",
          "type": "address"
        }
      ],
      "name": "getOwnedNumber",
      "outputs": [
        {
          "internalType": "uint256",
          "name": "",
          "type": "uint256"
        }
      ],
      "stateMutability": "view",
      "type": "function",
      "constant": true
    },
    {
      "inputs": [
        {
          "internalType": "uint256",
          "name": "_tokenID",
          "type": "uint256"
        }
      ],
      "name": "getTokenOnwer",
      "outputs": [
        {
          "internalType": "address",
          "name": "",
          "type": "address"
        }
      ],
      "stateMutability": "view",
      "type": "function",
      "constant": true
    },
    {
      "inputs": [
        {
          "internalType": "uint256",
          "name": "_tokenID",
          "type": "uint256"
        }
      ],
      "name": "getTokenURI",
      "outputs": [
        {
          "internalType": "string",
          "name": "",
          "type": "string"
        }
      ],
      "stateMutability": "view",
      "type": "function",
      "constant": true
    },
    {
      "inputs": [
        {
          "internalType": "uint256",
          "name": "",
          "type": "uint256"
        }
      ],
      "name": "imageStorage",
      "outputs": [
        {
          "internalType": "uint256",
          "name": "tokenID",
          "type": "uint256"
        },
        {
          "internalType": "string",
          "name": "tokenName",
          "type": "string"
        },
        {
          "internalType": "string",
          "name": "tokenURI",
          "type": "string"
        },
        {
          "internalType": "address",
          "name": "mintedBy",
          "type": "address"
        },
        {
          "internalType": "address",
          "name": "currentOwner",
          "type": "address"
        },
        {
          "internalType": "uint256",
          "name": "transferTime",
          "type": "uint256"
        },
        {
          "internalType": "uint256",
          "name": "highestBidPrice",
          "type": "uint256"
        },
        {
          "internalType": "enum ImageNFT.Status",
          "name": "status",
          "type": "uint8"
        }
      ],
      "stateMutability": "view",
      "type": "function",
      "constant": true
    },
    {
      "inputs": [
        {
          "internalType": "address",
          "name": "owner",
          "type": "address"
        },
        {
          "internalType": "address",
          "name": "operator",
          "type": "address"
        }
      ],
      "name": "isApprovedForAll",
      "outputs": [
        {
          "internalType": "bool",
          "name": "",
          "type": "bool"
        }
      ],
      "stateMutability": "view",
      "type": "function",
      "constant": true
    },
    {
      "inputs": [
        {
          "internalType": "string",
          "name": "imageName",
          "type": "string"
        },
        {
          "internalType": "string",
          "name": "ipfsHashOfPhoto",
          "type": "string"
        }
      ],
      "name": "mintImageNFT",
      "outputs": [
        {
          "internalType": "bool",
          "name": "",
          "type": "bool"
        }
      ],
      "stateMutability": "nonpayable",
      "type": "function"
    },
    {
      "inputs": [],
      "name": "name",
      "outputs": [
        {
          "internalType": "string",
          "name": "",
          "type": "string"
        }
      ],
      "stateMutability": "view",
      "type": "function",
      "constant": true
    },
    {
      "inputs": [],
      "name": "offerCount",
      "outputs": [
        {
          "internalType": "uint256",
          "name": "",
          "type": "uint256"
        }
      ],
      "stateMutability": "view",
      "type": "function",
      "constant": true
    },
    {
      "inputs": [
        {
          "internalType": "uint256",
          "name": "",
          "type": "uint256"
        }
      ],
      "name": "offers",
      "outputs": [
        {
          "internalType": "uint256",
          "name": "offerId",
          "type": "uint256"
        },
        {
          "internalType": "uint256",
          "name": "id",
          "type": "uint256"
        },
        {
          "internalType": "address",
          "name": "user",
          "type": "address"
        },
        {
          "internalType": "uint256",
          "name": "price",
          "type": "uint256"
        },
        {
          "internalType": "bool",
          "name": "fulfilled",
          "type": "bool"
        },
        {
          "internalType": "bool",
          "name": "cancelled",
          "type": "bool"
        }
      ],
      "stateMutability": "view",
      "type": "function",
      "constant": true
    },
    {
      "inputs": [
        {
          "internalType": "uint256",
          "name": "tokenId",
          "type": "uint256"
        }
      ],
      "name": "ownerOf",
      "outputs": [
        {
          "internalType": "address",
          "name": "",
          "type": "address"
        }
      ],
      "stateMutability": "view",
      "type": "function",
      "constant": true
    },
    {
      "inputs": [
        {
          "internalType": "uint256",
          "name": "",
          "type": "uint256"
        },
        {
          "internalType": "uint256",
          "name": "",
          "type": "uint256"
        }
      ],
      "name": "ownerShipTrans",
      "outputs": [
        {
          "internalType": "address",
          "name": "",
          "type": "address"
        }
      ],
      "stateMutability": "view",
      "type": "function",
      "constant": true
    },
    {
      "inputs": [
        {
          "internalType": "address",
          "name": "from",
          "type": "address"
        },
        {
          "internalType": "address",
          "name": "to",
          "type": "address"
        },
        {
          "internalType": "uint256",
          "name": "tokenId",
          "type": "uint256"
        }
      ],
      "name": "safeTransferFrom",
      "outputs": [],
      "stateMutability": "nonpayable",
      "type": "function"
    },
    {
      "inputs": [
        {
          "internalType": "address",
          "name": "from",
          "type": "address"
        },
        {
          "internalType": "address",
          "name": "to",
          "type": "address"
        },
        {
          "internalType": "uint256",
          "name": "tokenId",
          "type": "uint256"
        },
        {
          "internalType": "bytes",
          "name": "_data",
          "type": "bytes"
        }
      ],
      "name": "safeTransferFrom",
      "outputs": [],
      "stateMutability": "nonpayable",
      "type": "function"
    },
    {
      "inputs": [
        {
          "internalType": "address",
          "name": "operator",
          "type": "address"
        },
        {
          "internalType": "bool",
          "name": "approved",
          "type": "bool"
        }
      ],
      "name": "setApprovalForAll",
      "outputs": [],
      "stateMutability": "nonpayable",
      "type": "function"
    },
    {
      "inputs": [
        {
          "internalType": "bytes4",
          "name": "interfaceId",
          "type": "bytes4"
        }
      ],
      "name": "supportsInterface",
      "outputs": [
        {
          "internalType": "bool",
          "name": "",
          "type": "bool"
        }
      ],
      "stateMutability": "view",
      "type": "function",
      "constant": true
    },
    {
      "inputs": [],
      "name": "symbol",
      "outputs": [
        {
          "internalType": "string",
          "name": "",
          "type": "string"
        }
      ],
      "stateMutability": "view",
      "type": "function",
      "constant": true
    },
    {
      "inputs": [
        {
          "internalType": "uint256",
          "name": "tokenId",
          "type": "uint256"
        }
      ],
      "name": "tokenURI",
      "outputs": [
        {
          "internalType": "string",
          "name": "",
          "type": "string"
        }
      ],
      "stateMutability": "view",
      "type": "function",
      "constant": true
    },
    {
      "inputs": [
        {
          "internalType": "address",
          "name": "from",
          "type": "address"
        },
        {
          "internalType": "address",
          "name": "to",
          "type": "address"
        },
        {
          "internalType": "uint256",
          "name": "tokenId",
          "type": "uint256"
        }
      ],
      "name": "transferFrom",
      "outputs": [],
      "stateMutability": "nonpayable",
      "type": "function"
    },
    {
      "inputs": [
        {
          "internalType": "address",
          "name": "",
          "type": "address"
        }
      ],
      "name": "userFunds",
      "outputs": [
        {
          "internalType": "uint256",
          "name": "",
          "type": "uint256"
        }
      ],
      "stateMutability": "view",
      "type": "function",
      "constant": true
    },
    {
      "inputs": [
        {
          "internalType": "uint256",
          "name": "_id",
          "type": "uint256"
        },
        {
          "internalType": "uint256",
          "name": "_price",
          "type": "uint256"
        }
      ],
      "name": "makeOffer",
      "outputs": [],
      "stateMutability": "nonpayable",
      "type": "function"
    },
    {
      "inputs": [
        {
          "internalType": "uint256",
          "name": "_offerId",
          "type": "uint256"
        }
      ],
      "name": "fillOffer",
      "outputs": [],
      "stateMutability": "payable",
      "type": "function",
      "payable": true
    },
    {
      "inputs": [
        {
          "internalType": "uint256",
          "name": "_offerId",
          "type": "uint256"
        }
      ],
      "name": "cancelOffer",
      "outputs": [],
      "stateMutability": "nonpayable",
      "type": "function"
    },
    {
      "inputs": [],
      "name": "claimFunds",
      "outputs": [],
      "stateMutability": "nonpayable",
      "type": "function"
    }
  ],
  "bytecode": "0x60806040523480156200001157600080fd5b506040518060400160405280601081526020017f496d61676520436f6c6c656374696f6e000000000000000000000000000000008152506040518060400160405280600381526020017f4e4654000000000000000000000000000000000000000000000000000000000081525081600090805190602001906200009692919062000101565b508060019080519060200190620000af92919062000101565b505050600060078190555030600d60006101000a81548173ffffffffffffffffffffffffffffffffffffffff021916908373ffffffffffffffffffffffffffffffffffffffff16021790555062000215565b8280546200010f90620001e0565b90600052602060002090601f0160209004810192826200013357600085556200017f565b82601f106200014e57805160ff19168380011785556200017f565b828001600101855582156200017f579182015b828111156200017e57825182559160200191906001019062000161565b5b5090506200018e919062000192565b5090565b5b80821115620001ad57600081600090555060010162000193565b5090565b7f4e487b7100000000000000000000000000000000000000000000000000000000600052602260045260246000fd5b60006002820490506001821680620001f957607f821691505b6020821081036200020f576200020e620001b1565b5b50919050565b6157df80620002256000396000f3fe6080604052600436106101e75760003560e01c806385dba86111610102578063b9a2de3a11610095578063dc471a6b11610064578063dc471a6b14610789578063e7979dd2146107cd578063e985e9c51461080a578063ef706adf14610847576101e8565b8063b9a2de3a146106a7578063c0746fee146106e4578063c87b56dd14610721578063d4d369071461075e576101e8565b8063a22cb465116100d1578063a22cb46514610601578063ab22f4a61461062a578063ac30777314610667578063b88d4fde1461067e576101e8565b806385dba8611461053b5780638a72ea6a1461055757806395d89b41146105995780639bd2a574146105c4576101e8565b8063379607f51161017a578063598647f811610149578063598647f8146104475780636352211e1461048457806370a08231146104c15780638387c6e1146104fe576101e8565b8063379607f5146103825780633bb3a24d1461039e57806342842e0e146103db578063571a26a014610404576101e8565b8063095ea7b3116101b6578063095ea7b3146102c85780631115c24d146102f157806323b872dd1461031c5780633527bb0a14610345576101e8565b806301ffc9a7146101fa57806305b7cdd31461023757806306fdde0314610260578063081812fc1461028b576101e8565b5b3480156101f457600080fd5b50600080fd5b34801561020657600080fd5b50610221600480360381019061021c919061381d565b610870565b60405161022e9190613865565b60405180910390f35b34801561024357600080fd5b5061025e600480360381019061025991906138b6565b610952565b005b34801561026c57600080fd5b50610275610aba565b604051610282919061398f565b60405180910390f35b34801561029757600080fd5b506102b260048036038101906102ad91906139b1565b610b4c565b6040516102bf9190613a1f565b60405180910390f35b3480156102d457600080fd5b506102ef60048036038101906102ea9190613a66565b610bd1565b005b3480156102fd57600080fd5b50610306610ce8565b6040516103139190613ab5565b60405180910390f35b34801561032857600080fd5b50610343600480360381019061033e9190613ad0565b610cee565b005b34801561035157600080fd5b5061036c60048036038101906103679190613b23565b610d4e565b6040516103799190613ab5565b60405180910390f35b61039c600480360381019061039791906139b1565b610d60565b005b3480156103aa57600080fd5b506103c560048036038101906103c091906139b1565b610f28565b6040516103d2919061398f565b60405180910390f35b3480156103e757600080fd5b5061040260048036038101906103fd9190613ad0565b611183565b005b34801561041057600080fd5b5061042b600480360381019061042691906139b1565b6111a3565b60405161043e9796959493929190613b71565b60405180910390f35b34801561045357600080fd5b5061046e600480360381019061046991906138b6565b61121f565b60405161047b9190613865565b60405180910390f35b34801561049057600080fd5b506104ab60048036038101906104a691906139b1565b61138a565b6040516104b89190613a1f565b60405180910390f35b3480156104cd57600080fd5b506104e860048036038101906104e39190613b23565b61143b565b6040516104f59190613ab5565b60405180910390f35b34801561050a57600080fd5b5061052560048036038101906105209190613b23565b6114f2565b6040516105329190613ab5565b60405180910390f35b610555600480360381019061055091906139b1565b61150a565b005b34801561056357600080fd5b5061057e600480360381019061057991906139b1565b6117bd565b60405161059096959493929190613be0565b60405180910390f35b3480156105a557600080fd5b506105ae611833565b6040516105bb919061398f565b60405180910390f35b3480156105d057600080fd5b506105eb60048036038101906105e69190613c41565b6118c5565b6040516105f89190613865565b60405180910390f35b34801561060d57600080fd5b5061062860048036038101906106239190613cc0565b611b16565b005b34801561063657600080fd5b50610651600480360381019061064c91906139b1565b611b2c565b60405161065e9190613a1f565b60405180910390f35b34801561067357600080fd5b5061067c611b3e565b005b34801561068a57600080fd5b506106a560048036038101906106a09190613e35565b611d05565b005b3480156106b357600080fd5b506106ce60048036038101906106c991906139b1565b611d67565b6040516106db9190613865565b60405180910390f35b3480156106f057600080fd5b5061070b60048036038101906107069190613f59565b611ec6565b6040516107189190613865565b60405180910390f35b34801561072d57600080fd5b50610748600480360381019061074391906139b1565b611eeb565b604051610755919061398f565b60405180910390f35b34801561076a57600080fd5b5061077361203c565b6040516107809190613ab5565b60405180910390f35b34801561079557600080fd5b506107b060048036038101906107ab91906139b1565b612042565b6040516107c4989796959493929190614048565b60405180910390f35b3480156107d957600080fd5b506107f460048036038101906107ef91906138b6565b6121e7565b6040516108019190613a1f565b60405180910390f35b34801561081657600080fd5b50610831600480360381019061082c91906140d4565b612235565b60405161083e9190613865565b60405180910390f35b34801561085357600080fd5b5061086e600480360381019061086991906139b1565b6122c9565b005b60007f80ac58cd000000000000000000000000000000000000000000000000000000007bffffffffffffffffffffffffffffffffffffffffffffffffffffffff1916827bffffffffffffffffffffffffffffffffffffffffffffffffffffffff1916148061093b57507f5b5e139f000000000000000000000000000000000000000000000000000000007bffffffffffffffffffffffffffffffffffffffffffffffffffffffff1916827bffffffffffffffffffffffffffffffffffffffffffffffffffffffff1916145b8061094b575061094a826124c8565b5b9050919050565b600e600081548092919061096590614143565b91905055506040518060c00160405280600e5481526020018381526020013373ffffffffffffffffffffffffffffffffffffffff16815260200182815260200160001515815260200160001515815250600f6000600e548152602001908152602001600020600082015181600001556020820151816001015560408201518160020160006101000a81548173ffffffffffffffffffffffffffffffffffffffff021916908373ffffffffffffffffffffffffffffffffffffffff1602179055506060820151816003015560808201518160040160006101000a81548160ff02191690831515021790555060a08201518160040160016101000a81548160ff0219169083151502179055509050507f93e711896d4ef527d199d7e101922e20f918cbb248a0fb0977c52fda24aa1f1d600e54833384600080604051610aae96959493929190613be0565b60405180910390a15050565b606060008054610ac9906141ba565b80601f0160208091040260200160405190810160405280929190818152602001828054610af5906141ba565b8015610b425780601f10610b1757610100808354040283529160200191610b42565b820191906000526020600020905b815481529060010190602001808311610b2557829003601f168201915b5050505050905090565b6000610b5782612532565b610b96576040517f08c379a0000000000000000000000000000000000000000000000000000000008152600401610b8d9061425d565b60405180910390fd5b6004600083815260200190815260200160002060009054906101000a900473ffffffffffffffffffffffffffffffffffffffff169050919050565b6000610bdc8261138a565b90508073ffffffffffffffffffffffffffffffffffffffff168373ffffffffffffffffffffffffffffffffffffffff1603610c4c576040517f08c379a0000000000000000000000000000000000000000000000000000000008152600401610c43906142ef565b60405180910390fd5b8073ffffffffffffffffffffffffffffffffffffffff16610c6b61259e565b73ffffffffffffffffffffffffffffffffffffffff161480610c9a5750610c9981610c9461259e565b612235565b5b610cd9576040517f08c379a0000000000000000000000000000000000000000000000000000000008152600401610cd090614381565b60405180910390fd5b610ce383836125a6565b505050565b600e5481565b610cff610cf961259e565b8261265f565b610d3e576040517f08c379a0000000000000000000000000000000000000000000000000000000008152600401610d3590614413565b60405180910390fd5b610d4983838361273d565b505050565b6000610d598261143b565b9050919050565b6000600b600083815260200190815260200160002090508060050160009054906101000a900460ff16610dc8576040517f08c379a0000000000000000000000000000000000000000000000000000000008152600401610dbf9061447f565b60405180910390fd5b8060050160019054906101000a900460ff1615610e1a576040517f08c379a0000000000000000000000000000000000000000000000000000000008152600401610e11906144eb565b60405180910390fd5b3373ffffffffffffffffffffffffffffffffffffffff168160030160009054906101000a900473ffffffffffffffffffffffffffffffffffffffff1673ffffffffffffffffffffffffffffffffffffffff1614610eac576040517f08c379a0000000000000000000000000000000000000000000000000000000008152600401610ea390614557565b60405180910390fd5b6000610ebb826000015461138a565b90508073ffffffffffffffffffffffffffffffffffffffff166108fc349081150290604051600060405180830381858888f19350505050158015610f03573d6000803e3d6000fd5b50610f128260000154336129a3565b50610f2282600001546000612ad0565b50505050565b60606000600860008481526020019081526020016000206040518061010001604052908160008201548152602001600182018054610f65906141ba565b80601f0160208091040260200160405190810160405280929190818152602001828054610f91906141ba565b8015610fde5780601f10610fb357610100808354040283529160200191610fde565b820191906000526020600020905b815481529060010190602001808311610fc157829003601f168201915b50505050508152602001600282018054610ff7906141ba565b80601f0160208091040260200160405190810160405280929190818152602001828054611023906141ba565b80156110705780601f1061104557610100808354040283529160200191611070565b820191906000526020600020905b81548152906001019060200180831161105357829003601f168201915b505050505081526020016003820160009054906101000a900473ffffffffffffffffffffffffffffffffffffffff1673ffffffffffffffffffffffffffffffffffffffff1673ffffffffffffffffffffffffffffffffffffffff1681526020016004820160009054906101000a900473ffffffffffffffffffffffffffffffffffffffff1673ffffffffffffffffffffffffffffffffffffffff1673ffffffffffffffffffffffffffffffffffffffff16815260200160058201548152602001600682015481526020016007820160009054906101000a900460ff16600281111561115e5761115d613fd1565b5b60028111156111705761116f613fd1565b5b8152505090508060400151915050919050565b61119e83838360405180602001604052806000815250611d05565b505050565b600b6020528060005260406000206000915090508060000154908060010154908060020154908060030160009054906101000a900473ffffffffffffffffffffffffffffffffffffffff16908060040154908060050160009054906101000a900460ff16908060050160019054906101000a900460ff16905087565b600080600b600085815260200190815260200160002090508060050160009054906101000a900460ff1615611289576040517f08c379a0000000000000000000000000000000000000000000000000000000008152600401611280906145c3565b60405180910390fd5b806002015483116112cf576040517f08c379a00000000000000000000000000000000000000000000000000000000081526004016112c69061462f565b60405180910390fd5b6112dd816000015484612b1f565b50338160030160006101000a81548173ffffffffffffffffffffffffffffffffffffffff021916908373ffffffffffffffffffffffffffffffffffffffff16021790555082816002018190555082600c600086815260200190815260200160002060003373ffffffffffffffffffffffffffffffffffffffff1673ffffffffffffffffffffffffffffffffffffffff16815260200190815260200160002081905550600191505092915050565b6000806002600084815260200190815260200160002060009054906101000a900473ffffffffffffffffffffffffffffffffffffffff169050600073ffffffffffffffffffffffffffffffffffffffff168173ffffffffffffffffffffffffffffffffffffffff1603611432576040517f08c379a0000000000000000000000000000000000000000000000000000000008152600401611429906146c1565b60405180910390fd5b80915050919050565b60008073ffffffffffffffffffffffffffffffffffffffff168273ffffffffffffffffffffffffffffffffffffffff16036114ab576040517f08c379a00000000000000000000000000000000000000000000000000000000081526004016114a290614753565b60405180910390fd5b600360008373ffffffffffffffffffffffffffffffffffffffff1673ffffffffffffffffffffffffffffffffffffffff168152602001908152602001600020549050919050565b60106020528060005260406000206000915090505481565b6000600f6000838152602001908152602001600020905081816000015414611567576040517f08c379a000000000000000000000000000000000000000000000000000000000815260040161155e906147bf565b60405180910390fd5b3373ffffffffffffffffffffffffffffffffffffffff168160020160009054906101000a900473ffffffffffffffffffffffffffffffffffffffff1673ffffffffffffffffffffffffffffffffffffffff16036115f9576040517f08c379a00000000000000000000000000000000000000000000000000000000081526004016115f090614851565b60405180910390fd5b8060040160009054906101000a900460ff161561164b576040517f08c379a0000000000000000000000000000000000000000000000000000000008152600401611642906148e3565b60405180910390fd5b8060040160019054906101000a900460ff161561169d576040517f08c379a000000000000000000000000000000000000000000000000000000000815260040161169490614975565b60405180910390fd5b806003015434146116e3576040517f08c379a00000000000000000000000000000000000000000000000000000000081526004016116da90614a07565b60405180910390fd5b60018160040160006101000a81548160ff02191690831515021790555034601060008360020160009054906101000a900473ffffffffffffffffffffffffffffffffffffffff1673ffffffffffffffffffffffffffffffffffffffff1673ffffffffffffffffffffffffffffffffffffffff16815260200190815260200160002060008282546117739190614a27565b925050819055507fd9157c065213ada613694e84b1e27fe2efd62d85c6b82bd6c842a4999491e72a828260010154336040516117b193929190614a7d565b60405180910390a15050565b600f6020528060005260406000206000915090508060000154908060010154908060020160009054906101000a900473ffffffffffffffffffffffffffffffffffffffff16908060030154908060040160009054906101000a900460ff16908060040160019054906101000a900460ff16905086565b606060018054611842906141ba565b80601f016020809104026020016040519081016040528092919081815260200182805461186e906141ba565b80156118bb5780601f10611890576101008083540402835291602001916118bb565b820191906000526020600020905b81548152906001019060200180831161189e57829003601f168201915b5050505050905090565b600083600060028111156118dc576118db613fd1565b5b6008600083815260200190815260200160002060070160009054906101000a900460ff16600281111561191257611911613fd1565b5b14611952576040517f08c379a000000000000000000000000000000000000000000000000000000000815260040161194990614b00565b60405180910390fd5b3373ffffffffffffffffffffffffffffffffffffffff166119728661138a565b73ffffffffffffffffffffffffffffffffffffffff16146119c8576040517f08c379a00000000000000000000000000000000000000000000000000000000081526004016119bf90614b6c565b60405180910390fd5b6119d3856001612ad0565b506119de8585612b1f565b50600083426119ed9190614a27565b905060006040518060e001604052808881526020018781526020018781526020013373ffffffffffffffffffffffffffffffffffffffff16815260200183815260200160001515815260200160001515815250905080600b600089815260200190815260200160002060008201518160000155602082015181600101556040820151816002015560608201518160030160006101000a81548173ffffffffffffffffffffffffffffffffffffffff021916908373ffffffffffffffffffffffffffffffffffffffff1602179055506080820151816004015560a08201518160050160006101000a81548160ff02191690831515021790555060c08201518160050160016101000a81548160ff021916908315150217905550905050600193505050509392505050565b611b28611b2161259e565b8383612b62565b5050565b6000611b378261138a565b9050919050565b6000601060003373ffffffffffffffffffffffffffffffffffffffff1673ffffffffffffffffffffffffffffffffffffffff1681526020019081526020016000205411611bc0576040517f08c379a0000000000000000000000000000000000000000000000000000000008152600401611bb790614bfe565b60405180910390fd5b3373ffffffffffffffffffffffffffffffffffffffff166108fc601060003373ffffffffffffffffffffffffffffffffffffffff1673ffffffffffffffffffffffffffffffffffffffff168152602001908152602001600020549081150290604051600060405180830381858888f19350505050158015611c45573d6000803e3d6000fd5b507f4f0554190111f93f8c2ccef2cc41473f187d7f29ff5a5c308ca41f9dfe4e989a33601060003373ffffffffffffffffffffffffffffffffffffffff1673ffffffffffffffffffffffffffffffffffffffff16815260200190815260200160002054604051611cb6929190614c1e565b60405180910390a16000601060003373ffffffffffffffffffffffffffffffffffffffff1673ffffffffffffffffffffffffffffffffffffffff16815260200190815260200160002081905550565b611d16611d1061259e565b8361265f565b611d55576040517f08c379a0000000000000000000000000000000000000000000000000000000008152600401611d4c90614413565b60405180910390fd5b611d6184848484612cce565b50505050565b60003373ffffffffffffffffffffffffffffffffffffffff16611d898361138a565b73ffffffffffffffffffffffffffffffffffffffff1614611ddf576040517f08c379a0000000000000000000000000000000000000000000000000000000008152600401611dd690614c93565b60405180910390fd5b6000600b600084815260200190815260200160002090508060040154421015611e3d576040517f08c379a0000000000000000000000000000000000000000000000000000000008152600401611e3490614cff565b60405180910390fd5b8060050160009054906101000a900460ff1615611e8f576040517f08c379a0000000000000000000000000000000000000000000000000000000008152600401611e8690614d6b565b60405180910390fd5b611e9e81600001546002612ad0565b5060018160050160006101000a81548160ff0219169083151502179055506001915050919050565b600080611ed283612d2a565b9050611edf338583612d5c565b50600191505092915050565b6060611ef682612532565b611f35576040517f08c379a0000000000000000000000000000000000000000000000000000000008152600401611f2c90614dfd565b60405180910390fd5b6000600660008481526020019081526020016000208054611f55906141ba565b80601f0160208091040260200160405190810160405280929190818152602001828054611f81906141ba565b8015611fce5780601f10611fa357610100808354040283529160200191611fce565b820191906000526020600020905b815481529060010190602001808311611fb157829003601f168201915b505050505090506000611fdf613039565b90506000815103611ff4578192505050612037565b600082511115612029578082604051602001612011929190614e59565b60405160208183030381529060405292505050612037565b61203284613050565b925050505b919050565b60075481565b600860205280600052604060002060009150905080600001549080600101805461206b906141ba565b80601f0160208091040260200160405190810160405280929190818152602001828054612097906141ba565b80156120e45780601f106120b9576101008083540402835291602001916120e4565b820191906000526020600020905b8154815290600101906020018083116120c757829003601f168201915b5050505050908060020180546120f9906141ba565b80601f0160208091040260200160405190810160405280929190818152602001828054612125906141ba565b80156121725780601f1061214757610100808354040283529160200191612172565b820191906000526020600020905b81548152906001019060200180831161215557829003601f168201915b5050505050908060030160009054906101000a900473ffffffffffffffffffffffffffffffffffffffff16908060040160009054906101000a900473ffffffffffffffffffffffffffffffffffffffff16908060050154908060060154908060070160009054906101000a900460ff16905088565b6009602052816000526040600020818154811061220357600080fd5b906000526020600020016000915091509054906101000a900473ffffffffffffffffffffffffffffffffffffffff1681565b6000600560008473ffffffffffffffffffffffffffffffffffffffff1673ffffffffffffffffffffffffffffffffffffffff16815260200190815260200160002060008373ffffffffffffffffffffffffffffffffffffffff1673ffffffffffffffffffffffffffffffffffffffff16815260200190815260200160002060009054906101000a900460ff16905092915050565b6000600f6000838152602001908152602001600020905081816000015414612326576040517f08c379a000000000000000000000000000000000000000000000000000000000815260040161231d906147bf565b60405180910390fd5b3373ffffffffffffffffffffffffffffffffffffffff168160020160009054906101000a900473ffffffffffffffffffffffffffffffffffffffff1673ffffffffffffffffffffffffffffffffffffffff16146123b8576040517f08c379a00000000000000000000000000000000000000000000000000000000081526004016123af90614eef565b60405180910390fd5b600015158160040160009054906101000a900460ff16151514612410576040517f08c379a000000000000000000000000000000000000000000000000000000000815260040161240790614f81565b60405180910390fd5b600015158160040160019054906101000a900460ff16151514612468576040517f08c379a000000000000000000000000000000000000000000000000000000000815260040161245f90615013565b60405180910390fd5b60018160040160016101000a81548160ff0219169083151502179055507f5b166b4d0498ff8c4719999cb6154c5d197e6f020f9fbfcf9d347f84576cfab7828260010154336040516124bc93929190614a7d565b60405180910390a15050565b60007f01ffc9a7000000000000000000000000000000000000000000000000000000007bffffffffffffffffffffffffffffffffffffffffffffffffffffffff1916827bffffffffffffffffffffffffffffffffffffffffffffffffffffffff1916149050919050565b60008073ffffffffffffffffffffffffffffffffffffffff166002600084815260200190815260200160002060009054906101000a900473ffffffffffffffffffffffffffffffffffffffff1673ffffffffffffffffffffffffffffffffffffffff1614159050919050565b600033905090565b816004600083815260200190815260200160002060006101000a81548173ffffffffffffffffffffffffffffffffffffffff021916908373ffffffffffffffffffffffffffffffffffffffff160217905550808273ffffffffffffffffffffffffffffffffffffffff166126198361138a565b73ffffffffffffffffffffffffffffffffffffffff167f8c5be1e5ebec7d5bd14f71427d1e84f3dd0314c0f7b2291e5b200ac8c7c3b92560405160405180910390a45050565b600061266a82612532565b6126a9576040517f08c379a00000000000000000000000000000000000000000000000000000000081526004016126a0906150a5565b60405180910390fd5b60006126b48361138a565b90508073ffffffffffffffffffffffffffffffffffffffff168473ffffffffffffffffffffffffffffffffffffffff16148061272357508373ffffffffffffffffffffffffffffffffffffffff1661270b84610b4c565b73ffffffffffffffffffffffffffffffffffffffff16145b8061273457506127338185612235565b5b91505092915050565b8273ffffffffffffffffffffffffffffffffffffffff1661275d8261138a565b73ffffffffffffffffffffffffffffffffffffffff16146127b3576040517f08c379a00000000000000000000000000000000000000000000000000000000081526004016127aa90615137565b60405180910390fd5b600073ffffffffffffffffffffffffffffffffffffffff168273ffffffffffffffffffffffffffffffffffffffff1603612822576040517f08c379a0000000000000000000000000000000000000000000000000000000008152600401612819906151c9565b60405180910390fd5b61282d8383836130f7565b6128386000826125a6565b6001600360008573ffffffffffffffffffffffffffffffffffffffff1673ffffffffffffffffffffffffffffffffffffffff168152602001908152602001600020600082825461288891906151e9565b925050819055506001600360008473ffffffffffffffffffffffffffffffffffffffff1673ffffffffffffffffffffffffffffffffffffffff16815260200190815260200160002060008282546128df9190614a27565b92505081905550816002600083815260200190815260200160002060006101000a81548173ffffffffffffffffffffffffffffffffffffffff021916908373ffffffffffffffffffffffffffffffffffffffff160217905550808273ffffffffffffffffffffffffffffffffffffffff168473ffffffffffffffffffffffffffffffffffffffff167fddf252ad1be2c89b69c2b068fc378daa952ba7f163c4a11628f55a4df523b3ef60405160405180910390a461299e8383836130fc565b505050565b600080600860008581526020019081526020016000209050600960008581526020019081526020016000208160040160009054906101000a900473ffffffffffffffffffffffffffffffffffffffff169080600181540180825580915050600190039060005260206000200160009091909190916101000a81548173ffffffffffffffffffffffffffffffffffffffff021916908373ffffffffffffffffffffffffffffffffffffffff160217905550828160040160006101000a81548173ffffffffffffffffffffffffffffffffffffffff021916908373ffffffffffffffffffffffffffffffffffffffff1602179055506001816005016000828254612aab9190614a27565b92505081905550612ac5612abe8561138a565b848661273d565b600191505092915050565b600080600860008581526020019081526020016000209050828160070160006101000a81548160ff02191690836002811115612b0f57612b0e613fd1565b5b0217905550600191505092915050565b6000806008600085815260200190815260200160002090508281600601541015612b56578281600601819055506001915050612b5c565b60009150505b92915050565b8173ffffffffffffffffffffffffffffffffffffffff168373ffffffffffffffffffffffffffffffffffffffff1603612bd0576040517f08c379a0000000000000000000000000000000000000000000000000000000008152600401612bc790615269565b60405180910390fd5b80600560008573ffffffffffffffffffffffffffffffffffffffff1673ffffffffffffffffffffffffffffffffffffffff16815260200190815260200160002060008473ffffffffffffffffffffffffffffffffffffffff1673ffffffffffffffffffffffffffffffffffffffff16815260200190815260200160002060006101000a81548160ff0219169083151502179055508173ffffffffffffffffffffffffffffffffffffffff168373ffffffffffffffffffffffffffffffffffffffff167f17307eab39ab6107e8899845ad3d59bd9653f200f220920489ca2b5937696c3183604051612cc19190613865565b60405180910390a3505050565b612cd984848461273d565b612ce584848484613101565b612d24576040517f08c379a0000000000000000000000000000000000000000000000000000000008152600401612d1b906152fb565b60405180910390fd5b50505050565b6060612d34613288565b82604051602001612d46929190614e59565b6040516020818303038152906040529050919050565b600060076000815480929190612d7190614143565b9190505550612d81600754612532565b15612dc1576040517f08c379a0000000000000000000000000000000000000000000000000000000008152600401612db890615367565b60405180910390fd5b600a82604051612dd19190615387565b908152602001604051809103902060009054906101000a900460ff1615612e2d576040517f08c379a0000000000000000000000000000000000000000000000000000000008152600401612e24906153ea565b60405180910390fd5b612e39846007546132c5565b612e45600754836132e3565b600060405180610100016040528060075481526020018581526020018481526020013373ffffffffffffffffffffffffffffffffffffffff1681526020013373ffffffffffffffffffffffffffffffffffffffff168152602001600081526020016000815260200160006002811115612ec157612ec0613fd1565b5b81525090506001600a84604051612ed89190615387565b908152602001604051809103902060006101000a81548160ff02191690831515021790555080600860006007548152602001908152602001600020600082015181600001556020820151816001019080519060200190612f3992919061370e565b506040820151816002019080519060200190612f5692919061370e565b5060608201518160030160006101000a81548173ffffffffffffffffffffffffffffffffffffffff021916908373ffffffffffffffffffffffffffffffffffffffff16021790555060808201518160040160006101000a81548173ffffffffffffffffffffffffffffffffffffffff021916908373ffffffffffffffffffffffffffffffffffffffff16021790555060a0820151816005015560c0820151816006015560e08201518160070160006101000a81548160ff0219169083600281111561302457613023613fd1565b5b02179055509050506007549150509392505050565b606060405180602001604052806000815250905090565b606061305b82612532565b61309a576040517f08c379a00000000000000000000000000000000000000000000000000000000081526004016130919061547c565b60405180910390fd5b60006130a4613039565b905060008151116130c457604051806020016040528060008152506130ef565b806130ce84613357565b6040516020016130df929190614e59565b6040516020818303038152906040525b915050919050565b505050565b505050565b60006131228473ffffffffffffffffffffffffffffffffffffffff166134b7565b1561327b578373ffffffffffffffffffffffffffffffffffffffff1663150b7a0261314b61259e565b8786866040518563ffffffff1660e01b815260040161316d94939291906154f1565b6020604051808303816000875af19250505080156131a957506040513d601f19601f820116820180604052508101906131a69190615552565b60015b61322b573d80600081146131d9576040519150601f19603f3d011682016040523d82523d6000602084013e6131de565b606091505b506000815103613223576040517f08c379a000000000000000000000000000000000000000000000000000000000815260040161321a906152fb565b60405180910390fd5b805181602001fd5b63150b7a0260e01b7bffffffffffffffffffffffffffffffffffffffffffffffffffffffff1916817bffffffffffffffffffffffffffffffffffffffffffffffffffffffff191614915050613280565b600190505b949350505050565b60606040518060400160405280601581526020017f68747470733a2f2f697066732e696f2f697066732f0000000000000000000000815250905090565b6132df8282604051806020016040528060008152506134da565b5050565b6132ec82612532565b61332b576040517f08c379a0000000000000000000000000000000000000000000000000000000008152600401613322906155f1565b60405180910390fd5b8060066000848152602001908152602001600020908051906020019061335292919061370e565b505050565b60606000820361339e576040518060400160405280600181526020017f300000000000000000000000000000000000000000000000000000000000000081525090506134b2565b600082905060005b600082146133d05780806133b990614143565b915050600a826133c99190615640565b91506133a6565b60008167ffffffffffffffff8111156133ec576133eb613d0a565b5b6040519080825280601f01601f19166020018201604052801561341e5781602001600182028036833780820191505090505b5090505b600085146134ab5760018261343791906151e9565b9150600a856134469190615671565b60306134529190614a27565b60f81b818381518110613468576134676156a2565b5b60200101907effffffffffffffffffffffffffffffffffffffffffffffffffffffffffffff1916908160001a905350600a856134a49190615640565b9450613422565b8093505050505b919050565b6000808273ffffffffffffffffffffffffffffffffffffffff163b119050919050565b6134e48383613535565b6134f16000848484613101565b613530576040517f08c379a0000000000000000000000000000000000000000000000000000000008152600401613527906152fb565b60405180910390fd5b505050565b600073ffffffffffffffffffffffffffffffffffffffff168273ffffffffffffffffffffffffffffffffffffffff16036135a4576040517f08c379a000000000000000000000000000000000000000000000000000000000815260040161359b9061571d565b60405180910390fd5b6135ad81612532565b156135ed576040517f08c379a00000000000000000000000000000000000000000000000000000000081526004016135e490615789565b60405180910390fd5b6135f9600083836130f7565b6001600360008473ffffffffffffffffffffffffffffffffffffffff1673ffffffffffffffffffffffffffffffffffffffff16815260200190815260200160002060008282546136499190614a27565b92505081905550816002600083815260200190815260200160002060006101000a81548173ffffffffffffffffffffffffffffffffffffffff021916908373ffffffffffffffffffffffffffffffffffffffff160217905550808273ffffffffffffffffffffffffffffffffffffffff16600073ffffffffffffffffffffffffffffffffffffffff167fddf252ad1be2c89b69c2b068fc378daa952ba7f163c4a11628f55a4df523b3ef60405160405180910390a461370a600083836130fc565b5050565b82805461371a906141ba565b90600052602060002090601f01602090048101928261373c5760008555613783565b82601f1061375557805160ff1916838001178555613783565b82800160010185558215613783579182015b82811115613782578251825591602001919060010190613767565b5b5090506137909190613794565b5090565b5b808211156137ad576000816000905550600101613795565b5090565b6000604051905090565b600080fd5b600080fd5b60007fffffffff0000000000000000000000000000000000000000000000000000000082169050919050565b6137fa816137c5565b811461380557600080fd5b50565b600081359050613817816137f1565b92915050565b600060208284031215613833576138326137bb565b5b600061384184828501613808565b91505092915050565b60008115159050919050565b61385f8161384a565b82525050565b600060208201905061387a6000830184613856565b92915050565b6000819050919050565b61389381613880565b811461389e57600080fd5b50565b6000813590506138b08161388a565b92915050565b600080604083850312156138cd576138cc6137bb565b5b60006138db858286016138a1565b92505060206138ec858286016138a1565b9150509250929050565b600081519050919050565b600082825260208201905092915050565b60005b83811015613930578082015181840152602081019050613915565b8381111561393f576000848401525b50505050565b6000601f19601f8301169050919050565b6000613961826138f6565b61396b8185613901565b935061397b818560208601613912565b61398481613945565b840191505092915050565b600060208201905081810360008301526139a98184613956565b905092915050565b6000602082840312156139c7576139c66137bb565b5b60006139d5848285016138a1565b91505092915050565b600073ffffffffffffffffffffffffffffffffffffffff82169050919050565b6000613a09826139de565b9050919050565b613a19816139fe565b82525050565b6000602082019050613a346000830184613a10565b92915050565b613a43816139fe565b8114613a4e57600080fd5b50565b600081359050613a6081613a3a565b92915050565b60008060408385031215613a7d57613a7c6137bb565b5b6000613a8b85828601613a51565b9250506020613a9c858286016138a1565b9150509250929050565b613aaf81613880565b82525050565b6000602082019050613aca6000830184613aa6565b92915050565b600080600060608486031215613ae957613ae86137bb565b5b6000613af786828701613a51565b9350506020613b0886828701613a51565b9250506040613b19868287016138a1565b9150509250925092565b600060208284031215613b3957613b386137bb565b5b6000613b4784828501613a51565b91505092915050565b6000613b5b826139de565b9050919050565b613b6b81613b50565b82525050565b600060e082019050613b86600083018a613aa6565b613b936020830189613aa6565b613ba06040830188613aa6565b613bad6060830187613b62565b613bba6080830186613aa6565b613bc760a0830185613856565b613bd460c0830184613856565b98975050505050505050565b600060c082019050613bf56000830189613aa6565b613c026020830188613aa6565b613c0f6040830187613a10565b613c1c6060830186613aa6565b613c296080830185613856565b613c3660a0830184613856565b979650505050505050565b600080600060608486031215613c5a57613c596137bb565b5b6000613c68868287016138a1565b9350506020613c79868287016138a1565b9250506040613c8a868287016138a1565b9150509250925092565b613c9d8161384a565b8114613ca857600080fd5b50565b600081359050613cba81613c94565b92915050565b60008060408385031215613cd757613cd66137bb565b5b6000613ce585828601613a51565b9250506020613cf685828601613cab565b9150509250929050565b600080fd5b600080fd5b7f4e487b7100000000000000000000000000000000000000000000000000000000600052604160045260246000fd5b613d4282613945565b810181811067ffffffffffffffff82111715613d6157613d60613d0a565b5b80604052505050565b6000613d746137b1565b9050613d808282613d39565b919050565b600067ffffffffffffffff821115613da057613d9f613d0a565b5b613da982613945565b9050602081019050919050565b82818337600083830152505050565b6000613dd8613dd384613d85565b613d6a565b905082815260208101848484011115613df457613df3613d05565b5b613dff848285613db6565b509392505050565b600082601f830112613e1c57613e1b613d00565b5b8135613e2c848260208601613dc5565b91505092915050565b60008060008060808587031215613e4f57613e4e6137bb565b5b6000613e5d87828801613a51565b9450506020613e6e87828801613a51565b9350506040613e7f878288016138a1565b925050606085013567ffffffffffffffff811115613ea057613e9f6137c0565b5b613eac87828801613e07565b91505092959194509250565b600067ffffffffffffffff821115613ed357613ed2613d0a565b5b613edc82613945565b9050602081019050919050565b6000613efc613ef784613eb8565b613d6a565b905082815260208101848484011115613f1857613f17613d05565b5b613f23848285613db6565b509392505050565b600082601f830112613f4057613f3f613d00565b5b8135613f50848260208601613ee9565b91505092915050565b60008060408385031215613f7057613f6f6137bb565b5b600083013567ffffffffffffffff811115613f8e57613f8d6137c0565b5b613f9a85828601613f2b565b925050602083013567ffffffffffffffff811115613fbb57613fba6137c0565b5b613fc785828601613f2b565b9150509250929050565b7f4e487b7100000000000000000000000000000000000000000000000000000000600052602160045260246000fd5b6003811061401157614010613fd1565b5b50565b600081905061402282614000565b919050565b600061403282614014565b9050919050565b61404281614027565b82525050565b60006101008201905061405e600083018b613aa6565b8181036020830152614070818a613956565b905081810360408301526140848189613956565b90506140936060830188613a10565b6140a06080830187613a10565b6140ad60a0830186613aa6565b6140ba60c0830185613aa6565b6140c760e0830184614039565b9998505050505050505050565b600080604083850312156140eb576140ea6137bb565b5b60006140f985828601613a51565b925050602061410a85828601613a51565b9150509250929050565b7f4e487b7100000000000000000000000000000000000000000000000000000000600052601160045260246000fd5b600061414e82613880565b91507fffffffffffffffffffffffffffffffffffffffffffffffffffffffffffffffff82036141805761417f614114565b5b600182019050919050565b7f4e487b7100000000000000000000000000000000000000000000000000000000600052602260045260246000fd5b600060028204905060018216806141d257607f821691505b6020821081036141e5576141e461418b565b5b50919050565b7f4552433732313a20617070726f76656420717565727920666f72206e6f6e657860008201527f697374656e7420746f6b656e0000000000000000000000000000000000000000602082015250565b6000614247602c83613901565b9150614252826141eb565b604082019050919050565b600060208201905081810360008301526142768161423a565b9050919050565b7f4552433732313a20617070726f76616c20746f2063757272656e74206f776e6560008201527f7200000000000000000000000000000000000000000000000000000000000000602082015250565b60006142d9602183613901565b91506142e48261427d565b604082019050919050565b60006020820190508181036000830152614308816142cc565b9050919050565b7f4552433732313a20617070726f76652063616c6c6572206973206e6f74206f7760008201527f6e6572206e6f7220617070726f76656420666f7220616c6c0000000000000000602082015250565b600061436b603883613901565b91506143768261430f565b604082019050919050565b6000602082019050818103600083015261439a8161435e565b9050919050565b7f4552433732313a207472616e736665722063616c6c6572206973206e6f74206f60008201527f776e6572206e6f7220617070726f766564000000000000000000000000000000602082015250565b60006143fd603183613901565b9150614408826143a1565b604082019050919050565b6000602082019050818103600083015261442c816143f0565b9050919050565b7f41756374696f6e206e6f7420656e646564207965742e00000000000000000000600082015250565b6000614469601683613901565b915061447482614433565b602082019050919050565b600060208201905081810360008301526144988161445c565b9050919050565b7f41756374696f6e20616c726561647920636c61696d65642e0000000000000000600082015250565b60006144d5601883613901565b91506144e08261449f565b602082019050919050565b60006020820190508181036000830152614504816144c8565b9050919050565b7f43616e206f6e6c7920626520636c61696d65642062792077696e6e65722e0000600082015250565b6000614541601e83613901565b915061454c8261450b565b602082019050919050565b6000602082019050818103600083015261457081614534565b9050919050565b7f41756374696f6e20616c726561647920656e6465642e00000000000000000000600082015250565b60006145ad601683613901565b91506145b882614577565b602082019050919050565b600060208201905081810360008301526145dc816145a0565b9050919050565b7f4c6f776572206269643f204a6f6b696e672e0000000000000000000000000000600082015250565b6000614619601283613901565b9150614624826145e3565b602082019050919050565b600060208201905081810360008301526146488161460c565b9050919050565b7f4552433732313a206f776e657220717565727920666f72206e6f6e657869737460008201527f656e7420746f6b656e0000000000000000000000000000000000000000000000602082015250565b60006146ab602983613901565b91506146b68261464f565b604082019050919050565b600060208201905081810360008301526146da8161469e565b9050919050565b7f4552433732313a2062616c616e636520717565727920666f7220746865207a6560008201527f726f206164647265737300000000000000000000000000000000000000000000602082015250565b600061473d602a83613901565b9150614748826146e1565b604082019050919050565b6000602082019050818103600083015261476c81614730565b9050919050565b7f546865206f66666572206d757374206578697374000000000000000000000000600082015250565b60006147a9601483613901565b91506147b482614773565b602082019050919050565b600060208201905081810360008301526147d88161479c565b9050919050565b7f546865206f776e6572206f6620746865206f666665722063616e6e6f7420666960008201527f6c6c206974000000000000000000000000000000000000000000000000000000602082015250565b600061483b602583613901565b9150614846826147df565b604082019050919050565b6000602082019050818103600083015261486a8161482e565b9050919050565b7f416e206f666665722063616e6e6f742062652066756c66696c6c65642074776960008201527f6365000000000000000000000000000000000000000000000000000000000000602082015250565b60006148cd602283613901565b91506148d882614871565b604082019050919050565b600060208201905081810360008301526148fc816148c0565b9050919050565b7f412063616e63656c6c6564206f666665722063616e6e6f742062652066756c6660008201527f696c6c6564000000000000000000000000000000000000000000000000000000602082015250565b600061495f602583613901565b915061496a82614903565b604082019050919050565b6000602082019050818103600083015261498e81614952565b9050919050565b7f5468652045544820616d6f756e742073686f756c64206d61746368207769746860008201527f20746865204e4654205072696365000000000000000000000000000000000000602082015250565b60006149f1602e83613901565b91506149fc82614995565b604082019050919050565b60006020820190508181036000830152614a20816149e4565b9050919050565b6000614a3282613880565b9150614a3d83613880565b9250827fffffffffffffffffffffffffffffffffffffffffffffffffffffffffffffffff03821115614a7257614a71614114565b5b828201905092915050565b6000606082019050614a926000830186613aa6565b614a9f6020830185613aa6565b614aac6040830184613a10565b949350505050565b7f416c7265616479206f6e2061756374696f6e2e00000000000000000000000000600082015250565b6000614aea601383613901565b9150614af582614ab4565b602082019050919050565b60006020820190508181036000830152614b1981614add565b9050919050565b7f4f6e6c79204f776e65722043616e20426567696e20612041756374696f6e2e00600082015250565b6000614b56601f83613901565b9150614b6182614b20565b602082019050919050565b60006020820190508181036000830152614b8581614b49565b9050919050565b7f54686973207573657220686173206e6f2066756e647320746f20626520636c6160008201527f696d656400000000000000000000000000000000000000000000000000000000602082015250565b6000614be8602483613901565b9150614bf382614b8c565b604082019050919050565b60006020820190508181036000830152614c1781614bdb565b9050919050565b6000604082019050614c336000830185613a10565b614c406020830184613aa6565b9392505050565b7f4f6e6c79204f776e65722043616e20456e6420612041756374696f6e2e000000600082015250565b6000614c7d601d83613901565b9150614c8882614c47565b602082019050919050565b60006020820190508181036000830152614cac81614c70565b9050919050565b7f4e6f7420656e642074696d652e00000000000000000000000000000000000000600082015250565b6000614ce9600d83613901565b9150614cf482614cb3565b602082019050919050565b60006020820190508181036000830152614d1881614cdc565b9050919050565b7f416c726561647920456e6465642e000000000000000000000000000000000000600082015250565b6000614d55600e83613901565b9150614d6082614d1f565b602082019050919050565b60006020820190508181036000830152614d8481614d48565b9050919050565b7f45524337323155524953746f726167653a2055524920717565727920666f722060008201527f6e6f6e6578697374656e7420746f6b656e000000000000000000000000000000602082015250565b6000614de7603183613901565b9150614df282614d8b565b604082019050919050565b60006020820190508181036000830152614e1681614dda565b9050919050565b600081905092915050565b6000614e33826138f6565b614e3d8185614e1d565b9350614e4d818560208601613912565b80840191505092915050565b6000614e658285614e28565b9150614e718284614e28565b91508190509392505050565b7f546865206f666665722063616e206f6e6c792062652063616e63656c6564206260008201527f7920746865206f776e6572000000000000000000000000000000000000000000602082015250565b6000614ed9602b83613901565b9150614ee482614e7d565b604082019050919050565b60006020820190508181036000830152614f0881614ecc565b9050919050565b7f412066756c66696c6c6564206f666665722063616e6e6f742062652063616e6360008201527f656c6c6564000000000000000000000000000000000000000000000000000000602082015250565b6000614f6b602583613901565b9150614f7682614f0f565b604082019050919050565b60006020820190508181036000830152614f9a81614f5e565b9050919050565b7f416e206f666665722063616e6e6f742062652063616e63656c6c65642074776960008201527f6365000000000000000000000000000000000000000000000000000000000000602082015250565b6000614ffd602283613901565b915061500882614fa1565b604082019050919050565b6000602082019050818103600083015261502c81614ff0565b9050919050565b7f4552433732313a206f70657261746f7220717565727920666f72206e6f6e657860008201527f697374656e7420746f6b656e0000000000000000000000000000000000000000602082015250565b600061508f602c83613901565b915061509a82615033565b604082019050919050565b600060208201905081810360008301526150be81615082565b9050919050565b7f4552433732313a207472616e736665722066726f6d20696e636f72726563742060008201527f6f776e6572000000000000000000000000000000000000000000000000000000602082015250565b6000615121602583613901565b915061512c826150c5565b604082019050919050565b6000602082019050818103600083015261515081615114565b9050919050565b7f4552433732313a207472616e7366657220746f20746865207a65726f2061646460008201527f7265737300000000000000000000000000000000000000000000000000000000602082015250565b60006151b3602483613901565b91506151be82615157565b604082019050919050565b600060208201905081810360008301526151e2816151a6565b9050919050565b60006151f482613880565b91506151ff83613880565b92508282101561521257615211614114565b5b828203905092915050565b7f4552433732313a20617070726f766520746f2063616c6c657200000000000000600082015250565b6000615253601983613901565b915061525e8261521d565b602082019050919050565b6000602082019050818103600083015261528281615246565b9050919050565b7f4552433732313a207472616e7366657220746f206e6f6e20455243373231526560008201527f63656976657220696d706c656d656e7465720000000000000000000000000000602082015250565b60006152e5603283613901565b91506152f082615289565b604082019050919050565b60006020820190508181036000830152615314816152d8565b9050919050565b7f496d61676549442072657065617465642e000000000000000000000000000000600082015250565b6000615351601183613901565b915061535c8261531b565b602082019050919050565b6000602082019050818103600083015261538081615344565b9050919050565b60006153938284614e28565b915081905092915050565b7f546f6b656e205552492072657065617465642e00000000000000000000000000600082015250565b60006153d4601383613901565b91506153df8261539e565b602082019050919050565b60006020820190508181036000830152615403816153c7565b9050919050565b7f4552433732314d657461646174613a2055524920717565727920666f72206e6f60008201527f6e6578697374656e7420746f6b656e0000000000000000000000000000000000602082015250565b6000615466602f83613901565b91506154718261540a565b604082019050919050565b6000602082019050818103600083015261549581615459565b9050919050565b600081519050919050565b600082825260208201905092915050565b60006154c38261549c565b6154cd81856154a7565b93506154dd818560208601613912565b6154e681613945565b840191505092915050565b60006080820190506155066000830187613a10565b6155136020830186613a10565b6155206040830185613aa6565b818103606083015261553281846154b8565b905095945050505050565b60008151905061554c816137f1565b92915050565b600060208284031215615568576155676137bb565b5b60006155768482850161553d565b91505092915050565b7f45524337323155524953746f726167653a2055524920736574206f66206e6f6e60008201527f6578697374656e7420746f6b656e000000000000000000000000000000000000602082015250565b60006155db602e83613901565b91506155e68261557f565b604082019050919050565b6000602082019050818103600083015261560a816155ce565b9050919050565b7f4e487b7100000000000000000000000000000000000000000000000000000000600052601260045260246000fd5b600061564b82613880565b915061565683613880565b92508261566657615665615611565b5b828204905092915050565b600061567c82613880565b915061568783613880565b92508261569757615696615611565b5b828206905092915050565b7f4e487b7100000000000000000000000000000000000000000000000000000000600052603260045260246000fd5b7f4552433732313a206d696e7420746f20746865207a65726f2061646472657373600082015250565b6000615707602083613901565b9150615712826156d1565b602082019050919050565b60006020820190508181036000830152615736816156fa565b9050919050565b7f4552433732313a20746f6b656e20616c7265616479206d696e74656400000000600082015250565b6000615773601c83613901565b915061577e8261573d565b602082019050919050565b600060208201905081810360008301526157a281615766565b905091905056fea264697066735822122097093c2b5847697362f069a68b02dc0973155114472f932c878a3d7b1c65a33264736f6c634300080d0033",
  "immutableReferences": {},
  "source": "// SPDX-License-Identifier: MIT\r\npragma solidity ^0.8.0;\r\n\r\nimport \"./ImageNFTMarketplace.sol\";\r\n\r\ncontract ConstContract is ImageMarketplace{\r\n  uint public offerCount;\r\n  mapping (uint => _Offer) public offers;\r\n  mapping (address => uint) public userFunds;\r\n    \r\n      struct _Offer {\r\n    uint offerId;\r\n    uint id;\r\n    address user;\r\n    uint price;\r\n    bool fulfilled;\r\n    bool cancelled;\r\n  }\r\n\r\n  event Offer(\r\n    uint offerId,\r\n    uint id,\r\n    address user,\r\n    uint price,\r\n    bool fulfilled,\r\n    bool cancelled\r\n  );\r\n\r\n  event OfferFilled(uint offerId, uint id, address newOwner);\r\n  event OfferCancelled(uint offerId, uint id, address owner);\r\n  event ClaimFunds(address user, uint amount);\r\n\r\n\r\n   function makeOffer(uint _id, uint _price) public {\r\n    // nftCollection.transferFrom(msg.sender, address(this), _id);\r\n    offerCount ++;\r\n    offers[offerCount] = _Offer(offerCount, _id, msg.sender, _price, false, false);\r\n    emit Offer(offerCount, _id, msg.sender, _price, false, false);\r\n  }\r\n\r\n  function fillOffer(uint _offerId) public payable {\r\n    _Offer storage _offer = offers[_offerId];\r\n    require(_offer.offerId == _offerId, 'The offer must exist');\r\n    require(_offer.user != msg.sender, 'The owner of the offer cannot fill it');\r\n    require(!_offer.fulfilled, 'An offer cannot be fulfilled twice');\r\n    require(!_offer.cancelled, 'A cancelled offer cannot be fulfilled');\r\n    require(msg.value == _offer.price, 'The ETH amount should match with the NFT Price');\r\n    // nftCollection.transferFrom(address(this), msg.sender, _offer.id);\r\n    _offer.fulfilled = true;\r\n    userFunds[_offer.user] += msg.value;\r\n    emit OfferFilled(_offerId, _offer.id, msg.sender);\r\n  }\r\n\r\n  function cancelOffer(uint _offerId) public {\r\n    _Offer storage _offer = offers[_offerId];\r\n    require(_offer.offerId == _offerId, 'The offer must exist');\r\n    require(_offer.user == msg.sender, 'The offer can only be canceled by the owner');\r\n    require(_offer.fulfilled == false, 'A fulfilled offer cannot be cancelled');\r\n    require(_offer.cancelled == false, 'An offer cannot be cancelled twice');\r\n    // nftCollection.transferFrom(address(this), msg.sender, _offer.id);\r\n    _offer.cancelled = true;\r\n    emit OfferCancelled(_offerId, _offer.id, msg.sender);\r\n  }\r\n\r\n  function claimFunds() public {\r\n    require(userFunds[msg.sender] > 0, 'This user has no funds to be claimed');\r\n    payable(msg.sender).transfer(userFunds[msg.sender]);\r\n    emit ClaimFunds(msg.sender, userFunds[msg.sender]);\r\n    userFunds[msg.sender] = 0;    \r\n  }\r\n\r\n  // Fallback: reverts if Ether is sent to this smart-contract by mistake\r\n  fallback () external {\r\n    revert();\r\n  }\r\n\r\n}",
  "sourcePath": "C:\\Users\\Administrator\\Documents\\GitHub\\const\\contracts\\ConstContract.sol",
  "compiler": {
    "name": "solc",
    "version": "0.8.13+commit.abaa5c0e.Emscripten.clang"
  },
  "schemaVersion": "3.4.6",
  "updatedAt": "2022-04-08T19:23:45.947Z",
  "networkType": "ethereum",
  "devdoc": {
    "kind": "dev",
    "methods": {
      "approve(address,uint256)": {
        "details": "See {IERC721-approve}."
      },
      "balanceOf(address)": {
        "details": "See {IERC721-balanceOf}."
      },
      "getApproved(uint256)": {
        "details": "See {IERC721-getApproved}."
      },
      "isApprovedForAll(address,address)": {
        "details": "See {IERC721-isApprovedForAll}."
      },
      "name()": {
        "details": "See {IERC721Metadata-name}."
      },
      "ownerOf(uint256)": {
        "details": "See {IERC721-ownerOf}."
      },
      "safeTransferFrom(address,address,uint256)": {
        "details": "See {IERC721-safeTransferFrom}."
      },
      "safeTransferFrom(address,address,uint256,bytes)": {
        "details": "See {IERC721-safeTransferFrom}."
      },
      "setApprovalForAll(address,bool)": {
        "details": "See {IERC721-setApprovalForAll}."
      },
      "supportsInterface(bytes4)": {
        "details": "See {IERC165-supportsInterface}."
      },
      "symbol()": {
        "details": "See {IERC721Metadata-symbol}."
      },
      "tokenURI(uint256)": {
        "details": "See {IERC721Metadata-tokenURI}."
      },
      "transferFrom(address,address,uint256)": {
        "details": "See {IERC721-transferFrom}."
      }
    },
    "version": 1
  },
  "userdoc": {
    "kind": "user",
    "methods": {},
    "version": 1
  }
}