{
  "contractName": "ConstContract",
  "abi": [
    {
      "anonymous": false,
      "inputs": [
        {
          "indexed": true,
          "internalType": "address",
          "name": "owner",
          "type": "address"
        },
        {
          "indexed": true,
          "internalType": "address",
          "name": "approved",
          "type": "address"
        },
        {
          "indexed": true,
          "internalType": "uint256",
          "name": "tokenId",
          "type": "uint256"
        }
      ],
      "name": "Approval",
      "type": "event"
    },
    {
      "anonymous": false,
      "inputs": [
        {
          "indexed": true,
          "internalType": "address",
          "name": "owner",
          "type": "address"
        },
        {
          "indexed": true,
          "internalType": "address",
          "name": "operator",
          "type": "address"
        },
        {
          "indexed": false,
          "internalType": "bool",
          "name": "approved",
          "type": "bool"
        }
      ],
      "name": "ApprovalForAll",
      "type": "event"
    },
    {
      "anonymous": false,
      "inputs": [
        {
          "indexed": false,
          "internalType": "address",
          "name": "user",
          "type": "address"
        },
        {
          "indexed": false,
          "internalType": "uint256",
          "name": "amount",
          "type": "uint256"
        }
      ],
      "name": "ClaimFunds",
      "type": "event"
    },
    {
      "anonymous": false,
      "inputs": [
        {
          "indexed": false,
          "internalType": "uint256",
          "name": "offerId",
          "type": "uint256"
        },
        {
          "indexed": false,
          "internalType": "uint256",
          "name": "id",
          "type": "uint256"
        },
        {
          "indexed": false,
          "internalType": "address",
          "name": "user",
          "type": "address"
        },
        {
          "indexed": false,
          "internalType": "uint256",
          "name": "price",
          "type": "uint256"
        },
        {
          "indexed": false,
          "internalType": "bool",
          "name": "fulfilled",
          "type": "bool"
        },
        {
          "indexed": false,
          "internalType": "bool",
          "name": "cancelled",
          "type": "bool"
        }
      ],
      "name": "Offer",
      "type": "event"
    },
    {
      "anonymous": false,
      "inputs": [
        {
          "indexed": false,
          "internalType": "uint256",
          "name": "offerId",
          "type": "uint256"
        },
        {
          "indexed": false,
          "internalType": "uint256",
          "name": "id",
          "type": "uint256"
        },
        {
          "indexed": false,
          "internalType": "address",
          "name": "owner",
          "type": "address"
        }
      ],
      "name": "OfferCancelled",
      "type": "event"
    },
    {
      "anonymous": false,
      "inputs": [
        {
          "indexed": false,
          "internalType": "uint256",
          "name": "offerId",
          "type": "uint256"
        },
        {
          "indexed": false,
          "internalType": "uint256",
          "name": "id",
          "type": "uint256"
        },
        {
          "indexed": false,
          "internalType": "address",
          "name": "newOwner",
          "type": "address"
        }
      ],
      "name": "OfferFilled",
      "type": "event"
    },
    {
      "anonymous": false,
      "inputs": [
        {
          "indexed": true,
          "internalType": "address",
          "name": "from",
          "type": "address"
        },
        {
          "indexed": true,
          "internalType": "address",
          "name": "to",
          "type": "address"
        },
        {
          "indexed": true,
          "internalType": "uint256",
          "name": "tokenId",
          "type": "uint256"
        }
      ],
      "name": "Transfer",
      "type": "event"
    },
    {
      "stateMutability": "nonpayable",
      "type": "fallback"
    },
    {
      "inputs": [
        {
          "internalType": "address",
          "name": "to",
          "type": "address"
        },
        {
          "internalType": "uint256",
          "name": "tokenId",
          "type": "uint256"
        }
      ],
      "name": "approve",
      "outputs": [],
      "stateMutability": "nonpayable",
      "type": "function"
    },
    {
      "inputs": [
        {
          "internalType": "uint256",
          "name": "",
          "type": "uint256"
        }
      ],
      "name": "auctions",
      "outputs": [
        {
          "internalType": "uint256",
          "name": "imageID",
          "type": "uint256"
        },
        {
          "internalType": "uint256",
          "name": "startBid",
          "type": "uint256"
        },
        {
          "internalType": "uint256",
          "name": "highestBid",
          "type": "uint256"
        },
        {
          "internalType": "address payable",
          "name": "winner",
          "type": "address"
        },
        {
          "internalType": "uint256",
          "name": "endTime",
          "type": "uint256"
        },
        {
          "internalType": "bool",
          "name": "ended",
          "type": "bool"
        },
        {
          "internalType": "bool",
          "name": "claimed",
          "type": "bool"
        }
      ],
      "stateMutability": "view",
      "type": "function",
      "constant": true
    },
    {
      "inputs": [
        {
          "internalType": "address",
          "name": "owner",
          "type": "address"
        }
      ],
      "name": "balanceOf",
      "outputs": [
        {
          "internalType": "uint256",
          "name": "",
          "type": "uint256"
        }
      ],
      "stateMutability": "view",
      "type": "function",
      "constant": true
    },
    {
      "inputs": [
        {
          "internalType": "uint256",
          "name": "_tokenID",
          "type": "uint256"
        },
        {
          "internalType": "uint256",
          "name": "_minBid",
          "type": "uint256"
        },
        {
          "internalType": "uint256",
          "name": "_duration",
          "type": "uint256"
        }
      ],
      "name": "beginAuction",
      "outputs": [
        {
          "internalType": "bool",
          "name": "success",
          "type": "bool"
        }
      ],
      "stateMutability": "nonpayable",
      "type": "function"
    },
    {
      "inputs": [
        {
          "internalType": "uint256",
          "name": "auctionID",
          "type": "uint256"
        },
        {
          "internalType": "uint256",
          "name": "newBid",
          "type": "uint256"
        }
      ],
      "name": "bid",
      "outputs": [
        {
          "internalType": "bool",
          "name": "success",
          "type": "bool"
        }
      ],
      "stateMutability": "nonpayable",
      "type": "function"
    },
    {
      "inputs": [
        {
          "internalType": "uint256",
          "name": "_offerId",
          "type": "uint256"
        }
      ],
      "name": "cancelOffer",
      "outputs": [],
      "stateMutability": "nonpayable",
      "type": "function"
    },
    {
      "inputs": [
        {
          "internalType": "uint256",
          "name": "auctionID",
          "type": "uint256"
        }
      ],
      "name": "claim",
      "outputs": [],
      "stateMutability": "payable",
      "type": "function",
      "payable": true
    },
    {
      "inputs": [],
      "name": "claimFunds",
      "outputs": [],
      "stateMutability": "nonpayable",
      "type": "function"
    },
    {
      "inputs": [],
      "name": "currentImageCount",
      "outputs": [
        {
          "internalType": "uint256",
          "name": "",
          "type": "uint256"
        }
      ],
      "stateMutability": "view",
      "type": "function",
      "constant": true
    },
    {
      "inputs": [
        {
          "internalType": "uint256",
          "name": "auctionID",
          "type": "uint256"
        }
      ],
      "name": "endAuction",
      "outputs": [
        {
          "internalType": "bool",
          "name": "success",
          "type": "bool"
        }
      ],
      "stateMutability": "nonpayable",
      "type": "function"
    },
    {
      "inputs": [
        {
          "internalType": "uint256",
          "name": "_offerId",
          "type": "uint256"
        }
      ],
      "name": "fillOffer",
      "outputs": [],
      "stateMutability": "payable",
      "type": "function",
      "payable": true
    },
    {
      "inputs": [
        {
          "internalType": "uint256",
          "name": "tokenId",
          "type": "uint256"
        }
      ],
      "name": "getApproved",
      "outputs": [
        {
          "internalType": "address",
          "name": "",
          "type": "address"
        }
      ],
      "stateMutability": "view",
      "type": "function",
      "constant": true
    },
    {
      "inputs": [
        {
          "internalType": "address",
          "name": "owner",
          "type": "address"
        }
      ],
      "name": "getOwnedNumber",
      "outputs": [
        {
          "internalType": "uint256",
          "name": "",
          "type": "uint256"
        }
      ],
      "stateMutability": "view",
      "type": "function",
      "constant": true
    },
    {
      "inputs": [
        {
          "internalType": "uint256",
          "name": "_tokenID",
          "type": "uint256"
        }
      ],
      "name": "getTokenOnwer",
      "outputs": [
        {
          "internalType": "address",
          "name": "",
          "type": "address"
        }
      ],
      "stateMutability": "view",
      "type": "function",
      "constant": true
    },
    {
      "inputs": [
        {
          "internalType": "uint256",
          "name": "_tokenID",
          "type": "uint256"
        }
      ],
      "name": "getTokenURI",
      "outputs": [
        {
          "internalType": "string",
          "name": "",
          "type": "string"
        }
      ],
      "stateMutability": "view",
      "type": "function",
      "constant": true
    },
    {
      "inputs": [
        {
          "internalType": "uint256",
          "name": "",
          "type": "uint256"
        }
      ],
      "name": "imageStorage",
      "outputs": [
        {
          "internalType": "uint256",
          "name": "tokenID",
          "type": "uint256"
        },
        {
          "internalType": "string",
          "name": "tokenName",
          "type": "string"
        },
        {
          "internalType": "string",
          "name": "tokenURI",
          "type": "string"
        },
        {
          "internalType": "address",
          "name": "mintedBy",
          "type": "address"
        },
        {
          "internalType": "address",
          "name": "currentOwner",
          "type": "address"
        },
        {
          "internalType": "uint256",
          "name": "transferTime",
          "type": "uint256"
        },
        {
          "internalType": "uint256",
          "name": "highestBidPrice",
          "type": "uint256"
        },
        {
          "internalType": "enum ImageNFT.Status",
          "name": "status",
          "type": "uint8"
        }
      ],
      "stateMutability": "view",
      "type": "function",
      "constant": true
    },
    {
      "inputs": [
        {
          "internalType": "address",
          "name": "owner",
          "type": "address"
        },
        {
          "internalType": "address",
          "name": "operator",
          "type": "address"
        }
      ],
      "name": "isApprovedForAll",
      "outputs": [
        {
          "internalType": "bool",
          "name": "",
          "type": "bool"
        }
      ],
      "stateMutability": "view",
      "type": "function",
      "constant": true
    },
    {
      "inputs": [
        {
          "internalType": "uint256",
          "name": "_id",
          "type": "uint256"
        },
        {
          "internalType": "uint256",
          "name": "_price",
          "type": "uint256"
        }
      ],
      "name": "makeOffer",
      "outputs": [],
      "stateMutability": "nonpayable",
      "type": "function"
    },
    {
      "inputs": [
        {
          "internalType": "string",
          "name": "imageName",
          "type": "string"
        },
        {
          "internalType": "string",
          "name": "ipfsHashOfPhoto",
          "type": "string"
        }
      ],
      "name": "mintImageNFT",
      "outputs": [
        {
          "internalType": "bool",
          "name": "",
          "type": "bool"
        }
      ],
      "stateMutability": "nonpayable",
      "type": "function"
    },
    {
      "inputs": [],
      "name": "name",
      "outputs": [
        {
          "internalType": "string",
          "name": "",
          "type": "string"
        }
      ],
      "stateMutability": "view",
      "type": "function",
      "constant": true
    },
    {
      "inputs": [],
      "name": "offerCount",
      "outputs": [
        {
          "internalType": "uint256",
          "name": "",
          "type": "uint256"
        }
      ],
      "stateMutability": "view",
      "type": "function",
      "constant": true
    },
    {
      "inputs": [
        {
          "internalType": "uint256",
          "name": "",
          "type": "uint256"
        }
      ],
      "name": "offers",
      "outputs": [
        {
          "internalType": "uint256",
          "name": "offerId",
          "type": "uint256"
        },
        {
          "internalType": "uint256",
          "name": "id",
          "type": "uint256"
        },
        {
          "internalType": "address",
          "name": "user",
          "type": "address"
        },
        {
          "internalType": "uint256",
          "name": "price",
          "type": "uint256"
        },
        {
          "internalType": "bool",
          "name": "fulfilled",
          "type": "bool"
        },
        {
          "internalType": "bool",
          "name": "cancelled",
          "type": "bool"
        }
      ],
      "stateMutability": "view",
      "type": "function",
      "constant": true
    },
    {
      "inputs": [
        {
          "internalType": "uint256",
          "name": "tokenId",
          "type": "uint256"
        }
      ],
      "name": "ownerOf",
      "outputs": [
        {
          "internalType": "address",
          "name": "",
          "type": "address"
        }
      ],
      "stateMutability": "view",
      "type": "function",
      "constant": true
    },
    {
      "inputs": [
        {
          "internalType": "uint256",
          "name": "",
          "type": "uint256"
        },
        {
          "internalType": "uint256",
          "name": "",
          "type": "uint256"
        }
      ],
      "name": "ownerShipTrans",
      "outputs": [
        {
          "internalType": "address",
          "name": "",
          "type": "address"
        }
      ],
      "stateMutability": "view",
      "type": "function",
      "constant": true
    },
    {
      "inputs": [
        {
          "internalType": "address",
          "name": "from",
          "type": "address"
        },
        {
          "internalType": "address",
          "name": "to",
          "type": "address"
        },
        {
          "internalType": "uint256",
          "name": "tokenId",
          "type": "uint256"
        }
      ],
      "name": "safeTransferFrom",
      "outputs": [],
      "stateMutability": "nonpayable",
      "type": "function"
    },
    {
      "inputs": [
        {
          "internalType": "address",
          "name": "from",
          "type": "address"
        },
        {
          "internalType": "address",
          "name": "to",
          "type": "address"
        },
        {
          "internalType": "uint256",
          "name": "tokenId",
          "type": "uint256"
        },
        {
          "internalType": "bytes",
          "name": "_data",
          "type": "bytes"
        }
      ],
      "name": "safeTransferFrom",
      "outputs": [],
      "stateMutability": "nonpayable",
      "type": "function"
    },
    {
      "inputs": [
        {
          "internalType": "address",
          "name": "operator",
          "type": "address"
        },
        {
          "internalType": "bool",
          "name": "approved",
          "type": "bool"
        }
      ],
      "name": "setApprovalForAll",
      "outputs": [],
      "stateMutability": "nonpayable",
      "type": "function"
    },
    {
      "inputs": [
        {
          "internalType": "bytes4",
          "name": "interfaceId",
          "type": "bytes4"
        }
      ],
      "name": "supportsInterface",
      "outputs": [
        {
          "internalType": "bool",
          "name": "",
          "type": "bool"
        }
      ],
      "stateMutability": "view",
      "type": "function",
      "constant": true
    },
    {
      "inputs": [],
      "name": "symbol",
      "outputs": [
        {
          "internalType": "string",
          "name": "",
          "type": "string"
        }
      ],
      "stateMutability": "view",
      "type": "function",
      "constant": true
    },
    {
      "inputs": [
        {
          "internalType": "uint256",
          "name": "tokenId",
          "type": "uint256"
        }
      ],
      "name": "tokenURI",
      "outputs": [
        {
          "internalType": "string",
          "name": "",
          "type": "string"
        }
      ],
      "stateMutability": "view",
      "type": "function",
      "constant": true
    },
    {
      "inputs": [
        {
          "internalType": "address",
          "name": "from",
          "type": "address"
        },
        {
          "internalType": "address",
          "name": "to",
          "type": "address"
        },
        {
          "internalType": "uint256",
          "name": "tokenId",
          "type": "uint256"
        }
      ],
      "name": "transferFrom",
      "outputs": [],
      "stateMutability": "nonpayable",
      "type": "function"
    },
    {
      "inputs": [
        {
          "internalType": "address",
          "name": "",
          "type": "address"
        }
      ],
      "name": "userFunds",
      "outputs": [
        {
          "internalType": "uint256",
          "name": "",
          "type": "uint256"
        }
      ],
      "stateMutability": "view",
      "type": "function",
      "constant": true
    }
  ],
  "bytecode": "0x60806040523480156200001157600080fd5b506040518060400160405280601081526020017f496d61676520436f6c6c656374696f6e000000000000000000000000000000008152506040518060400160405280600381526020017f4e4654000000000000000000000000000000000000000000000000000000000081525081600090805190602001906200009692919062000101565b508060019080519060200190620000af92919062000101565b505050600060078190555030600d60006101000a81548173ffffffffffffffffffffffffffffffffffffffff021916908373ffffffffffffffffffffffffffffffffffffffff16021790555062000215565b8280546200010f90620001e0565b90600052602060002090601f0160209004810192826200013357600085556200017f565b82601f106200014e57805160ff19168380011785556200017f565b828001600101855582156200017f579182015b828111156200017e57825182559160200191906001019062000161565b5b5090506200018e919062000192565b5090565b5b80821115620001ad57600081600090555060010162000193565b5090565b7f4e487b7100000000000000000000000000000000000000000000000000000000600052602260045260246000fd5b60006002820490506001821680620001f957607f821691505b6020821081036200020f576200020e620001b1565b5b50919050565b6159d180620002256000396000f3fe6080604052600436106101e75760003560e01c806385dba86111610102578063b9a2de3a11610095578063dc471a6b11610064578063dc471a6b14610789578063e7979dd2146107cd578063e985e9c51461080a578063ef706adf14610847576101e8565b8063b9a2de3a146106a7578063c0746fee146106e4578063c87b56dd14610721578063d4d369071461075e576101e8565b8063a22cb465116100d1578063a22cb46514610601578063ab22f4a61461062a578063ac30777314610667578063b88d4fde1461067e576101e8565b806385dba8611461053b5780638a72ea6a1461055757806395d89b41146105995780639bd2a574146105c4576101e8565b8063379607f51161017a578063598647f811610149578063598647f8146104475780636352211e1461048457806370a08231146104c15780638387c6e1146104fe576101e8565b8063379607f5146103825780633bb3a24d1461039e57806342842e0e146103db578063571a26a014610404576101e8565b8063095ea7b3116101b6578063095ea7b3146102c85780631115c24d146102f157806323b872dd1461031c5780633527bb0a14610345576101e8565b806301ffc9a7146101fa57806305b7cdd31461023757806306fdde0314610260578063081812fc1461028b576101e8565b5b3480156101f457600080fd5b50600080fd5b34801561020657600080fd5b50610221600480360381019061021c91906139d8565b610870565b60405161022e9190613a20565b60405180910390f35b34801561024357600080fd5b5061025e60048036038101906102599190613a71565b610952565b005b34801561026c57600080fd5b50610275610b4b565b6040516102829190613b4a565b60405180910390f35b34801561029757600080fd5b506102b260048036038101906102ad9190613b6c565b610bdd565b6040516102bf9190613bda565b60405180910390f35b3480156102d457600080fd5b506102ef60048036038101906102ea9190613c21565b610c62565b005b3480156102fd57600080fd5b50610306610d79565b6040516103139190613c70565b60405180910390f35b34801561032857600080fd5b50610343600480360381019061033e9190613c8b565b610d7f565b005b34801561035157600080fd5b5061036c60048036038101906103679190613cde565b610ddf565b6040516103799190613c70565b60405180910390f35b61039c60048036038101906103979190613b6c565b610df1565b005b3480156103aa57600080fd5b506103c560048036038101906103c09190613b6c565b610fb9565b6040516103d29190613b4a565b60405180910390f35b3480156103e757600080fd5b5061040260048036038101906103fd9190613c8b565b611214565b005b34801561041057600080fd5b5061042b60048036038101906104269190613b6c565b611234565b60405161043e9796959493929190613d2c565b60405180910390f35b34801561045357600080fd5b5061046e60048036038101906104699190613a71565b6112b0565b60405161047b9190613a20565b60405180910390f35b34801561049057600080fd5b506104ab60048036038101906104a69190613b6c565b61141b565b6040516104b89190613bda565b60405180910390f35b3480156104cd57600080fd5b506104e860048036038101906104e39190613cde565b6114cc565b6040516104f59190613c70565b60405180910390f35b34801561050a57600080fd5b5061052560048036038101906105209190613cde565b611583565b6040516105329190613c70565b60405180910390f35b61055560048036038101906105509190613b6c565b61159b565b005b34801561056357600080fd5b5061057e60048036038101906105799190613b6c565b6118e3565b60405161059096959493929190613d9b565b60405180910390f35b3480156105a557600080fd5b506105ae611959565b6040516105bb9190613b4a565b60405180910390f35b3480156105d057600080fd5b506105eb60048036038101906105e69190613dfc565b6119eb565b6040516105f89190613a20565b60405180910390f35b34801561060d57600080fd5b5061062860048036038101906106239190613e7b565b611c3c565b005b34801561063657600080fd5b50610651600480360381019061064c9190613b6c565b611c52565b60405161065e9190613bda565b60405180910390f35b34801561067357600080fd5b5061067c611c64565b005b34801561068a57600080fd5b506106a560048036038101906106a09190613ff0565b611e2b565b005b3480156106b357600080fd5b506106ce60048036038101906106c99190613b6c565b611e8d565b6040516106db9190613a20565b60405180910390f35b3480156106f057600080fd5b5061070b60048036038101906107069190614114565b611fec565b6040516107189190613a20565b60405180910390f35b34801561072d57600080fd5b5061074860048036038101906107439190613b6c565b612011565b6040516107559190613b4a565b60405180910390f35b34801561076a57600080fd5b50610773612162565b6040516107809190613c70565b60405180910390f35b34801561079557600080fd5b506107b060048036038101906107ab9190613b6c565b612168565b6040516107c4989796959493929190614203565b60405180910390f35b3480156107d957600080fd5b506107f460048036038101906107ef9190613a71565b61230d565b6040516108019190613bda565b60405180910390f35b34801561081657600080fd5b50610831600480360381019061082c919061428f565b61235b565b60405161083e9190613a20565b60405180910390f35b34801561085357600080fd5b5061086e60048036038101906108699190613b6c565b6123ef565b005b60007f80ac58cd000000000000000000000000000000000000000000000000000000007bffffffffffffffffffffffffffffffffffffffffffffffffffffffff1916827bffffffffffffffffffffffffffffffffffffffffffffffffffffffff1916148061093b57507f5b5e139f000000000000000000000000000000000000000000000000000000007bffffffffffffffffffffffffffffffffffffffffffffffffffffffff1916827bffffffffffffffffffffffffffffffffffffffffffffffffffffffff1916145b8061094b575061094a82612683565b5b9050919050565b601160009054906101000a900473ffffffffffffffffffffffffffffffffffffffff1673ffffffffffffffffffffffffffffffffffffffff166323b872dd3330856040518463ffffffff1660e01b81526004016109b1939291906142cf565b600060405180830381600087803b1580156109cb57600080fd5b505af11580156109df573d6000803e3d6000fd5b50505050600e60008154809291906109f690614335565b91905055506040518060c00160405280600e5481526020018381526020013373ffffffffffffffffffffffffffffffffffffffff16815260200182815260200160001515815260200160001515815250600f6000600e548152602001908152602001600020600082015181600001556020820151816001015560408201518160020160006101000a81548173ffffffffffffffffffffffffffffffffffffffff021916908373ffffffffffffffffffffffffffffffffffffffff1602179055506060820151816003015560808201518160040160006101000a81548160ff02191690831515021790555060a08201518160040160016101000a81548160ff0219169083151502179055509050507f93e711896d4ef527d199d7e101922e20f918cbb248a0fb0977c52fda24aa1f1d600e54833384600080604051610b3f96959493929190613d9b565b60405180910390a15050565b606060008054610b5a906143ac565b80601f0160208091040260200160405190810160405280929190818152602001828054610b86906143ac565b8015610bd35780601f10610ba857610100808354040283529160200191610bd3565b820191906000526020600020905b815481529060010190602001808311610bb657829003601f168201915b5050505050905090565b6000610be8826126ed565b610c27576040517f08c379a0000000000000000000000000000000000000000000000000000000008152600401610c1e9061444f565b60405180910390fd5b6004600083815260200190815260200160002060009054906101000a900473ffffffffffffffffffffffffffffffffffffffff169050919050565b6000610c6d8261141b565b90508073ffffffffffffffffffffffffffffffffffffffff168373ffffffffffffffffffffffffffffffffffffffff1603610cdd576040517f08c379a0000000000000000000000000000000000000000000000000000000008152600401610cd4906144e1565b60405180910390fd5b8073ffffffffffffffffffffffffffffffffffffffff16610cfc612759565b73ffffffffffffffffffffffffffffffffffffffff161480610d2b5750610d2a81610d25612759565b61235b565b5b610d6a576040517f08c379a0000000000000000000000000000000000000000000000000000000008152600401610d6190614573565b60405180910390fd5b610d748383612761565b505050565b600e5481565b610d90610d8a612759565b8261281a565b610dcf576040517f08c379a0000000000000000000000000000000000000000000000000000000008152600401610dc690614605565b60405180910390fd5b610dda8383836128f8565b505050565b6000610dea826114cc565b9050919050565b6000600b600083815260200190815260200160002090508060050160009054906101000a900460ff16610e59576040517f08c379a0000000000000000000000000000000000000000000000000000000008152600401610e5090614671565b60405180910390fd5b8060050160019054906101000a900460ff1615610eab576040517f08c379a0000000000000000000000000000000000000000000000000000000008152600401610ea2906146dd565b60405180910390fd5b3373ffffffffffffffffffffffffffffffffffffffff168160030160009054906101000a900473ffffffffffffffffffffffffffffffffffffffff1673ffffffffffffffffffffffffffffffffffffffff1614610f3d576040517f08c379a0000000000000000000000000000000000000000000000000000000008152600401610f3490614749565b60405180910390fd5b6000610f4c826000015461141b565b90508073ffffffffffffffffffffffffffffffffffffffff166108fc349081150290604051600060405180830381858888f19350505050158015610f94573d6000803e3d6000fd5b50610fa3826000015433612b5e565b50610fb382600001546000612c8b565b50505050565b60606000600860008481526020019081526020016000206040518061010001604052908160008201548152602001600182018054610ff6906143ac565b80601f0160208091040260200160405190810160405280929190818152602001828054611022906143ac565b801561106f5780601f106110445761010080835404028352916020019161106f565b820191906000526020600020905b81548152906001019060200180831161105257829003601f168201915b50505050508152602001600282018054611088906143ac565b80601f01602080910402602001604051908101604052809291908181526020018280546110b4906143ac565b80156111015780601f106110d657610100808354040283529160200191611101565b820191906000526020600020905b8154815290600101906020018083116110e457829003601f168201915b505050505081526020016003820160009054906101000a900473ffffffffffffffffffffffffffffffffffffffff1673ffffffffffffffffffffffffffffffffffffffff1673ffffffffffffffffffffffffffffffffffffffff1681526020016004820160009054906101000a900473ffffffffffffffffffffffffffffffffffffffff1673ffffffffffffffffffffffffffffffffffffffff1673ffffffffffffffffffffffffffffffffffffffff16815260200160058201548152602001600682015481526020016007820160009054906101000a900460ff1660028111156111ef576111ee61418c565b5b60028111156112015761120061418c565b5b8152505090508060400151915050919050565b61122f83838360405180602001604052806000815250611e2b565b505050565b600b6020528060005260406000206000915090508060000154908060010154908060020154908060030160009054906101000a900473ffffffffffffffffffffffffffffffffffffffff16908060040154908060050160009054906101000a900460ff16908060050160019054906101000a900460ff16905087565b600080600b600085815260200190815260200160002090508060050160009054906101000a900460ff161561131a576040517f08c379a0000000000000000000000000000000000000000000000000000000008152600401611311906147b5565b60405180910390fd5b80600201548311611360576040517f08c379a000000000000000000000000000000000000000000000000000000000815260040161135790614821565b60405180910390fd5b61136e816000015484612cda565b50338160030160006101000a81548173ffffffffffffffffffffffffffffffffffffffff021916908373ffffffffffffffffffffffffffffffffffffffff16021790555082816002018190555082600c600086815260200190815260200160002060003373ffffffffffffffffffffffffffffffffffffffff1673ffffffffffffffffffffffffffffffffffffffff16815260200190815260200160002081905550600191505092915050565b6000806002600084815260200190815260200160002060009054906101000a900473ffffffffffffffffffffffffffffffffffffffff169050600073ffffffffffffffffffffffffffffffffffffffff168173ffffffffffffffffffffffffffffffffffffffff16036114c3576040517f08c379a00000000000000000000000000000000000000000000000000000000081526004016114ba906148b3565b60405180910390fd5b80915050919050565b60008073ffffffffffffffffffffffffffffffffffffffff168273ffffffffffffffffffffffffffffffffffffffff160361153c576040517f08c379a000000000000000000000000000000000000000000000000000000000815260040161153390614945565b60405180910390fd5b600360008373ffffffffffffffffffffffffffffffffffffffff1673ffffffffffffffffffffffffffffffffffffffff168152602001908152602001600020549050919050565b60106020528060005260406000206000915090505481565b6000600f60008381526020019081526020016000209050818160000154146115f8576040517f08c379a00000000000000000000000000000000000000000000000000000000081526004016115ef906149b1565b60405180910390fd5b3373ffffffffffffffffffffffffffffffffffffffff168160020160009054906101000a900473ffffffffffffffffffffffffffffffffffffffff1673ffffffffffffffffffffffffffffffffffffffff160361168a576040517f08c379a000000000000000000000000000000000000000000000000000000000815260040161168190614a43565b60405180910390fd5b8060040160009054906101000a900460ff16156116dc576040517f08c379a00000000000000000000000000000000000000000000000000000000081526004016116d390614ad5565b60405180910390fd5b8060040160019054906101000a900460ff161561172e576040517f08c379a000000000000000000000000000000000000000000000000000000000815260040161172590614b67565b60405180910390fd5b80600301543414611774576040517f08c379a000000000000000000000000000000000000000000000000000000000815260040161176b90614bf9565b60405180910390fd5b601160009054906101000a900473ffffffffffffffffffffffffffffffffffffffff1673ffffffffffffffffffffffffffffffffffffffff166323b872dd303384600101546040518463ffffffff1660e01b81526004016117d7939291906142cf565b600060405180830381600087803b1580156117f157600080fd5b505af1158015611805573d6000803e3d6000fd5b5050505060018160040160006101000a81548160ff02191690831515021790555034601060008360020160009054906101000a900473ffffffffffffffffffffffffffffffffffffffff1673ffffffffffffffffffffffffffffffffffffffff1673ffffffffffffffffffffffffffffffffffffffff16815260200190815260200160002060008282546118999190614c19565b925050819055507fd9157c065213ada613694e84b1e27fe2efd62d85c6b82bd6c842a4999491e72a828260010154336040516118d793929190614c6f565b60405180910390a15050565b600f6020528060005260406000206000915090508060000154908060010154908060020160009054906101000a900473ffffffffffffffffffffffffffffffffffffffff16908060030154908060040160009054906101000a900460ff16908060040160019054906101000a900460ff16905086565b606060018054611968906143ac565b80601f0160208091040260200160405190810160405280929190818152602001828054611994906143ac565b80156119e15780601f106119b6576101008083540402835291602001916119e1565b820191906000526020600020905b8154815290600101906020018083116119c457829003601f168201915b5050505050905090565b60008360006002811115611a0257611a0161418c565b5b6008600083815260200190815260200160002060070160009054906101000a900460ff166002811115611a3857611a3761418c565b5b14611a78576040517f08c379a0000000000000000000000000000000000000000000000000000000008152600401611a6f90614cf2565b60405180910390fd5b3373ffffffffffffffffffffffffffffffffffffffff16611a988661141b565b73ffffffffffffffffffffffffffffffffffffffff1614611aee576040517f08c379a0000000000000000000000000000000000000000000000000000000008152600401611ae590614d5e565b60405180910390fd5b611af9856001612c8b565b50611b048585612cda565b5060008342611b139190614c19565b905060006040518060e001604052808881526020018781526020018781526020013373ffffffffffffffffffffffffffffffffffffffff16815260200183815260200160001515815260200160001515815250905080600b600089815260200190815260200160002060008201518160000155602082015181600101556040820151816002015560608201518160030160006101000a81548173ffffffffffffffffffffffffffffffffffffffff021916908373ffffffffffffffffffffffffffffffffffffffff1602179055506080820151816004015560a08201518160050160006101000a81548160ff02191690831515021790555060c08201518160050160016101000a81548160ff021916908315150217905550905050600193505050509392505050565b611c4e611c47612759565b8383612d1d565b5050565b6000611c5d8261141b565b9050919050565b6000601060003373ffffffffffffffffffffffffffffffffffffffff1673ffffffffffffffffffffffffffffffffffffffff1681526020019081526020016000205411611ce6576040517f08c379a0000000000000000000000000000000000000000000000000000000008152600401611cdd90614df0565b60405180910390fd5b3373ffffffffffffffffffffffffffffffffffffffff166108fc601060003373ffffffffffffffffffffffffffffffffffffffff1673ffffffffffffffffffffffffffffffffffffffff168152602001908152602001600020549081150290604051600060405180830381858888f19350505050158015611d6b573d6000803e3d6000fd5b507f4f0554190111f93f8c2ccef2cc41473f187d7f29ff5a5c308ca41f9dfe4e989a33601060003373ffffffffffffffffffffffffffffffffffffffff1673ffffffffffffffffffffffffffffffffffffffff16815260200190815260200160002054604051611ddc929190614e10565b60405180910390a16000601060003373ffffffffffffffffffffffffffffffffffffffff1673ffffffffffffffffffffffffffffffffffffffff16815260200190815260200160002081905550565b611e3c611e36612759565b8361281a565b611e7b576040517f08c379a0000000000000000000000000000000000000000000000000000000008152600401611e7290614605565b60405180910390fd5b611e8784848484612e89565b50505050565b60003373ffffffffffffffffffffffffffffffffffffffff16611eaf8361141b565b73ffffffffffffffffffffffffffffffffffffffff1614611f05576040517f08c379a0000000000000000000000000000000000000000000000000000000008152600401611efc90614e85565b60405180910390fd5b6000600b600084815260200190815260200160002090508060040154421015611f63576040517f08c379a0000000000000000000000000000000000000000000000000000000008152600401611f5a90614ef1565b60405180910390fd5b8060050160009054906101000a900460ff1615611fb5576040517f08c379a0000000000000000000000000000000000000000000000000000000008152600401611fac90614f5d565b60405180910390fd5b611fc481600001546002612c8b565b5060018160050160006101000a81548160ff0219169083151502179055506001915050919050565b600080611ff883612ee5565b9050612005338583612f17565b50600191505092915050565b606061201c826126ed565b61205b576040517f08c379a000000000000000000000000000000000000000000000000000000000815260040161205290614fef565b60405180910390fd5b600060066000848152602001908152602001600020805461207b906143ac565b80601f01602080910402602001604051908101604052809291908181526020018280546120a7906143ac565b80156120f45780601f106120c9576101008083540402835291602001916120f4565b820191906000526020600020905b8154815290600101906020018083116120d757829003601f168201915b5050505050905060006121056131f4565b9050600081510361211a57819250505061215d565b60008251111561214f57808260405160200161213792919061504b565b6040516020818303038152906040529250505061215d565b6121588461320b565b925050505b919050565b60075481565b6008602052806000526040600020600091509050806000015490806001018054612191906143ac565b80601f01602080910402602001604051908101604052809291908181526020018280546121bd906143ac565b801561220a5780601f106121df5761010080835404028352916020019161220a565b820191906000526020600020905b8154815290600101906020018083116121ed57829003601f168201915b50505050509080600201805461221f906143ac565b80601f016020809104026020016040519081016040528092919081815260200182805461224b906143ac565b80156122985780601f1061226d57610100808354040283529160200191612298565b820191906000526020600020905b81548152906001019060200180831161227b57829003601f168201915b5050505050908060030160009054906101000a900473ffffffffffffffffffffffffffffffffffffffff16908060040160009054906101000a900473ffffffffffffffffffffffffffffffffffffffff16908060050154908060060154908060070160009054906101000a900460ff16905088565b6009602052816000526040600020818154811061232957600080fd5b906000526020600020016000915091509054906101000a900473ffffffffffffffffffffffffffffffffffffffff1681565b6000600560008473ffffffffffffffffffffffffffffffffffffffff1673ffffffffffffffffffffffffffffffffffffffff16815260200190815260200160002060008373ffffffffffffffffffffffffffffffffffffffff1673ffffffffffffffffffffffffffffffffffffffff16815260200190815260200160002060009054906101000a900460ff16905092915050565b6000600f600083815260200190815260200160002090508181600001541461244c576040517f08c379a0000000000000000000000000000000000000000000000000000000008152600401612443906149b1565b60405180910390fd5b3373ffffffffffffffffffffffffffffffffffffffff168160020160009054906101000a900473ffffffffffffffffffffffffffffffffffffffff1673ffffffffffffffffffffffffffffffffffffffff16146124de576040517f08c379a00000000000000000000000000000000000000000000000000000000081526004016124d5906150e1565b60405180910390fd5b600015158160040160009054906101000a900460ff16151514612536576040517f08c379a000000000000000000000000000000000000000000000000000000000815260040161252d90615173565b60405180910390fd5b600015158160040160019054906101000a900460ff1615151461258e576040517f08c379a000000000000000000000000000000000000000000000000000000000815260040161258590615205565b60405180910390fd5b601160009054906101000a900473ffffffffffffffffffffffffffffffffffffffff1673ffffffffffffffffffffffffffffffffffffffff166323b872dd303384600101546040518463ffffffff1660e01b81526004016125f1939291906142cf565b600060405180830381600087803b15801561260b57600080fd5b505af115801561261f573d6000803e3d6000fd5b5050505060018160040160016101000a81548160ff0219169083151502179055507f5b166b4d0498ff8c4719999cb6154c5d197e6f020f9fbfcf9d347f84576cfab78282600101543360405161267793929190614c6f565b60405180910390a15050565b60007f01ffc9a7000000000000000000000000000000000000000000000000000000007bffffffffffffffffffffffffffffffffffffffffffffffffffffffff1916827bffffffffffffffffffffffffffffffffffffffffffffffffffffffff1916149050919050565b60008073ffffffffffffffffffffffffffffffffffffffff166002600084815260200190815260200160002060009054906101000a900473ffffffffffffffffffffffffffffffffffffffff1673ffffffffffffffffffffffffffffffffffffffff1614159050919050565b600033905090565b816004600083815260200190815260200160002060006101000a81548173ffffffffffffffffffffffffffffffffffffffff021916908373ffffffffffffffffffffffffffffffffffffffff160217905550808273ffffffffffffffffffffffffffffffffffffffff166127d48361141b565b73ffffffffffffffffffffffffffffffffffffffff167f8c5be1e5ebec7d5bd14f71427d1e84f3dd0314c0f7b2291e5b200ac8c7c3b92560405160405180910390a45050565b6000612825826126ed565b612864576040517f08c379a000000000000000000000000000000000000000000000000000000000815260040161285b90615297565b60405180910390fd5b600061286f8361141b565b90508073ffffffffffffffffffffffffffffffffffffffff168473ffffffffffffffffffffffffffffffffffffffff1614806128de57508373ffffffffffffffffffffffffffffffffffffffff166128c684610bdd565b73ffffffffffffffffffffffffffffffffffffffff16145b806128ef57506128ee818561235b565b5b91505092915050565b8273ffffffffffffffffffffffffffffffffffffffff166129188261141b565b73ffffffffffffffffffffffffffffffffffffffff161461296e576040517f08c379a000000000000000000000000000000000000000000000000000000000815260040161296590615329565b60405180910390fd5b600073ffffffffffffffffffffffffffffffffffffffff168273ffffffffffffffffffffffffffffffffffffffff16036129dd576040517f08c379a00000000000000000000000000000000000000000000000000000000081526004016129d4906153bb565b60405180910390fd5b6129e88383836132b2565b6129f3600082612761565b6001600360008573ffffffffffffffffffffffffffffffffffffffff1673ffffffffffffffffffffffffffffffffffffffff1681526020019081526020016000206000828254612a4391906153db565b925050819055506001600360008473ffffffffffffffffffffffffffffffffffffffff1673ffffffffffffffffffffffffffffffffffffffff1681526020019081526020016000206000828254612a9a9190614c19565b92505081905550816002600083815260200190815260200160002060006101000a81548173ffffffffffffffffffffffffffffffffffffffff021916908373ffffffffffffffffffffffffffffffffffffffff160217905550808273ffffffffffffffffffffffffffffffffffffffff168473ffffffffffffffffffffffffffffffffffffffff167fddf252ad1be2c89b69c2b068fc378daa952ba7f163c4a11628f55a4df523b3ef60405160405180910390a4612b598383836132b7565b505050565b600080600860008581526020019081526020016000209050600960008581526020019081526020016000208160040160009054906101000a900473ffffffffffffffffffffffffffffffffffffffff169080600181540180825580915050600190039060005260206000200160009091909190916101000a81548173ffffffffffffffffffffffffffffffffffffffff021916908373ffffffffffffffffffffffffffffffffffffffff160217905550828160040160006101000a81548173ffffffffffffffffffffffffffffffffffffffff021916908373ffffffffffffffffffffffffffffffffffffffff1602179055506001816005016000828254612c669190614c19565b92505081905550612c80612c798561141b565b84866128f8565b600191505092915050565b600080600860008581526020019081526020016000209050828160070160006101000a81548160ff02191690836002811115612cca57612cc961418c565b5b0217905550600191505092915050565b6000806008600085815260200190815260200160002090508281600601541015612d11578281600601819055506001915050612d17565b60009150505b92915050565b8173ffffffffffffffffffffffffffffffffffffffff168373ffffffffffffffffffffffffffffffffffffffff1603612d8b576040517f08c379a0000000000000000000000000000000000000000000000000000000008152600401612d829061545b565b60405180910390fd5b80600560008573ffffffffffffffffffffffffffffffffffffffff1673ffffffffffffffffffffffffffffffffffffffff16815260200190815260200160002060008473ffffffffffffffffffffffffffffffffffffffff1673ffffffffffffffffffffffffffffffffffffffff16815260200190815260200160002060006101000a81548160ff0219169083151502179055508173ffffffffffffffffffffffffffffffffffffffff168373ffffffffffffffffffffffffffffffffffffffff167f17307eab39ab6107e8899845ad3d59bd9653f200f220920489ca2b5937696c3183604051612e7c9190613a20565b60405180910390a3505050565b612e948484846128f8565b612ea0848484846132bc565b612edf576040517f08c379a0000000000000000000000000000000000000000000000000000000008152600401612ed6906154ed565b60405180910390fd5b50505050565b6060612eef613443565b82604051602001612f0192919061504b565b6040516020818303038152906040529050919050565b600060076000815480929190612f2c90614335565b9190505550612f3c6007546126ed565b15612f7c576040517f08c379a0000000000000000000000000000000000000000000000000000000008152600401612f7390615559565b60405180910390fd5b600a82604051612f8c9190615579565b908152602001604051809103902060009054906101000a900460ff1615612fe8576040517f08c379a0000000000000000000000000000000000000000000000000000000008152600401612fdf906155dc565b60405180910390fd5b612ff484600754613480565b6130006007548361349e565b600060405180610100016040528060075481526020018581526020018481526020013373ffffffffffffffffffffffffffffffffffffffff1681526020013373ffffffffffffffffffffffffffffffffffffffff16815260200160008152602001600081526020016000600281111561307c5761307b61418c565b5b81525090506001600a846040516130939190615579565b908152602001604051809103902060006101000a81548160ff021916908315150217905550806008600060075481526020019081526020016000206000820151816000015560208201518160010190805190602001906130f49291906138c9565b5060408201518160020190805190602001906131119291906138c9565b5060608201518160030160006101000a81548173ffffffffffffffffffffffffffffffffffffffff021916908373ffffffffffffffffffffffffffffffffffffffff16021790555060808201518160040160006101000a81548173ffffffffffffffffffffffffffffffffffffffff021916908373ffffffffffffffffffffffffffffffffffffffff16021790555060a0820151816005015560c0820151816006015560e08201518160070160006101000a81548160ff021916908360028111156131df576131de61418c565b5b02179055509050506007549150509392505050565b606060405180602001604052806000815250905090565b6060613216826126ed565b613255576040517f08c379a000000000000000000000000000000000000000000000000000000000815260040161324c9061566e565b60405180910390fd5b600061325f6131f4565b9050600081511161327f57604051806020016040528060008152506132aa565b8061328984613512565b60405160200161329a92919061504b565b6040516020818303038152906040525b915050919050565b505050565b505050565b60006132dd8473ffffffffffffffffffffffffffffffffffffffff16613672565b15613436578373ffffffffffffffffffffffffffffffffffffffff1663150b7a02613306612759565b8786866040518563ffffffff1660e01b815260040161332894939291906156e3565b6020604051808303816000875af192505050801561336457506040513d601f19601f820116820180604052508101906133619190615744565b60015b6133e6573d8060008114613394576040519150601f19603f3d011682016040523d82523d6000602084013e613399565b606091505b5060008151036133de576040517f08c379a00000000000000000000000000000000000000000000000000000000081526004016133d5906154ed565b60405180910390fd5b805181602001fd5b63150b7a0260e01b7bffffffffffffffffffffffffffffffffffffffffffffffffffffffff1916817bffffffffffffffffffffffffffffffffffffffffffffffffffffffff19161491505061343b565b600190505b949350505050565b60606040518060400160405280601581526020017f68747470733a2f2f697066732e696f2f697066732f0000000000000000000000815250905090565b61349a828260405180602001604052806000815250613695565b5050565b6134a7826126ed565b6134e6576040517f08c379a00000000000000000000000000000000000000000000000000000000081526004016134dd906157e3565b60405180910390fd5b8060066000848152602001908152602001600020908051906020019061350d9291906138c9565b505050565b606060008203613559576040518060400160405280600181526020017f3000000000000000000000000000000000000000000000000000000000000000815250905061366d565b600082905060005b6000821461358b57808061357490614335565b915050600a826135849190615832565b9150613561565b60008167ffffffffffffffff8111156135a7576135a6613ec5565b5b6040519080825280601f01601f1916602001820160405280156135d95781602001600182028036833780820191505090505b5090505b60008514613666576001826135f291906153db565b9150600a856136019190615863565b603061360d9190614c19565b60f81b81838151811061362357613622615894565b5b60200101907effffffffffffffffffffffffffffffffffffffffffffffffffffffffffffff1916908160001a905350600a8561365f9190615832565b94506135dd565b8093505050505b919050565b6000808273ffffffffffffffffffffffffffffffffffffffff163b119050919050565b61369f83836136f0565b6136ac60008484846132bc565b6136eb576040517f08c379a00000000000000000000000000000000000000000000000000000000081526004016136e2906154ed565b60405180910390fd5b505050565b600073ffffffffffffffffffffffffffffffffffffffff168273ffffffffffffffffffffffffffffffffffffffff160361375f576040517f08c379a00000000000000000000000000000000000000000000000000000000081526004016137569061590f565b60405180910390fd5b613768816126ed565b156137a8576040517f08c379a000000000000000000000000000000000000000000000000000000000815260040161379f9061597b565b60405180910390fd5b6137b4600083836132b2565b6001600360008473ffffffffffffffffffffffffffffffffffffffff1673ffffffffffffffffffffffffffffffffffffffff16815260200190815260200160002060008282546138049190614c19565b92505081905550816002600083815260200190815260200160002060006101000a81548173ffffffffffffffffffffffffffffffffffffffff021916908373ffffffffffffffffffffffffffffffffffffffff160217905550808273ffffffffffffffffffffffffffffffffffffffff16600073ffffffffffffffffffffffffffffffffffffffff167fddf252ad1be2c89b69c2b068fc378daa952ba7f163c4a11628f55a4df523b3ef60405160405180910390a46138c5600083836132b7565b5050565b8280546138d5906143ac565b90600052602060002090601f0160209004810192826138f7576000855561393e565b82601f1061391057805160ff191683800117855561393e565b8280016001018555821561393e579182015b8281111561393d578251825591602001919060010190613922565b5b50905061394b919061394f565b5090565b5b80821115613968576000816000905550600101613950565b5090565b6000604051905090565b600080fd5b600080fd5b60007fffffffff0000000000000000000000000000000000000000000000000000000082169050919050565b6139b581613980565b81146139c057600080fd5b50565b6000813590506139d2816139ac565b92915050565b6000602082840312156139ee576139ed613976565b5b60006139fc848285016139c3565b91505092915050565b60008115159050919050565b613a1a81613a05565b82525050565b6000602082019050613a356000830184613a11565b92915050565b6000819050919050565b613a4e81613a3b565b8114613a5957600080fd5b50565b600081359050613a6b81613a45565b92915050565b60008060408385031215613a8857613a87613976565b5b6000613a9685828601613a5c565b9250506020613aa785828601613a5c565b9150509250929050565b600081519050919050565b600082825260208201905092915050565b60005b83811015613aeb578082015181840152602081019050613ad0565b83811115613afa576000848401525b50505050565b6000601f19601f8301169050919050565b6000613b1c82613ab1565b613b268185613abc565b9350613b36818560208601613acd565b613b3f81613b00565b840191505092915050565b60006020820190508181036000830152613b648184613b11565b905092915050565b600060208284031215613b8257613b81613976565b5b6000613b9084828501613a5c565b91505092915050565b600073ffffffffffffffffffffffffffffffffffffffff82169050919050565b6000613bc482613b99565b9050919050565b613bd481613bb9565b82525050565b6000602082019050613bef6000830184613bcb565b92915050565b613bfe81613bb9565b8114613c0957600080fd5b50565b600081359050613c1b81613bf5565b92915050565b60008060408385031215613c3857613c37613976565b5b6000613c4685828601613c0c565b9250506020613c5785828601613a5c565b9150509250929050565b613c6a81613a3b565b82525050565b6000602082019050613c856000830184613c61565b92915050565b600080600060608486031215613ca457613ca3613976565b5b6000613cb286828701613c0c565b9350506020613cc386828701613c0c565b9250506040613cd486828701613a5c565b9150509250925092565b600060208284031215613cf457613cf3613976565b5b6000613d0284828501613c0c565b91505092915050565b6000613d1682613b99565b9050919050565b613d2681613d0b565b82525050565b600060e082019050613d41600083018a613c61565b613d4e6020830189613c61565b613d5b6040830188613c61565b613d686060830187613d1d565b613d756080830186613c61565b613d8260a0830185613a11565b613d8f60c0830184613a11565b98975050505050505050565b600060c082019050613db06000830189613c61565b613dbd6020830188613c61565b613dca6040830187613bcb565b613dd76060830186613c61565b613de46080830185613a11565b613df160a0830184613a11565b979650505050505050565b600080600060608486031215613e1557613e14613976565b5b6000613e2386828701613a5c565b9350506020613e3486828701613a5c565b9250506040613e4586828701613a5c565b9150509250925092565b613e5881613a05565b8114613e6357600080fd5b50565b600081359050613e7581613e4f565b92915050565b60008060408385031215613e9257613e91613976565b5b6000613ea085828601613c0c565b9250506020613eb185828601613e66565b9150509250929050565b600080fd5b600080fd5b7f4e487b7100000000000000000000000000000000000000000000000000000000600052604160045260246000fd5b613efd82613b00565b810181811067ffffffffffffffff82111715613f1c57613f1b613ec5565b5b80604052505050565b6000613f2f61396c565b9050613f3b8282613ef4565b919050565b600067ffffffffffffffff821115613f5b57613f5a613ec5565b5b613f6482613b00565b9050602081019050919050565b82818337600083830152505050565b6000613f93613f8e84613f40565b613f25565b905082815260208101848484011115613faf57613fae613ec0565b5b613fba848285613f71565b509392505050565b600082601f830112613fd757613fd6613ebb565b5b8135613fe7848260208601613f80565b91505092915050565b6000806000806080858703121561400a57614009613976565b5b600061401887828801613c0c565b945050602061402987828801613c0c565b935050604061403a87828801613a5c565b925050606085013567ffffffffffffffff81111561405b5761405a61397b565b5b61406787828801613fc2565b91505092959194509250565b600067ffffffffffffffff82111561408e5761408d613ec5565b5b61409782613b00565b9050602081019050919050565b60006140b76140b284614073565b613f25565b9050828152602081018484840111156140d3576140d2613ec0565b5b6140de848285613f71565b509392505050565b600082601f8301126140fb576140fa613ebb565b5b813561410b8482602086016140a4565b91505092915050565b6000806040838503121561412b5761412a613976565b5b600083013567ffffffffffffffff8111156141495761414861397b565b5b614155858286016140e6565b925050602083013567ffffffffffffffff8111156141765761417561397b565b5b614182858286016140e6565b9150509250929050565b7f4e487b7100000000000000000000000000000000000000000000000000000000600052602160045260246000fd5b600381106141cc576141cb61418c565b5b50565b60008190506141dd826141bb565b919050565b60006141ed826141cf565b9050919050565b6141fd816141e2565b82525050565b600061010082019050614219600083018b613c61565b818103602083015261422b818a613b11565b9050818103604083015261423f8189613b11565b905061424e6060830188613bcb565b61425b6080830187613bcb565b61426860a0830186613c61565b61427560c0830185613c61565b61428260e08301846141f4565b9998505050505050505050565b600080604083850312156142a6576142a5613976565b5b60006142b485828601613c0c565b92505060206142c585828601613c0c565b9150509250929050565b60006060820190506142e46000830186613bcb565b6142f16020830185613bcb565b6142fe6040830184613c61565b949350505050565b7f4e487b7100000000000000000000000000000000000000000000000000000000600052601160045260246000fd5b600061434082613a3b565b91507fffffffffffffffffffffffffffffffffffffffffffffffffffffffffffffffff820361437257614371614306565b5b600182019050919050565b7f4e487b7100000000000000000000000000000000000000000000000000000000600052602260045260246000fd5b600060028204905060018216806143c457607f821691505b6020821081036143d7576143d661437d565b5b50919050565b7f4552433732313a20617070726f76656420717565727920666f72206e6f6e657860008201527f697374656e7420746f6b656e0000000000000000000000000000000000000000602082015250565b6000614439602c83613abc565b9150614444826143dd565b604082019050919050565b600060208201905081810360008301526144688161442c565b9050919050565b7f4552433732313a20617070726f76616c20746f2063757272656e74206f776e6560008201527f7200000000000000000000000000000000000000000000000000000000000000602082015250565b60006144cb602183613abc565b91506144d68261446f565b604082019050919050565b600060208201905081810360008301526144fa816144be565b9050919050565b7f4552433732313a20617070726f76652063616c6c6572206973206e6f74206f7760008201527f6e6572206e6f7220617070726f76656420666f7220616c6c0000000000000000602082015250565b600061455d603883613abc565b915061456882614501565b604082019050919050565b6000602082019050818103600083015261458c81614550565b9050919050565b7f4552433732313a207472616e736665722063616c6c6572206973206e6f74206f60008201527f776e6572206e6f7220617070726f766564000000000000000000000000000000602082015250565b60006145ef603183613abc565b91506145fa82614593565b604082019050919050565b6000602082019050818103600083015261461e816145e2565b9050919050565b7f41756374696f6e206e6f7420656e646564207965742e00000000000000000000600082015250565b600061465b601683613abc565b915061466682614625565b602082019050919050565b6000602082019050818103600083015261468a8161464e565b9050919050565b7f41756374696f6e20616c726561647920636c61696d65642e0000000000000000600082015250565b60006146c7601883613abc565b91506146d282614691565b602082019050919050565b600060208201905081810360008301526146f6816146ba565b9050919050565b7f43616e206f6e6c7920626520636c61696d65642062792077696e6e65722e0000600082015250565b6000614733601e83613abc565b915061473e826146fd565b602082019050919050565b6000602082019050818103600083015261476281614726565b9050919050565b7f41756374696f6e20616c726561647920656e6465642e00000000000000000000600082015250565b600061479f601683613abc565b91506147aa82614769565b602082019050919050565b600060208201905081810360008301526147ce81614792565b9050919050565b7f4c6f776572206269643f204a6f6b696e672e0000000000000000000000000000600082015250565b600061480b601283613abc565b9150614816826147d5565b602082019050919050565b6000602082019050818103600083015261483a816147fe565b9050919050565b7f4552433732313a206f776e657220717565727920666f72206e6f6e657869737460008201527f656e7420746f6b656e0000000000000000000000000000000000000000000000602082015250565b600061489d602983613abc565b91506148a882614841565b604082019050919050565b600060208201905081810360008301526148cc81614890565b9050919050565b7f4552433732313a2062616c616e636520717565727920666f7220746865207a6560008201527f726f206164647265737300000000000000000000000000000000000000000000602082015250565b600061492f602a83613abc565b915061493a826148d3565b604082019050919050565b6000602082019050818103600083015261495e81614922565b9050919050565b7f546865206f66666572206d757374206578697374000000000000000000000000600082015250565b600061499b601483613abc565b91506149a682614965565b602082019050919050565b600060208201905081810360008301526149ca8161498e565b9050919050565b7f546865206f776e6572206f6620746865206f666665722063616e6e6f7420666960008201527f6c6c206974000000000000000000000000000000000000000000000000000000602082015250565b6000614a2d602583613abc565b9150614a38826149d1565b604082019050919050565b60006020820190508181036000830152614a5c81614a20565b9050919050565b7f416e206f666665722063616e6e6f742062652066756c66696c6c65642074776960008201527f6365000000000000000000000000000000000000000000000000000000000000602082015250565b6000614abf602283613abc565b9150614aca82614a63565b604082019050919050565b60006020820190508181036000830152614aee81614ab2565b9050919050565b7f412063616e63656c6c6564206f666665722063616e6e6f742062652066756c6660008201527f696c6c6564000000000000000000000000000000000000000000000000000000602082015250565b6000614b51602583613abc565b9150614b5c82614af5565b604082019050919050565b60006020820190508181036000830152614b8081614b44565b9050919050565b7f5468652045544820616d6f756e742073686f756c64206d61746368207769746860008201527f20746865204e4654205072696365000000000000000000000000000000000000602082015250565b6000614be3602e83613abc565b9150614bee82614b87565b604082019050919050565b60006020820190508181036000830152614c1281614bd6565b9050919050565b6000614c2482613a3b565b9150614c2f83613a3b565b9250827fffffffffffffffffffffffffffffffffffffffffffffffffffffffffffffffff03821115614c6457614c63614306565b5b828201905092915050565b6000606082019050614c846000830186613c61565b614c916020830185613c61565b614c9e6040830184613bcb565b949350505050565b7f416c7265616479206f6e2061756374696f6e2e00000000000000000000000000600082015250565b6000614cdc601383613abc565b9150614ce782614ca6565b602082019050919050565b60006020820190508181036000830152614d0b81614ccf565b9050919050565b7f4f6e6c79204f776e65722043616e20426567696e20612041756374696f6e2e00600082015250565b6000614d48601f83613abc565b9150614d5382614d12565b602082019050919050565b60006020820190508181036000830152614d7781614d3b565b9050919050565b7f54686973207573657220686173206e6f2066756e647320746f20626520636c6160008201527f696d656400000000000000000000000000000000000000000000000000000000602082015250565b6000614dda602483613abc565b9150614de582614d7e565b604082019050919050565b60006020820190508181036000830152614e0981614dcd565b9050919050565b6000604082019050614e256000830185613bcb565b614e326020830184613c61565b9392505050565b7f4f6e6c79204f776e65722043616e20456e6420612041756374696f6e2e000000600082015250565b6000614e6f601d83613abc565b9150614e7a82614e39565b602082019050919050565b60006020820190508181036000830152614e9e81614e62565b9050919050565b7f4e6f7420656e642074696d652e00000000000000000000000000000000000000600082015250565b6000614edb600d83613abc565b9150614ee682614ea5565b602082019050919050565b60006020820190508181036000830152614f0a81614ece565b9050919050565b7f416c726561647920456e6465642e000000000000000000000000000000000000600082015250565b6000614f47600e83613abc565b9150614f5282614f11565b602082019050919050565b60006020820190508181036000830152614f7681614f3a565b9050919050565b7f45524337323155524953746f726167653a2055524920717565727920666f722060008201527f6e6f6e6578697374656e7420746f6b656e000000000000000000000000000000602082015250565b6000614fd9603183613abc565b9150614fe482614f7d565b604082019050919050565b6000602082019050818103600083015261500881614fcc565b9050919050565b600081905092915050565b600061502582613ab1565b61502f818561500f565b935061503f818560208601613acd565b80840191505092915050565b6000615057828561501a565b9150615063828461501a565b91508190509392505050565b7f546865206f666665722063616e206f6e6c792062652063616e63656c6564206260008201527f7920746865206f776e6572000000000000000000000000000000000000000000602082015250565b60006150cb602b83613abc565b91506150d68261506f565b604082019050919050565b600060208201905081810360008301526150fa816150be565b9050919050565b7f412066756c66696c6c6564206f666665722063616e6e6f742062652063616e6360008201527f656c6c6564000000000000000000000000000000000000000000000000000000602082015250565b600061515d602583613abc565b915061516882615101565b604082019050919050565b6000602082019050818103600083015261518c81615150565b9050919050565b7f416e206f666665722063616e6e6f742062652063616e63656c6c65642074776960008201527f6365000000000000000000000000000000000000000000000000000000000000602082015250565b60006151ef602283613abc565b91506151fa82615193565b604082019050919050565b6000602082019050818103600083015261521e816151e2565b9050919050565b7f4552433732313a206f70657261746f7220717565727920666f72206e6f6e657860008201527f697374656e7420746f6b656e0000000000000000000000000000000000000000602082015250565b6000615281602c83613abc565b915061528c82615225565b604082019050919050565b600060208201905081810360008301526152b081615274565b9050919050565b7f4552433732313a207472616e736665722066726f6d20696e636f72726563742060008201527f6f776e6572000000000000000000000000000000000000000000000000000000602082015250565b6000615313602583613abc565b915061531e826152b7565b604082019050919050565b6000602082019050818103600083015261534281615306565b9050919050565b7f4552433732313a207472616e7366657220746f20746865207a65726f2061646460008201527f7265737300000000000000000000000000000000000000000000000000000000602082015250565b60006153a5602483613abc565b91506153b082615349565b604082019050919050565b600060208201905081810360008301526153d481615398565b9050919050565b60006153e682613a3b565b91506153f183613a3b565b92508282101561540457615403614306565b5b828203905092915050565b7f4552433732313a20617070726f766520746f2063616c6c657200000000000000600082015250565b6000615445601983613abc565b91506154508261540f565b602082019050919050565b6000602082019050818103600083015261547481615438565b9050919050565b7f4552433732313a207472616e7366657220746f206e6f6e20455243373231526560008201527f63656976657220696d706c656d656e7465720000000000000000000000000000602082015250565b60006154d7603283613abc565b91506154e28261547b565b604082019050919050565b60006020820190508181036000830152615506816154ca565b9050919050565b7f496d61676549442072657065617465642e000000000000000000000000000000600082015250565b6000615543601183613abc565b915061554e8261550d565b602082019050919050565b6000602082019050818103600083015261557281615536565b9050919050565b6000615585828461501a565b915081905092915050565b7f546f6b656e205552492072657065617465642e00000000000000000000000000600082015250565b60006155c6601383613abc565b91506155d182615590565b602082019050919050565b600060208201905081810360008301526155f5816155b9565b9050919050565b7f4552433732314d657461646174613a2055524920717565727920666f72206e6f60008201527f6e6578697374656e7420746f6b656e0000000000000000000000000000000000602082015250565b6000615658602f83613abc565b9150615663826155fc565b604082019050919050565b600060208201905081810360008301526156878161564b565b9050919050565b600081519050919050565b600082825260208201905092915050565b60006156b58261568e565b6156bf8185615699565b93506156cf818560208601613acd565b6156d881613b00565b840191505092915050565b60006080820190506156f86000830187613bcb565b6157056020830186613bcb565b6157126040830185613c61565b818103606083015261572481846156aa565b905095945050505050565b60008151905061573e816139ac565b92915050565b60006020828403121561575a57615759613976565b5b60006157688482850161572f565b91505092915050565b7f45524337323155524953746f726167653a2055524920736574206f66206e6f6e60008201527f6578697374656e7420746f6b656e000000000000000000000000000000000000602082015250565b60006157cd602e83613abc565b91506157d882615771565b604082019050919050565b600060208201905081810360008301526157fc816157c0565b9050919050565b7f4e487b7100000000000000000000000000000000000000000000000000000000600052601260045260246000fd5b600061583d82613a3b565b915061584883613a3b565b92508261585857615857615803565b5b828204905092915050565b600061586e82613a3b565b915061587983613a3b565b92508261588957615888615803565b5b828206905092915050565b7f4e487b7100000000000000000000000000000000000000000000000000000000600052603260045260246000fd5b7f4552433732313a206d696e7420746f20746865207a65726f2061646472657373600082015250565b60006158f9602083613abc565b9150615904826158c3565b602082019050919050565b60006020820190508181036000830152615928816158ec565b9050919050565b7f4552433732313a20746f6b656e20616c7265616479206d696e74656400000000600082015250565b6000615965601c83613abc565b91506159708261592f565b602082019050919050565b6000602082019050818103600083015261599481615958565b905091905056fea264697066735822122028ee6788806f5e32351dc8be92903c283c5fa59050372f779dd783edf209599964736f6c634300080d0033",
  "immutableReferences": {},
  "source": "// SPDX-License-Identifier: MIT\r\npragma solidity ^0.8.0;\r\n\r\nimport \"./ImageNFTMarketplace.sol\";\r\nimport \"./NFTMarketplace.sol\";\r\nimport \"./NFTCollection.sol\";\r\n\r\ncontract ConstContract is ImageMarketplace, NFTMarketplace{}",
  "sourcePath": "C:\\Users\\Administrator\\Documents\\GitHub\\const\\contracts\\ConstContract.sol",
  "compiler": {
    "name": "solc",
    "version": "0.8.13+commit.abaa5c0e.Emscripten.clang"
  },
  "schemaVersion": "3.4.6",
  "updatedAt": "2022-04-08T16:03:12.028Z",
  "networkType": "ethereum",
  "devdoc": {
    "kind": "dev",
    "methods": {
      "approve(address,uint256)": {
        "details": "See {IERC721-approve}."
      },
      "balanceOf(address)": {
        "details": "See {IERC721-balanceOf}."
      },
      "getApproved(uint256)": {
        "details": "See {IERC721-getApproved}."
      },
      "isApprovedForAll(address,address)": {
        "details": "See {IERC721-isApprovedForAll}."
      },
      "name()": {
        "details": "See {IERC721Metadata-name}."
      },
      "ownerOf(uint256)": {
        "details": "See {IERC721-ownerOf}."
      },
      "safeTransferFrom(address,address,uint256)": {
        "details": "See {IERC721-safeTransferFrom}."
      },
      "safeTransferFrom(address,address,uint256,bytes)": {
        "details": "See {IERC721-safeTransferFrom}."
      },
      "setApprovalForAll(address,bool)": {
        "details": "See {IERC721-setApprovalForAll}."
      },
      "supportsInterface(bytes4)": {
        "details": "See {IERC165-supportsInterface}."
      },
      "symbol()": {
        "details": "See {IERC721Metadata-symbol}."
      },
      "tokenURI(uint256)": {
        "details": "See {IERC721Metadata-tokenURI}."
      },
      "transferFrom(address,address,uint256)": {
        "details": "See {IERC721-transferFrom}."
      }
    },
    "version": 1
  },
  "userdoc": {
    "kind": "user",
    "methods": {},
    "version": 1
  }
}