{
  "contractName": "ConstContract",
  "abi": [
    {
      "anonymous": false,
      "inputs": [
        {
          "indexed": true,
          "internalType": "address",
          "name": "owner",
          "type": "address"
        },
        {
          "indexed": true,
          "internalType": "address",
          "name": "approved",
          "type": "address"
        },
        {
          "indexed": true,
          "internalType": "uint256",
          "name": "tokenId",
          "type": "uint256"
        }
      ],
      "name": "Approval",
      "type": "event"
    },
    {
      "anonymous": false,
      "inputs": [
        {
          "indexed": true,
          "internalType": "address",
          "name": "owner",
          "type": "address"
        },
        {
          "indexed": true,
          "internalType": "address",
          "name": "operator",
          "type": "address"
        },
        {
          "indexed": false,
          "internalType": "bool",
          "name": "approved",
          "type": "bool"
        }
      ],
      "name": "ApprovalForAll",
      "type": "event"
    },
    {
      "anonymous": false,
      "inputs": [
        {
          "indexed": false,
          "internalType": "address",
          "name": "user",
          "type": "address"
        },
        {
          "indexed": false,
          "internalType": "uint256",
          "name": "amount",
          "type": "uint256"
        }
      ],
      "name": "ClaimFunds",
      "type": "event"
    },
    {
      "anonymous": false,
      "inputs": [
        {
          "indexed": false,
          "internalType": "uint256",
          "name": "offerId",
          "type": "uint256"
        },
        {
          "indexed": false,
          "internalType": "uint256",
          "name": "id",
          "type": "uint256"
        },
        {
          "indexed": false,
          "internalType": "address",
          "name": "user",
          "type": "address"
        },
        {
          "indexed": false,
          "internalType": "uint256",
          "name": "price",
          "type": "uint256"
        },
        {
          "indexed": false,
          "internalType": "bool",
          "name": "fulfilled",
          "type": "bool"
        },
        {
          "indexed": false,
          "internalType": "bool",
          "name": "cancelled",
          "type": "bool"
        }
      ],
      "name": "Offer",
      "type": "event"
    },
    {
      "anonymous": false,
      "inputs": [
        {
          "indexed": false,
          "internalType": "uint256",
          "name": "offerId",
          "type": "uint256"
        },
        {
          "indexed": false,
          "internalType": "uint256",
          "name": "id",
          "type": "uint256"
        },
        {
          "indexed": false,
          "internalType": "address",
          "name": "owner",
          "type": "address"
        }
      ],
      "name": "OfferCancelled",
      "type": "event"
    },
    {
      "anonymous": false,
      "inputs": [
        {
          "indexed": false,
          "internalType": "uint256",
          "name": "offerId",
          "type": "uint256"
        },
        {
          "indexed": false,
          "internalType": "uint256",
          "name": "id",
          "type": "uint256"
        },
        {
          "indexed": false,
          "internalType": "address",
          "name": "newOwner",
          "type": "address"
        }
      ],
      "name": "OfferFilled",
      "type": "event"
    },
    {
      "anonymous": false,
      "inputs": [
        {
          "indexed": true,
          "internalType": "address",
          "name": "from",
          "type": "address"
        },
        {
          "indexed": true,
          "internalType": "address",
          "name": "to",
          "type": "address"
        },
        {
          "indexed": true,
          "internalType": "uint256",
          "name": "tokenId",
          "type": "uint256"
        }
      ],
      "name": "Transfer",
      "type": "event"
    },
    {
      "stateMutability": "nonpayable",
      "type": "fallback"
    },
    {
      "inputs": [
        {
          "internalType": "address",
          "name": "to",
          "type": "address"
        },
        {
          "internalType": "uint256",
          "name": "tokenId",
          "type": "uint256"
        }
      ],
      "name": "approve",
      "outputs": [],
      "stateMutability": "nonpayable",
      "type": "function"
    },
    {
      "inputs": [
        {
          "internalType": "uint256",
          "name": "",
          "type": "uint256"
        }
      ],
      "name": "auctions",
      "outputs": [
        {
          "internalType": "uint256",
          "name": "imageID",
          "type": "uint256"
        },
        {
          "internalType": "uint256",
          "name": "startBid",
          "type": "uint256"
        },
        {
          "internalType": "uint256",
          "name": "highestBid",
          "type": "uint256"
        },
        {
          "internalType": "address payable",
          "name": "winner",
          "type": "address"
        },
        {
          "internalType": "uint256",
          "name": "endTime",
          "type": "uint256"
        },
        {
          "internalType": "bool",
          "name": "ended",
          "type": "bool"
        },
        {
          "internalType": "bool",
          "name": "claimed",
          "type": "bool"
        }
      ],
      "stateMutability": "view",
      "type": "function",
      "constant": true
    },
    {
      "inputs": [
        {
          "internalType": "address",
          "name": "owner",
          "type": "address"
        }
      ],
      "name": "balanceOf",
      "outputs": [
        {
          "internalType": "uint256",
          "name": "",
          "type": "uint256"
        }
      ],
      "stateMutability": "view",
      "type": "function",
      "constant": true
    },
    {
      "inputs": [
        {
          "internalType": "uint256",
          "name": "_tokenID",
          "type": "uint256"
        },
        {
          "internalType": "uint256",
          "name": "_minBid",
          "type": "uint256"
        },
        {
          "internalType": "uint256",
          "name": "_duration",
          "type": "uint256"
        }
      ],
      "name": "beginAuction",
      "outputs": [
        {
          "internalType": "bool",
          "name": "success",
          "type": "bool"
        }
      ],
      "stateMutability": "nonpayable",
      "type": "function"
    },
    {
      "inputs": [
        {
          "internalType": "uint256",
          "name": "auctionID",
          "type": "uint256"
        },
        {
          "internalType": "uint256",
          "name": "newBid",
          "type": "uint256"
        }
      ],
      "name": "bid",
      "outputs": [
        {
          "internalType": "bool",
          "name": "success",
          "type": "bool"
        }
      ],
      "stateMutability": "nonpayable",
      "type": "function"
    },
    {
      "inputs": [
        {
          "internalType": "uint256",
          "name": "auctionID",
          "type": "uint256"
        }
      ],
      "name": "claim",
      "outputs": [],
      "stateMutability": "payable",
      "type": "function",
      "payable": true
    },
    {
      "inputs": [],
      "name": "currentImageCount",
      "outputs": [
        {
          "internalType": "uint256",
          "name": "",
          "type": "uint256"
        }
      ],
      "stateMutability": "view",
      "type": "function",
      "constant": true
    },
    {
      "inputs": [
        {
          "internalType": "uint256",
          "name": "auctionID",
          "type": "uint256"
        }
      ],
      "name": "endAuction",
      "outputs": [
        {
          "internalType": "bool",
          "name": "success",
          "type": "bool"
        }
      ],
      "stateMutability": "nonpayable",
      "type": "function"
    },
    {
      "inputs": [
        {
          "internalType": "uint256",
          "name": "tokenId",
          "type": "uint256"
        }
      ],
      "name": "getApproved",
      "outputs": [
        {
          "internalType": "address",
          "name": "",
          "type": "address"
        }
      ],
      "stateMutability": "view",
      "type": "function",
      "constant": true
    },
    {
      "inputs": [
        {
          "internalType": "address",
          "name": "owner",
          "type": "address"
        }
      ],
      "name": "getOwnedNumber",
      "outputs": [
        {
          "internalType": "uint256",
          "name": "",
          "type": "uint256"
        }
      ],
      "stateMutability": "view",
      "type": "function",
      "constant": true
    },
    {
      "inputs": [
        {
          "internalType": "uint256",
          "name": "_tokenID",
          "type": "uint256"
        }
      ],
      "name": "getTokenOnwer",
      "outputs": [
        {
          "internalType": "address",
          "name": "",
          "type": "address"
        }
      ],
      "stateMutability": "view",
      "type": "function",
      "constant": true
    },
    {
      "inputs": [
        {
          "internalType": "uint256",
          "name": "_tokenID",
          "type": "uint256"
        }
      ],
      "name": "getTokenURI",
      "outputs": [
        {
          "internalType": "string",
          "name": "",
          "type": "string"
        }
      ],
      "stateMutability": "view",
      "type": "function",
      "constant": true
    },
    {
      "inputs": [
        {
          "internalType": "uint256",
          "name": "",
          "type": "uint256"
        }
      ],
      "name": "imageStorage",
      "outputs": [
        {
          "internalType": "uint256",
          "name": "tokenID",
          "type": "uint256"
        },
        {
          "internalType": "string",
          "name": "tokenName",
          "type": "string"
        },
        {
          "internalType": "string",
          "name": "tokenURI",
          "type": "string"
        },
        {
          "internalType": "address",
          "name": "mintedBy",
          "type": "address"
        },
        {
          "internalType": "address",
          "name": "currentOwner",
          "type": "address"
        },
        {
          "internalType": "uint256",
          "name": "transferTime",
          "type": "uint256"
        },
        {
          "internalType": "uint256",
          "name": "highestBidPrice",
          "type": "uint256"
        },
        {
          "internalType": "enum ImageNFT.Status",
          "name": "status",
          "type": "uint8"
        }
      ],
      "stateMutability": "view",
      "type": "function",
      "constant": true
    },
    {
      "inputs": [
        {
          "internalType": "address",
          "name": "owner",
          "type": "address"
        },
        {
          "internalType": "address",
          "name": "operator",
          "type": "address"
        }
      ],
      "name": "isApprovedForAll",
      "outputs": [
        {
          "internalType": "bool",
          "name": "",
          "type": "bool"
        }
      ],
      "stateMutability": "view",
      "type": "function",
      "constant": true
    },
    {
      "inputs": [
        {
          "internalType": "string",
          "name": "imageName",
          "type": "string"
        },
        {
          "internalType": "string",
          "name": "ipfsHashOfPhoto",
          "type": "string"
        }
      ],
      "name": "mintImageNFT",
      "outputs": [
        {
          "internalType": "bool",
          "name": "",
          "type": "bool"
        }
      ],
      "stateMutability": "nonpayable",
      "type": "function"
    },
    {
      "inputs": [],
      "name": "name",
      "outputs": [
        {
          "internalType": "string",
          "name": "",
          "type": "string"
        }
      ],
      "stateMutability": "view",
      "type": "function",
      "constant": true
    },
    {
      "inputs": [],
      "name": "offerCount",
      "outputs": [
        {
          "internalType": "uint256",
          "name": "",
          "type": "uint256"
        }
      ],
      "stateMutability": "view",
      "type": "function",
      "constant": true
    },
    {
      "inputs": [
        {
          "internalType": "uint256",
          "name": "",
          "type": "uint256"
        }
      ],
      "name": "offers",
      "outputs": [
        {
          "internalType": "uint256",
          "name": "offerId",
          "type": "uint256"
        },
        {
          "internalType": "uint256",
          "name": "id",
          "type": "uint256"
        },
        {
          "internalType": "address",
          "name": "user",
          "type": "address"
        },
        {
          "internalType": "uint256",
          "name": "price",
          "type": "uint256"
        },
        {
          "internalType": "bool",
          "name": "fulfilled",
          "type": "bool"
        },
        {
          "internalType": "bool",
          "name": "cancelled",
          "type": "bool"
        }
      ],
      "stateMutability": "view",
      "type": "function",
      "constant": true
    },
    {
      "inputs": [
        {
          "internalType": "uint256",
          "name": "tokenId",
          "type": "uint256"
        }
      ],
      "name": "ownerOf",
      "outputs": [
        {
          "internalType": "address",
          "name": "",
          "type": "address"
        }
      ],
      "stateMutability": "view",
      "type": "function",
      "constant": true
    },
    {
      "inputs": [
        {
          "internalType": "uint256",
          "name": "",
          "type": "uint256"
        },
        {
          "internalType": "uint256",
          "name": "",
          "type": "uint256"
        }
      ],
      "name": "ownerShipTrans",
      "outputs": [
        {
          "internalType": "address",
          "name": "",
          "type": "address"
        }
      ],
      "stateMutability": "view",
      "type": "function",
      "constant": true
    },
    {
      "inputs": [
        {
          "internalType": "address",
          "name": "from",
          "type": "address"
        },
        {
          "internalType": "address",
          "name": "to",
          "type": "address"
        },
        {
          "internalType": "uint256",
          "name": "tokenId",
          "type": "uint256"
        }
      ],
      "name": "safeTransferFrom",
      "outputs": [],
      "stateMutability": "nonpayable",
      "type": "function"
    },
    {
      "inputs": [
        {
          "internalType": "address",
          "name": "from",
          "type": "address"
        },
        {
          "internalType": "address",
          "name": "to",
          "type": "address"
        },
        {
          "internalType": "uint256",
          "name": "tokenId",
          "type": "uint256"
        },
        {
          "internalType": "bytes",
          "name": "_data",
          "type": "bytes"
        }
      ],
      "name": "safeTransferFrom",
      "outputs": [],
      "stateMutability": "nonpayable",
      "type": "function"
    },
    {
      "inputs": [
        {
          "internalType": "address",
          "name": "operator",
          "type": "address"
        },
        {
          "internalType": "bool",
          "name": "approved",
          "type": "bool"
        }
      ],
      "name": "setApprovalForAll",
      "outputs": [],
      "stateMutability": "nonpayable",
      "type": "function"
    },
    {
      "inputs": [
        {
          "internalType": "bytes4",
          "name": "interfaceId",
          "type": "bytes4"
        }
      ],
      "name": "supportsInterface",
      "outputs": [
        {
          "internalType": "bool",
          "name": "",
          "type": "bool"
        }
      ],
      "stateMutability": "view",
      "type": "function",
      "constant": true
    },
    {
      "inputs": [],
      "name": "symbol",
      "outputs": [
        {
          "internalType": "string",
          "name": "",
          "type": "string"
        }
      ],
      "stateMutability": "view",
      "type": "function",
      "constant": true
    },
    {
      "inputs": [
        {
          "internalType": "uint256",
          "name": "tokenId",
          "type": "uint256"
        }
      ],
      "name": "tokenURI",
      "outputs": [
        {
          "internalType": "string",
          "name": "",
          "type": "string"
        }
      ],
      "stateMutability": "view",
      "type": "function",
      "constant": true
    },
    {
      "inputs": [
        {
          "internalType": "address",
          "name": "from",
          "type": "address"
        },
        {
          "internalType": "address",
          "name": "to",
          "type": "address"
        },
        {
          "internalType": "uint256",
          "name": "tokenId",
          "type": "uint256"
        }
      ],
      "name": "transferFrom",
      "outputs": [],
      "stateMutability": "nonpayable",
      "type": "function"
    },
    {
      "inputs": [
        {
          "internalType": "address",
          "name": "",
          "type": "address"
        }
      ],
      "name": "userFunds",
      "outputs": [
        {
          "internalType": "uint256",
          "name": "",
          "type": "uint256"
        }
      ],
      "stateMutability": "view",
      "type": "function",
      "constant": true
    },
    {
      "inputs": [
        {
          "internalType": "uint256",
          "name": "_id",
          "type": "uint256"
        },
        {
          "internalType": "uint256",
          "name": "_price",
          "type": "uint256"
        }
      ],
      "name": "makeOffer",
      "outputs": [],
      "stateMutability": "nonpayable",
      "type": "function"
    },
    {
      "inputs": [
        {
          "internalType": "address",
          "name": "to",
          "type": "address"
        },
        {
          "internalType": "uint256",
          "name": "_offerId",
          "type": "uint256"
        }
      ],
      "name": "fillOffer",
      "outputs": [],
      "stateMutability": "payable",
      "type": "function",
      "payable": true
    },
    {
      "inputs": [
        {
          "internalType": "uint256",
          "name": "_offerId",
          "type": "uint256"
        }
      ],
      "name": "cancelOffer",
      "outputs": [],
      "stateMutability": "nonpayable",
      "type": "function"
    },
    {
      "inputs": [],
      "name": "claimFunds",
      "outputs": [],
      "stateMutability": "nonpayable",
      "type": "function"
    }
  ],
  "bytecode": "0x60806040523480156200001157600080fd5b506040518060400160405280601081526020017f496d61676520436f6c6c656374696f6e000000000000000000000000000000008152506040518060400160405280600381526020017f4e4654000000000000000000000000000000000000000000000000000000000081525081600090805190602001906200009692919062000101565b508060019080519060200190620000af92919062000101565b505050600060078190555030600d60006101000a81548173ffffffffffffffffffffffffffffffffffffffff021916908373ffffffffffffffffffffffffffffffffffffffff16021790555062000215565b8280546200010f90620001e0565b90600052602060002090601f0160209004810192826200013357600085556200017f565b82601f106200014e57805160ff19168380011785556200017f565b828001600101855582156200017f579182015b828111156200017e57825182559160200191906001019062000161565b5b5090506200018e919062000192565b5090565b5b80821115620001ad57600081600090555060010162000193565b5090565b7f4e487b7100000000000000000000000000000000000000000000000000000000600052602260045260246000fd5b60006002820490506001821680620001f957607f821691505b6020821081036200020f576200020e620001b1565b5b50919050565b6157e080620002256000396000f3fe6080604052600436106101e75760003560e01c80638a72ea6a11610102578063c0746fee11610095578063e7979dd211610064578063e7979dd2146107b1578063e985e9c5146107ee578063ef706adf1461082b578063fb3fd86c14610854576101e8565b8063c0746fee146106c8578063c87b56dd14610705578063d4d3690714610742578063dc471a6b1461076d576101e8565b8063ab22f4a6116100d1578063ab22f4a61461060e578063ac3077731461064b578063b88d4fde14610662578063b9a2de3a1461068b576101e8565b80638a72ea6a1461053b57806395d89b411461057d5780639bd2a574146105a8578063a22cb465146105e5576101e8565b8063379607f51161017a578063598647f811610149578063598647f8146104475780636352211e1461048457806370a08231146104c15780638387c6e1146104fe576101e8565b8063379607f5146103825780633bb3a24d1461039e57806342842e0e146103db578063571a26a014610404576101e8565b8063095ea7b3116101b6578063095ea7b3146102c85780631115c24d146102f157806323b872dd1461031c5780633527bb0a14610345576101e8565b806301ffc9a7146101fa57806305b7cdd31461023757806306fdde0314610260578063081812fc1461028b576101e8565b5b3480156101f457600080fd5b50600080fd5b34801561020657600080fd5b50610221600480360381019061021c919061381e565b610870565b60405161022e9190613866565b60405180910390f35b34801561024357600080fd5b5061025e600480360381019061025991906138b7565b610952565b005b34801561026c57600080fd5b50610275610aba565b6040516102829190613990565b60405180910390f35b34801561029757600080fd5b506102b260048036038101906102ad91906139b2565b610b4c565b6040516102bf9190613a20565b60405180910390f35b3480156102d457600080fd5b506102ef60048036038101906102ea9190613a67565b610bd1565b005b3480156102fd57600080fd5b50610306610ce8565b6040516103139190613ab6565b60405180910390f35b34801561032857600080fd5b50610343600480360381019061033e9190613ad1565b610cee565b005b34801561035157600080fd5b5061036c60048036038101906103679190613b24565b610d4e565b6040516103799190613ab6565b60405180910390f35b61039c600480360381019061039791906139b2565b610d60565b005b3480156103aa57600080fd5b506103c560048036038101906103c091906139b2565b610f28565b6040516103d29190613990565b60405180910390f35b3480156103e757600080fd5b5061040260048036038101906103fd9190613ad1565b611183565b005b34801561041057600080fd5b5061042b600480360381019061042691906139b2565b6111a3565b60405161043e9796959493929190613b72565b60405180910390f35b34801561045357600080fd5b5061046e600480360381019061046991906138b7565b61121f565b60405161047b9190613866565b60405180910390f35b34801561049057600080fd5b506104ab60048036038101906104a691906139b2565b61138a565b6040516104b89190613a20565b60405180910390f35b3480156104cd57600080fd5b506104e860048036038101906104e39190613b24565b61143b565b6040516104f59190613ab6565b60405180910390f35b34801561050a57600080fd5b5061052560048036038101906105209190613b24565b6114f2565b6040516105329190613ab6565b60405180910390f35b34801561054757600080fd5b50610562600480360381019061055d91906139b2565b61150a565b60405161057496959493929190613be1565b60405180910390f35b34801561058957600080fd5b50610592611580565b60405161059f9190613990565b60405180910390f35b3480156105b457600080fd5b506105cf60048036038101906105ca9190613c42565b611612565b6040516105dc9190613866565b60405180910390f35b3480156105f157600080fd5b5061060c60048036038101906106079190613cc1565b611863565b005b34801561061a57600080fd5b50610635600480360381019061063091906139b2565b611879565b6040516106429190613a20565b60405180910390f35b34801561065757600080fd5b5061066061188b565b005b34801561066e57600080fd5b5061068960048036038101906106849190613e36565b611a52565b005b34801561069757600080fd5b506106b260048036038101906106ad91906139b2565b611ab4565b6040516106bf9190613866565b60405180910390f35b3480156106d457600080fd5b506106ef60048036038101906106ea9190613f5a565b611c13565b6040516106fc9190613866565b60405180910390f35b34801561071157600080fd5b5061072c600480360381019061072791906139b2565b611c38565b6040516107399190613990565b60405180910390f35b34801561074e57600080fd5b50610757611d89565b6040516107649190613ab6565b60405180910390f35b34801561077957600080fd5b50610794600480360381019061078f91906139b2565b611d8f565b6040516107a8989796959493929190614049565b60405180910390f35b3480156107bd57600080fd5b506107d860048036038101906107d391906138b7565b611f34565b6040516107e59190613a20565b60405180910390f35b3480156107fa57600080fd5b50610815600480360381019061081091906140d5565b611f82565b6040516108229190613866565b60405180910390f35b34801561083757600080fd5b50610852600480360381019061084d91906139b2565b612016565b005b61086e60048036038101906108699190613a67565b612215565b005b60007f80ac58cd000000000000000000000000000000000000000000000000000000007bffffffffffffffffffffffffffffffffffffffffffffffffffffffff1916827bffffffffffffffffffffffffffffffffffffffffffffffffffffffff1916148061093b57507f5b5e139f000000000000000000000000000000000000000000000000000000007bffffffffffffffffffffffffffffffffffffffffffffffffffffffff1916827bffffffffffffffffffffffffffffffffffffffffffffffffffffffff1916145b8061094b575061094a826124c9565b5b9050919050565b600e600081548092919061096590614144565b91905055506040518060c00160405280600e5481526020018381526020013373ffffffffffffffffffffffffffffffffffffffff16815260200182815260200160001515815260200160001515815250600f6000600e548152602001908152602001600020600082015181600001556020820151816001015560408201518160020160006101000a81548173ffffffffffffffffffffffffffffffffffffffff021916908373ffffffffffffffffffffffffffffffffffffffff1602179055506060820151816003015560808201518160040160006101000a81548160ff02191690831515021790555060a08201518160040160016101000a81548160ff0219169083151502179055509050507f93e711896d4ef527d199d7e101922e20f918cbb248a0fb0977c52fda24aa1f1d600e54833384600080604051610aae96959493929190613be1565b60405180910390a15050565b606060008054610ac9906141bb565b80601f0160208091040260200160405190810160405280929190818152602001828054610af5906141bb565b8015610b425780601f10610b1757610100808354040283529160200191610b42565b820191906000526020600020905b815481529060010190602001808311610b2557829003601f168201915b5050505050905090565b6000610b5782612533565b610b96576040517f08c379a0000000000000000000000000000000000000000000000000000000008152600401610b8d9061425e565b60405180910390fd5b6004600083815260200190815260200160002060009054906101000a900473ffffffffffffffffffffffffffffffffffffffff169050919050565b6000610bdc8261138a565b90508073ffffffffffffffffffffffffffffffffffffffff168373ffffffffffffffffffffffffffffffffffffffff1603610c4c576040517f08c379a0000000000000000000000000000000000000000000000000000000008152600401610c43906142f0565b60405180910390fd5b8073ffffffffffffffffffffffffffffffffffffffff16610c6b61259f565b73ffffffffffffffffffffffffffffffffffffffff161480610c9a5750610c9981610c9461259f565b611f82565b5b610cd9576040517f08c379a0000000000000000000000000000000000000000000000000000000008152600401610cd090614382565b60405180910390fd5b610ce383836125a7565b505050565b600e5481565b610cff610cf961259f565b82612660565b610d3e576040517f08c379a0000000000000000000000000000000000000000000000000000000008152600401610d3590614414565b60405180910390fd5b610d4983838361273e565b505050565b6000610d598261143b565b9050919050565b6000600b600083815260200190815260200160002090508060050160009054906101000a900460ff16610dc8576040517f08c379a0000000000000000000000000000000000000000000000000000000008152600401610dbf90614480565b60405180910390fd5b8060050160019054906101000a900460ff1615610e1a576040517f08c379a0000000000000000000000000000000000000000000000000000000008152600401610e11906144ec565b60405180910390fd5b3373ffffffffffffffffffffffffffffffffffffffff168160030160009054906101000a900473ffffffffffffffffffffffffffffffffffffffff1673ffffffffffffffffffffffffffffffffffffffff1614610eac576040517f08c379a0000000000000000000000000000000000000000000000000000000008152600401610ea390614558565b60405180910390fd5b6000610ebb826000015461138a565b90508073ffffffffffffffffffffffffffffffffffffffff166108fc349081150290604051600060405180830381858888f19350505050158015610f03573d6000803e3d6000fd5b50610f128260000154336129a4565b50610f2282600001546000612ad1565b50505050565b60606000600860008481526020019081526020016000206040518061010001604052908160008201548152602001600182018054610f65906141bb565b80601f0160208091040260200160405190810160405280929190818152602001828054610f91906141bb565b8015610fde5780601f10610fb357610100808354040283529160200191610fde565b820191906000526020600020905b815481529060010190602001808311610fc157829003601f168201915b50505050508152602001600282018054610ff7906141bb565b80601f0160208091040260200160405190810160405280929190818152602001828054611023906141bb565b80156110705780601f1061104557610100808354040283529160200191611070565b820191906000526020600020905b81548152906001019060200180831161105357829003601f168201915b505050505081526020016003820160009054906101000a900473ffffffffffffffffffffffffffffffffffffffff1673ffffffffffffffffffffffffffffffffffffffff1673ffffffffffffffffffffffffffffffffffffffff1681526020016004820160009054906101000a900473ffffffffffffffffffffffffffffffffffffffff1673ffffffffffffffffffffffffffffffffffffffff1673ffffffffffffffffffffffffffffffffffffffff16815260200160058201548152602001600682015481526020016007820160009054906101000a900460ff16600281111561115e5761115d613fd2565b5b60028111156111705761116f613fd2565b5b8152505090508060400151915050919050565b61119e83838360405180602001604052806000815250611a52565b505050565b600b6020528060005260406000206000915090508060000154908060010154908060020154908060030160009054906101000a900473ffffffffffffffffffffffffffffffffffffffff16908060040154908060050160009054906101000a900460ff16908060050160019054906101000a900460ff16905087565b600080600b600085815260200190815260200160002090508060050160009054906101000a900460ff1615611289576040517f08c379a0000000000000000000000000000000000000000000000000000000008152600401611280906145c4565b60405180910390fd5b806002015483116112cf576040517f08c379a00000000000000000000000000000000000000000000000000000000081526004016112c690614630565b60405180910390fd5b6112dd816000015484612b20565b50338160030160006101000a81548173ffffffffffffffffffffffffffffffffffffffff021916908373ffffffffffffffffffffffffffffffffffffffff16021790555082816002018190555082600c600086815260200190815260200160002060003373ffffffffffffffffffffffffffffffffffffffff1673ffffffffffffffffffffffffffffffffffffffff16815260200190815260200160002081905550600191505092915050565b6000806002600084815260200190815260200160002060009054906101000a900473ffffffffffffffffffffffffffffffffffffffff169050600073ffffffffffffffffffffffffffffffffffffffff168173ffffffffffffffffffffffffffffffffffffffff1603611432576040517f08c379a0000000000000000000000000000000000000000000000000000000008152600401611429906146c2565b60405180910390fd5b80915050919050565b60008073ffffffffffffffffffffffffffffffffffffffff168273ffffffffffffffffffffffffffffffffffffffff16036114ab576040517f08c379a00000000000000000000000000000000000000000000000000000000081526004016114a290614754565b60405180910390fd5b600360008373ffffffffffffffffffffffffffffffffffffffff1673ffffffffffffffffffffffffffffffffffffffff168152602001908152602001600020549050919050565b60106020528060005260406000206000915090505481565b600f6020528060005260406000206000915090508060000154908060010154908060020160009054906101000a900473ffffffffffffffffffffffffffffffffffffffff16908060030154908060040160009054906101000a900460ff16908060040160019054906101000a900460ff16905086565b60606001805461158f906141bb565b80601f01602080910402602001604051908101604052809291908181526020018280546115bb906141bb565b80156116085780601f106115dd57610100808354040283529160200191611608565b820191906000526020600020905b8154815290600101906020018083116115eb57829003601f168201915b5050505050905090565b6000836000600281111561162957611628613fd2565b5b6008600083815260200190815260200160002060070160009054906101000a900460ff16600281111561165f5761165e613fd2565b5b1461169f576040517f08c379a0000000000000000000000000000000000000000000000000000000008152600401611696906147c0565b60405180910390fd5b3373ffffffffffffffffffffffffffffffffffffffff166116bf8661138a565b73ffffffffffffffffffffffffffffffffffffffff1614611715576040517f08c379a000000000000000000000000000000000000000000000000000000000815260040161170c9061482c565b60405180910390fd5b611720856001612ad1565b5061172b8585612b20565b506000834261173a919061484c565b905060006040518060e001604052808881526020018781526020018781526020013373ffffffffffffffffffffffffffffffffffffffff16815260200183815260200160001515815260200160001515815250905080600b600089815260200190815260200160002060008201518160000155602082015181600101556040820151816002015560608201518160030160006101000a81548173ffffffffffffffffffffffffffffffffffffffff021916908373ffffffffffffffffffffffffffffffffffffffff1602179055506080820151816004015560a08201518160050160006101000a81548160ff02191690831515021790555060c08201518160050160016101000a81548160ff021916908315150217905550905050600193505050509392505050565b61187561186e61259f565b8383612b63565b5050565b60006118848261138a565b9050919050565b6000601060003373ffffffffffffffffffffffffffffffffffffffff1673ffffffffffffffffffffffffffffffffffffffff168152602001908152602001600020541161190d576040517f08c379a000000000000000000000000000000000000000000000000000000000815260040161190490614914565b60405180910390fd5b3373ffffffffffffffffffffffffffffffffffffffff166108fc601060003373ffffffffffffffffffffffffffffffffffffffff1673ffffffffffffffffffffffffffffffffffffffff168152602001908152602001600020549081150290604051600060405180830381858888f19350505050158015611992573d6000803e3d6000fd5b507f4f0554190111f93f8c2ccef2cc41473f187d7f29ff5a5c308ca41f9dfe4e989a33601060003373ffffffffffffffffffffffffffffffffffffffff1673ffffffffffffffffffffffffffffffffffffffff16815260200190815260200160002054604051611a03929190614934565b60405180910390a16000601060003373ffffffffffffffffffffffffffffffffffffffff1673ffffffffffffffffffffffffffffffffffffffff16815260200190815260200160002081905550565b611a63611a5d61259f565b83612660565b611aa2576040517f08c379a0000000000000000000000000000000000000000000000000000000008152600401611a9990614414565b60405180910390fd5b611aae84848484612ccf565b50505050565b60003373ffffffffffffffffffffffffffffffffffffffff16611ad68361138a565b73ffffffffffffffffffffffffffffffffffffffff1614611b2c576040517f08c379a0000000000000000000000000000000000000000000000000000000008152600401611b23906149a9565b60405180910390fd5b6000600b600084815260200190815260200160002090508060040154421015611b8a576040517f08c379a0000000000000000000000000000000000000000000000000000000008152600401611b8190614a15565b60405180910390fd5b8060050160009054906101000a900460ff1615611bdc576040517f08c379a0000000000000000000000000000000000000000000000000000000008152600401611bd390614a81565b60405180910390fd5b611beb81600001546002612ad1565b5060018160050160006101000a81548160ff0219169083151502179055506001915050919050565b600080611c1f83612d2b565b9050611c2c338583612d5d565b50600191505092915050565b6060611c4382612533565b611c82576040517f08c379a0000000000000000000000000000000000000000000000000000000008152600401611c7990614b13565b60405180910390fd5b6000600660008481526020019081526020016000208054611ca2906141bb565b80601f0160208091040260200160405190810160405280929190818152602001828054611cce906141bb565b8015611d1b5780601f10611cf057610100808354040283529160200191611d1b565b820191906000526020600020905b815481529060010190602001808311611cfe57829003601f168201915b505050505090506000611d2c61303a565b90506000815103611d41578192505050611d84565b600082511115611d76578082604051602001611d5e929190614b6f565b60405160208183030381529060405292505050611d84565b611d7f84613051565b925050505b919050565b60075481565b6008602052806000526040600020600091509050806000015490806001018054611db8906141bb565b80601f0160208091040260200160405190810160405280929190818152602001828054611de4906141bb565b8015611e315780601f10611e0657610100808354040283529160200191611e31565b820191906000526020600020905b815481529060010190602001808311611e1457829003601f168201915b505050505090806002018054611e46906141bb565b80601f0160208091040260200160405190810160405280929190818152602001828054611e72906141bb565b8015611ebf5780601f10611e9457610100808354040283529160200191611ebf565b820191906000526020600020905b815481529060010190602001808311611ea257829003601f168201915b5050505050908060030160009054906101000a900473ffffffffffffffffffffffffffffffffffffffff16908060040160009054906101000a900473ffffffffffffffffffffffffffffffffffffffff16908060050154908060060154908060070160009054906101000a900460ff16905088565b60096020528160005260406000208181548110611f5057600080fd5b906000526020600020016000915091509054906101000a900473ffffffffffffffffffffffffffffffffffffffff1681565b6000600560008473ffffffffffffffffffffffffffffffffffffffff1673ffffffffffffffffffffffffffffffffffffffff16815260200190815260200160002060008373ffffffffffffffffffffffffffffffffffffffff1673ffffffffffffffffffffffffffffffffffffffff16815260200190815260200160002060009054906101000a900460ff16905092915050565b6000600f6000838152602001908152602001600020905081816000015414612073576040517f08c379a000000000000000000000000000000000000000000000000000000000815260040161206a90614bdf565b60405180910390fd5b3373ffffffffffffffffffffffffffffffffffffffff168160020160009054906101000a900473ffffffffffffffffffffffffffffffffffffffff1673ffffffffffffffffffffffffffffffffffffffff1614612105576040517f08c379a00000000000000000000000000000000000000000000000000000000081526004016120fc90614c71565b60405180910390fd5b600015158160040160009054906101000a900460ff1615151461215d576040517f08c379a000000000000000000000000000000000000000000000000000000000815260040161215490614d03565b60405180910390fd5b600015158160040160019054906101000a900460ff161515146121b5576040517f08c379a00000000000000000000000000000000000000000000000000000000081526004016121ac90614d95565b60405180910390fd5b60018160040160016101000a81548160ff0219169083151502179055507f5b166b4d0498ff8c4719999cb6154c5d197e6f020f9fbfcf9d347f84576cfab78282600101543360405161220993929190614db5565b60405180910390a15050565b6000600f6000838152602001908152602001600020905081816000015414612272576040517f08c379a000000000000000000000000000000000000000000000000000000000815260040161226990614bdf565b60405180910390fd5b3373ffffffffffffffffffffffffffffffffffffffff168160020160009054906101000a900473ffffffffffffffffffffffffffffffffffffffff1673ffffffffffffffffffffffffffffffffffffffff1603612304576040517f08c379a00000000000000000000000000000000000000000000000000000000081526004016122fb90614e5e565b60405180910390fd5b8060040160009054906101000a900460ff1615612356576040517f08c379a000000000000000000000000000000000000000000000000000000000815260040161234d90614ef0565b60405180910390fd5b8060040160019054906101000a900460ff16156123a8576040517f08c379a000000000000000000000000000000000000000000000000000000000815260040161239f90614f82565b60405180910390fd5b806003015434146123ee576040517f08c379a00000000000000000000000000000000000000000000000000000000081526004016123e590615014565b60405180910390fd5b60018160040160006101000a81548160ff02191690831515021790555034601060008360020160009054906101000a900473ffffffffffffffffffffffffffffffffffffffff1673ffffffffffffffffffffffffffffffffffffffff1673ffffffffffffffffffffffffffffffffffffffff168152602001908152602001600020600082825461247e919061484c565b925050819055507fd9157c065213ada613694e84b1e27fe2efd62d85c6b82bd6c842a4999491e72a828260010154336040516124bc93929190614db5565b60405180910390a1505050565b60007f01ffc9a7000000000000000000000000000000000000000000000000000000007bffffffffffffffffffffffffffffffffffffffffffffffffffffffff1916827bffffffffffffffffffffffffffffffffffffffffffffffffffffffff1916149050919050565b60008073ffffffffffffffffffffffffffffffffffffffff166002600084815260200190815260200160002060009054906101000a900473ffffffffffffffffffffffffffffffffffffffff1673ffffffffffffffffffffffffffffffffffffffff1614159050919050565b600033905090565b816004600083815260200190815260200160002060006101000a81548173ffffffffffffffffffffffffffffffffffffffff021916908373ffffffffffffffffffffffffffffffffffffffff160217905550808273ffffffffffffffffffffffffffffffffffffffff1661261a8361138a565b73ffffffffffffffffffffffffffffffffffffffff167f8c5be1e5ebec7d5bd14f71427d1e84f3dd0314c0f7b2291e5b200ac8c7c3b92560405160405180910390a45050565b600061266b82612533565b6126aa576040517f08c379a00000000000000000000000000000000000000000000000000000000081526004016126a1906150a6565b60405180910390fd5b60006126b58361138a565b90508073ffffffffffffffffffffffffffffffffffffffff168473ffffffffffffffffffffffffffffffffffffffff16148061272457508373ffffffffffffffffffffffffffffffffffffffff1661270c84610b4c565b73ffffffffffffffffffffffffffffffffffffffff16145b8061273557506127348185611f82565b5b91505092915050565b8273ffffffffffffffffffffffffffffffffffffffff1661275e8261138a565b73ffffffffffffffffffffffffffffffffffffffff16146127b4576040517f08c379a00000000000000000000000000000000000000000000000000000000081526004016127ab90615138565b60405180910390fd5b600073ffffffffffffffffffffffffffffffffffffffff168273ffffffffffffffffffffffffffffffffffffffff1603612823576040517f08c379a000000000000000000000000000000000000000000000000000000000815260040161281a906151ca565b60405180910390fd5b61282e8383836130f8565b6128396000826125a7565b6001600360008573ffffffffffffffffffffffffffffffffffffffff1673ffffffffffffffffffffffffffffffffffffffff168152602001908152602001600020600082825461288991906151ea565b925050819055506001600360008473ffffffffffffffffffffffffffffffffffffffff1673ffffffffffffffffffffffffffffffffffffffff16815260200190815260200160002060008282546128e0919061484c565b92505081905550816002600083815260200190815260200160002060006101000a81548173ffffffffffffffffffffffffffffffffffffffff021916908373ffffffffffffffffffffffffffffffffffffffff160217905550808273ffffffffffffffffffffffffffffffffffffffff168473ffffffffffffffffffffffffffffffffffffffff167fddf252ad1be2c89b69c2b068fc378daa952ba7f163c4a11628f55a4df523b3ef60405160405180910390a461299f8383836130fd565b505050565b600080600860008581526020019081526020016000209050600960008581526020019081526020016000208160040160009054906101000a900473ffffffffffffffffffffffffffffffffffffffff169080600181540180825580915050600190039060005260206000200160009091909190916101000a81548173ffffffffffffffffffffffffffffffffffffffff021916908373ffffffffffffffffffffffffffffffffffffffff160217905550828160040160006101000a81548173ffffffffffffffffffffffffffffffffffffffff021916908373ffffffffffffffffffffffffffffffffffffffff1602179055506001816005016000828254612aac919061484c565b92505081905550612ac6612abf8561138a565b848661273e565b600191505092915050565b600080600860008581526020019081526020016000209050828160070160006101000a81548160ff02191690836002811115612b1057612b0f613fd2565b5b0217905550600191505092915050565b6000806008600085815260200190815260200160002090508281600601541015612b57578281600601819055506001915050612b5d565b60009150505b92915050565b8173ffffffffffffffffffffffffffffffffffffffff168373ffffffffffffffffffffffffffffffffffffffff1603612bd1576040517f08c379a0000000000000000000000000000000000000000000000000000000008152600401612bc89061526a565b60405180910390fd5b80600560008573ffffffffffffffffffffffffffffffffffffffff1673ffffffffffffffffffffffffffffffffffffffff16815260200190815260200160002060008473ffffffffffffffffffffffffffffffffffffffff1673ffffffffffffffffffffffffffffffffffffffff16815260200190815260200160002060006101000a81548160ff0219169083151502179055508173ffffffffffffffffffffffffffffffffffffffff168373ffffffffffffffffffffffffffffffffffffffff167f17307eab39ab6107e8899845ad3d59bd9653f200f220920489ca2b5937696c3183604051612cc29190613866565b60405180910390a3505050565b612cda84848461273e565b612ce684848484613102565b612d25576040517f08c379a0000000000000000000000000000000000000000000000000000000008152600401612d1c906152fc565b60405180910390fd5b50505050565b6060612d35613289565b82604051602001612d47929190614b6f565b6040516020818303038152906040529050919050565b600060076000815480929190612d7290614144565b9190505550612d82600754612533565b15612dc2576040517f08c379a0000000000000000000000000000000000000000000000000000000008152600401612db990615368565b60405180910390fd5b600a82604051612dd29190615388565b908152602001604051809103902060009054906101000a900460ff1615612e2e576040517f08c379a0000000000000000000000000000000000000000000000000000000008152600401612e25906153eb565b60405180910390fd5b612e3a846007546132c6565b612e46600754836132e4565b600060405180610100016040528060075481526020018581526020018481526020013373ffffffffffffffffffffffffffffffffffffffff1681526020013373ffffffffffffffffffffffffffffffffffffffff168152602001600081526020016000815260200160006002811115612ec257612ec1613fd2565b5b81525090506001600a84604051612ed99190615388565b908152602001604051809103902060006101000a81548160ff02191690831515021790555080600860006007548152602001908152602001600020600082015181600001556020820151816001019080519060200190612f3a92919061370f565b506040820151816002019080519060200190612f5792919061370f565b5060608201518160030160006101000a81548173ffffffffffffffffffffffffffffffffffffffff021916908373ffffffffffffffffffffffffffffffffffffffff16021790555060808201518160040160006101000a81548173ffffffffffffffffffffffffffffffffffffffff021916908373ffffffffffffffffffffffffffffffffffffffff16021790555060a0820151816005015560c0820151816006015560e08201518160070160006101000a81548160ff0219169083600281111561302557613024613fd2565b5b02179055509050506007549150509392505050565b606060405180602001604052806000815250905090565b606061305c82612533565b61309b576040517f08c379a00000000000000000000000000000000000000000000000000000000081526004016130929061547d565b60405180910390fd5b60006130a561303a565b905060008151116130c557604051806020016040528060008152506130f0565b806130cf84613358565b6040516020016130e0929190614b6f565b6040516020818303038152906040525b915050919050565b505050565b505050565b60006131238473ffffffffffffffffffffffffffffffffffffffff166134b8565b1561327c578373ffffffffffffffffffffffffffffffffffffffff1663150b7a0261314c61259f565b8786866040518563ffffffff1660e01b815260040161316e94939291906154f2565b6020604051808303816000875af19250505080156131aa57506040513d601f19601f820116820180604052508101906131a79190615553565b60015b61322c573d80600081146131da576040519150601f19603f3d011682016040523d82523d6000602084013e6131df565b606091505b506000815103613224576040517f08c379a000000000000000000000000000000000000000000000000000000000815260040161321b906152fc565b60405180910390fd5b805181602001fd5b63150b7a0260e01b7bffffffffffffffffffffffffffffffffffffffffffffffffffffffff1916817bffffffffffffffffffffffffffffffffffffffffffffffffffffffff191614915050613281565b600190505b949350505050565b60606040518060400160405280601581526020017f68747470733a2f2f697066732e696f2f697066732f0000000000000000000000815250905090565b6132e08282604051806020016040528060008152506134db565b5050565b6132ed82612533565b61332c576040517f08c379a0000000000000000000000000000000000000000000000000000000008152600401613323906155f2565b60405180910390fd5b8060066000848152602001908152602001600020908051906020019061335392919061370f565b505050565b60606000820361339f576040518060400160405280600181526020017f300000000000000000000000000000000000000000000000000000000000000081525090506134b3565b600082905060005b600082146133d15780806133ba90614144565b915050600a826133ca9190615641565b91506133a7565b60008167ffffffffffffffff8111156133ed576133ec613d0b565b5b6040519080825280601f01601f19166020018201604052801561341f5781602001600182028036833780820191505090505b5090505b600085146134ac5760018261343891906151ea565b9150600a856134479190615672565b6030613453919061484c565b60f81b818381518110613469576134686156a3565b5b60200101907effffffffffffffffffffffffffffffffffffffffffffffffffffffffffffff1916908160001a905350600a856134a59190615641565b9450613423565b8093505050505b919050565b6000808273ffffffffffffffffffffffffffffffffffffffff163b119050919050565b6134e58383613536565b6134f26000848484613102565b613531576040517f08c379a0000000000000000000000000000000000000000000000000000000008152600401613528906152fc565b60405180910390fd5b505050565b600073ffffffffffffffffffffffffffffffffffffffff168273ffffffffffffffffffffffffffffffffffffffff16036135a5576040517f08c379a000000000000000000000000000000000000000000000000000000000815260040161359c9061571e565b60405180910390fd5b6135ae81612533565b156135ee576040517f08c379a00000000000000000000000000000000000000000000000000000000081526004016135e59061578a565b60405180910390fd5b6135fa600083836130f8565b6001600360008473ffffffffffffffffffffffffffffffffffffffff1673ffffffffffffffffffffffffffffffffffffffff168152602001908152602001600020600082825461364a919061484c565b92505081905550816002600083815260200190815260200160002060006101000a81548173ffffffffffffffffffffffffffffffffffffffff021916908373ffffffffffffffffffffffffffffffffffffffff160217905550808273ffffffffffffffffffffffffffffffffffffffff16600073ffffffffffffffffffffffffffffffffffffffff167fddf252ad1be2c89b69c2b068fc378daa952ba7f163c4a11628f55a4df523b3ef60405160405180910390a461370b600083836130fd565b5050565b82805461371b906141bb565b90600052602060002090601f01602090048101928261373d5760008555613784565b82601f1061375657805160ff1916838001178555613784565b82800160010185558215613784579182015b82811115613783578251825591602001919060010190613768565b5b5090506137919190613795565b5090565b5b808211156137ae576000816000905550600101613796565b5090565b6000604051905090565b600080fd5b600080fd5b60007fffffffff0000000000000000000000000000000000000000000000000000000082169050919050565b6137fb816137c6565b811461380657600080fd5b50565b600081359050613818816137f2565b92915050565b600060208284031215613834576138336137bc565b5b600061384284828501613809565b91505092915050565b60008115159050919050565b6138608161384b565b82525050565b600060208201905061387b6000830184613857565b92915050565b6000819050919050565b61389481613881565b811461389f57600080fd5b50565b6000813590506138b18161388b565b92915050565b600080604083850312156138ce576138cd6137bc565b5b60006138dc858286016138a2565b92505060206138ed858286016138a2565b9150509250929050565b600081519050919050565b600082825260208201905092915050565b60005b83811015613931578082015181840152602081019050613916565b83811115613940576000848401525b50505050565b6000601f19601f8301169050919050565b6000613962826138f7565b61396c8185613902565b935061397c818560208601613913565b61398581613946565b840191505092915050565b600060208201905081810360008301526139aa8184613957565b905092915050565b6000602082840312156139c8576139c76137bc565b5b60006139d6848285016138a2565b91505092915050565b600073ffffffffffffffffffffffffffffffffffffffff82169050919050565b6000613a0a826139df565b9050919050565b613a1a816139ff565b82525050565b6000602082019050613a356000830184613a11565b92915050565b613a44816139ff565b8114613a4f57600080fd5b50565b600081359050613a6181613a3b565b92915050565b60008060408385031215613a7e57613a7d6137bc565b5b6000613a8c85828601613a52565b9250506020613a9d858286016138a2565b9150509250929050565b613ab081613881565b82525050565b6000602082019050613acb6000830184613aa7565b92915050565b600080600060608486031215613aea57613ae96137bc565b5b6000613af886828701613a52565b9350506020613b0986828701613a52565b9250506040613b1a868287016138a2565b9150509250925092565b600060208284031215613b3a57613b396137bc565b5b6000613b4884828501613a52565b91505092915050565b6000613b5c826139df565b9050919050565b613b6c81613b51565b82525050565b600060e082019050613b87600083018a613aa7565b613b946020830189613aa7565b613ba16040830188613aa7565b613bae6060830187613b63565b613bbb6080830186613aa7565b613bc860a0830185613857565b613bd560c0830184613857565b98975050505050505050565b600060c082019050613bf66000830189613aa7565b613c036020830188613aa7565b613c106040830187613a11565b613c1d6060830186613aa7565b613c2a6080830185613857565b613c3760a0830184613857565b979650505050505050565b600080600060608486031215613c5b57613c5a6137bc565b5b6000613c69868287016138a2565b9350506020613c7a868287016138a2565b9250506040613c8b868287016138a2565b9150509250925092565b613c9e8161384b565b8114613ca957600080fd5b50565b600081359050613cbb81613c95565b92915050565b60008060408385031215613cd857613cd76137bc565b5b6000613ce685828601613a52565b9250506020613cf785828601613cac565b9150509250929050565b600080fd5b600080fd5b7f4e487b7100000000000000000000000000000000000000000000000000000000600052604160045260246000fd5b613d4382613946565b810181811067ffffffffffffffff82111715613d6257613d61613d0b565b5b80604052505050565b6000613d756137b2565b9050613d818282613d3a565b919050565b600067ffffffffffffffff821115613da157613da0613d0b565b5b613daa82613946565b9050602081019050919050565b82818337600083830152505050565b6000613dd9613dd484613d86565b613d6b565b905082815260208101848484011115613df557613df4613d06565b5b613e00848285613db7565b509392505050565b600082601f830112613e1d57613e1c613d01565b5b8135613e2d848260208601613dc6565b91505092915050565b60008060008060808587031215613e5057613e4f6137bc565b5b6000613e5e87828801613a52565b9450506020613e6f87828801613a52565b9350506040613e80878288016138a2565b925050606085013567ffffffffffffffff811115613ea157613ea06137c1565b5b613ead87828801613e08565b91505092959194509250565b600067ffffffffffffffff821115613ed457613ed3613d0b565b5b613edd82613946565b9050602081019050919050565b6000613efd613ef884613eb9565b613d6b565b905082815260208101848484011115613f1957613f18613d06565b5b613f24848285613db7565b509392505050565b600082601f830112613f4157613f40613d01565b5b8135613f51848260208601613eea565b91505092915050565b60008060408385031215613f7157613f706137bc565b5b600083013567ffffffffffffffff811115613f8f57613f8e6137c1565b5b613f9b85828601613f2c565b925050602083013567ffffffffffffffff811115613fbc57613fbb6137c1565b5b613fc885828601613f2c565b9150509250929050565b7f4e487b7100000000000000000000000000000000000000000000000000000000600052602160045260246000fd5b6003811061401257614011613fd2565b5b50565b600081905061402382614001565b919050565b600061403382614015565b9050919050565b61404381614028565b82525050565b60006101008201905061405f600083018b613aa7565b8181036020830152614071818a613957565b905081810360408301526140858189613957565b90506140946060830188613a11565b6140a16080830187613a11565b6140ae60a0830186613aa7565b6140bb60c0830185613aa7565b6140c860e083018461403a565b9998505050505050505050565b600080604083850312156140ec576140eb6137bc565b5b60006140fa85828601613a52565b925050602061410b85828601613a52565b9150509250929050565b7f4e487b7100000000000000000000000000000000000000000000000000000000600052601160045260246000fd5b600061414f82613881565b91507fffffffffffffffffffffffffffffffffffffffffffffffffffffffffffffffff820361418157614180614115565b5b600182019050919050565b7f4e487b7100000000000000000000000000000000000000000000000000000000600052602260045260246000fd5b600060028204905060018216806141d357607f821691505b6020821081036141e6576141e561418c565b5b50919050565b7f4552433732313a20617070726f76656420717565727920666f72206e6f6e657860008201527f697374656e7420746f6b656e0000000000000000000000000000000000000000602082015250565b6000614248602c83613902565b9150614253826141ec565b604082019050919050565b600060208201905081810360008301526142778161423b565b9050919050565b7f4552433732313a20617070726f76616c20746f2063757272656e74206f776e6560008201527f7200000000000000000000000000000000000000000000000000000000000000602082015250565b60006142da602183613902565b91506142e58261427e565b604082019050919050565b60006020820190508181036000830152614309816142cd565b9050919050565b7f4552433732313a20617070726f76652063616c6c6572206973206e6f74206f7760008201527f6e6572206e6f7220617070726f76656420666f7220616c6c0000000000000000602082015250565b600061436c603883613902565b915061437782614310565b604082019050919050565b6000602082019050818103600083015261439b8161435f565b9050919050565b7f4552433732313a207472616e736665722063616c6c6572206973206e6f74206f60008201527f776e6572206e6f7220617070726f766564000000000000000000000000000000602082015250565b60006143fe603183613902565b9150614409826143a2565b604082019050919050565b6000602082019050818103600083015261442d816143f1565b9050919050565b7f41756374696f6e206e6f7420656e646564207965742e00000000000000000000600082015250565b600061446a601683613902565b915061447582614434565b602082019050919050565b600060208201905081810360008301526144998161445d565b9050919050565b7f41756374696f6e20616c726561647920636c61696d65642e0000000000000000600082015250565b60006144d6601883613902565b91506144e1826144a0565b602082019050919050565b60006020820190508181036000830152614505816144c9565b9050919050565b7f43616e206f6e6c7920626520636c61696d65642062792077696e6e65722e0000600082015250565b6000614542601e83613902565b915061454d8261450c565b602082019050919050565b6000602082019050818103600083015261457181614535565b9050919050565b7f41756374696f6e20616c726561647920656e6465642e00000000000000000000600082015250565b60006145ae601683613902565b91506145b982614578565b602082019050919050565b600060208201905081810360008301526145dd816145a1565b9050919050565b7f4c6f776572206269643f204a6f6b696e672e0000000000000000000000000000600082015250565b600061461a601283613902565b9150614625826145e4565b602082019050919050565b600060208201905081810360008301526146498161460d565b9050919050565b7f4552433732313a206f776e657220717565727920666f72206e6f6e657869737460008201527f656e7420746f6b656e0000000000000000000000000000000000000000000000602082015250565b60006146ac602983613902565b91506146b782614650565b604082019050919050565b600060208201905081810360008301526146db8161469f565b9050919050565b7f4552433732313a2062616c616e636520717565727920666f7220746865207a6560008201527f726f206164647265737300000000000000000000000000000000000000000000602082015250565b600061473e602a83613902565b9150614749826146e2565b604082019050919050565b6000602082019050818103600083015261476d81614731565b9050919050565b7f416c7265616479206f6e2061756374696f6e2e00000000000000000000000000600082015250565b60006147aa601383613902565b91506147b582614774565b602082019050919050565b600060208201905081810360008301526147d98161479d565b9050919050565b7f4f6e6c79204f776e65722043616e20426567696e20612041756374696f6e2e00600082015250565b6000614816601f83613902565b9150614821826147e0565b602082019050919050565b6000602082019050818103600083015261484581614809565b9050919050565b600061485782613881565b915061486283613881565b9250827fffffffffffffffffffffffffffffffffffffffffffffffffffffffffffffffff0382111561489757614896614115565b5b828201905092915050565b7f54686973207573657220686173206e6f2066756e647320746f20626520636c6160008201527f696d656400000000000000000000000000000000000000000000000000000000602082015250565b60006148fe602483613902565b9150614909826148a2565b604082019050919050565b6000602082019050818103600083015261492d816148f1565b9050919050565b60006040820190506149496000830185613a11565b6149566020830184613aa7565b9392505050565b7f4f6e6c79204f776e65722043616e20456e6420612041756374696f6e2e000000600082015250565b6000614993601d83613902565b915061499e8261495d565b602082019050919050565b600060208201905081810360008301526149c281614986565b9050919050565b7f4e6f7420656e642074696d652e00000000000000000000000000000000000000600082015250565b60006149ff600d83613902565b9150614a0a826149c9565b602082019050919050565b60006020820190508181036000830152614a2e816149f2565b9050919050565b7f416c726561647920456e6465642e000000000000000000000000000000000000600082015250565b6000614a6b600e83613902565b9150614a7682614a35565b602082019050919050565b60006020820190508181036000830152614a9a81614a5e565b9050919050565b7f45524337323155524953746f726167653a2055524920717565727920666f722060008201527f6e6f6e6578697374656e7420746f6b656e000000000000000000000000000000602082015250565b6000614afd603183613902565b9150614b0882614aa1565b604082019050919050565b60006020820190508181036000830152614b2c81614af0565b9050919050565b600081905092915050565b6000614b49826138f7565b614b538185614b33565b9350614b63818560208601613913565b80840191505092915050565b6000614b7b8285614b3e565b9150614b878284614b3e565b91508190509392505050565b7f546865206f66666572206d757374206578697374000000000000000000000000600082015250565b6000614bc9601483613902565b9150614bd482614b93565b602082019050919050565b60006020820190508181036000830152614bf881614bbc565b9050919050565b7f546865206f666665722063616e206f6e6c792062652063616e63656c6564206260008201527f7920746865206f776e6572000000000000000000000000000000000000000000602082015250565b6000614c5b602b83613902565b9150614c6682614bff565b604082019050919050565b60006020820190508181036000830152614c8a81614c4e565b9050919050565b7f412066756c66696c6c6564206f666665722063616e6e6f742062652063616e6360008201527f656c6c6564000000000000000000000000000000000000000000000000000000602082015250565b6000614ced602583613902565b9150614cf882614c91565b604082019050919050565b60006020820190508181036000830152614d1c81614ce0565b9050919050565b7f416e206f666665722063616e6e6f742062652063616e63656c6c65642074776960008201527f6365000000000000000000000000000000000000000000000000000000000000602082015250565b6000614d7f602283613902565b9150614d8a82614d23565b604082019050919050565b60006020820190508181036000830152614dae81614d72565b9050919050565b6000606082019050614dca6000830186613aa7565b614dd76020830185613aa7565b614de46040830184613a11565b949350505050565b7f546865206f776e6572206f6620746865206f666665722063616e6e6f7420666960008201527f6c6c206974000000000000000000000000000000000000000000000000000000602082015250565b6000614e48602583613902565b9150614e5382614dec565b604082019050919050565b60006020820190508181036000830152614e7781614e3b565b9050919050565b7f416e206f666665722063616e6e6f742062652066756c66696c6c65642074776960008201527f6365000000000000000000000000000000000000000000000000000000000000602082015250565b6000614eda602283613902565b9150614ee582614e7e565b604082019050919050565b60006020820190508181036000830152614f0981614ecd565b9050919050565b7f412063616e63656c6c6564206f666665722063616e6e6f742062652066756c6660008201527f696c6c6564000000000000000000000000000000000000000000000000000000602082015250565b6000614f6c602583613902565b9150614f7782614f10565b604082019050919050565b60006020820190508181036000830152614f9b81614f5f565b9050919050565b7f5468652045544820616d6f756e742073686f756c64206d61746368207769746860008201527f20746865204e4654205072696365000000000000000000000000000000000000602082015250565b6000614ffe602e83613902565b915061500982614fa2565b604082019050919050565b6000602082019050818103600083015261502d81614ff1565b9050919050565b7f4552433732313a206f70657261746f7220717565727920666f72206e6f6e657860008201527f697374656e7420746f6b656e0000000000000000000000000000000000000000602082015250565b6000615090602c83613902565b915061509b82615034565b604082019050919050565b600060208201905081810360008301526150bf81615083565b9050919050565b7f4552433732313a207472616e736665722066726f6d20696e636f72726563742060008201527f6f776e6572000000000000000000000000000000000000000000000000000000602082015250565b6000615122602583613902565b915061512d826150c6565b604082019050919050565b6000602082019050818103600083015261515181615115565b9050919050565b7f4552433732313a207472616e7366657220746f20746865207a65726f2061646460008201527f7265737300000000000000000000000000000000000000000000000000000000602082015250565b60006151b4602483613902565b91506151bf82615158565b604082019050919050565b600060208201905081810360008301526151e3816151a7565b9050919050565b60006151f582613881565b915061520083613881565b92508282101561521357615212614115565b5b828203905092915050565b7f4552433732313a20617070726f766520746f2063616c6c657200000000000000600082015250565b6000615254601983613902565b915061525f8261521e565b602082019050919050565b6000602082019050818103600083015261528381615247565b9050919050565b7f4552433732313a207472616e7366657220746f206e6f6e20455243373231526560008201527f63656976657220696d706c656d656e7465720000000000000000000000000000602082015250565b60006152e6603283613902565b91506152f18261528a565b604082019050919050565b60006020820190508181036000830152615315816152d9565b9050919050565b7f496d61676549442072657065617465642e000000000000000000000000000000600082015250565b6000615352601183613902565b915061535d8261531c565b602082019050919050565b6000602082019050818103600083015261538181615345565b9050919050565b60006153948284614b3e565b915081905092915050565b7f546f6b656e205552492072657065617465642e00000000000000000000000000600082015250565b60006153d5601383613902565b91506153e08261539f565b602082019050919050565b60006020820190508181036000830152615404816153c8565b9050919050565b7f4552433732314d657461646174613a2055524920717565727920666f72206e6f60008201527f6e6578697374656e7420746f6b656e0000000000000000000000000000000000602082015250565b6000615467602f83613902565b91506154728261540b565b604082019050919050565b600060208201905081810360008301526154968161545a565b9050919050565b600081519050919050565b600082825260208201905092915050565b60006154c48261549d565b6154ce81856154a8565b93506154de818560208601613913565b6154e781613946565b840191505092915050565b60006080820190506155076000830187613a11565b6155146020830186613a11565b6155216040830185613aa7565b818103606083015261553381846154b9565b905095945050505050565b60008151905061554d816137f2565b92915050565b600060208284031215615569576155686137bc565b5b60006155778482850161553e565b91505092915050565b7f45524337323155524953746f726167653a2055524920736574206f66206e6f6e60008201527f6578697374656e7420746f6b656e000000000000000000000000000000000000602082015250565b60006155dc602e83613902565b91506155e782615580565b604082019050919050565b6000602082019050818103600083015261560b816155cf565b9050919050565b7f4e487b7100000000000000000000000000000000000000000000000000000000600052601260045260246000fd5b600061564c82613881565b915061565783613881565b92508261566757615666615612565b5b828204905092915050565b600061567d82613881565b915061568883613881565b92508261569857615697615612565b5b828206905092915050565b7f4e487b7100000000000000000000000000000000000000000000000000000000600052603260045260246000fd5b7f4552433732313a206d696e7420746f20746865207a65726f2061646472657373600082015250565b6000615708602083613902565b9150615713826156d2565b602082019050919050565b60006020820190508181036000830152615737816156fb565b9050919050565b7f4552433732313a20746f6b656e20616c7265616479206d696e74656400000000600082015250565b6000615774601c83613902565b915061577f8261573e565b602082019050919050565b600060208201905081810360008301526157a381615767565b905091905056fea2646970667358221220ae060f494ae510e891edddd4425a0f00ab2b6574149f48ac34f0829f18a47f1164736f6c634300080d0033",
  "immutableReferences": {},
  "source": "// SPDX-License-Identifier: MIT\npragma solidity ^0.8.0;\n\nimport \"./ImageNFTMarketplace.sol\";\n\ncontract ConstContract is ImageMarketplace{\n  uint public offerCount;\n  mapping (uint => _Offer) public offers;\n  mapping (address => uint) public userFunds;\n    \n      struct _Offer {\n    uint offerId;\n    uint id;\n    address user;\n    uint price;\n    bool fulfilled;\n    bool cancelled;\n  }\n\n  event Offer(\n    uint offerId,\n    uint id,\n    address user,\n    uint price,\n    bool fulfilled,\n    bool cancelled\n  );\n\n  event OfferFilled(uint offerId, uint id, address newOwner);\n  event OfferCancelled(uint offerId, uint id, address owner);\n  event ClaimFunds(address user, uint amount);\n\n\n   function makeOffer(uint _id, uint _price) public {\n    // nftCollection.transferFrom(msg.sender, address(this), _id);\n    offerCount ++;\n    offers[offerCount] = _Offer(offerCount, _id, msg.sender, _price, false, false);\n    emit Offer(offerCount, _id, msg.sender, _price, false, false);\n  }\n\n  function fillOffer(address to, uint _offerId) public payable {\n    _Offer storage _offer = offers[_offerId];\n    require(_offer.offerId == _offerId, 'The offer must exist');\n    require(_offer.user != msg.sender, 'The owner of the offer cannot fill it');\n    require(!_offer.fulfilled, 'An offer cannot be fulfilled twice');\n    require(!_offer.cancelled, 'A cancelled offer cannot be fulfilled');\n    require(msg.value == _offer.price, 'The ETH amount should match with the NFT Price');\n   \n\n  //  _tranfserfrom(to, msg.sender, _offerId,  _offer.id  )\n    // nftCollection.transferFrom(address(this), msg.sender, _offer.id);\n    _offer.fulfilled = true;\n    userFunds[_offer.user] += msg.value;\n    emit OfferFilled(_offerId, _offer.id, msg.sender);\n  }\n\n  function cancelOffer(uint _offerId) public {\n    _Offer storage _offer = offers[_offerId];\n    require(_offer.offerId == _offerId, 'The offer must exist');\n    require(_offer.user == msg.sender, 'The offer can only be canceled by the owner');\n    require(_offer.fulfilled == false, 'A fulfilled offer cannot be cancelled');\n    require(_offer.cancelled == false, 'An offer cannot be cancelled twice');\n    // nftCollection.transferFrom(address(this), msg.sender, _offer.id);\n    _offer.cancelled = true;\n    emit OfferCancelled(_offerId, _offer.id, msg.sender);\n  }\n\n  function claimFunds() public {\n    require(userFunds[msg.sender] > 0, 'This user has no funds to be claimed');\n    payable(msg.sender).transfer(userFunds[msg.sender]);\n    emit ClaimFunds(msg.sender, userFunds[msg.sender]);\n    userFunds[msg.sender] = 0;    \n  }\n\n  // Fallback: reverts if Ether is sent to this smart-contract by mistake\n  fallback () external {\n    revert();\n  }\n\n}",
  "sourcePath": "/Users/hangyeonghyeon/Desktop/const/contracts/ConstContract.sol",
  "compiler": {
    "name": "solc",
    "version": "0.8.13+commit.abaa5c0e.Emscripten.clang"
  },
  "schemaVersion": "3.4.6",
  "updatedAt": "2022-04-20T04:05:17.422Z",
  "networkType": "ethereum",
  "devdoc": {
    "kind": "dev",
    "methods": {
      "approve(address,uint256)": {
        "details": "See {IERC721-approve}."
      },
      "balanceOf(address)": {
        "details": "See {IERC721-balanceOf}."
      },
      "getApproved(uint256)": {
        "details": "See {IERC721-getApproved}."
      },
      "isApprovedForAll(address,address)": {
        "details": "See {IERC721-isApprovedForAll}."
      },
      "name()": {
        "details": "See {IERC721Metadata-name}."
      },
      "ownerOf(uint256)": {
        "details": "See {IERC721-ownerOf}."
      },
      "safeTransferFrom(address,address,uint256)": {
        "details": "See {IERC721-safeTransferFrom}."
      },
      "safeTransferFrom(address,address,uint256,bytes)": {
        "details": "See {IERC721-safeTransferFrom}."
      },
      "setApprovalForAll(address,bool)": {
        "details": "See {IERC721-setApprovalForAll}."
      },
      "supportsInterface(bytes4)": {
        "details": "See {IERC165-supportsInterface}."
      },
      "symbol()": {
        "details": "See {IERC721Metadata-symbol}."
      },
      "tokenURI(uint256)": {
        "details": "See {IERC721Metadata-tokenURI}."
      },
      "transferFrom(address,address,uint256)": {
        "details": "See {IERC721-transferFrom}."
      }
    },
    "version": 1
  },
  "userdoc": {
    "kind": "user",
    "methods": {},
    "version": 1
  }
}