{
  "contractName": "ImageMarketplace",
  "abi": [
    {
      "inputs": [],
      "stateMutability": "nonpayable",
      "type": "constructor"
    },
    {
      "anonymous": false,
      "inputs": [
        {
          "indexed": true,
          "internalType": "address",
          "name": "owner",
          "type": "address"
        },
        {
          "indexed": true,
          "internalType": "address",
          "name": "approved",
          "type": "address"
        },
        {
          "indexed": true,
          "internalType": "uint256",
          "name": "tokenId",
          "type": "uint256"
        }
      ],
      "name": "Approval",
      "type": "event"
    },
    {
      "anonymous": false,
      "inputs": [
        {
          "indexed": true,
          "internalType": "address",
          "name": "owner",
          "type": "address"
        },
        {
          "indexed": true,
          "internalType": "address",
          "name": "operator",
          "type": "address"
        },
        {
          "indexed": false,
          "internalType": "bool",
          "name": "approved",
          "type": "bool"
        }
      ],
      "name": "ApprovalForAll",
      "type": "event"
    },
    {
      "anonymous": false,
      "inputs": [
        {
          "indexed": true,
          "internalType": "address",
          "name": "from",
          "type": "address"
        },
        {
          "indexed": true,
          "internalType": "address",
          "name": "to",
          "type": "address"
        },
        {
          "indexed": true,
          "internalType": "uint256",
          "name": "tokenId",
          "type": "uint256"
        }
      ],
      "name": "Transfer",
      "type": "event"
    },
    {
      "inputs": [
        {
          "internalType": "address",
          "name": "to",
          "type": "address"
        },
        {
          "internalType": "uint256",
          "name": "tokenId",
          "type": "uint256"
        }
      ],
      "name": "approve",
      "outputs": [],
      "stateMutability": "nonpayable",
      "type": "function"
    },
    {
      "inputs": [
        {
          "internalType": "uint256",
          "name": "",
          "type": "uint256"
        }
      ],
      "name": "auctions",
      "outputs": [
        {
          "internalType": "uint256",
          "name": "imageID",
          "type": "uint256"
        },
        {
          "internalType": "uint256",
          "name": "startBid",
          "type": "uint256"
        },
        {
          "internalType": "uint256",
          "name": "highestBid",
          "type": "uint256"
        },
        {
          "internalType": "address payable",
          "name": "winner",
          "type": "address"
        },
        {
          "internalType": "uint256",
          "name": "endTime",
          "type": "uint256"
        },
        {
          "internalType": "bool",
          "name": "ended",
          "type": "bool"
        },
        {
          "internalType": "bool",
          "name": "claimed",
          "type": "bool"
        }
      ],
      "stateMutability": "view",
      "type": "function",
      "constant": true
    },
    {
      "inputs": [
        {
          "internalType": "address",
          "name": "owner",
          "type": "address"
        }
      ],
      "name": "balanceOf",
      "outputs": [
        {
          "internalType": "uint256",
          "name": "",
          "type": "uint256"
        }
      ],
      "stateMutability": "view",
      "type": "function",
      "constant": true
    },
    {
      "inputs": [
        {
          "internalType": "uint256",
          "name": "_tokenID",
          "type": "uint256"
        },
        {
          "internalType": "uint256",
          "name": "_minBid",
          "type": "uint256"
        },
        {
          "internalType": "uint256",
          "name": "_duration",
          "type": "uint256"
        }
      ],
      "name": "beginAuction",
      "outputs": [
        {
          "internalType": "bool",
          "name": "success",
          "type": "bool"
        }
      ],
      "stateMutability": "nonpayable",
      "type": "function"
    },
    {
      "inputs": [
        {
          "internalType": "uint256",
          "name": "auctionID",
          "type": "uint256"
        },
        {
          "internalType": "uint256",
          "name": "newBid",
          "type": "uint256"
        }
      ],
      "name": "bid",
      "outputs": [
        {
          "internalType": "bool",
          "name": "success",
          "type": "bool"
        }
      ],
      "stateMutability": "nonpayable",
      "type": "function"
    },
    {
      "inputs": [
        {
          "internalType": "uint256",
          "name": "auctionID",
          "type": "uint256"
        }
      ],
      "name": "claim",
      "outputs": [],
      "stateMutability": "payable",
      "type": "function",
      "payable": true
    },
    {
      "inputs": [],
      "name": "currentImageCount",
      "outputs": [
        {
          "internalType": "uint256",
          "name": "",
          "type": "uint256"
        }
      ],
      "stateMutability": "view",
      "type": "function",
      "constant": true
    },
    {
      "inputs": [
        {
          "internalType": "uint256",
          "name": "auctionID",
          "type": "uint256"
        }
      ],
      "name": "endAuction",
      "outputs": [
        {
          "internalType": "bool",
          "name": "success",
          "type": "bool"
        }
      ],
      "stateMutability": "nonpayable",
      "type": "function"
    },
    {
      "inputs": [
        {
          "internalType": "uint256",
          "name": "tokenId",
          "type": "uint256"
        }
      ],
      "name": "getApproved",
      "outputs": [
        {
          "internalType": "address",
          "name": "",
          "type": "address"
        }
      ],
      "stateMutability": "view",
      "type": "function",
      "constant": true
    },
    {
      "inputs": [
        {
          "internalType": "address",
          "name": "owner",
          "type": "address"
        }
      ],
      "name": "getOwnedNumber",
      "outputs": [
        {
          "internalType": "uint256",
          "name": "",
          "type": "uint256"
        }
      ],
      "stateMutability": "view",
      "type": "function",
      "constant": true
    },
    {
      "inputs": [
        {
          "internalType": "uint256",
          "name": "_tokenID",
          "type": "uint256"
        }
      ],
      "name": "getTokenOnwer",
      "outputs": [
        {
          "internalType": "address",
          "name": "",
          "type": "address"
        }
      ],
      "stateMutability": "view",
      "type": "function",
      "constant": true
    },
    {
      "inputs": [
        {
          "internalType": "uint256",
          "name": "",
          "type": "uint256"
        }
      ],
      "name": "imageStorage",
      "outputs": [
        {
          "internalType": "uint256",
          "name": "tokenID",
          "type": "uint256"
        },
        {
          "internalType": "string",
          "name": "tokenName",
          "type": "string"
        },
        {
          "internalType": "string",
          "name": "tokenURI",
          "type": "string"
        },
        {
          "internalType": "address",
          "name": "mintedBy",
          "type": "address"
        },
        {
          "internalType": "address",
          "name": "currentOwner",
          "type": "address"
        },
        {
          "internalType": "uint256",
          "name": "transferTime",
          "type": "uint256"
        },
        {
          "internalType": "uint256",
          "name": "highestBidPrice",
          "type": "uint256"
        },
        {
          "internalType": "enum ImageNFT.Status",
          "name": "status",
          "type": "uint8"
        }
      ],
      "stateMutability": "view",
      "type": "function",
      "constant": true
    },
    {
      "inputs": [
        {
          "internalType": "address",
          "name": "owner",
          "type": "address"
        },
        {
          "internalType": "address",
          "name": "operator",
          "type": "address"
        }
      ],
      "name": "isApprovedForAll",
      "outputs": [
        {
          "internalType": "bool",
          "name": "",
          "type": "bool"
        }
      ],
      "stateMutability": "view",
      "type": "function",
      "constant": true
    },
    {
      "inputs": [],
      "name": "name",
      "outputs": [
        {
          "internalType": "string",
          "name": "",
          "type": "string"
        }
      ],
      "stateMutability": "view",
      "type": "function",
      "constant": true
    },
    {
      "inputs": [
        {
          "internalType": "uint256",
          "name": "tokenId",
          "type": "uint256"
        }
      ],
      "name": "ownerOf",
      "outputs": [
        {
          "internalType": "address",
          "name": "",
          "type": "address"
        }
      ],
      "stateMutability": "view",
      "type": "function",
      "constant": true
    },
    {
      "inputs": [
        {
          "internalType": "uint256",
          "name": "",
          "type": "uint256"
        },
        {
          "internalType": "uint256",
          "name": "",
          "type": "uint256"
        }
      ],
      "name": "ownerShipTrans",
      "outputs": [
        {
          "internalType": "address",
          "name": "",
          "type": "address"
        }
      ],
      "stateMutability": "view",
      "type": "function",
      "constant": true
    },
    {
      "inputs": [
        {
          "internalType": "address",
          "name": "from",
          "type": "address"
        },
        {
          "internalType": "address",
          "name": "to",
          "type": "address"
        },
        {
          "internalType": "uint256",
          "name": "tokenId",
          "type": "uint256"
        }
      ],
      "name": "safeTransferFrom",
      "outputs": [],
      "stateMutability": "nonpayable",
      "type": "function"
    },
    {
      "inputs": [
        {
          "internalType": "address",
          "name": "from",
          "type": "address"
        },
        {
          "internalType": "address",
          "name": "to",
          "type": "address"
        },
        {
          "internalType": "uint256",
          "name": "tokenId",
          "type": "uint256"
        },
        {
          "internalType": "bytes",
          "name": "_data",
          "type": "bytes"
        }
      ],
      "name": "safeTransferFrom",
      "outputs": [],
      "stateMutability": "nonpayable",
      "type": "function"
    },
    {
      "inputs": [
        {
          "internalType": "address",
          "name": "operator",
          "type": "address"
        },
        {
          "internalType": "bool",
          "name": "approved",
          "type": "bool"
        }
      ],
      "name": "setApprovalForAll",
      "outputs": [],
      "stateMutability": "nonpayable",
      "type": "function"
    },
    {
      "inputs": [
        {
          "internalType": "bytes4",
          "name": "interfaceId",
          "type": "bytes4"
        }
      ],
      "name": "supportsInterface",
      "outputs": [
        {
          "internalType": "bool",
          "name": "",
          "type": "bool"
        }
      ],
      "stateMutability": "view",
      "type": "function",
      "constant": true
    },
    {
      "inputs": [],
      "name": "symbol",
      "outputs": [
        {
          "internalType": "string",
          "name": "",
          "type": "string"
        }
      ],
      "stateMutability": "view",
      "type": "function",
      "constant": true
    },
    {
      "inputs": [
        {
          "internalType": "uint256",
          "name": "tokenId",
          "type": "uint256"
        }
      ],
      "name": "tokenURI",
      "outputs": [
        {
          "internalType": "string",
          "name": "",
          "type": "string"
        }
      ],
      "stateMutability": "view",
      "type": "function",
      "constant": true
    },
    {
      "inputs": [
        {
          "internalType": "address",
          "name": "from",
          "type": "address"
        },
        {
          "internalType": "address",
          "name": "to",
          "type": "address"
        },
        {
          "internalType": "uint256",
          "name": "tokenId",
          "type": "uint256"
        }
      ],
      "name": "transferFrom",
      "outputs": [],
      "stateMutability": "nonpayable",
      "type": "function"
    },
    {
      "inputs": [
        {
          "internalType": "string",
          "name": "imageName",
          "type": "string"
        },
        {
          "internalType": "string",
          "name": "ipfsHashOfPhoto",
          "type": "string"
        }
      ],
      "name": "mintImageNFT",
      "outputs": [
        {
          "internalType": "bool",
          "name": "",
          "type": "bool"
        }
      ],
      "stateMutability": "nonpayable",
      "type": "function"
    },
    {
      "inputs": [
        {
          "internalType": "uint256",
          "name": "_tokenID",
          "type": "uint256"
        }
      ],
      "name": "getTokenURI",
      "outputs": [
        {
          "internalType": "string",
          "name": "",
          "type": "string"
        }
      ],
      "stateMutability": "view",
      "type": "function",
      "constant": true
    }
  ],
  "bytecode": "0x60806040523480156200001157600080fd5b506040518060400160405280601081526020017f496d61676520436f6c6c656374696f6e000000000000000000000000000000008152506040518060400160405280600381526020017f4e4654000000000000000000000000000000000000000000000000000000000081525081600090805190602001906200009692919062000101565b508060019080519060200190620000af92919062000101565b505050600060078190555030600d60006101000a81548173ffffffffffffffffffffffffffffffffffffffff021916908373ffffffffffffffffffffffffffffffffffffffff16021790555062000215565b8280546200010f90620001e0565b90600052602060002090601f0160209004810192826200013357600085556200017f565b82601f106200014e57805160ff19168380011785556200017f565b828001600101855582156200017f579182015b828111156200017e57825182559160200191906001019062000161565b5b5090506200018e919062000192565b5090565b5b80821115620001ad57600081600090555060010162000193565b5090565b7f4e487b7100000000000000000000000000000000000000000000000000000000600052602260045260246000fd5b60006002820490506001821680620001f957607f821691505b6020821081036200020f576200020e620001b1565b5b50919050565b6147ef80620002256000396000f3fe6080604052600436106101665760003560e01c806370a08231116100d1578063b9a2de3a1161008a578063d4d3690711610064578063d4d36907146105c9578063dc471a6b146105f4578063e7979dd214610638578063e985e9c51461067557610166565b8063b9a2de3a14610512578063c0746fee1461054f578063c87b56dd1461058c57610166565b806370a08231146103de57806395d89b411461041b5780639bd2a57414610446578063a22cb46514610483578063ab22f4a6146104ac578063b88d4fde146104e957610166565b8063379607f511610123578063379607f51461029f5780633bb3a24d146102bb57806342842e0e146102f8578063571a26a014610321578063598647f8146103645780636352211e146103a157610166565b806301ffc9a71461016b57806306fdde03146101a8578063081812fc146101d3578063095ea7b31461021057806323b872dd146102395780633527bb0a14610262575b600080fd5b34801561017757600080fd5b50610192600480360381019061018d9190612dea565b6106b2565b60405161019f9190612e32565b60405180910390f35b3480156101b457600080fd5b506101bd610794565b6040516101ca9190612ee6565b60405180910390f35b3480156101df57600080fd5b506101fa60048036038101906101f59190612f3e565b610826565b6040516102079190612fac565b60405180910390f35b34801561021c57600080fd5b5061023760048036038101906102329190612ff3565b6108ab565b005b34801561024557600080fd5b50610260600480360381019061025b9190613033565b6109c2565b005b34801561026e57600080fd5b5061028960048036038101906102849190613086565b610a22565b60405161029691906130c2565b60405180910390f35b6102b960048036038101906102b49190612f3e565b610a34565b005b3480156102c757600080fd5b506102e260048036038101906102dd9190612f3e565b610bfc565b6040516102ef9190612ee6565b60405180910390f35b34801561030457600080fd5b5061031f600480360381019061031a9190613033565b610e57565b005b34801561032d57600080fd5b5061034860048036038101906103439190612f3e565b610e77565b60405161035b97969594939291906130fe565b60405180910390f35b34801561037057600080fd5b5061038b6004803603810190610386919061316d565b610ef3565b6040516103989190612e32565b60405180910390f35b3480156103ad57600080fd5b506103c860048036038101906103c39190612f3e565b61105e565b6040516103d59190612fac565b60405180910390f35b3480156103ea57600080fd5b5061040560048036038101906104009190613086565b61110f565b60405161041291906130c2565b60405180910390f35b34801561042757600080fd5b506104306111c6565b60405161043d9190612ee6565b60405180910390f35b34801561045257600080fd5b5061046d600480360381019061046891906131ad565b611258565b60405161047a9190612e32565b60405180910390f35b34801561048f57600080fd5b506104aa60048036038101906104a5919061322c565b6114a9565b005b3480156104b857600080fd5b506104d360048036038101906104ce9190612f3e565b6114bf565b6040516104e09190612fac565b60405180910390f35b3480156104f557600080fd5b50610510600480360381019061050b91906133a1565b6114d1565b005b34801561051e57600080fd5b5061053960048036038101906105349190612f3e565b611533565b6040516105469190612e32565b60405180910390f35b34801561055b57600080fd5b50610576600480360381019061057191906134c5565b611692565b6040516105839190612e32565b60405180910390f35b34801561059857600080fd5b506105b360048036038101906105ae9190612f3e565b6116b7565b6040516105c09190612ee6565b60405180910390f35b3480156105d557600080fd5b506105de611808565b6040516105eb91906130c2565b60405180910390f35b34801561060057600080fd5b5061061b60048036038101906106169190612f3e565b61180e565b60405161062f9897969594939291906135b4565b60405180910390f35b34801561064457600080fd5b5061065f600480360381019061065a919061316d565b6119b3565b60405161066c9190612fac565b60405180910390f35b34801561068157600080fd5b5061069c60048036038101906106979190613640565b611a01565b6040516106a99190612e32565b60405180910390f35b60007f80ac58cd000000000000000000000000000000000000000000000000000000007bffffffffffffffffffffffffffffffffffffffffffffffffffffffff1916827bffffffffffffffffffffffffffffffffffffffffffffffffffffffff1916148061077d57507f5b5e139f000000000000000000000000000000000000000000000000000000007bffffffffffffffffffffffffffffffffffffffffffffffffffffffff1916827bffffffffffffffffffffffffffffffffffffffffffffffffffffffff1916145b8061078d575061078c82611a95565b5b9050919050565b6060600080546107a3906136af565b80601f01602080910402602001604051908101604052809291908181526020018280546107cf906136af565b801561081c5780601f106107f15761010080835404028352916020019161081c565b820191906000526020600020905b8154815290600101906020018083116107ff57829003601f168201915b5050505050905090565b600061083182611aff565b610870576040517f08c379a000000000000000000000000000000000000000000000000000000000815260040161086790613752565b60405180910390fd5b6004600083815260200190815260200160002060009054906101000a900473ffffffffffffffffffffffffffffffffffffffff169050919050565b60006108b68261105e565b90508073ffffffffffffffffffffffffffffffffffffffff168373ffffffffffffffffffffffffffffffffffffffff1603610926576040517f08c379a000000000000000000000000000000000000000000000000000000000815260040161091d906137e4565b60405180910390fd5b8073ffffffffffffffffffffffffffffffffffffffff16610945611b6b565b73ffffffffffffffffffffffffffffffffffffffff16148061097457506109738161096e611b6b565b611a01565b5b6109b3576040517f08c379a00000000000000000000000000000000000000000000000000000000081526004016109aa90613876565b60405180910390fd5b6109bd8383611b73565b505050565b6109d36109cd611b6b565b82611c2c565b610a12576040517f08c379a0000000000000000000000000000000000000000000000000000000008152600401610a0990613908565b60405180910390fd5b610a1d838383611d0a565b505050565b6000610a2d8261110f565b9050919050565b6000600b600083815260200190815260200160002090508060050160009054906101000a900460ff16610a9c576040517f08c379a0000000000000000000000000000000000000000000000000000000008152600401610a9390613974565b60405180910390fd5b8060050160019054906101000a900460ff1615610aee576040517f08c379a0000000000000000000000000000000000000000000000000000000008152600401610ae5906139e0565b60405180910390fd5b3373ffffffffffffffffffffffffffffffffffffffff168160030160009054906101000a900473ffffffffffffffffffffffffffffffffffffffff1673ffffffffffffffffffffffffffffffffffffffff1614610b80576040517f08c379a0000000000000000000000000000000000000000000000000000000008152600401610b7790613a4c565b60405180910390fd5b6000610b8f826000015461105e565b90508073ffffffffffffffffffffffffffffffffffffffff166108fc349081150290604051600060405180830381858888f19350505050158015610bd7573d6000803e3d6000fd5b50610be6826000015433611f70565b50610bf68260000154600061209d565b50505050565b60606000600860008481526020019081526020016000206040518061010001604052908160008201548152602001600182018054610c39906136af565b80601f0160208091040260200160405190810160405280929190818152602001828054610c65906136af565b8015610cb25780601f10610c8757610100808354040283529160200191610cb2565b820191906000526020600020905b815481529060010190602001808311610c9557829003601f168201915b50505050508152602001600282018054610ccb906136af565b80601f0160208091040260200160405190810160405280929190818152602001828054610cf7906136af565b8015610d445780601f10610d1957610100808354040283529160200191610d44565b820191906000526020600020905b815481529060010190602001808311610d2757829003601f168201915b505050505081526020016003820160009054906101000a900473ffffffffffffffffffffffffffffffffffffffff1673ffffffffffffffffffffffffffffffffffffffff1673ffffffffffffffffffffffffffffffffffffffff1681526020016004820160009054906101000a900473ffffffffffffffffffffffffffffffffffffffff1673ffffffffffffffffffffffffffffffffffffffff1673ffffffffffffffffffffffffffffffffffffffff16815260200160058201548152602001600682015481526020016007820160009054906101000a900460ff166002811115610e3257610e3161353d565b5b6002811115610e4457610e4361353d565b5b8152505090508060400151915050919050565b610e72838383604051806020016040528060008152506114d1565b505050565b600b6020528060005260406000206000915090508060000154908060010154908060020154908060030160009054906101000a900473ffffffffffffffffffffffffffffffffffffffff16908060040154908060050160009054906101000a900460ff16908060050160019054906101000a900460ff16905087565b600080600b600085815260200190815260200160002090508060050160009054906101000a900460ff1615610f5d576040517f08c379a0000000000000000000000000000000000000000000000000000000008152600401610f5490613ab8565b60405180910390fd5b80600201548311610fa3576040517f08c379a0000000000000000000000000000000000000000000000000000000008152600401610f9a90613b24565b60405180910390fd5b610fb18160000154846120ec565b50338160030160006101000a81548173ffffffffffffffffffffffffffffffffffffffff021916908373ffffffffffffffffffffffffffffffffffffffff16021790555082816002018190555082600c600086815260200190815260200160002060003373ffffffffffffffffffffffffffffffffffffffff1673ffffffffffffffffffffffffffffffffffffffff16815260200190815260200160002081905550600191505092915050565b6000806002600084815260200190815260200160002060009054906101000a900473ffffffffffffffffffffffffffffffffffffffff169050600073ffffffffffffffffffffffffffffffffffffffff168173ffffffffffffffffffffffffffffffffffffffff1603611106576040517f08c379a00000000000000000000000000000000000000000000000000000000081526004016110fd90613bb6565b60405180910390fd5b80915050919050565b60008073ffffffffffffffffffffffffffffffffffffffff168273ffffffffffffffffffffffffffffffffffffffff160361117f576040517f08c379a000000000000000000000000000000000000000000000000000000000815260040161117690613c48565b60405180910390fd5b600360008373ffffffffffffffffffffffffffffffffffffffff1673ffffffffffffffffffffffffffffffffffffffff168152602001908152602001600020549050919050565b6060600180546111d5906136af565b80601f0160208091040260200160405190810160405280929190818152602001828054611201906136af565b801561124e5780601f106112235761010080835404028352916020019161124e565b820191906000526020600020905b81548152906001019060200180831161123157829003601f168201915b5050505050905090565b6000836000600281111561126f5761126e61353d565b5b6008600083815260200190815260200160002060070160009054906101000a900460ff1660028111156112a5576112a461353d565b5b146112e5576040517f08c379a00000000000000000000000000000000000000000000000000000000081526004016112dc90613cb4565b60405180910390fd5b3373ffffffffffffffffffffffffffffffffffffffff166113058661105e565b73ffffffffffffffffffffffffffffffffffffffff161461135b576040517f08c379a000000000000000000000000000000000000000000000000000000000815260040161135290613d20565b60405180910390fd5b61136685600161209d565b5061137185856120ec565b50600083426113809190613d6f565b905060006040518060e001604052808881526020018781526020018781526020013373ffffffffffffffffffffffffffffffffffffffff16815260200183815260200160001515815260200160001515815250905080600b600089815260200190815260200160002060008201518160000155602082015181600101556040820151816002015560608201518160030160006101000a81548173ffffffffffffffffffffffffffffffffffffffff021916908373ffffffffffffffffffffffffffffffffffffffff1602179055506080820151816004015560a08201518160050160006101000a81548160ff02191690831515021790555060c08201518160050160016101000a81548160ff021916908315150217905550905050600193505050509392505050565b6114bb6114b4611b6b565b838361212f565b5050565b60006114ca8261105e565b9050919050565b6114e26114dc611b6b565b83611c2c565b611521576040517f08c379a000000000000000000000000000000000000000000000000000000000815260040161151890613908565b60405180910390fd5b61152d8484848461229b565b50505050565b60003373ffffffffffffffffffffffffffffffffffffffff166115558361105e565b73ffffffffffffffffffffffffffffffffffffffff16146115ab576040517f08c379a00000000000000000000000000000000000000000000000000000000081526004016115a290613e11565b60405180910390fd5b6000600b600084815260200190815260200160002090508060040154421015611609576040517f08c379a000000000000000000000000000000000000000000000000000000000815260040161160090613e7d565b60405180910390fd5b8060050160009054906101000a900460ff161561165b576040517f08c379a000000000000000000000000000000000000000000000000000000000815260040161165290613ee9565b60405180910390fd5b61166a8160000154600261209d565b5060018160050160006101000a81548160ff0219169083151502179055506001915050919050565b60008061169e836122f7565b90506116ab338583612329565b50600191505092915050565b60606116c282611aff565b611701576040517f08c379a00000000000000000000000000000000000000000000000000000000081526004016116f890613f7b565b60405180910390fd5b6000600660008481526020019081526020016000208054611721906136af565b80601f016020809104026020016040519081016040528092919081815260200182805461174d906136af565b801561179a5780601f1061176f5761010080835404028352916020019161179a565b820191906000526020600020905b81548152906001019060200180831161177d57829003601f168201915b5050505050905060006117ab612606565b905060008151036117c0578192505050611803565b6000825111156117f55780826040516020016117dd929190613fd7565b60405160208183030381529060405292505050611803565b6117fe8461261d565b925050505b919050565b60075481565b6008602052806000526040600020600091509050806000015490806001018054611837906136af565b80601f0160208091040260200160405190810160405280929190818152602001828054611863906136af565b80156118b05780601f10611885576101008083540402835291602001916118b0565b820191906000526020600020905b81548152906001019060200180831161189357829003601f168201915b5050505050908060020180546118c5906136af565b80601f01602080910402602001604051908101604052809291908181526020018280546118f1906136af565b801561193e5780601f106119135761010080835404028352916020019161193e565b820191906000526020600020905b81548152906001019060200180831161192157829003601f168201915b5050505050908060030160009054906101000a900473ffffffffffffffffffffffffffffffffffffffff16908060040160009054906101000a900473ffffffffffffffffffffffffffffffffffffffff16908060050154908060060154908060070160009054906101000a900460ff16905088565b600960205281600052604060002081815481106119cf57600080fd5b906000526020600020016000915091509054906101000a900473ffffffffffffffffffffffffffffffffffffffff1681565b6000600560008473ffffffffffffffffffffffffffffffffffffffff1673ffffffffffffffffffffffffffffffffffffffff16815260200190815260200160002060008373ffffffffffffffffffffffffffffffffffffffff1673ffffffffffffffffffffffffffffffffffffffff16815260200190815260200160002060009054906101000a900460ff16905092915050565b60007f01ffc9a7000000000000000000000000000000000000000000000000000000007bffffffffffffffffffffffffffffffffffffffffffffffffffffffff1916827bffffffffffffffffffffffffffffffffffffffffffffffffffffffff1916149050919050565b60008073ffffffffffffffffffffffffffffffffffffffff166002600084815260200190815260200160002060009054906101000a900473ffffffffffffffffffffffffffffffffffffffff1673ffffffffffffffffffffffffffffffffffffffff1614159050919050565b600033905090565b816004600083815260200190815260200160002060006101000a81548173ffffffffffffffffffffffffffffffffffffffff021916908373ffffffffffffffffffffffffffffffffffffffff160217905550808273ffffffffffffffffffffffffffffffffffffffff16611be68361105e565b73ffffffffffffffffffffffffffffffffffffffff167f8c5be1e5ebec7d5bd14f71427d1e84f3dd0314c0f7b2291e5b200ac8c7c3b92560405160405180910390a45050565b6000611c3782611aff565b611c76576040517f08c379a0000000000000000000000000000000000000000000000000000000008152600401611c6d9061406d565b60405180910390fd5b6000611c818361105e565b90508073ffffffffffffffffffffffffffffffffffffffff168473ffffffffffffffffffffffffffffffffffffffff161480611cf057508373ffffffffffffffffffffffffffffffffffffffff16611cd884610826565b73ffffffffffffffffffffffffffffffffffffffff16145b80611d015750611d008185611a01565b5b91505092915050565b8273ffffffffffffffffffffffffffffffffffffffff16611d2a8261105e565b73ffffffffffffffffffffffffffffffffffffffff1614611d80576040517f08c379a0000000000000000000000000000000000000000000000000000000008152600401611d77906140ff565b60405180910390fd5b600073ffffffffffffffffffffffffffffffffffffffff168273ffffffffffffffffffffffffffffffffffffffff1603611def576040517f08c379a0000000000000000000000000000000000000000000000000000000008152600401611de690614191565b60405180910390fd5b611dfa8383836126c4565b611e05600082611b73565b6001600360008573ffffffffffffffffffffffffffffffffffffffff1673ffffffffffffffffffffffffffffffffffffffff1681526020019081526020016000206000828254611e5591906141b1565b925050819055506001600360008473ffffffffffffffffffffffffffffffffffffffff1673ffffffffffffffffffffffffffffffffffffffff1681526020019081526020016000206000828254611eac9190613d6f565b92505081905550816002600083815260200190815260200160002060006101000a81548173ffffffffffffffffffffffffffffffffffffffff021916908373ffffffffffffffffffffffffffffffffffffffff160217905550808273ffffffffffffffffffffffffffffffffffffffff168473ffffffffffffffffffffffffffffffffffffffff167fddf252ad1be2c89b69c2b068fc378daa952ba7f163c4a11628f55a4df523b3ef60405160405180910390a4611f6b8383836126c9565b505050565b600080600860008581526020019081526020016000209050600960008581526020019081526020016000208160040160009054906101000a900473ffffffffffffffffffffffffffffffffffffffff169080600181540180825580915050600190039060005260206000200160009091909190916101000a81548173ffffffffffffffffffffffffffffffffffffffff021916908373ffffffffffffffffffffffffffffffffffffffff160217905550828160040160006101000a81548173ffffffffffffffffffffffffffffffffffffffff021916908373ffffffffffffffffffffffffffffffffffffffff16021790555060018160050160008282546120789190613d6f565b9250508190555061209261208b8561105e565b8486611d0a565b600191505092915050565b600080600860008581526020019081526020016000209050828160070160006101000a81548160ff021916908360028111156120dc576120db61353d565b5b0217905550600191505092915050565b6000806008600085815260200190815260200160002090508281600601541015612123578281600601819055506001915050612129565b60009150505b92915050565b8173ffffffffffffffffffffffffffffffffffffffff168373ffffffffffffffffffffffffffffffffffffffff160361219d576040517f08c379a000000000000000000000000000000000000000000000000000000000815260040161219490614231565b60405180910390fd5b80600560008573ffffffffffffffffffffffffffffffffffffffff1673ffffffffffffffffffffffffffffffffffffffff16815260200190815260200160002060008473ffffffffffffffffffffffffffffffffffffffff1673ffffffffffffffffffffffffffffffffffffffff16815260200190815260200160002060006101000a81548160ff0219169083151502179055508173ffffffffffffffffffffffffffffffffffffffff168373ffffffffffffffffffffffffffffffffffffffff167f17307eab39ab6107e8899845ad3d59bd9653f200f220920489ca2b5937696c318360405161228e9190612e32565b60405180910390a3505050565b6122a6848484611d0a565b6122b2848484846126ce565b6122f1576040517f08c379a00000000000000000000000000000000000000000000000000000000081526004016122e8906142c3565b60405180910390fd5b50505050565b6060612301612855565b82604051602001612313929190613fd7565b6040516020818303038152906040529050919050565b60006007600081548092919061233e906142e3565b919050555061234e600754611aff565b1561238e576040517f08c379a000000000000000000000000000000000000000000000000000000000815260040161238590614377565b60405180910390fd5b600a8260405161239e9190614397565b908152602001604051809103902060009054906101000a900460ff16156123fa576040517f08c379a00000000000000000000000000000000000000000000000000000000081526004016123f1906143fa565b60405180910390fd5b61240684600754612892565b612412600754836128b0565b600060405180610100016040528060075481526020018581526020018481526020013373ffffffffffffffffffffffffffffffffffffffff1681526020013373ffffffffffffffffffffffffffffffffffffffff16815260200160008152602001600081526020016000600281111561248e5761248d61353d565b5b81525090506001600a846040516124a59190614397565b908152602001604051809103902060006101000a81548160ff02191690831515021790555080600860006007548152602001908152602001600020600082015181600001556020820151816001019080519060200190612506929190612cdb565b506040820151816002019080519060200190612523929190612cdb565b5060608201518160030160006101000a81548173ffffffffffffffffffffffffffffffffffffffff021916908373ffffffffffffffffffffffffffffffffffffffff16021790555060808201518160040160006101000a81548173ffffffffffffffffffffffffffffffffffffffff021916908373ffffffffffffffffffffffffffffffffffffffff16021790555060a0820151816005015560c0820151816006015560e08201518160070160006101000a81548160ff021916908360028111156125f1576125f061353d565b5b02179055509050506007549150509392505050565b606060405180602001604052806000815250905090565b606061262882611aff565b612667576040517f08c379a000000000000000000000000000000000000000000000000000000000815260040161265e9061448c565b60405180910390fd5b6000612671612606565b9050600081511161269157604051806020016040528060008152506126bc565b8061269b84612924565b6040516020016126ac929190613fd7565b6040516020818303038152906040525b915050919050565b505050565b505050565b60006126ef8473ffffffffffffffffffffffffffffffffffffffff16612a84565b15612848578373ffffffffffffffffffffffffffffffffffffffff1663150b7a02612718611b6b565b8786866040518563ffffffff1660e01b815260040161273a9493929190614501565b6020604051808303816000875af192505050801561277657506040513d601f19601f820116820180604052508101906127739190614562565b60015b6127f8573d80600081146127a6576040519150601f19603f3d011682016040523d82523d6000602084013e6127ab565b606091505b5060008151036127f0576040517f08c379a00000000000000000000000000000000000000000000000000000000081526004016127e7906142c3565b60405180910390fd5b805181602001fd5b63150b7a0260e01b7bffffffffffffffffffffffffffffffffffffffffffffffffffffffff1916817bffffffffffffffffffffffffffffffffffffffffffffffffffffffff19161491505061284d565b600190505b949350505050565b60606040518060400160405280601581526020017f68747470733a2f2f697066732e696f2f697066732f0000000000000000000000815250905090565b6128ac828260405180602001604052806000815250612aa7565b5050565b6128b982611aff565b6128f8576040517f08c379a00000000000000000000000000000000000000000000000000000000081526004016128ef90614601565b60405180910390fd5b8060066000848152602001908152602001600020908051906020019061291f929190612cdb565b505050565b60606000820361296b576040518060400160405280600181526020017f30000000000000000000000000000000000000000000000000000000000000008152509050612a7f565b600082905060005b6000821461299d578080612986906142e3565b915050600a826129969190614650565b9150612973565b60008167ffffffffffffffff8111156129b9576129b8613276565b5b6040519080825280601f01601f1916602001820160405280156129eb5781602001600182028036833780820191505090505b5090505b60008514612a7857600182612a0491906141b1565b9150600a85612a139190614681565b6030612a1f9190613d6f565b60f81b818381518110612a3557612a346146b2565b5b60200101907effffffffffffffffffffffffffffffffffffffffffffffffffffffffffffff1916908160001a905350600a85612a719190614650565b94506129ef565b8093505050505b919050565b6000808273ffffffffffffffffffffffffffffffffffffffff163b119050919050565b612ab18383612b02565b612abe60008484846126ce565b612afd576040517f08c379a0000000000000000000000000000000000000000000000000000000008152600401612af4906142c3565b60405180910390fd5b505050565b600073ffffffffffffffffffffffffffffffffffffffff168273ffffffffffffffffffffffffffffffffffffffff1603612b71576040517f08c379a0000000000000000000000000000000000000000000000000000000008152600401612b689061472d565b60405180910390fd5b612b7a81611aff565b15612bba576040517f08c379a0000000000000000000000000000000000000000000000000000000008152600401612bb190614799565b60405180910390fd5b612bc6600083836126c4565b6001600360008473ffffffffffffffffffffffffffffffffffffffff1673ffffffffffffffffffffffffffffffffffffffff1681526020019081526020016000206000828254612c169190613d6f565b92505081905550816002600083815260200190815260200160002060006101000a81548173ffffffffffffffffffffffffffffffffffffffff021916908373ffffffffffffffffffffffffffffffffffffffff160217905550808273ffffffffffffffffffffffffffffffffffffffff16600073ffffffffffffffffffffffffffffffffffffffff167fddf252ad1be2c89b69c2b068fc378daa952ba7f163c4a11628f55a4df523b3ef60405160405180910390a4612cd7600083836126c9565b5050565b828054612ce7906136af565b90600052602060002090601f016020900481019282612d095760008555612d50565b82601f10612d2257805160ff1916838001178555612d50565b82800160010185558215612d50579182015b82811115612d4f578251825591602001919060010190612d34565b5b509050612d5d9190612d61565b5090565b5b80821115612d7a576000816000905550600101612d62565b5090565b6000604051905090565b600080fd5b600080fd5b60007fffffffff0000000000000000000000000000000000000000000000000000000082169050919050565b612dc781612d92565b8114612dd257600080fd5b50565b600081359050612de481612dbe565b92915050565b600060208284031215612e0057612dff612d88565b5b6000612e0e84828501612dd5565b91505092915050565b60008115159050919050565b612e2c81612e17565b82525050565b6000602082019050612e476000830184612e23565b92915050565b600081519050919050565b600082825260208201905092915050565b60005b83811015612e87578082015181840152602081019050612e6c565b83811115612e96576000848401525b50505050565b6000601f19601f8301169050919050565b6000612eb882612e4d565b612ec28185612e58565b9350612ed2818560208601612e69565b612edb81612e9c565b840191505092915050565b60006020820190508181036000830152612f008184612ead565b905092915050565b6000819050919050565b612f1b81612f08565b8114612f2657600080fd5b50565b600081359050612f3881612f12565b92915050565b600060208284031215612f5457612f53612d88565b5b6000612f6284828501612f29565b91505092915050565b600073ffffffffffffffffffffffffffffffffffffffff82169050919050565b6000612f9682612f6b565b9050919050565b612fa681612f8b565b82525050565b6000602082019050612fc16000830184612f9d565b92915050565b612fd081612f8b565b8114612fdb57600080fd5b50565b600081359050612fed81612fc7565b92915050565b6000806040838503121561300a57613009612d88565b5b600061301885828601612fde565b925050602061302985828601612f29565b9150509250929050565b60008060006060848603121561304c5761304b612d88565b5b600061305a86828701612fde565b935050602061306b86828701612fde565b925050604061307c86828701612f29565b9150509250925092565b60006020828403121561309c5761309b612d88565b5b60006130aa84828501612fde565b91505092915050565b6130bc81612f08565b82525050565b60006020820190506130d760008301846130b3565b92915050565b60006130e882612f6b565b9050919050565b6130f8816130dd565b82525050565b600060e082019050613113600083018a6130b3565b61312060208301896130b3565b61312d60408301886130b3565b61313a60608301876130ef565b61314760808301866130b3565b61315460a0830185612e23565b61316160c0830184612e23565b98975050505050505050565b6000806040838503121561318457613183612d88565b5b600061319285828601612f29565b92505060206131a385828601612f29565b9150509250929050565b6000806000606084860312156131c6576131c5612d88565b5b60006131d486828701612f29565b93505060206131e586828701612f29565b92505060406131f686828701612f29565b9150509250925092565b61320981612e17565b811461321457600080fd5b50565b60008135905061322681613200565b92915050565b6000806040838503121561324357613242612d88565b5b600061325185828601612fde565b925050602061326285828601613217565b9150509250929050565b600080fd5b600080fd5b7f4e487b7100000000000000000000000000000000000000000000000000000000600052604160045260246000fd5b6132ae82612e9c565b810181811067ffffffffffffffff821117156132cd576132cc613276565b5b80604052505050565b60006132e0612d7e565b90506132ec82826132a5565b919050565b600067ffffffffffffffff82111561330c5761330b613276565b5b61331582612e9c565b9050602081019050919050565b82818337600083830152505050565b600061334461333f846132f1565b6132d6565b9050828152602081018484840111156133605761335f613271565b5b61336b848285613322565b509392505050565b600082601f8301126133885761338761326c565b5b8135613398848260208601613331565b91505092915050565b600080600080608085870312156133bb576133ba612d88565b5b60006133c987828801612fde565b94505060206133da87828801612fde565b93505060406133eb87828801612f29565b925050606085013567ffffffffffffffff81111561340c5761340b612d8d565b5b61341887828801613373565b91505092959194509250565b600067ffffffffffffffff82111561343f5761343e613276565b5b61344882612e9c565b9050602081019050919050565b600061346861346384613424565b6132d6565b90508281526020810184848401111561348457613483613271565b5b61348f848285613322565b509392505050565b600082601f8301126134ac576134ab61326c565b5b81356134bc848260208601613455565b91505092915050565b600080604083850312156134dc576134db612d88565b5b600083013567ffffffffffffffff8111156134fa576134f9612d8d565b5b61350685828601613497565b925050602083013567ffffffffffffffff81111561352757613526612d8d565b5b61353385828601613497565b9150509250929050565b7f4e487b7100000000000000000000000000000000000000000000000000000000600052602160045260246000fd5b6003811061357d5761357c61353d565b5b50565b600081905061358e8261356c565b919050565b600061359e82613580565b9050919050565b6135ae81613593565b82525050565b6000610100820190506135ca600083018b6130b3565b81810360208301526135dc818a612ead565b905081810360408301526135f08189612ead565b90506135ff6060830188612f9d565b61360c6080830187612f9d565b61361960a08301866130b3565b61362660c08301856130b3565b61363360e08301846135a5565b9998505050505050505050565b6000806040838503121561365757613656612d88565b5b600061366585828601612fde565b925050602061367685828601612fde565b9150509250929050565b7f4e487b7100000000000000000000000000000000000000000000000000000000600052602260045260246000fd5b600060028204905060018216806136c757607f821691505b6020821081036136da576136d9613680565b5b50919050565b7f4552433732313a20617070726f76656420717565727920666f72206e6f6e657860008201527f697374656e7420746f6b656e0000000000000000000000000000000000000000602082015250565b600061373c602c83612e58565b9150613747826136e0565b604082019050919050565b6000602082019050818103600083015261376b8161372f565b9050919050565b7f4552433732313a20617070726f76616c20746f2063757272656e74206f776e6560008201527f7200000000000000000000000000000000000000000000000000000000000000602082015250565b60006137ce602183612e58565b91506137d982613772565b604082019050919050565b600060208201905081810360008301526137fd816137c1565b9050919050565b7f4552433732313a20617070726f76652063616c6c6572206973206e6f74206f7760008201527f6e6572206e6f7220617070726f76656420666f7220616c6c0000000000000000602082015250565b6000613860603883612e58565b915061386b82613804565b604082019050919050565b6000602082019050818103600083015261388f81613853565b9050919050565b7f4552433732313a207472616e736665722063616c6c6572206973206e6f74206f60008201527f776e6572206e6f7220617070726f766564000000000000000000000000000000602082015250565b60006138f2603183612e58565b91506138fd82613896565b604082019050919050565b60006020820190508181036000830152613921816138e5565b9050919050565b7f41756374696f6e206e6f7420656e646564207965742e00000000000000000000600082015250565b600061395e601683612e58565b915061396982613928565b602082019050919050565b6000602082019050818103600083015261398d81613951565b9050919050565b7f41756374696f6e20616c726561647920636c61696d65642e0000000000000000600082015250565b60006139ca601883612e58565b91506139d582613994565b602082019050919050565b600060208201905081810360008301526139f9816139bd565b9050919050565b7f43616e206f6e6c7920626520636c61696d65642062792077696e6e65722e0000600082015250565b6000613a36601e83612e58565b9150613a4182613a00565b602082019050919050565b60006020820190508181036000830152613a6581613a29565b9050919050565b7f41756374696f6e20616c726561647920656e6465642e00000000000000000000600082015250565b6000613aa2601683612e58565b9150613aad82613a6c565b602082019050919050565b60006020820190508181036000830152613ad181613a95565b9050919050565b7f4c6f776572206269643f204a6f6b696e672e0000000000000000000000000000600082015250565b6000613b0e601283612e58565b9150613b1982613ad8565b602082019050919050565b60006020820190508181036000830152613b3d81613b01565b9050919050565b7f4552433732313a206f776e657220717565727920666f72206e6f6e657869737460008201527f656e7420746f6b656e0000000000000000000000000000000000000000000000602082015250565b6000613ba0602983612e58565b9150613bab82613b44565b604082019050919050565b60006020820190508181036000830152613bcf81613b93565b9050919050565b7f4552433732313a2062616c616e636520717565727920666f7220746865207a6560008201527f726f206164647265737300000000000000000000000000000000000000000000602082015250565b6000613c32602a83612e58565b9150613c3d82613bd6565b604082019050919050565b60006020820190508181036000830152613c6181613c25565b9050919050565b7f416c7265616479206f6e2061756374696f6e2e00000000000000000000000000600082015250565b6000613c9e601383612e58565b9150613ca982613c68565b602082019050919050565b60006020820190508181036000830152613ccd81613c91565b9050919050565b7f4f6e6c79204f776e65722043616e20426567696e20612041756374696f6e2e00600082015250565b6000613d0a601f83612e58565b9150613d1582613cd4565b602082019050919050565b60006020820190508181036000830152613d3981613cfd565b9050919050565b7f4e487b7100000000000000000000000000000000000000000000000000000000600052601160045260246000fd5b6000613d7a82612f08565b9150613d8583612f08565b9250827fffffffffffffffffffffffffffffffffffffffffffffffffffffffffffffffff03821115613dba57613db9613d40565b5b828201905092915050565b7f4f6e6c79204f776e65722043616e20456e6420612041756374696f6e2e000000600082015250565b6000613dfb601d83612e58565b9150613e0682613dc5565b602082019050919050565b60006020820190508181036000830152613e2a81613dee565b9050919050565b7f4e6f7420656e642074696d652e00000000000000000000000000000000000000600082015250565b6000613e67600d83612e58565b9150613e7282613e31565b602082019050919050565b60006020820190508181036000830152613e9681613e5a565b9050919050565b7f416c726561647920456e6465642e000000000000000000000000000000000000600082015250565b6000613ed3600e83612e58565b9150613ede82613e9d565b602082019050919050565b60006020820190508181036000830152613f0281613ec6565b9050919050565b7f45524337323155524953746f726167653a2055524920717565727920666f722060008201527f6e6f6e6578697374656e7420746f6b656e000000000000000000000000000000602082015250565b6000613f65603183612e58565b9150613f7082613f09565b604082019050919050565b60006020820190508181036000830152613f9481613f58565b9050919050565b600081905092915050565b6000613fb182612e4d565b613fbb8185613f9b565b9350613fcb818560208601612e69565b80840191505092915050565b6000613fe38285613fa6565b9150613fef8284613fa6565b91508190509392505050565b7f4552433732313a206f70657261746f7220717565727920666f72206e6f6e657860008201527f697374656e7420746f6b656e0000000000000000000000000000000000000000602082015250565b6000614057602c83612e58565b915061406282613ffb565b604082019050919050565b600060208201905081810360008301526140868161404a565b9050919050565b7f4552433732313a207472616e736665722066726f6d20696e636f72726563742060008201527f6f776e6572000000000000000000000000000000000000000000000000000000602082015250565b60006140e9602583612e58565b91506140f48261408d565b604082019050919050565b60006020820190508181036000830152614118816140dc565b9050919050565b7f4552433732313a207472616e7366657220746f20746865207a65726f2061646460008201527f7265737300000000000000000000000000000000000000000000000000000000602082015250565b600061417b602483612e58565b91506141868261411f565b604082019050919050565b600060208201905081810360008301526141aa8161416e565b9050919050565b60006141bc82612f08565b91506141c783612f08565b9250828210156141da576141d9613d40565b5b828203905092915050565b7f4552433732313a20617070726f766520746f2063616c6c657200000000000000600082015250565b600061421b601983612e58565b9150614226826141e5565b602082019050919050565b6000602082019050818103600083015261424a8161420e565b9050919050565b7f4552433732313a207472616e7366657220746f206e6f6e20455243373231526560008201527f63656976657220696d706c656d656e7465720000000000000000000000000000602082015250565b60006142ad603283612e58565b91506142b882614251565b604082019050919050565b600060208201905081810360008301526142dc816142a0565b9050919050565b60006142ee82612f08565b91507fffffffffffffffffffffffffffffffffffffffffffffffffffffffffffffffff82036143205761431f613d40565b5b600182019050919050565b7f496d61676549442072657065617465642e000000000000000000000000000000600082015250565b6000614361601183612e58565b915061436c8261432b565b602082019050919050565b6000602082019050818103600083015261439081614354565b9050919050565b60006143a38284613fa6565b915081905092915050565b7f546f6b656e205552492072657065617465642e00000000000000000000000000600082015250565b60006143e4601383612e58565b91506143ef826143ae565b602082019050919050565b60006020820190508181036000830152614413816143d7565b9050919050565b7f4552433732314d657461646174613a2055524920717565727920666f72206e6f60008201527f6e6578697374656e7420746f6b656e0000000000000000000000000000000000602082015250565b6000614476602f83612e58565b91506144818261441a565b604082019050919050565b600060208201905081810360008301526144a581614469565b9050919050565b600081519050919050565b600082825260208201905092915050565b60006144d3826144ac565b6144dd81856144b7565b93506144ed818560208601612e69565b6144f681612e9c565b840191505092915050565b60006080820190506145166000830187612f9d565b6145236020830186612f9d565b61453060408301856130b3565b818103606083015261454281846144c8565b905095945050505050565b60008151905061455c81612dbe565b92915050565b60006020828403121561457857614577612d88565b5b60006145868482850161454d565b91505092915050565b7f45524337323155524953746f726167653a2055524920736574206f66206e6f6e60008201527f6578697374656e7420746f6b656e000000000000000000000000000000000000602082015250565b60006145eb602e83612e58565b91506145f68261458f565b604082019050919050565b6000602082019050818103600083015261461a816145de565b9050919050565b7f4e487b7100000000000000000000000000000000000000000000000000000000600052601260045260246000fd5b600061465b82612f08565b915061466683612f08565b92508261467657614675614621565b5b828204905092915050565b600061468c82612f08565b915061469783612f08565b9250826146a7576146a6614621565b5b828206905092915050565b7f4e487b7100000000000000000000000000000000000000000000000000000000600052603260045260246000fd5b7f4552433732313a206d696e7420746f20746865207a65726f2061646472657373600082015250565b6000614717602083612e58565b9150614722826146e1565b602082019050919050565b600060208201905081810360008301526147468161470a565b9050919050565b7f4552433732313a20746f6b656e20616c7265616479206d696e74656400000000600082015250565b6000614783601c83612e58565b915061478e8261474d565b602082019050919050565b600060208201905081810360008301526147b281614776565b905091905056fea26469706673582212208bd334ad39a4ad1bdc9ae1c478547c24c6b0ef6aff8e3a733b946eb5d4ee6d4364736f6c634300080d0033",
  "immutableReferences": {},
  "source": "// SPDX-License-Identifier: MIT\npragma solidity ^0.8.0;\n\n// import \"./ImageNFT.sol\";\nimport \"./ImageNFTAuction.sol\";\n\ncontract ImageMarketplace is ImageAuction {\n    address internal IMAGE_NFT_MARKETPLACE;\n\n    constructor() {\n        IMAGE_NFT_MARKETPLACE = payable(address(this));\n    }\n\n    function mintImageNFT(\n        string memory imageName,\n        string memory ipfsHashOfPhoto\n    ) external returns (bool) {\n        string memory tokenURI = getTokenURI(ipfsHashOfPhoto); /// [Note]: IPFS hash + URL\n        mint(msg.sender, imageName, tokenURI);\n        return true;\n    }\n\n    function baseTokenURI() internal pure returns (string memory) {\n        return \"https://ipfs.io/ipfs/\";\n    }\n\n    function getTokenURI(string memory _ipfsHashOfPhoto)\n        internal\n        pure\n        returns (string memory)\n    {\n        return string(abi.encodePacked(baseTokenURI(), _ipfsHashOfPhoto));\n    }\n}",
  "sourcePath": "/home/park/a/const/contracts/ImageNFTMarketplace.sol",
  "compiler": {
    "name": "solc",
    "version": "0.8.13+commit.abaa5c0e.Emscripten.clang"
  },
  "schemaVersion": "3.4.7",
  "updatedAt": "2022-04-15T23:36:21.264Z",
  "networkType": "ethereum",
  "devdoc": {
    "kind": "dev",
    "methods": {
      "approve(address,uint256)": {
        "details": "See {IERC721-approve}."
      },
      "balanceOf(address)": {
        "details": "See {IERC721-balanceOf}."
      },
      "getApproved(uint256)": {
        "details": "See {IERC721-getApproved}."
      },
      "isApprovedForAll(address,address)": {
        "details": "See {IERC721-isApprovedForAll}."
      },
      "name()": {
        "details": "See {IERC721Metadata-name}."
      },
      "ownerOf(uint256)": {
        "details": "See {IERC721-ownerOf}."
      },
      "safeTransferFrom(address,address,uint256)": {
        "details": "See {IERC721-safeTransferFrom}."
      },
      "safeTransferFrom(address,address,uint256,bytes)": {
        "details": "See {IERC721-safeTransferFrom}."
      },
      "setApprovalForAll(address,bool)": {
        "details": "See {IERC721-setApprovalForAll}."
      },
      "supportsInterface(bytes4)": {
        "details": "See {IERC165-supportsInterface}."
      },
      "symbol()": {
        "details": "See {IERC721Metadata-symbol}."
      },
      "tokenURI(uint256)": {
        "details": "See {IERC721Metadata-tokenURI}."
      },
      "transferFrom(address,address,uint256)": {
        "details": "See {IERC721-transferFrom}."
      }
    },
    "version": 1
  },
  "userdoc": {
    "kind": "user",
    "methods": {},
    "version": 1
  }
}