{
  "contractName": "ImageNFT",
  "abi": [
    {
      "inputs": [],
      "stateMutability": "nonpayable",
      "type": "constructor"
    },
    {
      "anonymous": false,
      "inputs": [
        {
          "indexed": true,
          "internalType": "address",
          "name": "owner",
          "type": "address"
        },
        {
          "indexed": true,
          "internalType": "address",
          "name": "approved",
          "type": "address"
        },
        {
          "indexed": true,
          "internalType": "uint256",
          "name": "tokenId",
          "type": "uint256"
        }
      ],
      "name": "Approval",
      "type": "event"
    },
    {
      "anonymous": false,
      "inputs": [
        {
          "indexed": true,
          "internalType": "address",
          "name": "owner",
          "type": "address"
        },
        {
          "indexed": true,
          "internalType": "address",
          "name": "operator",
          "type": "address"
        },
        {
          "indexed": false,
          "internalType": "bool",
          "name": "approved",
          "type": "bool"
        }
      ],
      "name": "ApprovalForAll",
      "type": "event"
    },
    {
      "anonymous": false,
      "inputs": [
        {
          "indexed": true,
          "internalType": "address",
          "name": "from",
          "type": "address"
        },
        {
          "indexed": true,
          "internalType": "address",
          "name": "to",
          "type": "address"
        },
        {
          "indexed": true,
          "internalType": "uint256",
          "name": "tokenId",
          "type": "uint256"
        }
      ],
      "name": "Transfer",
      "type": "event"
    },
    {
      "inputs": [
        {
          "internalType": "address",
          "name": "to",
          "type": "address"
        },
        {
          "internalType": "uint256",
          "name": "tokenId",
          "type": "uint256"
        }
      ],
      "name": "approve",
      "outputs": [],
      "stateMutability": "nonpayable",
      "type": "function"
    },
    {
      "inputs": [
        {
          "internalType": "address",
          "name": "owner",
          "type": "address"
        }
      ],
      "name": "balanceOf",
      "outputs": [
        {
          "internalType": "uint256",
          "name": "",
          "type": "uint256"
        }
      ],
      "stateMutability": "view",
      "type": "function"
    },
    {
      "inputs": [],
      "name": "currentImageCount",
      "outputs": [
        {
          "internalType": "uint256",
          "name": "",
          "type": "uint256"
        }
      ],
      "stateMutability": "view",
      "type": "function"
    },
    {
      "inputs": [
        {
          "internalType": "uint256",
          "name": "tokenId",
          "type": "uint256"
        }
      ],
      "name": "getApproved",
      "outputs": [
        {
          "internalType": "address",
          "name": "",
          "type": "address"
        }
      ],
      "stateMutability": "view",
      "type": "function"
    },
    {
      "inputs": [
        {
          "internalType": "uint256",
          "name": "",
          "type": "uint256"
        }
      ],
      "name": "imageStorage",
      "outputs": [
        {
          "internalType": "uint256",
          "name": "tokenID",
          "type": "uint256"
        },
        {
          "internalType": "string",
          "name": "tokenName",
          "type": "string"
        },
        {
          "internalType": "string",
          "name": "tokenURI",
          "type": "string"
        },
        {
          "internalType": "address",
          "name": "mintedBy",
          "type": "address"
        },
        {
          "internalType": "address",
          "name": "currentOwner",
          "type": "address"
        },
        {
          "internalType": "uint256",
          "name": "transferTime",
          "type": "uint256"
        },
        {
          "internalType": "uint256",
          "name": "highestBidPrice",
          "type": "uint256"
        },
        {
          "internalType": "enum ImageNFT.Status",
          "name": "status",
          "type": "uint8"
        }
      ],
      "stateMutability": "view",
      "type": "function"
    },
    {
      "inputs": [
        {
          "internalType": "address",
          "name": "owner",
          "type": "address"
        },
        {
          "internalType": "address",
          "name": "operator",
          "type": "address"
        }
      ],
      "name": "isApprovedForAll",
      "outputs": [
        {
          "internalType": "bool",
          "name": "",
          "type": "bool"
        }
      ],
      "stateMutability": "view",
      "type": "function"
    },
    {
      "inputs": [],
      "name": "name",
      "outputs": [
        {
          "internalType": "string",
          "name": "",
          "type": "string"
        }
      ],
      "stateMutability": "view",
      "type": "function"
    },
    {
      "inputs": [
        {
          "internalType": "uint256",
          "name": "tokenId",
          "type": "uint256"
        }
      ],
      "name": "ownerOf",
      "outputs": [
        {
          "internalType": "address",
          "name": "",
          "type": "address"
        }
      ],
      "stateMutability": "view",
      "type": "function"
    },
    {
      "inputs": [
        {
          "internalType": "uint256",
          "name": "",
          "type": "uint256"
        },
        {
          "internalType": "uint256",
          "name": "",
          "type": "uint256"
        }
      ],
      "name": "ownerShipTrans",
      "outputs": [
        {
          "internalType": "address",
          "name": "",
          "type": "address"
        }
      ],
      "stateMutability": "view",
      "type": "function"
    },
    {
      "inputs": [
        {
          "internalType": "address",
          "name": "from",
          "type": "address"
        },
        {
          "internalType": "address",
          "name": "to",
          "type": "address"
        },
        {
          "internalType": "uint256",
          "name": "tokenId",
          "type": "uint256"
        }
      ],
      "name": "safeTransferFrom",
      "outputs": [],
      "stateMutability": "nonpayable",
      "type": "function"
    },
    {
      "inputs": [
        {
          "internalType": "address",
          "name": "from",
          "type": "address"
        },
        {
          "internalType": "address",
          "name": "to",
          "type": "address"
        },
        {
          "internalType": "uint256",
          "name": "tokenId",
          "type": "uint256"
        },
        {
          "internalType": "bytes",
          "name": "_data",
          "type": "bytes"
        }
      ],
      "name": "safeTransferFrom",
      "outputs": [],
      "stateMutability": "nonpayable",
      "type": "function"
    },
    {
      "inputs": [
        {
          "internalType": "address",
          "name": "operator",
          "type": "address"
        },
        {
          "internalType": "bool",
          "name": "approved",
          "type": "bool"
        }
      ],
      "name": "setApprovalForAll",
      "outputs": [],
      "stateMutability": "nonpayable",
      "type": "function"
    },
    {
      "inputs": [
        {
          "internalType": "bytes4",
          "name": "interfaceId",
          "type": "bytes4"
        }
      ],
      "name": "supportsInterface",
      "outputs": [
        {
          "internalType": "bool",
          "name": "",
          "type": "bool"
        }
      ],
      "stateMutability": "view",
      "type": "function"
    },
    {
      "inputs": [],
      "name": "symbol",
      "outputs": [
        {
          "internalType": "string",
          "name": "",
          "type": "string"
        }
      ],
      "stateMutability": "view",
      "type": "function"
    },
    {
      "inputs": [
        {
          "internalType": "uint256",
          "name": "tokenId",
          "type": "uint256"
        }
      ],
      "name": "tokenURI",
      "outputs": [
        {
          "internalType": "string",
          "name": "",
          "type": "string"
        }
      ],
      "stateMutability": "view",
      "type": "function"
    },
    {
      "inputs": [
        {
          "internalType": "address",
          "name": "from",
          "type": "address"
        },
        {
          "internalType": "address",
          "name": "to",
          "type": "address"
        },
        {
          "internalType": "uint256",
          "name": "tokenId",
          "type": "uint256"
        }
      ],
      "name": "transferFrom",
      "outputs": [],
      "stateMutability": "nonpayable",
      "type": "function"
    },
    {
      "inputs": [
        {
          "internalType": "uint256",
          "name": "_tokenID",
          "type": "uint256"
        }
      ],
      "name": "getTokenOnwer",
      "outputs": [
        {
          "internalType": "address",
          "name": "",
          "type": "address"
        }
      ],
      "stateMutability": "view",
      "type": "function"
    },
    {
      "inputs": [
        {
          "internalType": "uint256",
          "name": "_tokenID",
          "type": "uint256"
        }
      ],
      "name": "getTokenURI",
      "outputs": [
        {
          "internalType": "string",
          "name": "",
          "type": "string"
        }
      ],
      "stateMutability": "view",
      "type": "function"
    },
    {
      "inputs": [
        {
          "internalType": "address",
          "name": "owner",
          "type": "address"
        }
      ],
      "name": "getOwnedNumber",
      "outputs": [
        {
          "internalType": "uint256",
          "name": "",
          "type": "uint256"
        }
      ],
      "stateMutability": "view",
      "type": "function"
    }
  ],
  "bytecode": "0x60806040523480156200001157600080fd5b506040518060400160405280601081526020017f496d61676520436f6c6c656374696f6e000000000000000000000000000000008152506040518060400160405280600381526020017f4e46540000000000000000000000000000000000000000000000000000000000815250816000908051906020019062000096929190620000c0565b508060019080519060200190620000af929190620000c0565b5050506000600781905550620001d4565b828054620000ce906200019f565b90600052602060002090601f016020900481019282620000f257600085556200013e565b82601f106200010d57805160ff19168380011785556200013e565b828001600101855582156200013e579182015b828111156200013d57825182559160200191906001019062000120565b5b5090506200014d919062000151565b5090565b5b808211156200016c57600081600090555060010162000152565b5090565b7f4e487b7100000000000000000000000000000000000000000000000000000000600052602260045260246000fd5b60006002820490506001821680620001b857607f821691505b602082108103620001ce57620001cd62000170565b5b50919050565b612cdb80620001e46000396000f3fe608060405234801561001057600080fd5b50600436106101215760003560e01c806370a08231116100ad578063c87b56dd11610071578063c87b56dd1461033e578063d4d369071461036e578063dc471a6b1461038c578063e7979dd2146103c3578063e985e9c5146103f357610121565b806370a082311461028857806395d89b41146102b8578063a22cb465146102d6578063ab22f4a6146102f2578063b88d4fde1461032257610121565b806323b872dd116100f457806323b872dd146101c05780633527bb0a146101dc5780633bb3a24d1461020c57806342842e0e1461023c5780636352211e1461025857610121565b806301ffc9a71461012657806306fdde0314610156578063081812fc14610174578063095ea7b3146101a4575b600080fd5b610140600480360381019061013b9190611b63565b610423565b60405161014d9190611bab565b60405180910390f35b61015e610505565b60405161016b9190611c5f565b60405180910390f35b61018e60048036038101906101899190611cb7565b610597565b60405161019b9190611d25565b60405180910390f35b6101be60048036038101906101b99190611d6c565b61061c565b005b6101da60048036038101906101d59190611dac565b610733565b005b6101f660048036038101906101f19190611dff565b610793565b6040516102039190611e3b565b60405180910390f35b61022660048036038101906102219190611cb7565b6107a5565b6040516102339190611c5f565b60405180910390f35b61025660048036038101906102519190611dac565b610a00565b005b610272600480360381019061026d9190611cb7565b610a20565b60405161027f9190611d25565b60405180910390f35b6102a2600480360381019061029d9190611dff565b610ad1565b6040516102af9190611e3b565b60405180910390f35b6102c0610b88565b6040516102cd9190611c5f565b60405180910390f35b6102f060048036038101906102eb9190611e82565b610c1a565b005b61030c60048036038101906103079190611cb7565b610c30565b6040516103199190611d25565b60405180910390f35b61033c60048036038101906103379190611ff7565b610c42565b005b61035860048036038101906103539190611cb7565b610ca4565b6040516103659190611c5f565b60405180910390f35b610376610df5565b6040516103839190611e3b565b60405180910390f35b6103a660048036038101906103a19190611cb7565b610dfb565b6040516103ba9897969594939291906120f1565b60405180910390f35b6103dd60048036038101906103d8919061217d565b610fa0565b6040516103ea9190611d25565b60405180910390f35b61040d600480360381019061040891906121bd565b610fee565b60405161041a9190611bab565b60405180910390f35b60007f80ac58cd000000000000000000000000000000000000000000000000000000007bffffffffffffffffffffffffffffffffffffffffffffffffffffffff1916827bffffffffffffffffffffffffffffffffffffffffffffffffffffffff191614806104ee57507f5b5e139f000000000000000000000000000000000000000000000000000000007bffffffffffffffffffffffffffffffffffffffffffffffffffffffff1916827bffffffffffffffffffffffffffffffffffffffffffffffffffffffff1916145b806104fe57506104fd82611082565b5b9050919050565b6060600080546105149061222c565b80601f01602080910402602001604051908101604052809291908181526020018280546105409061222c565b801561058d5780601f106105625761010080835404028352916020019161058d565b820191906000526020600020905b81548152906001019060200180831161057057829003601f168201915b5050505050905090565b60006105a2826110ec565b6105e1576040517f08c379a00000000000000000000000000000000000000000000000000000000081526004016105d8906122cf565b60405180910390fd5b6004600083815260200190815260200160002060009054906101000a900473ffffffffffffffffffffffffffffffffffffffff169050919050565b600061062782610a20565b90508073ffffffffffffffffffffffffffffffffffffffff168373ffffffffffffffffffffffffffffffffffffffff1603610697576040517f08c379a000000000000000000000000000000000000000000000000000000000815260040161068e90612361565b60405180910390fd5b8073ffffffffffffffffffffffffffffffffffffffff166106b6611158565b73ffffffffffffffffffffffffffffffffffffffff1614806106e557506106e4816106df611158565b610fee565b5b610724576040517f08c379a000000000000000000000000000000000000000000000000000000000815260040161071b906123f3565b60405180910390fd5b61072e8383611160565b505050565b61074461073e611158565b82611219565b610783576040517f08c379a000000000000000000000000000000000000000000000000000000000815260040161077a90612485565b60405180910390fd5b61078e8383836112f7565b505050565b600061079e82610ad1565b9050919050565b606060006008600084815260200190815260200160002060405180610100016040529081600082015481526020016001820180546107e29061222c565b80601f016020809104026020016040519081016040528092919081815260200182805461080e9061222c565b801561085b5780601f106108305761010080835404028352916020019161085b565b820191906000526020600020905b81548152906001019060200180831161083e57829003601f168201915b505050505081526020016002820180546108749061222c565b80601f01602080910402602001604051908101604052809291908181526020018280546108a09061222c565b80156108ed5780601f106108c2576101008083540402835291602001916108ed565b820191906000526020600020905b8154815290600101906020018083116108d057829003601f168201915b505050505081526020016003820160009054906101000a900473ffffffffffffffffffffffffffffffffffffffff1673ffffffffffffffffffffffffffffffffffffffff1673ffffffffffffffffffffffffffffffffffffffff1681526020016004820160009054906101000a900473ffffffffffffffffffffffffffffffffffffffff1673ffffffffffffffffffffffffffffffffffffffff1673ffffffffffffffffffffffffffffffffffffffff16815260200160058201548152602001600682015481526020016007820160009054906101000a900460ff1660028111156109db576109da61207a565b5b60028111156109ed576109ec61207a565b5b8152505090508060400151915050919050565b610a1b83838360405180602001604052806000815250610c42565b505050565b6000806002600084815260200190815260200160002060009054906101000a900473ffffffffffffffffffffffffffffffffffffffff169050600073ffffffffffffffffffffffffffffffffffffffff168173ffffffffffffffffffffffffffffffffffffffff1603610ac8576040517f08c379a0000000000000000000000000000000000000000000000000000000008152600401610abf90612517565b60405180910390fd5b80915050919050565b60008073ffffffffffffffffffffffffffffffffffffffff168273ffffffffffffffffffffffffffffffffffffffff1603610b41576040517f08c379a0000000000000000000000000000000000000000000000000000000008152600401610b38906125a9565b60405180910390fd5b600360008373ffffffffffffffffffffffffffffffffffffffff1673ffffffffffffffffffffffffffffffffffffffff168152602001908152602001600020549050919050565b606060018054610b979061222c565b80601f0160208091040260200160405190810160405280929190818152602001828054610bc39061222c565b8015610c105780601f10610be557610100808354040283529160200191610c10565b820191906000526020600020905b815481529060010190602001808311610bf357829003601f168201915b5050505050905090565b610c2c610c25611158565b838361155d565b5050565b6000610c3b82610a20565b9050919050565b610c53610c4d611158565b83611219565b610c92576040517f08c379a0000000000000000000000000000000000000000000000000000000008152600401610c8990612485565b60405180910390fd5b610c9e848484846116c9565b50505050565b6060610caf826110ec565b610cee576040517f08c379a0000000000000000000000000000000000000000000000000000000008152600401610ce59061263b565b60405180910390fd5b6000600660008481526020019081526020016000208054610d0e9061222c565b80601f0160208091040260200160405190810160405280929190818152602001828054610d3a9061222c565b8015610d875780601f10610d5c57610100808354040283529160200191610d87565b820191906000526020600020905b815481529060010190602001808311610d6a57829003601f168201915b505050505090506000610d98611725565b90506000815103610dad578192505050610df0565b600082511115610de2578082604051602001610dca929190612697565b60405160208183030381529060405292505050610df0565b610deb8461173c565b925050505b919050565b60075481565b6008602052806000526040600020600091509050806000015490806001018054610e249061222c565b80601f0160208091040260200160405190810160405280929190818152602001828054610e509061222c565b8015610e9d5780601f10610e7257610100808354040283529160200191610e9d565b820191906000526020600020905b815481529060010190602001808311610e8057829003601f168201915b505050505090806002018054610eb29061222c565b80601f0160208091040260200160405190810160405280929190818152602001828054610ede9061222c565b8015610f2b5780601f10610f0057610100808354040283529160200191610f2b565b820191906000526020600020905b815481529060010190602001808311610f0e57829003601f168201915b5050505050908060030160009054906101000a900473ffffffffffffffffffffffffffffffffffffffff16908060040160009054906101000a900473ffffffffffffffffffffffffffffffffffffffff16908060050154908060060154908060070160009054906101000a900460ff16905088565b60096020528160005260406000208181548110610fbc57600080fd5b906000526020600020016000915091509054906101000a900473ffffffffffffffffffffffffffffffffffffffff1681565b6000600560008473ffffffffffffffffffffffffffffffffffffffff1673ffffffffffffffffffffffffffffffffffffffff16815260200190815260200160002060008373ffffffffffffffffffffffffffffffffffffffff1673ffffffffffffffffffffffffffffffffffffffff16815260200190815260200160002060009054906101000a900460ff16905092915050565b60007f01ffc9a7000000000000000000000000000000000000000000000000000000007bffffffffffffffffffffffffffffffffffffffffffffffffffffffff1916827bffffffffffffffffffffffffffffffffffffffffffffffffffffffff1916149050919050565b60008073ffffffffffffffffffffffffffffffffffffffff166002600084815260200190815260200160002060009054906101000a900473ffffffffffffffffffffffffffffffffffffffff1673ffffffffffffffffffffffffffffffffffffffff1614159050919050565b600033905090565b816004600083815260200190815260200160002060006101000a81548173ffffffffffffffffffffffffffffffffffffffff021916908373ffffffffffffffffffffffffffffffffffffffff160217905550808273ffffffffffffffffffffffffffffffffffffffff166111d383610a20565b73ffffffffffffffffffffffffffffffffffffffff167f8c5be1e5ebec7d5bd14f71427d1e84f3dd0314c0f7b2291e5b200ac8c7c3b92560405160405180910390a45050565b6000611224826110ec565b611263576040517f08c379a000000000000000000000000000000000000000000000000000000000815260040161125a9061272d565b60405180910390fd5b600061126e83610a20565b90508073ffffffffffffffffffffffffffffffffffffffff168473ffffffffffffffffffffffffffffffffffffffff1614806112dd57508373ffffffffffffffffffffffffffffffffffffffff166112c584610597565b73ffffffffffffffffffffffffffffffffffffffff16145b806112ee57506112ed8185610fee565b5b91505092915050565b8273ffffffffffffffffffffffffffffffffffffffff1661131782610a20565b73ffffffffffffffffffffffffffffffffffffffff161461136d576040517f08c379a0000000000000000000000000000000000000000000000000000000008152600401611364906127bf565b60405180910390fd5b600073ffffffffffffffffffffffffffffffffffffffff168273ffffffffffffffffffffffffffffffffffffffff16036113dc576040517f08c379a00000000000000000000000000000000000000000000000000000000081526004016113d390612851565b60405180910390fd5b6113e78383836117e3565b6113f2600082611160565b6001600360008573ffffffffffffffffffffffffffffffffffffffff1673ffffffffffffffffffffffffffffffffffffffff168152602001908152602001600020600082825461144291906128a0565b925050819055506001600360008473ffffffffffffffffffffffffffffffffffffffff1673ffffffffffffffffffffffffffffffffffffffff168152602001908152602001600020600082825461149991906128d4565b92505081905550816002600083815260200190815260200160002060006101000a81548173ffffffffffffffffffffffffffffffffffffffff021916908373ffffffffffffffffffffffffffffffffffffffff160217905550808273ffffffffffffffffffffffffffffffffffffffff168473ffffffffffffffffffffffffffffffffffffffff167fddf252ad1be2c89b69c2b068fc378daa952ba7f163c4a11628f55a4df523b3ef60405160405180910390a46115588383836117e8565b505050565b8173ffffffffffffffffffffffffffffffffffffffff168373ffffffffffffffffffffffffffffffffffffffff16036115cb576040517f08c379a00000000000000000000000000000000000000000000000000000000081526004016115c290612976565b60405180910390fd5b80600560008573ffffffffffffffffffffffffffffffffffffffff1673ffffffffffffffffffffffffffffffffffffffff16815260200190815260200160002060008473ffffffffffffffffffffffffffffffffffffffff1673ffffffffffffffffffffffffffffffffffffffff16815260200190815260200160002060006101000a81548160ff0219169083151502179055508173ffffffffffffffffffffffffffffffffffffffff168373ffffffffffffffffffffffffffffffffffffffff167f17307eab39ab6107e8899845ad3d59bd9653f200f220920489ca2b5937696c31836040516116bc9190611bab565b60405180910390a3505050565b6116d48484846112f7565b6116e0848484846117ed565b61171f576040517f08c379a000000000000000000000000000000000000000000000000000000000815260040161171690612a08565b60405180910390fd5b50505050565b606060405180602001604052806000815250905090565b6060611747826110ec565b611786576040517f08c379a000000000000000000000000000000000000000000000000000000000815260040161177d90612a9a565b60405180910390fd5b6000611790611725565b905060008151116117b057604051806020016040528060008152506117db565b806117ba84611974565b6040516020016117cb929190612697565b6040516020818303038152906040525b915050919050565b505050565b505050565b600061180e8473ffffffffffffffffffffffffffffffffffffffff16611ad4565b15611967578373ffffffffffffffffffffffffffffffffffffffff1663150b7a02611837611158565b8786866040518563ffffffff1660e01b81526004016118599493929190612b0f565b6020604051808303816000875af192505050801561189557506040513d601f19601f820116820180604052508101906118929190612b70565b60015b611917573d80600081146118c5576040519150601f19603f3d011682016040523d82523d6000602084013e6118ca565b606091505b50600081510361190f576040517f08c379a000000000000000000000000000000000000000000000000000000000815260040161190690612a08565b60405180910390fd5b805181602001fd5b63150b7a0260e01b7bffffffffffffffffffffffffffffffffffffffffffffffffffffffff1916817bffffffffffffffffffffffffffffffffffffffffffffffffffffffff19161491505061196c565b600190505b949350505050565b6060600082036119bb576040518060400160405280600181526020017f30000000000000000000000000000000000000000000000000000000000000008152509050611acf565b600082905060005b600082146119ed5780806119d690612b9d565b915050600a826119e69190612c14565b91506119c3565b60008167ffffffffffffffff811115611a0957611a08611ecc565b5b6040519080825280601f01601f191660200182016040528015611a3b5781602001600182028036833780820191505090505b5090505b60008514611ac857600182611a5491906128a0565b9150600a85611a639190612c45565b6030611a6f91906128d4565b60f81b818381518110611a8557611a84612c76565b5b60200101907effffffffffffffffffffffffffffffffffffffffffffffffffffffffffffff1916908160001a905350600a85611ac19190612c14565b9450611a3f565b8093505050505b919050565b6000808273ffffffffffffffffffffffffffffffffffffffff163b119050919050565b6000604051905090565b600080fd5b600080fd5b60007fffffffff0000000000000000000000000000000000000000000000000000000082169050919050565b611b4081611b0b565b8114611b4b57600080fd5b50565b600081359050611b5d81611b37565b92915050565b600060208284031215611b7957611b78611b01565b5b6000611b8784828501611b4e565b91505092915050565b60008115159050919050565b611ba581611b90565b82525050565b6000602082019050611bc06000830184611b9c565b92915050565b600081519050919050565b600082825260208201905092915050565b60005b83811015611c00578082015181840152602081019050611be5565b83811115611c0f576000848401525b50505050565b6000601f19601f8301169050919050565b6000611c3182611bc6565b611c3b8185611bd1565b9350611c4b818560208601611be2565b611c5481611c15565b840191505092915050565b60006020820190508181036000830152611c798184611c26565b905092915050565b6000819050919050565b611c9481611c81565b8114611c9f57600080fd5b50565b600081359050611cb181611c8b565b92915050565b600060208284031215611ccd57611ccc611b01565b5b6000611cdb84828501611ca2565b91505092915050565b600073ffffffffffffffffffffffffffffffffffffffff82169050919050565b6000611d0f82611ce4565b9050919050565b611d1f81611d04565b82525050565b6000602082019050611d3a6000830184611d16565b92915050565b611d4981611d04565b8114611d5457600080fd5b50565b600081359050611d6681611d40565b92915050565b60008060408385031215611d8357611d82611b01565b5b6000611d9185828601611d57565b9250506020611da285828601611ca2565b9150509250929050565b600080600060608486031215611dc557611dc4611b01565b5b6000611dd386828701611d57565b9350506020611de486828701611d57565b9250506040611df586828701611ca2565b9150509250925092565b600060208284031215611e1557611e14611b01565b5b6000611e2384828501611d57565b91505092915050565b611e3581611c81565b82525050565b6000602082019050611e506000830184611e2c565b92915050565b611e5f81611b90565b8114611e6a57600080fd5b50565b600081359050611e7c81611e56565b92915050565b60008060408385031215611e9957611e98611b01565b5b6000611ea785828601611d57565b9250506020611eb885828601611e6d565b9150509250929050565b600080fd5b600080fd5b7f4e487b7100000000000000000000000000000000000000000000000000000000600052604160045260246000fd5b611f0482611c15565b810181811067ffffffffffffffff82111715611f2357611f22611ecc565b5b80604052505050565b6000611f36611af7565b9050611f428282611efb565b919050565b600067ffffffffffffffff821115611f6257611f61611ecc565b5b611f6b82611c15565b9050602081019050919050565b82818337600083830152505050565b6000611f9a611f9584611f47565b611f2c565b905082815260208101848484011115611fb657611fb5611ec7565b5b611fc1848285611f78565b509392505050565b600082601f830112611fde57611fdd611ec2565b5b8135611fee848260208601611f87565b91505092915050565b6000806000806080858703121561201157612010611b01565b5b600061201f87828801611d57565b945050602061203087828801611d57565b935050604061204187828801611ca2565b925050606085013567ffffffffffffffff81111561206257612061611b06565b5b61206e87828801611fc9565b91505092959194509250565b7f4e487b7100000000000000000000000000000000000000000000000000000000600052602160045260246000fd5b600381106120ba576120b961207a565b5b50565b60008190506120cb826120a9565b919050565b60006120db826120bd565b9050919050565b6120eb816120d0565b82525050565b600061010082019050612107600083018b611e2c565b8181036020830152612119818a611c26565b9050818103604083015261212d8189611c26565b905061213c6060830188611d16565b6121496080830187611d16565b61215660a0830186611e2c565b61216360c0830185611e2c565b61217060e08301846120e2565b9998505050505050505050565b6000806040838503121561219457612193611b01565b5b60006121a285828601611ca2565b92505060206121b385828601611ca2565b9150509250929050565b600080604083850312156121d4576121d3611b01565b5b60006121e285828601611d57565b92505060206121f385828601611d57565b9150509250929050565b7f4e487b7100000000000000000000000000000000000000000000000000000000600052602260045260246000fd5b6000600282049050600182168061224457607f821691505b602082108103612257576122566121fd565b5b50919050565b7f4552433732313a20617070726f76656420717565727920666f72206e6f6e657860008201527f697374656e7420746f6b656e0000000000000000000000000000000000000000602082015250565b60006122b9602c83611bd1565b91506122c48261225d565b604082019050919050565b600060208201905081810360008301526122e8816122ac565b9050919050565b7f4552433732313a20617070726f76616c20746f2063757272656e74206f776e6560008201527f7200000000000000000000000000000000000000000000000000000000000000602082015250565b600061234b602183611bd1565b9150612356826122ef565b604082019050919050565b6000602082019050818103600083015261237a8161233e565b9050919050565b7f4552433732313a20617070726f76652063616c6c6572206973206e6f74206f7760008201527f6e6572206e6f7220617070726f76656420666f7220616c6c0000000000000000602082015250565b60006123dd603883611bd1565b91506123e882612381565b604082019050919050565b6000602082019050818103600083015261240c816123d0565b9050919050565b7f4552433732313a207472616e736665722063616c6c6572206973206e6f74206f60008201527f776e6572206e6f7220617070726f766564000000000000000000000000000000602082015250565b600061246f603183611bd1565b915061247a82612413565b604082019050919050565b6000602082019050818103600083015261249e81612462565b9050919050565b7f4552433732313a206f776e657220717565727920666f72206e6f6e657869737460008201527f656e7420746f6b656e0000000000000000000000000000000000000000000000602082015250565b6000612501602983611bd1565b915061250c826124a5565b604082019050919050565b60006020820190508181036000830152612530816124f4565b9050919050565b7f4552433732313a2062616c616e636520717565727920666f7220746865207a6560008201527f726f206164647265737300000000000000000000000000000000000000000000602082015250565b6000612593602a83611bd1565b915061259e82612537565b604082019050919050565b600060208201905081810360008301526125c281612586565b9050919050565b7f45524337323155524953746f726167653a2055524920717565727920666f722060008201527f6e6f6e6578697374656e7420746f6b656e000000000000000000000000000000602082015250565b6000612625603183611bd1565b9150612630826125c9565b604082019050919050565b6000602082019050818103600083015261265481612618565b9050919050565b600081905092915050565b600061267182611bc6565b61267b818561265b565b935061268b818560208601611be2565b80840191505092915050565b60006126a38285612666565b91506126af8284612666565b91508190509392505050565b7f4552433732313a206f70657261746f7220717565727920666f72206e6f6e657860008201527f697374656e7420746f6b656e0000000000000000000000000000000000000000602082015250565b6000612717602c83611bd1565b9150612722826126bb565b604082019050919050565b600060208201905081810360008301526127468161270a565b9050919050565b7f4552433732313a207472616e736665722066726f6d20696e636f72726563742060008201527f6f776e6572000000000000000000000000000000000000000000000000000000602082015250565b60006127a9602583611bd1565b91506127b48261274d565b604082019050919050565b600060208201905081810360008301526127d88161279c565b9050919050565b7f4552433732313a207472616e7366657220746f20746865207a65726f2061646460008201527f7265737300000000000000000000000000000000000000000000000000000000602082015250565b600061283b602483611bd1565b9150612846826127df565b604082019050919050565b6000602082019050818103600083015261286a8161282e565b9050919050565b7f4e487b7100000000000000000000000000000000000000000000000000000000600052601160045260246000fd5b60006128ab82611c81565b91506128b683611c81565b9250828210156128c9576128c8612871565b5b828203905092915050565b60006128df82611c81565b91506128ea83611c81565b9250827fffffffffffffffffffffffffffffffffffffffffffffffffffffffffffffffff0382111561291f5761291e612871565b5b828201905092915050565b7f4552433732313a20617070726f766520746f2063616c6c657200000000000000600082015250565b6000612960601983611bd1565b915061296b8261292a565b602082019050919050565b6000602082019050818103600083015261298f81612953565b9050919050565b7f4552433732313a207472616e7366657220746f206e6f6e20455243373231526560008201527f63656976657220696d706c656d656e7465720000000000000000000000000000602082015250565b60006129f2603283611bd1565b91506129fd82612996565b604082019050919050565b60006020820190508181036000830152612a21816129e5565b9050919050565b7f4552433732314d657461646174613a2055524920717565727920666f72206e6f60008201527f6e6578697374656e7420746f6b656e0000000000000000000000000000000000602082015250565b6000612a84602f83611bd1565b9150612a8f82612a28565b604082019050919050565b60006020820190508181036000830152612ab381612a77565b9050919050565b600081519050919050565b600082825260208201905092915050565b6000612ae182612aba565b612aeb8185612ac5565b9350612afb818560208601611be2565b612b0481611c15565b840191505092915050565b6000608082019050612b246000830187611d16565b612b316020830186611d16565b612b3e6040830185611e2c565b8181036060830152612b508184612ad6565b905095945050505050565b600081519050612b6a81611b37565b92915050565b600060208284031215612b8657612b85611b01565b5b6000612b9484828501612b5b565b91505092915050565b6000612ba882611c81565b91507fffffffffffffffffffffffffffffffffffffffffffffffffffffffffffffffff8203612bda57612bd9612871565b5b600182019050919050565b7f4e487b7100000000000000000000000000000000000000000000000000000000600052601260045260246000fd5b6000612c1f82611c81565b9150612c2a83611c81565b925082612c3a57612c39612be5565b5b828204905092915050565b6000612c5082611c81565b9150612c5b83611c81565b925082612c6b57612c6a612be5565b5b828206905092915050565b7f4e487b7100000000000000000000000000000000000000000000000000000000600052603260045260246000fdfea2646970667358221220b7e06573666aaf194340ee1e76b1ce79570e3558892413c77a4f44019eb6608d64736f6c634300080d0033",
  "immutableReferences": {},
  "source": "// SPDX-License-Identifier: MIT\r\npragma solidity ^0.8.0;\r\n\r\nimport \"@openzeppelin/contracts/token/ERC721/extensions/ERC721URIStorage.sol\";\r\n\r\ncontract ImageNFT is ERC721URIStorage {\r\n    enum Status {\r\n        OffBid, OnBid, WaittingClaim\r\n    }\r\n\r\n    struct Image {\r\n        uint256 tokenID;\r\n        string tokenName;\r\n        string tokenURI;\r\n        address mintedBy;\r\n        address currentOwner;\r\n        uint256 transferTime;\r\n        uint256 highestBidPrice;\r\n        Status status;\r\n    }\r\n\r\n    uint256 public currentImageCount;\r\n\r\n    mapping(uint256 => Image) public imageStorage;\r\n\r\n    mapping(uint256 => address[]) public ownerShipTrans;\r\n\r\n    mapping(string => bool) internal tokenURIExists;\r\n\r\n    constructor() ERC721(\"Image Collection\", \"NFT\") {\r\n        currentImageCount = 0;\r\n    }\r\n\r\n    function mint(\r\n        address to,\r\n        string memory _name,\r\n        string memory _tokenURI\r\n    ) internal returns (uint256) {\r\n        currentImageCount++;\r\n        require(!_exists(currentImageCount), \"ImageID repeated.\");\r\n        require(!tokenURIExists[_tokenURI], \"Token URI repeated.\");\r\n\r\n        _safeMint(to, currentImageCount);\r\n        _setTokenURI(currentImageCount, _tokenURI);\r\n\r\n    // NFT()    .\r\n        Image memory newImage = Image(\r\n            currentImageCount,\r\n            _name,\r\n            _tokenURI,\r\n            msg.sender,\r\n            msg.sender,\r\n            0,\r\n            0,\r\n            Status.OffBid\r\n        );\r\n\r\n        tokenURIExists[_tokenURI] = true;\r\n        imageStorage[currentImageCount] = newImage;\r\n\r\n        return currentImageCount;\r\n    }\r\n\r\n    function getImageByIndex(uint256 index)\r\n        internal\r\n        view\r\n        returns (Image memory image)\r\n    {\r\n        require(_exists(index), \"index not exist\");\r\n        return imageStorage[index];\r\n    }\r\n\r\n    function updateStatus(uint256 _tokenID, Status status)\r\n        internal\r\n        returns (bool)\r\n    {\r\n        Image storage image = imageStorage[_tokenID];\r\n        image.status = status;\r\n        return true;\r\n    }\r\n\r\n    function updateOwner(uint256 _tokenID, address newOwner)\r\n        internal\r\n        returns (bool)\r\n    {\r\n        Image storage image = imageStorage[_tokenID];\r\n        ownerShipTrans[_tokenID].push(image.currentOwner);\r\n        image.currentOwner = newOwner;\r\n        image.transferTime += 1;\r\n\r\n        _transfer(ownerOf(_tokenID), newOwner, _tokenID);\r\n        return true;\r\n    }\r\n\r\n    function updatePrice(uint256 _tokenID, uint256 newPrice)\r\n        internal\r\n        returns (bool)\r\n    {\r\n        Image storage image = imageStorage[_tokenID];\r\n        if (image.highestBidPrice < newPrice) {\r\n            image.highestBidPrice = newPrice;\r\n            return true;\r\n        }\r\n        return false;\r\n    }\r\n\r\n    function getTokenOnwer(uint256 _tokenID) external view returns (address) {\r\n        return ownerOf(_tokenID);\r\n    }\r\n\r\n    function getTokenURI(uint256 _tokenID)\r\n        external\r\n        view\r\n        returns (string memory)\r\n    {\r\n        Image memory image = imageStorage[_tokenID];\r\n        return image.tokenURI;\r\n    }\r\n\r\n    function getOwnedNumber(address owner) external view returns (uint256) {\r\n        return balanceOf(owner);\r\n    }\r\n}",
  "sourcePath": "C:\\Users\\Administrator\\Documents\\GitHub\\const\\contracts\\ImageNFT.sol",
  "compiler": {
    "name": "solc",
    "version": "0.8.13+commit.abaa5c0e.Emscripten.clang"
  },
  "schemaVersion": "3.4.7",
  "updatedAt": "2022-04-17T13:02:26.179Z",
  "devdoc": {
    "kind": "dev",
    "methods": {
      "approve(address,uint256)": {
        "details": "See {IERC721-approve}."
      },
      "balanceOf(address)": {
        "details": "See {IERC721-balanceOf}."
      },
      "getApproved(uint256)": {
        "details": "See {IERC721-getApproved}."
      },
      "isApprovedForAll(address,address)": {
        "details": "See {IERC721-isApprovedForAll}."
      },
      "name()": {
        "details": "See {IERC721Metadata-name}."
      },
      "ownerOf(uint256)": {
        "details": "See {IERC721-ownerOf}."
      },
      "safeTransferFrom(address,address,uint256)": {
        "details": "See {IERC721-safeTransferFrom}."
      },
      "safeTransferFrom(address,address,uint256,bytes)": {
        "details": "See {IERC721-safeTransferFrom}."
      },
      "setApprovalForAll(address,bool)": {
        "details": "See {IERC721-setApprovalForAll}."
      },
      "supportsInterface(bytes4)": {
        "details": "See {IERC165-supportsInterface}."
      },
      "symbol()": {
        "details": "See {IERC721Metadata-symbol}."
      },
      "tokenURI(uint256)": {
        "details": "See {IERC721Metadata-tokenURI}."
      },
      "transferFrom(address,address,uint256)": {
        "details": "See {IERC721-transferFrom}."
      }
    },
    "version": 1
  },
  "userdoc": {
    "kind": "user",
    "methods": {},
    "version": 1
  }
}