{
  "contractName": "ImageAuction",
  "abi": [
    {
      "inputs": [],
      "stateMutability": "nonpayable",
      "type": "constructor"
    },
    {
      "anonymous": false,
      "inputs": [
        {
          "indexed": true,
          "internalType": "address",
          "name": "owner",
          "type": "address"
        },
        {
          "indexed": true,
          "internalType": "address",
          "name": "approved",
          "type": "address"
        },
        {
          "indexed": true,
          "internalType": "uint256",
          "name": "tokenId",
          "type": "uint256"
        }
      ],
      "name": "Approval",
      "type": "event"
    },
    {
      "anonymous": false,
      "inputs": [
        {
          "indexed": true,
          "internalType": "address",
          "name": "owner",
          "type": "address"
        },
        {
          "indexed": true,
          "internalType": "address",
          "name": "operator",
          "type": "address"
        },
        {
          "indexed": false,
          "internalType": "bool",
          "name": "approved",
          "type": "bool"
        }
      ],
      "name": "ApprovalForAll",
      "type": "event"
    },
    {
      "anonymous": false,
      "inputs": [
        {
          "indexed": true,
          "internalType": "address",
          "name": "from",
          "type": "address"
        },
        {
          "indexed": true,
          "internalType": "address",
          "name": "to",
          "type": "address"
        },
        {
          "indexed": true,
          "internalType": "uint256",
          "name": "tokenId",
          "type": "uint256"
        }
      ],
      "name": "Transfer",
      "type": "event"
    },
    {
      "inputs": [
        {
          "internalType": "address",
          "name": "to",
          "type": "address"
        },
        {
          "internalType": "uint256",
          "name": "tokenId",
          "type": "uint256"
        }
      ],
      "name": "approve",
      "outputs": [],
      "stateMutability": "nonpayable",
      "type": "function"
    },
    {
      "inputs": [
        {
          "internalType": "uint256",
          "name": "",
          "type": "uint256"
        }
      ],
      "name": "auctions",
      "outputs": [
        {
          "internalType": "uint256",
          "name": "imageID",
          "type": "uint256"
        },
        {
          "internalType": "uint256",
          "name": "startBid",
          "type": "uint256"
        },
        {
          "internalType": "uint256",
          "name": "highestBid",
          "type": "uint256"
        },
        {
          "internalType": "address payable",
          "name": "winner",
          "type": "address"
        },
        {
          "internalType": "uint256",
          "name": "endTime",
          "type": "uint256"
        },
        {
          "internalType": "bool",
          "name": "ended",
          "type": "bool"
        },
        {
          "internalType": "bool",
          "name": "claimed",
          "type": "bool"
        }
      ],
      "stateMutability": "view",
      "type": "function"
    },
    {
      "inputs": [
        {
          "internalType": "address",
          "name": "owner",
          "type": "address"
        }
      ],
      "name": "balanceOf",
      "outputs": [
        {
          "internalType": "uint256",
          "name": "",
          "type": "uint256"
        }
      ],
      "stateMutability": "view",
      "type": "function"
    },
    {
      "inputs": [],
      "name": "currentImageCount",
      "outputs": [
        {
          "internalType": "uint256",
          "name": "",
          "type": "uint256"
        }
      ],
      "stateMutability": "view",
      "type": "function"
    },
    {
      "inputs": [
        {
          "internalType": "uint256",
          "name": "tokenId",
          "type": "uint256"
        }
      ],
      "name": "getApproved",
      "outputs": [
        {
          "internalType": "address",
          "name": "",
          "type": "address"
        }
      ],
      "stateMutability": "view",
      "type": "function"
    },
    {
      "inputs": [
        {
          "internalType": "address",
          "name": "owner",
          "type": "address"
        }
      ],
      "name": "getOwnedNumber",
      "outputs": [
        {
          "internalType": "uint256",
          "name": "",
          "type": "uint256"
        }
      ],
      "stateMutability": "view",
      "type": "function"
    },
    {
      "inputs": [
        {
          "internalType": "uint256",
          "name": "_tokenID",
          "type": "uint256"
        }
      ],
      "name": "getTokenOnwer",
      "outputs": [
        {
          "internalType": "address",
          "name": "",
          "type": "address"
        }
      ],
      "stateMutability": "view",
      "type": "function"
    },
    {
      "inputs": [
        {
          "internalType": "uint256",
          "name": "_tokenID",
          "type": "uint256"
        }
      ],
      "name": "getTokenURI",
      "outputs": [
        {
          "internalType": "string",
          "name": "",
          "type": "string"
        }
      ],
      "stateMutability": "view",
      "type": "function"
    },
    {
      "inputs": [
        {
          "internalType": "uint256",
          "name": "",
          "type": "uint256"
        }
      ],
      "name": "imageStorage",
      "outputs": [
        {
          "internalType": "uint256",
          "name": "tokenID",
          "type": "uint256"
        },
        {
          "internalType": "string",
          "name": "tokenName",
          "type": "string"
        },
        {
          "internalType": "string",
          "name": "tokenURI",
          "type": "string"
        },
        {
          "internalType": "address",
          "name": "mintedBy",
          "type": "address"
        },
        {
          "internalType": "address",
          "name": "currentOwner",
          "type": "address"
        },
        {
          "internalType": "uint256",
          "name": "transferTime",
          "type": "uint256"
        },
        {
          "internalType": "uint256",
          "name": "highestBidPrice",
          "type": "uint256"
        },
        {
          "internalType": "enum ImageNFT.Status",
          "name": "status",
          "type": "uint8"
        }
      ],
      "stateMutability": "view",
      "type": "function"
    },
    {
      "inputs": [
        {
          "internalType": "address",
          "name": "owner",
          "type": "address"
        },
        {
          "internalType": "address",
          "name": "operator",
          "type": "address"
        }
      ],
      "name": "isApprovedForAll",
      "outputs": [
        {
          "internalType": "bool",
          "name": "",
          "type": "bool"
        }
      ],
      "stateMutability": "view",
      "type": "function"
    },
    {
      "inputs": [],
      "name": "name",
      "outputs": [
        {
          "internalType": "string",
          "name": "",
          "type": "string"
        }
      ],
      "stateMutability": "view",
      "type": "function"
    },
    {
      "inputs": [
        {
          "internalType": "uint256",
          "name": "tokenId",
          "type": "uint256"
        }
      ],
      "name": "ownerOf",
      "outputs": [
        {
          "internalType": "address",
          "name": "",
          "type": "address"
        }
      ],
      "stateMutability": "view",
      "type": "function"
    },
    {
      "inputs": [
        {
          "internalType": "uint256",
          "name": "",
          "type": "uint256"
        },
        {
          "internalType": "uint256",
          "name": "",
          "type": "uint256"
        }
      ],
      "name": "ownerShipTrans",
      "outputs": [
        {
          "internalType": "address",
          "name": "",
          "type": "address"
        }
      ],
      "stateMutability": "view",
      "type": "function"
    },
    {
      "inputs": [
        {
          "internalType": "address",
          "name": "from",
          "type": "address"
        },
        {
          "internalType": "address",
          "name": "to",
          "type": "address"
        },
        {
          "internalType": "uint256",
          "name": "tokenId",
          "type": "uint256"
        }
      ],
      "name": "safeTransferFrom",
      "outputs": [],
      "stateMutability": "nonpayable",
      "type": "function"
    },
    {
      "inputs": [
        {
          "internalType": "address",
          "name": "from",
          "type": "address"
        },
        {
          "internalType": "address",
          "name": "to",
          "type": "address"
        },
        {
          "internalType": "uint256",
          "name": "tokenId",
          "type": "uint256"
        },
        {
          "internalType": "bytes",
          "name": "_data",
          "type": "bytes"
        }
      ],
      "name": "safeTransferFrom",
      "outputs": [],
      "stateMutability": "nonpayable",
      "type": "function"
    },
    {
      "inputs": [
        {
          "internalType": "address",
          "name": "operator",
          "type": "address"
        },
        {
          "internalType": "bool",
          "name": "approved",
          "type": "bool"
        }
      ],
      "name": "setApprovalForAll",
      "outputs": [],
      "stateMutability": "nonpayable",
      "type": "function"
    },
    {
      "inputs": [
        {
          "internalType": "bytes4",
          "name": "interfaceId",
          "type": "bytes4"
        }
      ],
      "name": "supportsInterface",
      "outputs": [
        {
          "internalType": "bool",
          "name": "",
          "type": "bool"
        }
      ],
      "stateMutability": "view",
      "type": "function"
    },
    {
      "inputs": [],
      "name": "symbol",
      "outputs": [
        {
          "internalType": "string",
          "name": "",
          "type": "string"
        }
      ],
      "stateMutability": "view",
      "type": "function"
    },
    {
      "inputs": [
        {
          "internalType": "uint256",
          "name": "tokenId",
          "type": "uint256"
        }
      ],
      "name": "tokenURI",
      "outputs": [
        {
          "internalType": "string",
          "name": "",
          "type": "string"
        }
      ],
      "stateMutability": "view",
      "type": "function"
    },
    {
      "inputs": [
        {
          "internalType": "address",
          "name": "from",
          "type": "address"
        },
        {
          "internalType": "address",
          "name": "to",
          "type": "address"
        },
        {
          "internalType": "uint256",
          "name": "tokenId",
          "type": "uint256"
        }
      ],
      "name": "transferFrom",
      "outputs": [],
      "stateMutability": "nonpayable",
      "type": "function"
    },
    {
      "inputs": [
        {
          "internalType": "uint256",
          "name": "_tokenID",
          "type": "uint256"
        },
        {
          "internalType": "uint256",
          "name": "_minBid",
          "type": "uint256"
        },
        {
          "internalType": "uint256",
          "name": "_duration",
          "type": "uint256"
        }
      ],
      "name": "beginAuction",
      "outputs": [
        {
          "internalType": "bool",
          "name": "success",
          "type": "bool"
        }
      ],
      "stateMutability": "nonpayable",
      "type": "function"
    },
    {
      "inputs": [
        {
          "internalType": "uint256",
          "name": "auctionID",
          "type": "uint256"
        },
        {
          "internalType": "uint256",
          "name": "newBid",
          "type": "uint256"
        }
      ],
      "name": "bid",
      "outputs": [
        {
          "internalType": "bool",
          "name": "success",
          "type": "bool"
        }
      ],
      "stateMutability": "nonpayable",
      "type": "function"
    },
    {
      "inputs": [
        {
          "internalType": "uint256",
          "name": "auctionID",
          "type": "uint256"
        }
      ],
      "name": "endAuction",
      "outputs": [
        {
          "internalType": "bool",
          "name": "success",
          "type": "bool"
        }
      ],
      "stateMutability": "nonpayable",
      "type": "function"
    },
    {
      "inputs": [
        {
          "internalType": "uint256",
          "name": "auctionID",
          "type": "uint256"
        }
      ],
      "name": "claim",
      "outputs": [],
      "stateMutability": "payable",
      "type": "function"
    }
  ],
  "bytecode": "0x60806040523480156200001157600080fd5b506040518060400160405280601081526020017f496d61676520436f6c6c656374696f6e000000000000000000000000000000008152506040518060400160405280600381526020017f4e46540000000000000000000000000000000000000000000000000000000000815250816000908051906020019062000096929190620000c0565b508060019080519060200190620000af929190620000c0565b5050506000600781905550620001d4565b828054620000ce906200019f565b90600052602060002090601f016020900481019282620000f257600085556200013e565b82601f106200010d57805160ff19168380011785556200013e565b828001600101855582156200013e579182015b828111156200013d57825182559160200191906001019062000120565b5b5090506200014d919062000151565b5090565b5b808211156200016c57600081600090555060010162000152565b5090565b7f4e487b7100000000000000000000000000000000000000000000000000000000600052602260045260246000fd5b60006002820490506001821680620001b857607f821691505b602082108103620001ce57620001cd62000170565b5b50919050565b613d4b80620001e46000396000f3fe60806040526004361061014b5760003560e01c806370a08231116100b6578063b9a2de3a1161006f578063b9a2de3a146104f7578063c87b56dd14610534578063d4d3690714610571578063dc471a6b1461059c578063e7979dd2146105e0578063e985e9c51461061d5761014b565b806370a08231146103c357806395d89b41146104005780639bd2a5741461042b578063a22cb46514610468578063ab22f4a614610491578063b88d4fde146104ce5761014b565b8063379607f511610108578063379607f5146102845780633bb3a24d146102a057806342842e0e146102dd578063571a26a014610306578063598647f8146103495780636352211e146103865761014b565b806301ffc9a71461015057806306fdde031461018d578063081812fc146101b8578063095ea7b3146101f557806323b872dd1461021e5780633527bb0a14610247575b600080fd5b34801561015c57600080fd5b50610177600480360381019061017291906126b8565b61065a565b6040516101849190612700565b60405180910390f35b34801561019957600080fd5b506101a261073c565b6040516101af91906127b4565b60405180910390f35b3480156101c457600080fd5b506101df60048036038101906101da919061280c565b6107ce565b6040516101ec919061287a565b60405180910390f35b34801561020157600080fd5b5061021c600480360381019061021791906128c1565b610853565b005b34801561022a57600080fd5b5061024560048036038101906102409190612901565b61096a565b005b34801561025357600080fd5b5061026e60048036038101906102699190612954565b6109ca565b60405161027b9190612990565b60405180910390f35b61029e6004803603810190610299919061280c565b6109dc565b005b3480156102ac57600080fd5b506102c760048036038101906102c2919061280c565b610ba4565b6040516102d491906127b4565b60405180910390f35b3480156102e957600080fd5b5061030460048036038101906102ff9190612901565b610dff565b005b34801561031257600080fd5b5061032d6004803603810190610328919061280c565b610e1f565b60405161034097969594939291906129cc565b60405180910390f35b34801561035557600080fd5b50610370600480360381019061036b9190612a3b565b610e9b565b60405161037d9190612700565b60405180910390f35b34801561039257600080fd5b506103ad60048036038101906103a8919061280c565b611006565b6040516103ba919061287a565b60405180910390f35b3480156103cf57600080fd5b506103ea60048036038101906103e59190612954565b6110b7565b6040516103f79190612990565b60405180910390f35b34801561040c57600080fd5b5061041561116e565b60405161042291906127b4565b60405180910390f35b34801561043757600080fd5b50610452600480360381019061044d9190612a7b565b611200565b60405161045f9190612700565b60405180910390f35b34801561047457600080fd5b5061048f600480360381019061048a9190612afa565b611451565b005b34801561049d57600080fd5b506104b860048036038101906104b3919061280c565b611467565b6040516104c5919061287a565b60405180910390f35b3480156104da57600080fd5b506104f560048036038101906104f09190612c6f565b611479565b005b34801561050357600080fd5b5061051e6004803603810190610519919061280c565b6114db565b60405161052b9190612700565b60405180910390f35b34801561054057600080fd5b5061055b6004803603810190610556919061280c565b61163a565b60405161056891906127b4565b60405180910390f35b34801561057d57600080fd5b5061058661178b565b6040516105939190612990565b60405180910390f35b3480156105a857600080fd5b506105c360048036038101906105be919061280c565b611791565b6040516105d7989796959493929190612d69565b60405180910390f35b3480156105ec57600080fd5b5061060760048036038101906106029190612a3b565b611936565b604051610614919061287a565b60405180910390f35b34801561062957600080fd5b50610644600480360381019061063f9190612df5565b611984565b6040516106519190612700565b60405180910390f35b60007f80ac58cd000000000000000000000000000000000000000000000000000000007bffffffffffffffffffffffffffffffffffffffffffffffffffffffff1916827bffffffffffffffffffffffffffffffffffffffffffffffffffffffff1916148061072557507f5b5e139f000000000000000000000000000000000000000000000000000000007bffffffffffffffffffffffffffffffffffffffffffffffffffffffff1916827bffffffffffffffffffffffffffffffffffffffffffffffffffffffff1916145b80610735575061073482611a18565b5b9050919050565b60606000805461074b90612e64565b80601f016020809104026020016040519081016040528092919081815260200182805461077790612e64565b80156107c45780601f10610799576101008083540402835291602001916107c4565b820191906000526020600020905b8154815290600101906020018083116107a757829003601f168201915b5050505050905090565b60006107d982611a82565b610818576040517f08c379a000000000000000000000000000000000000000000000000000000000815260040161080f90612f07565b60405180910390fd5b6004600083815260200190815260200160002060009054906101000a900473ffffffffffffffffffffffffffffffffffffffff169050919050565b600061085e82611006565b90508073ffffffffffffffffffffffffffffffffffffffff168373ffffffffffffffffffffffffffffffffffffffff16036108ce576040517f08c379a00000000000000000000000000000000000000000000000000000000081526004016108c590612f99565b60405180910390fd5b8073ffffffffffffffffffffffffffffffffffffffff166108ed611aee565b73ffffffffffffffffffffffffffffffffffffffff16148061091c575061091b81610916611aee565b611984565b5b61095b576040517f08c379a00000000000000000000000000000000000000000000000000000000081526004016109529061302b565b60405180910390fd5b6109658383611af6565b505050565b61097b610975611aee565b82611baf565b6109ba576040517f08c379a00000000000000000000000000000000000000000000000000000000081526004016109b1906130bd565b60405180910390fd5b6109c5838383611c8d565b505050565b60006109d5826110b7565b9050919050565b6000600b600083815260200190815260200160002090508060050160009054906101000a900460ff16610a44576040517f08c379a0000000000000000000000000000000000000000000000000000000008152600401610a3b90613129565b60405180910390fd5b8060050160019054906101000a900460ff1615610a96576040517f08c379a0000000000000000000000000000000000000000000000000000000008152600401610a8d90613195565b60405180910390fd5b3373ffffffffffffffffffffffffffffffffffffffff168160030160009054906101000a900473ffffffffffffffffffffffffffffffffffffffff1673ffffffffffffffffffffffffffffffffffffffff1614610b28576040517f08c379a0000000000000000000000000000000000000000000000000000000008152600401610b1f90613201565b60405180910390fd5b6000610b378260000154611006565b90508073ffffffffffffffffffffffffffffffffffffffff166108fc349081150290604051600060405180830381858888f19350505050158015610b7f573d6000803e3d6000fd5b50610b8e826000015433611ef3565b50610b9e82600001546000612020565b50505050565b60606000600860008481526020019081526020016000206040518061010001604052908160008201548152602001600182018054610be190612e64565b80601f0160208091040260200160405190810160405280929190818152602001828054610c0d90612e64565b8015610c5a5780601f10610c2f57610100808354040283529160200191610c5a565b820191906000526020600020905b815481529060010190602001808311610c3d57829003601f168201915b50505050508152602001600282018054610c7390612e64565b80601f0160208091040260200160405190810160405280929190818152602001828054610c9f90612e64565b8015610cec5780601f10610cc157610100808354040283529160200191610cec565b820191906000526020600020905b815481529060010190602001808311610ccf57829003601f168201915b505050505081526020016003820160009054906101000a900473ffffffffffffffffffffffffffffffffffffffff1673ffffffffffffffffffffffffffffffffffffffff1673ffffffffffffffffffffffffffffffffffffffff1681526020016004820160009054906101000a900473ffffffffffffffffffffffffffffffffffffffff1673ffffffffffffffffffffffffffffffffffffffff1673ffffffffffffffffffffffffffffffffffffffff16815260200160058201548152602001600682015481526020016007820160009054906101000a900460ff166002811115610dda57610dd9612cf2565b5b6002811115610dec57610deb612cf2565b5b8152505090508060400151915050919050565b610e1a83838360405180602001604052806000815250611479565b505050565b600b6020528060005260406000206000915090508060000154908060010154908060020154908060030160009054906101000a900473ffffffffffffffffffffffffffffffffffffffff16908060040154908060050160009054906101000a900460ff16908060050160019054906101000a900460ff16905087565b600080600b600085815260200190815260200160002090508060050160009054906101000a900460ff1615610f05576040517f08c379a0000000000000000000000000000000000000000000000000000000008152600401610efc9061326d565b60405180910390fd5b80600201548311610f4b576040517f08c379a0000000000000000000000000000000000000000000000000000000008152600401610f42906132d9565b60405180910390fd5b610f5981600001548461206f565b50338160030160006101000a81548173ffffffffffffffffffffffffffffffffffffffff021916908373ffffffffffffffffffffffffffffffffffffffff16021790555082816002018190555082600c600086815260200190815260200160002060003373ffffffffffffffffffffffffffffffffffffffff1673ffffffffffffffffffffffffffffffffffffffff16815260200190815260200160002081905550600191505092915050565b6000806002600084815260200190815260200160002060009054906101000a900473ffffffffffffffffffffffffffffffffffffffff169050600073ffffffffffffffffffffffffffffffffffffffff168173ffffffffffffffffffffffffffffffffffffffff16036110ae576040517f08c379a00000000000000000000000000000000000000000000000000000000081526004016110a59061336b565b60405180910390fd5b80915050919050565b60008073ffffffffffffffffffffffffffffffffffffffff168273ffffffffffffffffffffffffffffffffffffffff1603611127576040517f08c379a000000000000000000000000000000000000000000000000000000000815260040161111e906133fd565b60405180910390fd5b600360008373ffffffffffffffffffffffffffffffffffffffff1673ffffffffffffffffffffffffffffffffffffffff168152602001908152602001600020549050919050565b60606001805461117d90612e64565b80601f01602080910402602001604051908101604052809291908181526020018280546111a990612e64565b80156111f65780601f106111cb576101008083540402835291602001916111f6565b820191906000526020600020905b8154815290600101906020018083116111d957829003601f168201915b5050505050905090565b6000836000600281111561121757611216612cf2565b5b6008600083815260200190815260200160002060070160009054906101000a900460ff16600281111561124d5761124c612cf2565b5b1461128d576040517f08c379a000000000000000000000000000000000000000000000000000000000815260040161128490613469565b60405180910390fd5b3373ffffffffffffffffffffffffffffffffffffffff166112ad86611006565b73ffffffffffffffffffffffffffffffffffffffff1614611303576040517f08c379a00000000000000000000000000000000000000000000000000000000081526004016112fa906134d5565b60405180910390fd5b61130e856001612020565b50611319858561206f565b50600083426113289190613524565b905060006040518060e001604052808881526020018781526020018781526020013373ffffffffffffffffffffffffffffffffffffffff16815260200183815260200160001515815260200160001515815250905080600b600089815260200190815260200160002060008201518160000155602082015181600101556040820151816002015560608201518160030160006101000a81548173ffffffffffffffffffffffffffffffffffffffff021916908373ffffffffffffffffffffffffffffffffffffffff1602179055506080820151816004015560a08201518160050160006101000a81548160ff02191690831515021790555060c08201518160050160016101000a81548160ff021916908315150217905550905050600193505050509392505050565b61146361145c611aee565b83836120b2565b5050565b600061147282611006565b9050919050565b61148a611484611aee565b83611baf565b6114c9576040517f08c379a00000000000000000000000000000000000000000000000000000000081526004016114c0906130bd565b60405180910390fd5b6114d58484848461221e565b50505050565b60003373ffffffffffffffffffffffffffffffffffffffff166114fd83611006565b73ffffffffffffffffffffffffffffffffffffffff1614611553576040517f08c379a000000000000000000000000000000000000000000000000000000000815260040161154a906135c6565b60405180910390fd5b6000600b6000848152602001908152602001600020905080600401544210156115b1576040517f08c379a00000000000000000000000000000000000000000000000000000000081526004016115a890613632565b60405180910390fd5b8060050160009054906101000a900460ff1615611603576040517f08c379a00000000000000000000000000000000000000000000000000000000081526004016115fa9061369e565b60405180910390fd5b61161281600001546002612020565b5060018160050160006101000a81548160ff0219169083151502179055506001915050919050565b606061164582611a82565b611684576040517f08c379a000000000000000000000000000000000000000000000000000000000815260040161167b90613730565b60405180910390fd5b60006006600084815260200190815260200160002080546116a490612e64565b80601f01602080910402602001604051908101604052809291908181526020018280546116d090612e64565b801561171d5780601f106116f25761010080835404028352916020019161171d565b820191906000526020600020905b81548152906001019060200180831161170057829003601f168201915b50505050509050600061172e61227a565b90506000815103611743578192505050611786565b60008251111561177857808260405160200161176092919061378c565b60405160208183030381529060405292505050611786565b61178184612291565b925050505b919050565b60075481565b60086020528060005260406000206000915090508060000154908060010180546117ba90612e64565b80601f01602080910402602001604051908101604052809291908181526020018280546117e690612e64565b80156118335780601f1061180857610100808354040283529160200191611833565b820191906000526020600020905b81548152906001019060200180831161181657829003601f168201915b50505050509080600201805461184890612e64565b80601f016020809104026020016040519081016040528092919081815260200182805461187490612e64565b80156118c15780601f10611896576101008083540402835291602001916118c1565b820191906000526020600020905b8154815290600101906020018083116118a457829003601f168201915b5050505050908060030160009054906101000a900473ffffffffffffffffffffffffffffffffffffffff16908060040160009054906101000a900473ffffffffffffffffffffffffffffffffffffffff16908060050154908060060154908060070160009054906101000a900460ff16905088565b6009602052816000526040600020818154811061195257600080fd5b906000526020600020016000915091509054906101000a900473ffffffffffffffffffffffffffffffffffffffff1681565b6000600560008473ffffffffffffffffffffffffffffffffffffffff1673ffffffffffffffffffffffffffffffffffffffff16815260200190815260200160002060008373ffffffffffffffffffffffffffffffffffffffff1673ffffffffffffffffffffffffffffffffffffffff16815260200190815260200160002060009054906101000a900460ff16905092915050565b60007f01ffc9a7000000000000000000000000000000000000000000000000000000007bffffffffffffffffffffffffffffffffffffffffffffffffffffffff1916827bffffffffffffffffffffffffffffffffffffffffffffffffffffffff1916149050919050565b60008073ffffffffffffffffffffffffffffffffffffffff166002600084815260200190815260200160002060009054906101000a900473ffffffffffffffffffffffffffffffffffffffff1673ffffffffffffffffffffffffffffffffffffffff1614159050919050565b600033905090565b816004600083815260200190815260200160002060006101000a81548173ffffffffffffffffffffffffffffffffffffffff021916908373ffffffffffffffffffffffffffffffffffffffff160217905550808273ffffffffffffffffffffffffffffffffffffffff16611b6983611006565b73ffffffffffffffffffffffffffffffffffffffff167f8c5be1e5ebec7d5bd14f71427d1e84f3dd0314c0f7b2291e5b200ac8c7c3b92560405160405180910390a45050565b6000611bba82611a82565b611bf9576040517f08c379a0000000000000000000000000000000000000000000000000000000008152600401611bf090613822565b60405180910390fd5b6000611c0483611006565b90508073ffffffffffffffffffffffffffffffffffffffff168473ffffffffffffffffffffffffffffffffffffffff161480611c7357508373ffffffffffffffffffffffffffffffffffffffff16611c5b846107ce565b73ffffffffffffffffffffffffffffffffffffffff16145b80611c845750611c838185611984565b5b91505092915050565b8273ffffffffffffffffffffffffffffffffffffffff16611cad82611006565b73ffffffffffffffffffffffffffffffffffffffff1614611d03576040517f08c379a0000000000000000000000000000000000000000000000000000000008152600401611cfa906138b4565b60405180910390fd5b600073ffffffffffffffffffffffffffffffffffffffff168273ffffffffffffffffffffffffffffffffffffffff1603611d72576040517f08c379a0000000000000000000000000000000000000000000000000000000008152600401611d6990613946565b60405180910390fd5b611d7d838383612338565b611d88600082611af6565b6001600360008573ffffffffffffffffffffffffffffffffffffffff1673ffffffffffffffffffffffffffffffffffffffff1681526020019081526020016000206000828254611dd89190613966565b925050819055506001600360008473ffffffffffffffffffffffffffffffffffffffff1673ffffffffffffffffffffffffffffffffffffffff1681526020019081526020016000206000828254611e2f9190613524565b92505081905550816002600083815260200190815260200160002060006101000a81548173ffffffffffffffffffffffffffffffffffffffff021916908373ffffffffffffffffffffffffffffffffffffffff160217905550808273ffffffffffffffffffffffffffffffffffffffff168473ffffffffffffffffffffffffffffffffffffffff167fddf252ad1be2c89b69c2b068fc378daa952ba7f163c4a11628f55a4df523b3ef60405160405180910390a4611eee83838361233d565b505050565b600080600860008581526020019081526020016000209050600960008581526020019081526020016000208160040160009054906101000a900473ffffffffffffffffffffffffffffffffffffffff169080600181540180825580915050600190039060005260206000200160009091909190916101000a81548173ffffffffffffffffffffffffffffffffffffffff021916908373ffffffffffffffffffffffffffffffffffffffff160217905550828160040160006101000a81548173ffffffffffffffffffffffffffffffffffffffff021916908373ffffffffffffffffffffffffffffffffffffffff1602179055506001816005016000828254611ffb9190613524565b9250508190555061201561200e85611006565b8486611c8d565b600191505092915050565b600080600860008581526020019081526020016000209050828160070160006101000a81548160ff0219169083600281111561205f5761205e612cf2565b5b0217905550600191505092915050565b60008060086000858152602001908152602001600020905082816006015410156120a65782816006018190555060019150506120ac565b60009150505b92915050565b8173ffffffffffffffffffffffffffffffffffffffff168373ffffffffffffffffffffffffffffffffffffffff1603612120576040517f08c379a0000000000000000000000000000000000000000000000000000000008152600401612117906139e6565b60405180910390fd5b80600560008573ffffffffffffffffffffffffffffffffffffffff1673ffffffffffffffffffffffffffffffffffffffff16815260200190815260200160002060008473ffffffffffffffffffffffffffffffffffffffff1673ffffffffffffffffffffffffffffffffffffffff16815260200190815260200160002060006101000a81548160ff0219169083151502179055508173ffffffffffffffffffffffffffffffffffffffff168373ffffffffffffffffffffffffffffffffffffffff167f17307eab39ab6107e8899845ad3d59bd9653f200f220920489ca2b5937696c31836040516122119190612700565b60405180910390a3505050565b612229848484611c8d565b61223584848484612342565b612274576040517f08c379a000000000000000000000000000000000000000000000000000000000815260040161226b90613a78565b60405180910390fd5b50505050565b606060405180602001604052806000815250905090565b606061229c82611a82565b6122db576040517f08c379a00000000000000000000000000000000000000000000000000000000081526004016122d290613b0a565b60405180910390fd5b60006122e561227a565b905060008151116123055760405180602001604052806000815250612330565b8061230f846124c9565b60405160200161232092919061378c565b6040516020818303038152906040525b915050919050565b505050565b505050565b60006123638473ffffffffffffffffffffffffffffffffffffffff16612629565b156124bc578373ffffffffffffffffffffffffffffffffffffffff1663150b7a0261238c611aee565b8786866040518563ffffffff1660e01b81526004016123ae9493929190613b7f565b6020604051808303816000875af19250505080156123ea57506040513d601f19601f820116820180604052508101906123e79190613be0565b60015b61246c573d806000811461241a576040519150601f19603f3d011682016040523d82523d6000602084013e61241f565b606091505b506000815103612464576040517f08c379a000000000000000000000000000000000000000000000000000000000815260040161245b90613a78565b60405180910390fd5b805181602001fd5b63150b7a0260e01b7bffffffffffffffffffffffffffffffffffffffffffffffffffffffff1916817bffffffffffffffffffffffffffffffffffffffffffffffffffffffff1916149150506124c1565b600190505b949350505050565b606060008203612510576040518060400160405280600181526020017f30000000000000000000000000000000000000000000000000000000000000008152509050612624565b600082905060005b6000821461254257808061252b90613c0d565b915050600a8261253b9190613c84565b9150612518565b60008167ffffffffffffffff81111561255e5761255d612b44565b5b6040519080825280601f01601f1916602001820160405280156125905781602001600182028036833780820191505090505b5090505b6000851461261d576001826125a99190613966565b9150600a856125b89190613cb5565b60306125c49190613524565b60f81b8183815181106125da576125d9613ce6565b5b60200101907effffffffffffffffffffffffffffffffffffffffffffffffffffffffffffff1916908160001a905350600a856126169190613c84565b9450612594565b8093505050505b919050565b6000808273ffffffffffffffffffffffffffffffffffffffff163b119050919050565b6000604051905090565b600080fd5b600080fd5b60007fffffffff0000000000000000000000000000000000000000000000000000000082169050919050565b61269581612660565b81146126a057600080fd5b50565b6000813590506126b28161268c565b92915050565b6000602082840312156126ce576126cd612656565b5b60006126dc848285016126a3565b91505092915050565b60008115159050919050565b6126fa816126e5565b82525050565b600060208201905061271560008301846126f1565b92915050565b600081519050919050565b600082825260208201905092915050565b60005b8381101561275557808201518184015260208101905061273a565b83811115612764576000848401525b50505050565b6000601f19601f8301169050919050565b60006127868261271b565b6127908185612726565b93506127a0818560208601612737565b6127a98161276a565b840191505092915050565b600060208201905081810360008301526127ce818461277b565b905092915050565b6000819050919050565b6127e9816127d6565b81146127f457600080fd5b50565b600081359050612806816127e0565b92915050565b60006020828403121561282257612821612656565b5b6000612830848285016127f7565b91505092915050565b600073ffffffffffffffffffffffffffffffffffffffff82169050919050565b600061286482612839565b9050919050565b61287481612859565b82525050565b600060208201905061288f600083018461286b565b92915050565b61289e81612859565b81146128a957600080fd5b50565b6000813590506128bb81612895565b92915050565b600080604083850312156128d8576128d7612656565b5b60006128e6858286016128ac565b92505060206128f7858286016127f7565b9150509250929050565b60008060006060848603121561291a57612919612656565b5b6000612928868287016128ac565b9350506020612939868287016128ac565b925050604061294a868287016127f7565b9150509250925092565b60006020828403121561296a57612969612656565b5b6000612978848285016128ac565b91505092915050565b61298a816127d6565b82525050565b60006020820190506129a56000830184612981565b92915050565b60006129b682612839565b9050919050565b6129c6816129ab565b82525050565b600060e0820190506129e1600083018a612981565b6129ee6020830189612981565b6129fb6040830188612981565b612a0860608301876129bd565b612a156080830186612981565b612a2260a08301856126f1565b612a2f60c08301846126f1565b98975050505050505050565b60008060408385031215612a5257612a51612656565b5b6000612a60858286016127f7565b9250506020612a71858286016127f7565b9150509250929050565b600080600060608486031215612a9457612a93612656565b5b6000612aa2868287016127f7565b9350506020612ab3868287016127f7565b9250506040612ac4868287016127f7565b9150509250925092565b612ad7816126e5565b8114612ae257600080fd5b50565b600081359050612af481612ace565b92915050565b60008060408385031215612b1157612b10612656565b5b6000612b1f858286016128ac565b9250506020612b3085828601612ae5565b9150509250929050565b600080fd5b600080fd5b7f4e487b7100000000000000000000000000000000000000000000000000000000600052604160045260246000fd5b612b7c8261276a565b810181811067ffffffffffffffff82111715612b9b57612b9a612b44565b5b80604052505050565b6000612bae61264c565b9050612bba8282612b73565b919050565b600067ffffffffffffffff821115612bda57612bd9612b44565b5b612be38261276a565b9050602081019050919050565b82818337600083830152505050565b6000612c12612c0d84612bbf565b612ba4565b905082815260208101848484011115612c2e57612c2d612b3f565b5b612c39848285612bf0565b509392505050565b600082601f830112612c5657612c55612b3a565b5b8135612c66848260208601612bff565b91505092915050565b60008060008060808587031215612c8957612c88612656565b5b6000612c97878288016128ac565b9450506020612ca8878288016128ac565b9350506040612cb9878288016127f7565b925050606085013567ffffffffffffffff811115612cda57612cd961265b565b5b612ce687828801612c41565b91505092959194509250565b7f4e487b7100000000000000000000000000000000000000000000000000000000600052602160045260246000fd5b60038110612d3257612d31612cf2565b5b50565b6000819050612d4382612d21565b919050565b6000612d5382612d35565b9050919050565b612d6381612d48565b82525050565b600061010082019050612d7f600083018b612981565b8181036020830152612d91818a61277b565b90508181036040830152612da5818961277b565b9050612db4606083018861286b565b612dc1608083018761286b565b612dce60a0830186612981565b612ddb60c0830185612981565b612de860e0830184612d5a565b9998505050505050505050565b60008060408385031215612e0c57612e0b612656565b5b6000612e1a858286016128ac565b9250506020612e2b858286016128ac565b9150509250929050565b7f4e487b7100000000000000000000000000000000000000000000000000000000600052602260045260246000fd5b60006002820490506001821680612e7c57607f821691505b602082108103612e8f57612e8e612e35565b5b50919050565b7f4552433732313a20617070726f76656420717565727920666f72206e6f6e657860008201527f697374656e7420746f6b656e0000000000000000000000000000000000000000602082015250565b6000612ef1602c83612726565b9150612efc82612e95565b604082019050919050565b60006020820190508181036000830152612f2081612ee4565b9050919050565b7f4552433732313a20617070726f76616c20746f2063757272656e74206f776e6560008201527f7200000000000000000000000000000000000000000000000000000000000000602082015250565b6000612f83602183612726565b9150612f8e82612f27565b604082019050919050565b60006020820190508181036000830152612fb281612f76565b9050919050565b7f4552433732313a20617070726f76652063616c6c6572206973206e6f74206f7760008201527f6e6572206e6f7220617070726f76656420666f7220616c6c0000000000000000602082015250565b6000613015603883612726565b915061302082612fb9565b604082019050919050565b6000602082019050818103600083015261304481613008565b9050919050565b7f4552433732313a207472616e736665722063616c6c6572206973206e6f74206f60008201527f776e6572206e6f7220617070726f766564000000000000000000000000000000602082015250565b60006130a7603183612726565b91506130b28261304b565b604082019050919050565b600060208201905081810360008301526130d68161309a565b9050919050565b7f41756374696f6e206e6f7420656e646564207965742e00000000000000000000600082015250565b6000613113601683612726565b915061311e826130dd565b602082019050919050565b6000602082019050818103600083015261314281613106565b9050919050565b7f41756374696f6e20616c726561647920636c61696d65642e0000000000000000600082015250565b600061317f601883612726565b915061318a82613149565b602082019050919050565b600060208201905081810360008301526131ae81613172565b9050919050565b7f43616e206f6e6c7920626520636c61696d65642062792077696e6e65722e0000600082015250565b60006131eb601e83612726565b91506131f6826131b5565b602082019050919050565b6000602082019050818103600083015261321a816131de565b9050919050565b7f41756374696f6e20616c726561647920656e6465642e00000000000000000000600082015250565b6000613257601683612726565b915061326282613221565b602082019050919050565b600060208201905081810360008301526132868161324a565b9050919050565b7f4c6f776572206269643f204a6f6b696e672e0000000000000000000000000000600082015250565b60006132c3601283612726565b91506132ce8261328d565b602082019050919050565b600060208201905081810360008301526132f2816132b6565b9050919050565b7f4552433732313a206f776e657220717565727920666f72206e6f6e657869737460008201527f656e7420746f6b656e0000000000000000000000000000000000000000000000602082015250565b6000613355602983612726565b9150613360826132f9565b604082019050919050565b6000602082019050818103600083015261338481613348565b9050919050565b7f4552433732313a2062616c616e636520717565727920666f7220746865207a6560008201527f726f206164647265737300000000000000000000000000000000000000000000602082015250565b60006133e7602a83612726565b91506133f28261338b565b604082019050919050565b60006020820190508181036000830152613416816133da565b9050919050565b7f416c7265616479206f6e2061756374696f6e2e00000000000000000000000000600082015250565b6000613453601383612726565b915061345e8261341d565b602082019050919050565b6000602082019050818103600083015261348281613446565b9050919050565b7f4f6e6c79204f776e65722043616e20426567696e20612041756374696f6e2e00600082015250565b60006134bf601f83612726565b91506134ca82613489565b602082019050919050565b600060208201905081810360008301526134ee816134b2565b9050919050565b7f4e487b7100000000000000000000000000000000000000000000000000000000600052601160045260246000fd5b600061352f826127d6565b915061353a836127d6565b9250827fffffffffffffffffffffffffffffffffffffffffffffffffffffffffffffffff0382111561356f5761356e6134f5565b5b828201905092915050565b7f4f6e6c79204f776e65722043616e20456e6420612041756374696f6e2e000000600082015250565b60006135b0601d83612726565b91506135bb8261357a565b602082019050919050565b600060208201905081810360008301526135df816135a3565b9050919050565b7f4e6f7420656e642074696d652e00000000000000000000000000000000000000600082015250565b600061361c600d83612726565b9150613627826135e6565b602082019050919050565b6000602082019050818103600083015261364b8161360f565b9050919050565b7f416c726561647920456e6465642e000000000000000000000000000000000000600082015250565b6000613688600e83612726565b915061369382613652565b602082019050919050565b600060208201905081810360008301526136b78161367b565b9050919050565b7f45524337323155524953746f726167653a2055524920717565727920666f722060008201527f6e6f6e6578697374656e7420746f6b656e000000000000000000000000000000602082015250565b600061371a603183612726565b9150613725826136be565b604082019050919050565b600060208201905081810360008301526137498161370d565b9050919050565b600081905092915050565b60006137668261271b565b6137708185613750565b9350613780818560208601612737565b80840191505092915050565b6000613798828561375b565b91506137a4828461375b565b91508190509392505050565b7f4552433732313a206f70657261746f7220717565727920666f72206e6f6e657860008201527f697374656e7420746f6b656e0000000000000000000000000000000000000000602082015250565b600061380c602c83612726565b9150613817826137b0565b604082019050919050565b6000602082019050818103600083015261383b816137ff565b9050919050565b7f4552433732313a207472616e736665722066726f6d20696e636f72726563742060008201527f6f776e6572000000000000000000000000000000000000000000000000000000602082015250565b600061389e602583612726565b91506138a982613842565b604082019050919050565b600060208201905081810360008301526138cd81613891565b9050919050565b7f4552433732313a207472616e7366657220746f20746865207a65726f2061646460008201527f7265737300000000000000000000000000000000000000000000000000000000602082015250565b6000613930602483612726565b915061393b826138d4565b604082019050919050565b6000602082019050818103600083015261395f81613923565b9050919050565b6000613971826127d6565b915061397c836127d6565b92508282101561398f5761398e6134f5565b5b828203905092915050565b7f4552433732313a20617070726f766520746f2063616c6c657200000000000000600082015250565b60006139d0601983612726565b91506139db8261399a565b602082019050919050565b600060208201905081810360008301526139ff816139c3565b9050919050565b7f4552433732313a207472616e7366657220746f206e6f6e20455243373231526560008201527f63656976657220696d706c656d656e7465720000000000000000000000000000602082015250565b6000613a62603283612726565b9150613a6d82613a06565b604082019050919050565b60006020820190508181036000830152613a9181613a55565b9050919050565b7f4552433732314d657461646174613a2055524920717565727920666f72206e6f60008201527f6e6578697374656e7420746f6b656e0000000000000000000000000000000000602082015250565b6000613af4602f83612726565b9150613aff82613a98565b604082019050919050565b60006020820190508181036000830152613b2381613ae7565b9050919050565b600081519050919050565b600082825260208201905092915050565b6000613b5182613b2a565b613b5b8185613b35565b9350613b6b818560208601612737565b613b748161276a565b840191505092915050565b6000608082019050613b94600083018761286b565b613ba1602083018661286b565b613bae6040830185612981565b8181036060830152613bc08184613b46565b905095945050505050565b600081519050613bda8161268c565b92915050565b600060208284031215613bf657613bf5612656565b5b6000613c0484828501613bcb565b91505092915050565b6000613c18826127d6565b91507fffffffffffffffffffffffffffffffffffffffffffffffffffffffffffffffff8203613c4a57613c496134f5565b5b600182019050919050565b7f4e487b7100000000000000000000000000000000000000000000000000000000600052601260045260246000fd5b6000613c8f826127d6565b9150613c9a836127d6565b925082613caa57613ca9613c55565b5b828204905092915050565b6000613cc0826127d6565b9150613ccb836127d6565b925082613cdb57613cda613c55565b5b828206905092915050565b7f4e487b7100000000000000000000000000000000000000000000000000000000600052603260045260246000fdfea264697066735822122065221cd8aa1a7da56d5dcc5905d2d6af7e0dd6a62a1cfc4d28bc6beb77c721fe64736f6c634300080d0033",
  "immutableReferences": {},
  "source": "// SPDX-License-Identifier: MIT\npragma solidity ^0.8.0;\n\nimport \"./ImageNFT.sol\";\n\ncontract ImageAuction is ImageNFT {\n    struct Auction {\n        uint256 imageID;\n        uint256 startBid;\n        uint256 highestBid;\n        address payable winner;\n        uint256 endTime;\n        bool ended;\n        bool claimed;\n    }\n\n    mapping(uint256 => Auction) public auctions;\n    mapping(uint256 => mapping(address => uint256)) internal bidInfo;\n\n    constructor() {}\n\n    modifier notOnBid(uint256 _tokenID) {\n        require(\n            imageStorage[_tokenID].status == Status.OffBid,\n            \"Already on auction.\"\n        );\n        _;\n    }\n\n    function beginAuction(\n        uint256 _tokenID,\n        uint256 _minBid,\n        uint256 _duration\n    ) external notOnBid(_tokenID) returns (bool success) {\n        require(\n            ownerOf(_tokenID) == msg.sender,\n            \"Only Owner Can Begin a Auction.\"\n        );\n\n        updateStatus(_tokenID, Status.OnBid);\n        updatePrice(_tokenID, _minBid);\n\n        uint256 _endTime = block.timestamp + _duration;\n\n        Auction memory newAuction = Auction(\n            _tokenID,\n            _minBid,\n            _minBid,\n            \n            payable(msg.sender),\n            _endTime,\n            false,\n            false\n        );\n\n        auctions[_tokenID] = newAuction;\n        return true;\n    }\n\n    function bid(uint256 auctionID, uint256 newBid)\n        external\n        returns (bool success)\n    {\n        Auction storage auction = auctions[auctionID];\n        require(!auction.ended, \"Auction already ended.\");\n        require(newBid > auction.highestBid, \"Lower bid? Joking.\");\n\n        updatePrice(auction.imageID, newBid);\n\n        auction.winner = payable(msg.sender);\n        auction.highestBid = newBid;\n\n        bidInfo[auctionID][msg.sender] = newBid;\n        return true;\n    }\n\n    function endAuction(uint256 auctionID) external returns (bool success) {\n        require(\n            ownerOf(auctionID) == msg.sender,\n            \"Only Owner Can End a Auction.\"\n        );\n\n        Auction storage auction = auctions[auctionID];\n        require(block.timestamp >= auction.endTime, \"Not end time.\");\n        require(!auction.ended, \"Already Ended.\");\n\n        updateStatus(auction.imageID, Status.WaittingClaim);\n        auction.ended = true;\n        return true;\n    }\n\n    function claim(uint256 auctionID) external payable {\n        Auction storage auction = auctions[auctionID];\n\n        require(auction.ended, \"Auction not ended yet.\");\n        require(!auction.claimed, \"Auction already claimed.\");\n        require(auction.winner == msg.sender, \"Can only be claimed by winner.\");\n\n        address owner = ownerOf(auction.imageID);\n        payable(owner).transfer(msg.value);\n        updateOwner(auction.imageID, msg.sender);\n        updateStatus(auction.imageID, Status.OffBid);\n    }\n}",
  "sourcePath": "/home/park/a/const/contracts/ImageNFTAuction.sol",
  "compiler": {
    "name": "solc",
    "version": "0.8.13+commit.abaa5c0e.Emscripten.clang"
  },
  "schemaVersion": "3.4.5",
  "updatedAt": "2022-04-07T00:53:58.870Z",
  "devdoc": {
    "kind": "dev",
    "methods": {
      "approve(address,uint256)": {
        "details": "See {IERC721-approve}."
      },
      "balanceOf(address)": {
        "details": "See {IERC721-balanceOf}."
      },
      "getApproved(uint256)": {
        "details": "See {IERC721-getApproved}."
      },
      "isApprovedForAll(address,address)": {
        "details": "See {IERC721-isApprovedForAll}."
      },
      "name()": {
        "details": "See {IERC721Metadata-name}."
      },
      "ownerOf(uint256)": {
        "details": "See {IERC721-ownerOf}."
      },
      "safeTransferFrom(address,address,uint256)": {
        "details": "See {IERC721-safeTransferFrom}."
      },
      "safeTransferFrom(address,address,uint256,bytes)": {
        "details": "See {IERC721-safeTransferFrom}."
      },
      "setApprovalForAll(address,bool)": {
        "details": "See {IERC721-setApprovalForAll}."
      },
      "supportsInterface(bytes4)": {
        "details": "See {IERC165-supportsInterface}."
      },
      "symbol()": {
        "details": "See {IERC721Metadata-symbol}."
      },
      "tokenURI(uint256)": {
        "details": "See {IERC721Metadata-tokenURI}."
      },
      "transferFrom(address,address,uint256)": {
        "details": "See {IERC721-transferFrom}."
      }
    },
    "version": 1
  },
  "userdoc": {
    "kind": "user",
    "methods": {},
    "version": 1
  }
}