{
  "contractName": "NFTMarketplace",
  "abi": [
    {
      "inputs": [
        {
          "internalType": "address",
          "name": "_nftCollection",
          "type": "address"
        }
      ],
      "stateMutability": "nonpayable",
      "type": "constructor"
    },
    {
      "anonymous": false,
      "inputs": [
        {
          "indexed": false,
          "internalType": "address",
          "name": "user",
          "type": "address"
        },
        {
          "indexed": false,
          "internalType": "uint256",
          "name": "amount",
          "type": "uint256"
        }
      ],
      "name": "ClaimFunds",
      "type": "event"
    },
    {
      "anonymous": false,
      "inputs": [
        {
          "indexed": false,
          "internalType": "uint256",
          "name": "offerId",
          "type": "uint256"
        },
        {
          "indexed": false,
          "internalType": "uint256",
          "name": "id",
          "type": "uint256"
        },
        {
          "indexed": false,
          "internalType": "address",
          "name": "user",
          "type": "address"
        },
        {
          "indexed": false,
          "internalType": "uint256",
          "name": "price",
          "type": "uint256"
        },
        {
          "indexed": false,
          "internalType": "bool",
          "name": "fulfilled",
          "type": "bool"
        },
        {
          "indexed": false,
          "internalType": "bool",
          "name": "cancelled",
          "type": "bool"
        }
      ],
      "name": "Offer",
      "type": "event"
    },
    {
      "anonymous": false,
      "inputs": [
        {
          "indexed": false,
          "internalType": "uint256",
          "name": "offerId",
          "type": "uint256"
        },
        {
          "indexed": false,
          "internalType": "uint256",
          "name": "id",
          "type": "uint256"
        },
        {
          "indexed": false,
          "internalType": "address",
          "name": "owner",
          "type": "address"
        }
      ],
      "name": "OfferCancelled",
      "type": "event"
    },
    {
      "anonymous": false,
      "inputs": [
        {
          "indexed": false,
          "internalType": "uint256",
          "name": "offerId",
          "type": "uint256"
        },
        {
          "indexed": false,
          "internalType": "uint256",
          "name": "id",
          "type": "uint256"
        },
        {
          "indexed": false,
          "internalType": "address",
          "name": "newOwner",
          "type": "address"
        }
      ],
      "name": "OfferFilled",
      "type": "event"
    },
    {
      "stateMutability": "nonpayable",
      "type": "fallback"
    },
    {
      "inputs": [],
      "name": "offerCount",
      "outputs": [
        {
          "internalType": "uint256",
          "name": "",
          "type": "uint256"
        }
      ],
      "stateMutability": "view",
      "type": "function",
      "constant": true
    },
    {
      "inputs": [
        {
          "internalType": "uint256",
          "name": "",
          "type": "uint256"
        }
      ],
      "name": "offers",
      "outputs": [
        {
          "internalType": "uint256",
          "name": "offerId",
          "type": "uint256"
        },
        {
          "internalType": "uint256",
          "name": "id",
          "type": "uint256"
        },
        {
          "internalType": "address",
          "name": "user",
          "type": "address"
        },
        {
          "internalType": "uint256",
          "name": "price",
          "type": "uint256"
        },
        {
          "internalType": "bool",
          "name": "fulfilled",
          "type": "bool"
        },
        {
          "internalType": "bool",
          "name": "cancelled",
          "type": "bool"
        }
      ],
      "stateMutability": "view",
      "type": "function",
      "constant": true
    },
    {
      "inputs": [
        {
          "internalType": "address",
          "name": "",
          "type": "address"
        }
      ],
      "name": "userFunds",
      "outputs": [
        {
          "internalType": "uint256",
          "name": "",
          "type": "uint256"
        }
      ],
      "stateMutability": "view",
      "type": "function",
      "constant": true
    },
    {
      "inputs": [
        {
          "internalType": "uint256",
          "name": "_id",
          "type": "uint256"
        },
        {
          "internalType": "uint256",
          "name": "_price",
          "type": "uint256"
        }
      ],
      "name": "makeOffer",
      "outputs": [],
      "stateMutability": "nonpayable",
      "type": "function"
    },
    {
      "inputs": [
        {
          "internalType": "uint256",
          "name": "_offerId",
          "type": "uint256"
        }
      ],
      "name": "fillOffer",
      "outputs": [],
      "stateMutability": "payable",
      "type": "function",
      "payable": true
    },
    {
      "inputs": [
        {
          "internalType": "uint256",
          "name": "_offerId",
          "type": "uint256"
        }
      ],
      "name": "cancelOffer",
      "outputs": [],
      "stateMutability": "nonpayable",
      "type": "function"
    },
    {
      "inputs": [],
      "name": "claimFunds",
      "outputs": [],
      "stateMutability": "nonpayable",
      "type": "function"
    }
  ],
  "bytecode": "0x60806040523480156200001157600080fd5b506040516200159e3803806200159e8339818101604052810190620000379190620000e9565b80600360006101000a81548173ffffffffffffffffffffffffffffffffffffffff021916908373ffffffffffffffffffffffffffffffffffffffff160217905550506200011b565b600080fd5b600073ffffffffffffffffffffffffffffffffffffffff82169050919050565b6000620000b18262000084565b9050919050565b620000c381620000a4565b8114620000cf57600080fd5b50565b600081519050620000e381620000b8565b92915050565b6000602082840312156200010257620001016200007f565b5b60006200011284828501620000d2565b91505092915050565b611473806200012b6000396000f3fe6080604052600436106100745760003560e01c806385dba8611161004e57806385dba861146101185780638a72ea6a14610134578063ac30777314610176578063ef706adf1461018d57610075565b806305b7cdd3146100875780631115c24d146100b05780638387c6e1146100db57610075565b5b34801561008157600080fd5b50600080fd5b34801561009357600080fd5b506100ae60048036038101906100a99190610c1f565b6101b6565b005b3480156100bc57600080fd5b506100c56103ad565b6040516100d29190610c6e565b60405180910390f35b3480156100e757600080fd5b5061010260048036038101906100fd9190610ce7565b6103b3565b60405161010f9190610c6e565b60405180910390f35b610132600480360381019061012d9190610d14565b6103cb565b005b34801561014057600080fd5b5061015b60048036038101906101569190610d14565b610713565b60405161016d96959493929190610d6b565b60405180910390f35b34801561018257600080fd5b5061018b610789565b005b34801561019957600080fd5b506101b460048036038101906101af9190610d14565b610950565b005b600360009054906101000a900473ffffffffffffffffffffffffffffffffffffffff1673ffffffffffffffffffffffffffffffffffffffff166323b872dd3330856040518463ffffffff1660e01b815260040161021593929190610dcc565b600060405180830381600087803b15801561022f57600080fd5b505af1158015610243573d6000803e3d6000fd5b5050505060008081548092919061025990610e32565b91905055506040518060c0016040528060005481526020018381526020013373ffffffffffffffffffffffffffffffffffffffff168152602001828152602001600015158152602001600015158152506001600080548152602001908152602001600020600082015181600001556020820151816001015560408201518160020160006101000a81548173ffffffffffffffffffffffffffffffffffffffff021916908373ffffffffffffffffffffffffffffffffffffffff1602179055506060820151816003015560808201518160040160006101000a81548160ff02191690831515021790555060a08201518160040160016101000a81548160ff0219169083151502179055509050507f93e711896d4ef527d199d7e101922e20f918cbb248a0fb0977c52fda24aa1f1d6000548333846000806040516103a196959493929190610d6b565b60405180910390a15050565b60005481565b60026020528060005260406000206000915090505481565b600060016000838152602001908152602001600020905081816000015414610428576040517f08c379a000000000000000000000000000000000000000000000000000000000815260040161041f90610ed7565b60405180910390fd5b3373ffffffffffffffffffffffffffffffffffffffff168160020160009054906101000a900473ffffffffffffffffffffffffffffffffffffffff1673ffffffffffffffffffffffffffffffffffffffff16036104ba576040517f08c379a00000000000000000000000000000000000000000000000000000000081526004016104b190610f69565b60405180910390fd5b8060040160009054906101000a900460ff161561050c576040517f08c379a000000000000000000000000000000000000000000000000000000000815260040161050390610ffb565b60405180910390fd5b8060040160019054906101000a900460ff161561055e576040517f08c379a00000000000000000000000000000000000000000000000000000000081526004016105559061108d565b60405180910390fd5b806003015434146105a4576040517f08c379a000000000000000000000000000000000000000000000000000000000815260040161059b9061111f565b60405180910390fd5b600360009054906101000a900473ffffffffffffffffffffffffffffffffffffffff1673ffffffffffffffffffffffffffffffffffffffff166323b872dd303384600101546040518463ffffffff1660e01b815260040161060793929190610dcc565b600060405180830381600087803b15801561062157600080fd5b505af1158015610635573d6000803e3d6000fd5b5050505060018160040160006101000a81548160ff02191690831515021790555034600260008360020160009054906101000a900473ffffffffffffffffffffffffffffffffffffffff1673ffffffffffffffffffffffffffffffffffffffff1673ffffffffffffffffffffffffffffffffffffffff16815260200190815260200160002060008282546106c9919061113f565b925050819055507fd9157c065213ada613694e84b1e27fe2efd62d85c6b82bd6c842a4999491e72a8282600101543360405161070793929190611195565b60405180910390a15050565b60016020528060005260406000206000915090508060000154908060010154908060020160009054906101000a900473ffffffffffffffffffffffffffffffffffffffff16908060030154908060040160009054906101000a900460ff16908060040160019054906101000a900460ff16905086565b6000600260003373ffffffffffffffffffffffffffffffffffffffff1673ffffffffffffffffffffffffffffffffffffffff168152602001908152602001600020541161080b576040517f08c379a00000000000000000000000000000000000000000000000000000000081526004016108029061123e565b60405180910390fd5b3373ffffffffffffffffffffffffffffffffffffffff166108fc600260003373ffffffffffffffffffffffffffffffffffffffff1673ffffffffffffffffffffffffffffffffffffffff168152602001908152602001600020549081150290604051600060405180830381858888f19350505050158015610890573d6000803e3d6000fd5b507f4f0554190111f93f8c2ccef2cc41473f187d7f29ff5a5c308ca41f9dfe4e989a33600260003373ffffffffffffffffffffffffffffffffffffffff1673ffffffffffffffffffffffffffffffffffffffff1681526020019081526020016000205460405161090192919061125e565b60405180910390a16000600260003373ffffffffffffffffffffffffffffffffffffffff1673ffffffffffffffffffffffffffffffffffffffff16815260200190815260200160002081905550565b6000600160008381526020019081526020016000209050818160000154146109ad576040517f08c379a00000000000000000000000000000000000000000000000000000000081526004016109a490610ed7565b60405180910390fd5b3373ffffffffffffffffffffffffffffffffffffffff168160020160009054906101000a900473ffffffffffffffffffffffffffffffffffffffff1673ffffffffffffffffffffffffffffffffffffffff1614610a3f576040517f08c379a0000000000000000000000000000000000000000000000000000000008152600401610a36906112f9565b60405180910390fd5b600015158160040160009054906101000a900460ff16151514610a97576040517f08c379a0000000000000000000000000000000000000000000000000000000008152600401610a8e9061138b565b60405180910390fd5b600015158160040160019054906101000a900460ff16151514610aef576040517f08c379a0000000000000000000000000000000000000000000000000000000008152600401610ae69061141d565b60405180910390fd5b600360009054906101000a900473ffffffffffffffffffffffffffffffffffffffff1673ffffffffffffffffffffffffffffffffffffffff166323b872dd303384600101546040518463ffffffff1660e01b8152600401610b5293929190610dcc565b600060405180830381600087803b158015610b6c57600080fd5b505af1158015610b80573d6000803e3d6000fd5b5050505060018160040160016101000a81548160ff0219169083151502179055507f5b166b4d0498ff8c4719999cb6154c5d197e6f020f9fbfcf9d347f84576cfab782826001015433604051610bd893929190611195565b60405180910390a15050565b600080fd5b6000819050919050565b610bfc81610be9565b8114610c0757600080fd5b50565b600081359050610c1981610bf3565b92915050565b60008060408385031215610c3657610c35610be4565b5b6000610c4485828601610c0a565b9250506020610c5585828601610c0a565b9150509250929050565b610c6881610be9565b82525050565b6000602082019050610c836000830184610c5f565b92915050565b600073ffffffffffffffffffffffffffffffffffffffff82169050919050565b6000610cb482610c89565b9050919050565b610cc481610ca9565b8114610ccf57600080fd5b50565b600081359050610ce181610cbb565b92915050565b600060208284031215610cfd57610cfc610be4565b5b6000610d0b84828501610cd2565b91505092915050565b600060208284031215610d2a57610d29610be4565b5b6000610d3884828501610c0a565b91505092915050565b610d4a81610ca9565b82525050565b60008115159050919050565b610d6581610d50565b82525050565b600060c082019050610d806000830189610c5f565b610d8d6020830188610c5f565b610d9a6040830187610d41565b610da76060830186610c5f565b610db46080830185610d5c565b610dc160a0830184610d5c565b979650505050505050565b6000606082019050610de16000830186610d41565b610dee6020830185610d41565b610dfb6040830184610c5f565b949350505050565b7f4e487b7100000000000000000000000000000000000000000000000000000000600052601160045260246000fd5b6000610e3d82610be9565b91507fffffffffffffffffffffffffffffffffffffffffffffffffffffffffffffffff8203610e6f57610e6e610e03565b5b600182019050919050565b600082825260208201905092915050565b7f546865206f66666572206d757374206578697374000000000000000000000000600082015250565b6000610ec1601483610e7a565b9150610ecc82610e8b565b602082019050919050565b60006020820190508181036000830152610ef081610eb4565b9050919050565b7f546865206f776e6572206f6620746865206f666665722063616e6e6f7420666960008201527f6c6c206974000000000000000000000000000000000000000000000000000000602082015250565b6000610f53602583610e7a565b9150610f5e82610ef7565b604082019050919050565b60006020820190508181036000830152610f8281610f46565b9050919050565b7f416e206f666665722063616e6e6f742062652066756c66696c6c65642074776960008201527f6365000000000000000000000000000000000000000000000000000000000000602082015250565b6000610fe5602283610e7a565b9150610ff082610f89565b604082019050919050565b6000602082019050818103600083015261101481610fd8565b9050919050565b7f412063616e63656c6c6564206f666665722063616e6e6f742062652066756c6660008201527f696c6c6564000000000000000000000000000000000000000000000000000000602082015250565b6000611077602583610e7a565b91506110828261101b565b604082019050919050565b600060208201905081810360008301526110a68161106a565b9050919050565b7f5468652045544820616d6f756e742073686f756c64206d61746368207769746860008201527f20746865204e4654205072696365000000000000000000000000000000000000602082015250565b6000611109602e83610e7a565b9150611114826110ad565b604082019050919050565b60006020820190508181036000830152611138816110fc565b9050919050565b600061114a82610be9565b915061115583610be9565b9250827fffffffffffffffffffffffffffffffffffffffffffffffffffffffffffffffff0382111561118a57611189610e03565b5b828201905092915050565b60006060820190506111aa6000830186610c5f565b6111b76020830185610c5f565b6111c46040830184610d41565b949350505050565b7f54686973207573657220686173206e6f2066756e647320746f20626520636c6160008201527f696d656400000000000000000000000000000000000000000000000000000000602082015250565b6000611228602483610e7a565b9150611233826111cc565b604082019050919050565b600060208201905081810360008301526112578161121b565b9050919050565b60006040820190506112736000830185610d41565b6112806020830184610c5f565b9392505050565b7f546865206f666665722063616e206f6e6c792062652063616e63656c6564206260008201527f7920746865206f776e6572000000000000000000000000000000000000000000602082015250565b60006112e3602b83610e7a565b91506112ee82611287565b604082019050919050565b60006020820190508181036000830152611312816112d6565b9050919050565b7f412066756c66696c6c6564206f666665722063616e6e6f742062652063616e6360008201527f656c6c6564000000000000000000000000000000000000000000000000000000602082015250565b6000611375602583610e7a565b915061138082611319565b604082019050919050565b600060208201905081810360008301526113a481611368565b9050919050565b7f416e206f666665722063616e6e6f742062652063616e63656c6c65642074776960008201527f6365000000000000000000000000000000000000000000000000000000000000602082015250565b6000611407602283610e7a565b9150611412826113ab565b604082019050919050565b60006020820190508181036000830152611436816113fa565b905091905056fea2646970667358221220e77e824c605a6c493baa2b2a63d13edaf78bc260b71b92cee6190b67be931b5d64736f6c634300080d0033",
  "immutableReferences": {},
  "source": "// SPDX-License-Identifier: MIT\npragma solidity ^0.8.0;\n\nimport \"./NFTCollection.sol\";\n\ncontract NFTMarketplace {\n  uint public offerCount;\n  mapping (uint => _Offer) public offers;\n  mapping (address => uint) public userFunds;\n  NFTCollection nftCollection;\n  \n  struct _Offer {\n    uint offerId;\n    uint id;\n    address user;\n    uint price;\n    bool fulfilled;\n    bool cancelled;\n  }\n\n  event Offer(\n    uint offerId,\n    uint id,\n    address user,\n    uint price,\n    bool fulfilled,\n    bool cancelled\n  );\n\n  event OfferFilled(uint offerId, uint id, address newOwner);\n  event OfferCancelled(uint offerId, uint id, address owner);\n  event ClaimFunds(address user, uint amount);\n\n  constructor(address _nftCollection) {\n    nftCollection = NFTCollection(_nftCollection);\n  }\n  \n  function makeOffer(uint _id, uint _price) public {\n    nftCollection.transferFrom(msg.sender, address(this), _id);\n    offerCount ++;\n    offers[offerCount] = _Offer(offerCount, _id, msg.sender, _price, false, false);\n    emit Offer(offerCount, _id, msg.sender, _price, false, false);\n  }\n\n  function fillOffer(uint _offerId) public payable {\n    _Offer storage _offer = offers[_offerId];\n    require(_offer.offerId == _offerId, 'The offer must exist');\n    require(_offer.user != msg.sender, 'The owner of the offer cannot fill it');\n    require(!_offer.fulfilled, 'An offer cannot be fulfilled twice');\n    require(!_offer.cancelled, 'A cancelled offer cannot be fulfilled');\n    require(msg.value == _offer.price, 'The ETH amount should match with the NFT Price');\n    nftCollection.transferFrom(address(this), msg.sender, _offer.id);\n    _offer.fulfilled = true;\n    userFunds[_offer.user] += msg.value;\n    emit OfferFilled(_offerId, _offer.id, msg.sender);\n  }\n\n  function cancelOffer(uint _offerId) public {\n    _Offer storage _offer = offers[_offerId];\n    require(_offer.offerId == _offerId, 'The offer must exist');\n    require(_offer.user == msg.sender, 'The offer can only be canceled by the owner');\n    require(_offer.fulfilled == false, 'A fulfilled offer cannot be cancelled');\n    require(_offer.cancelled == false, 'An offer cannot be cancelled twice');\n    nftCollection.transferFrom(address(this), msg.sender, _offer.id);\n    _offer.cancelled = true;\n    emit OfferCancelled(_offerId, _offer.id, msg.sender);\n  }\n\n  function claimFunds() public {\n    require(userFunds[msg.sender] > 0, 'This user has no funds to be claimed');\n    payable(msg.sender).transfer(userFunds[msg.sender]);\n    emit ClaimFunds(msg.sender, userFunds[msg.sender]);\n    userFunds[msg.sender] = 0;    \n  }\n\n  // Fallback: reverts if Ether is sent to this smart-contract by mistake\n  fallback () external {\n    revert();\n  }\n}",
  "sourcePath": "/Users/hangyeonghyeon/Desktop/const/contracts/NFTMarketplace.sol",
  "compiler": {
    "name": "solc",
    "version": "0.8.13+commit.abaa5c0e.Emscripten.clang"
  },
  "schemaVersion": "3.4.6",
  "updatedAt": "2022-04-13T05:38:55.713Z",
  "networkType": "ethereum",
  "devdoc": {
    "kind": "dev",
    "methods": {},
    "version": 1
  },
  "userdoc": {
    "kind": "user",
    "methods": {},
    "version": 1
  }
}