{
  "contractName": "Tickets",
  "abi": [
    {
      "inputs": [],
      "stateMutability": "nonpayable",
      "type": "constructor"
    },
    {
      "inputs": [],
      "name": "owner",
      "outputs": [
        {
          "internalType": "address",
          "name": "",
          "type": "address"
        }
      ],
      "stateMutability": "view",
      "type": "function",
      "constant": true
    },
    {
      "inputs": [
        {
          "internalType": "uint256",
          "name": "",
          "type": "uint256"
        }
      ],
      "name": "tickets",
      "outputs": [
        {
          "internalType": "uint256",
          "name": "price",
          "type": "uint256"
        },
        {
          "internalType": "address",
          "name": "owner",
          "type": "address"
        }
      ],
      "stateMutability": "view",
      "type": "function",
      "constant": true
    },
    {
      "inputs": [
        {
          "internalType": "uint256",
          "name": "_index",
          "type": "uint256"
        }
      ],
      "name": "buyTicket",
      "outputs": [],
      "stateMutability": "payable",
      "type": "function",
      "payable": true
    }
  ],
  "bytecode": "0x6080604052336000806101000a81548173ffffffffffffffffffffffffffffffffffffffff021916908373ffffffffffffffffffffffffffffffffffffffff16021790555034801561005057600080fd5b5060005b600381101561010a5760018161006a9190610149565b67016345785d8a000061007d919061019f565b60018260038110610091576100906101f9565b5b60020201600001819055506000600182600381106100b2576100b16101f9565b5b6002020160010160006101000a81548173ffffffffffffffffffffffffffffffffffffffff021916908373ffffffffffffffffffffffffffffffffffffffff160217905550808061010290610228565b915050610054565b50610270565b6000819050919050565b7f4e487b7100000000000000000000000000000000000000000000000000000000600052601160045260246000fd5b600061015482610110565b915061015f83610110565b9250827fffffffffffffffffffffffffffffffffffffffffffffffffffffffffffffffff038211156101945761019361011a565b5b828201905092915050565b60006101aa82610110565b91506101b583610110565b9250817fffffffffffffffffffffffffffffffffffffffffffffffffffffffffffffffff04831182151516156101ee576101ed61011a565b5b828202905092915050565b7f4e487b7100000000000000000000000000000000000000000000000000000000600052603260045260246000fd5b600061023382610110565b91507fffffffffffffffffffffffffffffffffffffffffffffffffffffffffffffffff82036102655761026461011a565b5b600182019050919050565b6103a08061027f6000396000f3fe6080604052600436106100345760003560e01c806350b447121461003957806367dd74ca146100775780638da5cb5b14610093575b600080fd5b34801561004557600080fd5b50610060600480360381019061005b919061027a565b6100be565b60405161006e9291906102f7565b60405180910390f35b610091600480360381019061008c919061027a565b610108565b005b34801561009f57600080fd5b506100a861021b565b6040516100b59190610320565b60405180910390f35b600181600381106100ce57600080fd5b600202016000915090508060000154908060010160009054906101000a900473ffffffffffffffffffffffffffffffffffffffff16905082565b600381108015610119575060008110155b61012257600080fd5b600073ffffffffffffffffffffffffffffffffffffffff166001826003811061014e5761014d61033b565b5b6002020160010160009054906101000a900473ffffffffffffffffffffffffffffffffffffffff1673ffffffffffffffffffffffffffffffffffffffff161461019657600080fd5b600181600381106101aa576101a961033b565b5b60020201600001543410156101be57600080fd5b33600182600381106101d3576101d261033b565b5b6002020160010160006101000a81548173ffffffffffffffffffffffffffffffffffffffff021916908373ffffffffffffffffffffffffffffffffffffffff16021790555050565b60008054906101000a900473ffffffffffffffffffffffffffffffffffffffff1681565b600080fd5b6000819050919050565b61025781610244565b811461026257600080fd5b50565b6000813590506102748161024e565b92915050565b6000602082840312156102905761028f61023f565b5b600061029e84828501610265565b91505092915050565b6102b081610244565b82525050565b600073ffffffffffffffffffffffffffffffffffffffff82169050919050565b60006102e1826102b6565b9050919050565b6102f1816102d6565b82525050565b600060408201905061030c60008301856102a7565b61031960208301846102e8565b9392505050565b600060208201905061033560008301846102e8565b92915050565b7f4e487b7100000000000000000000000000000000000000000000000000000000600052603260045260246000fdfea2646970667358221220bf382ea8f60ac6818e9c38b2698f52b4f368c016ad1fab47f6feac45eed9980664736f6c634300080d0033",
  "immutableReferences": {},
  "source": "\r\n  \r\n// SPDX-License-Identifier: MIT\r\npragma solidity >=0.8.0 <0.9.0;\r\n\r\nuint256 constant TOTAL_TICKETS = 3;\r\n\r\ncontract Tickets {\r\n  address public owner = msg.sender;\r\n\r\n  struct Ticket {\r\n    uint256 price;\r\n    address owner;\r\n  }\r\n\r\n  Ticket[TOTAL_TICKETS] public tickets;\r\n\r\n  constructor() {\r\n    for (uint256 i = 0; i < TOTAL_TICKETS; i++) {\r\n      tickets[i].price = 1e17*(i+1); // 0.1 ETH\r\n      tickets[i].owner = address(0x0); // not defined\r\n    }\r\n  }\r\n\r\n  function buyTicket(uint256 _index) external payable {\r\n    require(_index < TOTAL_TICKETS && _index >= 0);\r\n    require(tickets[_index].owner == address(0x0));\r\n    require(msg.value >= tickets[_index].price);\r\n    tickets[_index].owner = msg.sender;\r\n  }\r\n}",
  "sourcePath": "C:\\Users\\Administrator\\Documents\\GitHub\\const\\contracts\\b.sol",
  "compiler": {
    "name": "solc",
    "version": "0.8.13+commit.abaa5c0e.Emscripten.clang"
  },
  "schemaVersion": "3.4.7",
  "updatedAt": "2022-04-19T03:16:34.919Z",
  "networkType": "ethereum",
  "devdoc": {
    "kind": "dev",
    "methods": {},
    "version": 1
  },
  "userdoc": {
    "kind": "user",
    "methods": {},
    "version": 1
  }
}